:100000000C94F5020C94061D0C94331D0C94601D89
:100010000C948D1D0C941D030C941D030C94BA1D9F
:100020000C941D030C941D030C941E270C94EA25BC
:100030000C941D030C941D030C941D030C941D03C0
:100040000C941D030C941D030C941D030C941D03B0
:100050000C941D030C941D030C941D030C94E71DBC
:100060000C941D030C94D8210C940A220C941D03AB
:100070000C941D030C941D030C941D030C941D0380
:100080000C941D030C941D030C941D030C941D0370
:100090000C941D030C941D030C941D030C941D0360
:1000A0000C941D030C941D030C941D03E90FED0F1C
:1000B000F10FF50F121012101210F80F0710121096
:1000C000121012101210121012100B101210121027
:1000D0001210121012100F10F61EF91EE81EEC1E60
:1000E000F21E1A1F1A1F1A1FFD1E011F051F0B1FCC
:1000F0000F1F1A1F151F227D007B226576656E7407
:10010000223A22656570726F6D222C202264617420
:1001100061223A2200227D00222C20226E65787412
:100120005478427566666572223A2200222C20229B
:100130006572726F7254657874223A2200222C2004
:10014000226572726F72223A2200222C202273746E
:1001500061747573223A2200222C202263616E633F
:1001600074726C223A22007B226576656E74223AA4
:1001700022627573646267222C20226E616D652293
:100180003A22004E6F204572726F7273005265639F
:1001900065697665204275666665722031204F7606
:1001A0006572666C6F772C200052656365697665B1
:1001B000204275666665722030204F766572666CE7
:1001C0006F772C2000427573204F6666202D2054D7
:1001D0004543206578636565646564203235352C58
:1001E00020005472616E736D6974204572726F7273
:1001F000205761726E696E67202D20544543203E62
:100200003D203132382C20005265636569766520C7
:100210004572726F72205761726E696E67202D2071
:10022000524543203E3D203132382C20005472612B
:100230006E736D6974204572726F72205761726EB1
:10024000696E67202D20544558203E3D2039362CBC
:10025000200052656365697665204572726F722071
:100260005761726E696E67202D20524543203E3DD6
:100270002039362C20005265636569766520457209
:10028000726F72205761726E696E67202D2054451F
:1002900043206F7220524543203E3D2039362C20AA
:1002A00000227D00227D007B226576656E74223AF5
:1002B00022656570726F6D44617461222C20227218
:1002C0006573756C74223A226661696C7572652279
:1002D0002C20226368756E6B223A22007B226576A1
:1002E000656E74223A22656570726F6D5361766532
:1002F000222C2022726573756C74223A2273756306
:1003000063657373227D00227D007B226576656EB6
:1003100074223A22656570726F6D44617461222C9B
:100320002022726573756C74223A2273756363655B
:100330007373222C20226368756E6B223A22007D33
:1003400000222C202272617465223A007B2265769D
:10035000656E74223A22626974726174652D6275E9
:1003600073007B226576656E74223A226175746F24
:1003700062617564436F6D706C657465222C202218
:1003800072617465223A007B226576656E74223A4A
:10039000226175746F6261756454657374222C20D8
:1003A0002272617465223A007B226576656E742242
:1003B0003A22656570726F6D5265736574222C20E8
:1003C00022726573756C74223A2273756363657368
:1003D00073227D000000000200090F0000030401E9
:1003E000000C000000000000000000000000000001
:1003F000000004080201104080401020408040802E
:1004000008020401804020100201108010204040AA
:1004100004040404040304050202020204030202A9
:100420000202060606060606040402020204000092
:1004300000002300260029002C002F0000000000EF
:10044000250028002B002E003100000000002400B1
:1004500027002A002D003000080B000202020100D4
:100460000904000001020200000524001001052417
:100470000101010424020605240600010705810389
:1004800010004009040100020A00000007050202F2
:100490004000000705830240000000C18081C112B6
:1004A00001000202000040412336800001010200E9
:1004B00001120100020000004041233680000101CA
:1004C00002000141726475696E6F204C4C43004319
:1004D000414E42757320547269706C6500040309C3
:1004E0000400000000000000002A2B28000000008B
:1004F00000000000000000000000000000000000FC
:10050000002C9EB4A0A1A2A434A6A7A5AE362D3778
:1005100038271E1F20212223242526B333B62EB7C9
:10052000B89F8485868788898A8B8C8D8E8F9091E1
:1005300092939495969798999A9B9C9D2F3130A36E
:10054000AD350405060708090A0B0C0D0E0F101136
:1005500012131415161718191A1B1C1DAFB1B0B5BC
:10056000000904020001030000000921010100014B
:100570002265000705840340000105010902A1016D
:100580000901A100850105091901290315002501AB
:1005900095037501810295017505810305010930F7
:1005A000093109381581257F750895038106C0C07A
:1005B00005010906A1018502050719E029E71500D3
:1005C000250175019508810295017508810395063D
:1005D0007508150025650507190029658100C0000B
:1005E000961676203A22C6292A1711241FBECFEF6D
:1005F000DAE0DEBFCDBF12E0A0E0B1E0EEE5FDE560
:1006000002C005900D92A637B107D9F726E0A6E7FC
:10061000B2E001C01D92A433B207E1F715E0C8EEC5
:10062000D5E004C02297FE010E94222CC03ED107D3
:10063000C9F70E947E220C94A22E0C94000008950B
:1006400008952F923F924F925F926F927F928F9276
:100650009F92AF92BF92CF92DF92EF92FF920F9351
:100660001F93CF93DF93CDB7DEB72E970FB6F894D5
:10067000DEBF0FBECDBF4C01798768876A01DB0101
:100680001496ED91FC9115978081E82FF0E0FB879F
:10069000EA87F2E28F9F8001112407521D4FE12C5F
:1006A000F12C8F5F8C87A885B9851496ED91FC910C
:1006B0001597808190E001962A853B852E0D3F1D80
:1006C000821793070CF4BBC0980129513109F80136
:1006D000759780813196811104C09081992309F426
:1006E000A8C090E0982F88274081840F911D08961C
:1006F000D60111964D915C9112974817590709F050
:1007000098C080E090E0F901E80FF91F4485442388
:1007100059F0D601A40FB11D5C914585541389C0D1
:1007200002968630910579F7F80137978081869592
:10073000869586958250F601E80FF11D6381D801F8
:1007400016978C9170E0803129F4762F662784818A
:10075000680F711DF8013597A080B12CBA2CAA241E
:1007600031968081A80EB11C3196208130E0322F65
:10077000222731968081280F311D31962080312C1F
:10078000322C2224F8018081280E311C21153105DC
:1007900011F421E030E080E090E02D873E870E9458
:1007A000D52A2B013C012D853E85B90180E090E0E2
:1007B0000E94D52A9B01AC01C301B2010E943C2AD0
:1007C0002B013C01B50180E090E00E94D52A9B01FD
:1007D000AC01C301B2010E94872B2B013C01B10186
:1007E00080E090E00E94D52A9B01AC01C301B201D8
:1007F0000E94D4290E94A92AF8017797208131818B
:1008000026173707B1F071836083F7EEF98323E889
:100810002A832C852E0D2B837C836D833DE03E83C4
:100820008AE08F83BE016F5F7F4F8DE795E00E9466
:10083000EE229FEFE91AF90A0E5D1F4F34CF80E1D7
:10084000F601D40101900D928A95E1F7C4012E962C
:100850000FB6F894DEBF0FBECDBFDF91CF911F91D1
:100860000F91FF90EF90DF90CF90BF90AF909F904F
:100870008F907F906F905F904F903F902F90089552
:1008800061E08DE00E941B1F61E08DE00E94541F1B
:100890006AEF70E080E090E00E94601E60E08DE012
:1008A0000E94541F6AEF70E080E090E00E94601E9A
:1008B000EBCF009711F00E941D230E9440046115A8
:1008C000710581F0DB010D900020E9F7AD01415089
:1008D0005109461B570BDC01ED91FC910280F3811D
:1008E000E02D099480E090E008950F931F93CF933B
:1008F000DF93EC018B01FB018081918199838883D7
:10090000828193819B838A836C5F7F4FCE010496A3
:100910000E942D28F801828593859B878A87DF9125
:10092000CF911F910F9108954EE152E060E070E089
:100930000C94532E9FEF980F933078F416161706E9
:1009400064F4E82FF0E0EE0FFF1FE055FD4F7483D5
:10095000638382EB92E00C94940408959FEF980FC8
:10096000933048F4E82FF0E0EE0FFF1FE055FD4F05
:1009700083819481089580E090E00895CF93DF9380
:10098000C0E0D0E040E0BE0189E195E00E94E117BF
:100990002196C11582E0D807A9F7DF91CF9108957C
:1009A0002F923F924F925F926F927F928F929F927F
:1009B000AF92BF92CF92DF92EF92FF920F931F936D
:1009C000CF93DF93CDB7DEB7C052D2400FB6F894C5
:1009D000DEBF0FBECDBF0E94BE049E012F5F3F4F02
:1009E000C15EDD4F39832883CF51D2408EE192E042
:1009F000F9019C01119221503040E1F731E0398337
:100A00003A838DE790E09D838C839F838E839987C3
:100A1000888762E06F8757E05B8BE0EEEC8B3D8B65
:100A20008CE38E8B44E04B8FF1E4FC8F25E02D8F1F
:100A30008E8F78E279A390E1F92EFAA23CA38AE0A6
:100A40008EA38FEF8FA3A8ED8A2E88A6B5E4EB2E98
:100A5000E9A617E4B12EBAA604E5D02EDBA690E2F3
:100A60009CA79DA79EA79FA798AB69AB3AAB5DAB30
:100A7000EEAB3FABA4E3A8AF4DAFFEAF2FAF2196D7
:100A8000AFAF219724967FAF24972596FFAE259789
:100A90007FE027967FAF27977DE028967FAF289746
:100AA00029969FAF29972C96FFAF2C9776E4972E27
:100AB0002D969FAE2D972E969FAF2E972F969FAF78
:100AC0002F9760969FAF609761969FAF61976296F0
:100AD0009FAF629763969FAF639764966FAF64977B
:100AE00065963FAF659768965FAF68976996EFAF79
:100AF000699702E26A960FAF6A977AED6B967FAFBD
:100B00006B97A5E86C96AFAF6C97A0964FAFA09788
:100B100012E6A1961FAFA197A2962FAFA297A39618
:100B20007FAFA39776E0A4967FAFA497A596AFAFCB
:100B3000A597A0E3A696AFAFA697B8E07B2EA796A1
:100B40007FAEA797B7E1A996BFAFA997B4E14B2EA7
:100B5000AB964FAEAB97AE96FFAFAE97AF969FAE4C
:100B6000AF97B2E5CB2EE096CFAEE097BFE45B2E19
:100B7000E1965FAEE197B2E4E296BFAFE297B4E4EC
:100B80006B2EE3966FAEE397E4969FAFE497E596FE
:100B90009FAFE597E6966FAFE697EA965FAFEA9765
:100BA000EB96EFAFEB97EC960FAFEC97B3E0ED96CB
:100BB000BFAFED970F2EFCEEAF2EF02DEE96AFAE41
:100BC000EE97CF57DF4F4883C158D040CE57DF4F05
:100BD0001883C258D040CD57DF4F2883C358D04028
:100BE000CC57DF4FB883C458D040CB57DF4F788302
:100BF000C558D040CA57DF4FA882C658D040C95701
:100C0000DF4FA883C758D040C857DF4FF882C85875
:100C1000D040C657DF4F3883CA58D040C457DF4F43
:100C20002883CC58D0400F2EFBE4AF2EF02DC157B7
:100C3000DF4FA882CF58D0400F2EFEE43F2EF02D7C
:100C4000C057DF4F3882C059D040CF56DF4F58824F
:100C5000C159D0400F2EF3E45F2EF02DCE56DF4F5A
:100C60005882C259D040CD56DF4FA882C359D040D8
:100C7000CC56DF4F9883C459D040CB56DF4F988372
:100C8000C559D040CA56DF4F9883C659D040C9567F
:100C9000DF4F6883C759D040C556DF4F5883CB59C3
:100CA000D040C456DF4FE883CC59D040C356DF4F05
:100CB0000883CD59D0400F2EF4EF2F2EF02DC256C1
:100CC000DF4F2882CE59D0400F2EF3E23F2EF02D79
:100CD000C156DF4F3882CF59D040CD55DF4F4883C2
:100CE000C35AD040CC55DF4F1883C45AD040CB559F
:100CF000DF4F2883C55AD040CA55DF4F2882C65AD5
:100D0000D040C955DF4F7883C75AD040C855DF4F10
:100D10003882C85AD040C755DF4FA883C95AD0403F
:100D2000C655DF4FF882CA5AD0400F2EFDE13F2E44
:100D3000F02DC455DF4F3882CC5AD040C255DF4F1A
:100D40004882CE5AD040CF54DF4F9882C15BD0400A
:100D50000F2EF0E59F2EF02DCE54DF4F9882C25B10
:100D6000D040CD54DF4FC882C35BD040CC54DF4F5E
:100D70009883C45BD040CB54DF4FA882C55BD04082
:100D8000CA54DF4F9883C65BD040C954DF4F988365
:100D9000C75BD040C854DF4F9883C85BD040C7546E
:100DA000DF4F6883C95BD040C354DF4F5883CD5BAE
:100DB000D040C254DF4FE883CE5BD040C154DF4FF8
:100DC0000883CF5BD040C054DF4FB883C05CD040B5
:100DD0000F2EF8E1AF2EF02DCF53DF4FA882C15C6C
:100DE000D040CB53DF4F4883C55CD040CA53DF4F60
:100DF0001883C65CD040C953DF4F2883C75CD040FE
:100E0000C853DF4FB883C85CD040C753DF4F7883E7
:100E1000C95CD040C653DF4FA882CA5CD040C553DE
:100E2000DF4FA883CB5CD040C453DF4FF882CC5C4B
:100E3000D040C253DF4F7883CE5CD040C053DF4FE9
:100E40003883C05DD040CD52DF4F5882C35DD04063
:100E5000CC52DF4FF883C45DD0403DE4CB52DF4F2E
:100E60003883C55DD040CA52DF4F6882C65DD0402E
:100E7000C952DF4FE882C75DD040C852DF4FB88209
:100E8000C85DD040C752DF4F9883C95DD040C6527D
:100E9000DF4F9883CA5DD040C552DF4F6883CB5D7A
:100EA000D040C152DF4F5883CF5DD04037E3C052AE
:100EB000DF4F3883C05ED040CF51DF4F0883C15E23
:100EC000D04039E5CE51DF4F3883C25ED0400F2E7F
:100ED000FAE6AF2EF02DCD51DF4FA882C35ED04091
:100EE000C951DF4F4883C75ED040C851DF4F1883D8
:100EF000C85ED040C751DF4F2883C95ED040C6517D
:100F0000DF4F3883CA5ED040C551DF4F7883CB5E58
:100F1000D040C451DF4FA882CC5ED040C351DF4FD8
:100F2000A883CD5ED040C251DF4FF882CE5ED04064
:100F30000F2EFBE0FF2EF02DC051DF4FF882C05F77
:100F4000D0400F2EF4E6FF2EF02DCE50DF4FF8826A
:100F5000C25FD040CB50DF4F9882C55FD0400F2E8C
:100F6000F7E5FF2EF02DCA50DF4FF882C65FD04064
:100F7000C950DF4FE882C75FD0400F2EF9E4FF2E43
:100F8000F02DC850DF4FF882C85FD040C750DF4F08
:100F9000B882C95FD0400F2EF8E4FF2EF02DC65066
:100FA000DF4FF882CA5FD040C550DF4FD882CB5F99
:100FB000D040C450DF4F9883CC5FD040C350DF4F48
:100FC0006883CD5FD040CF5FDE4F5883C150D140A2
:100FD000CE5FDE4FE883C250D140CD5FDE4F088345
:100FE000C350D140CC5FDE4FB883C450D1405AECDF
:100FF000CB5FDE4F5883C550D140C75FDE4F48837B
:10100000C950D140C65FDE4F1883CA50D140C55F7A
:10101000DE4F2883CB50D140C45FDE4FB883CC5025
:10102000D140C35FDE4F7883CD50D140C25FDE4FE9
:101030005883CE50D140C15FDE4FA883CF50D140FE
:10104000C05FDE4F7882C051D14049E0CE5EDE4FB6
:101050004883C251D140CC5EDE4F2883C451D14079
:10106000CB5EDE4F8883C551D140CA5EDE4F888299
:10107000C651D140E2E4C95EDE4FE883C751D1409A
:10108000C85EDE4FF883C851D140C75EDE4FD882BC
:10109000C951D140C65EDE4FD882CA51D140C55E2B
:1010A000DE4FE882CB51D140C45EDE4FC882CC51C6
:1010B000D140C35EDE4F3883CD51D140C25EDE4F9A
:1010C0009883CE51D140C15EDE4F8883CF51D1404D
:1010D000C05EDE4F8883C052D140CF5DDE4F888333
:1010E000C152D140CE5DDE4F8883C252D140CD5D2A
:1010F000DE4F8883C352D140CC5DDE4F8883C4521B
:10110000D140CB5DDE4F8883C552D140CA5DDE4FF2
:101110008883C652D140C95DDE4F8883C752D14013
:10112000C85DDE4F8883C852D140C75DDE4F8883DB
:10113000C952D140C65DDE4F8883CA52D140C55DD9
:10114000DE4F8883CB52D140C45DDE4F8883CC52C2
:10115000D140C35DDE4F8883CD52D140C25DDE4FAA
:101160008883CE52D140C15DDE4F8883CF52D140BB
:10117000C05DDE4F8883C053D140CF5CDE4F888393
:10118000C153D140CE5CDE4F8883C253D140CD5C89
:10119000DE4F8883C353D140CC5CDE4F8883C45379
:1011A000D140CB5CDE4F8883C553D140CA5CDE4F53
:1011B0008883C653D140C95CDE4F8883C753D14072
:1011C000C85CDE4F8883C853D140C75CDE4F88833C
:1011D000C953D140C65CDE4F8883CA53D140C55C39
:1011E000DE4F8883CB53D140C45CDE4F8883CC5321
:1011F000D140C35CDE4F8883CD53D140C25CDE4F0B
:101200008883CE53D140CE0101960E9494040E945F
:10121000420968EA73E08DE295E00E940B2306E044
:1012200010E061E08DE00E94541F64EF71E080E007
:1012300090E00E94601E60E08DE00E94541F64EF09
:1012400071E080E090E00E94601E0150110949F7B2
:10125000C05EDD4F0FB6F894DEBF0FBECDBFDF918D
:10126000CF911F910F91FF90EF90DF90CF90BF90A3
:10127000AF909F908F907F906F905F904F903F9036
:101280002F9008958EE192E0E2EBF2E0DF019C0105
:101290001D9221503040E1F74EE152E060E070E0F5
:1012A000CF010E943B2E8091B30281508E3F10F0FF
:1012B0000C94D00408955F926F927F928F929F92C8
:1012C000AF92BF92CF92DF92EF92FF920F931F9354
:1012D000CF93DF93CDB7DEB76E970FB6F894DEBF2E
:1012E0000FBECDBF982E5B018FEF890D833008F0C4
:1012F000D3C0292D30E0215031098CE0829FB0010C
:10130000839F700D112460537B4F7E0183E1E80EB3
:10131000F11CC7010E9475046FE070E0C7010E94D4
:101320004F1B582E6BE270E0C7010E944F1B682EC6
:1013300092E1E2E1F1E0DE01119601900D929A95C1
:10134000E1F7FE0131966F01712C812C67E873E0A3
:10135000C5010E94BB22F601019111916F014AE083
:1013600050E0B801C5010E94D22364E271E0C501DA
:101370000E941D2360E070E0C7010E94EB1965E048
:1013800070E080E090E00E94601EB801C7010E94FA
:10139000561865E070E080E090E00E94601E63E017
:1013A00070E0C7010E94EB1965E070E080E090E01A
:1013B0000E94601E2FEF40E06CE2C7010E9471198D
:1013C00065E070E080E090E00E94601E68EC70E0F4
:1013D00080E090E00E94601E6CE270E0C7010E9415
:1013E0004F1B87FD02C0811102C0072D182DCE149E
:1013F000DF0419F0702E812EA9CF60E070E0C601E5
:101400000E94EB196AE070E080E090E00E94601EAC
:10141000B801C6010E94561861E070E080E090E0DB
:101420000E94601E2FEF452D6FE0C6010E947119CA
:1014300061E070E080E090E00E94601E2FEF462D9A
:101440006BE2C6010E94711961E070E080E090E0FB
:101450000E94601E61E070E0C6010E94EB1962E626
:1014600073E0C5010E94BB224AE050E0B801C5010B
:101470000E94D22364E271E0C5010E941D23011580
:10148000110521F0B801892D0E949A04CE014796DA
:101490000E949227C80102C080E090E06E960FB6CD
:1014A000F894DEBF0FBECDBFDF91CF911F910F919A
:1014B000FF90EF90DF90CF90BF90AF909F908F9074
:1014C0007F906F905F9008950F931F93CF93DF935A
:1014D000EC018B0180E392E099838883CE0108962A
:1014E0000E94FA1C1D830C831F821E828DE295E0F0
:1014F0009B838A83DF91CF911F910F910895CF92A3
:10150000DF92EF92FF920F931F93CF93DF937C01B3
:101510006A01EB0100E010E00C151D05E0F4D701B5
:1015200012968D919C911397DC01ED91FC910480B2
:10153000F581E02D0995892B71F0F7018281938166
:10154000DC01ED91FC910680F781E02D09958993EE
:101550000F5F1F4FE1CFC801DF91CF911F910F9116
:10156000FF90EF90DF90CF9008950F931F93CF934C
:10157000DF9300D000D01F92CDB7DEB78C0145E0DD
:1015800050E0BE016F5F7F4F0E947F0A89818430E7
:1015900080F490E0FC013396EE0FFF1FE00FF11F87
:1015A0002B812083FC01EE0FFF1FE00FF11F8D81C7
:1015B00087830F900F900F900F900F90DF91CF9136
:1015C0001F910F9108950F931F93CF93DF9300D036
:1015D0001F92CDB7DEB78C0143E050E0BE016F5FD4
:1015E0007F4F0E947F0A833051F46A8170E0762F2A
:1015F00066278B81680F711D89810E949A046CE4B3
:1016000073E0F801828193810E94BB224AE050E09E
:101610006981F801828193810E94E72361E473E08C
:10162000F801828193810E94BB2289810E94AE04CD
:101630004AE050E0BC01F801828193810E94D223EC
:101640006FE373E0F801828193810E940B230F9076
:101650000F900F90DF91CF911F910F910895EF920E
:10166000FF920F931F93CF93DF93CDB7DEB76297AF
:101670000FB6F894DEBF0FBECDBF8C01BE01635F15
:101680007F4F86E0DB011D928A95E9F746E050E046
:10169000C8010E947F0A7C012D858FEF820F833065
:1016A00060F0F80182819381DC01ED91FC91019061
:1016B000F081E02D60E8099571C030E021503109DA
:1016C0008CE0829FB001839F700D112460537B4F8B
:1016D000CE0101960E9475042E859D85F8018781B3
:1016E0009150222351F021E030E0092E01C0220F59
:1016F0000A94EAF7282B27830AC021E030E0092E5C
:1017000001C0220F0A94EAF7209528232783B3E02B
:10171000EB16F1046CF160E070E0CE0101960E94DE
:10172000EB19CE0101960E94011C6F8570E028899B
:1017300030E0498950E0EA89F0E0CB01820F931F45
:10174000840F951F8E0F9F1F892B61F0542F442704
:101750004E0F5F1F762F6627620F731FCE01019613
:101760000E94A81B61E070E0CE0101960E94EB1977
:10177000F80182819381DC01ED91FC910190F0816F
:10178000E02D6FEF099566E271E0F80182819381A7
:101790000E945F04CE0105960E94922762960FB6C2
:1017A000F894DEBF0FBECDBFDF91CF911F910F9197
:1017B000FF90EF9008950F931F93CF93DF93CDB7D2
:1017C000DEB7A1970FB6F894DEBF0FBECDBF8C0178
:1017D00042E250E0BE016F5F7F4F0E947F0A829716
:1017E00089F58AA1813A71F5A98180E2A89FD0018B
:1017F0001124AE54BD4F80E2FE01329601900D924D
:101800008A95E1F76AE073E0F801828193810E9492
:10181000BB224AE050E06981F801828193810E94F5
:10182000E72367E073E0F801828193810E940B2334
:1018300089818F30E9F482EB92E00E9494046CED90
:1018400072E011C067EA72E0F801828193810E9420
:10185000BB224AE050E06981F801828193810E94B5
:10186000E72364EA72E0F801828193810E940B23EE
:10187000A1960FB6F894DEBF0FBECDBFDF91CF911A
:101880001F910F9108950F931F93CF93DF931F9292
:10189000CDB7DEB78C0141E050E0BE016F5F7F4FF6
:1018A0000E947F0A8981823029F08330F1F4F801A7
:1018B00016821BC081E0F801868361E08DE00E9402
:1018C000541F64E670E080E090E00E94601E60E0DB
:1018D0008DE00E94541F64E670E080E090E00E947A
:1018E000601E61E08DE00E94541F0F90DF91CF9148
:1018F0001F910F910895CF93DF93EC018A819B8113
:10190000DC01ED91FC910480F581E02D0995892B96
:1019100051F08A819B81DC01ED91FC910680F78179
:10192000E02D0995EBCFDF91CF9108950F931F9391
:10193000CF93DF93EC018B016DE270E0C8010E9450
:101940004F1B80FF06C066E772E08A819B810E9480
:10195000BB226DE270E0C8010E944F1B81FF06C0F0
:1019600062E572E08A819B810E94BB226DE270E099
:10197000C8010E944F1B82FF06C06DE272E08A819F
:101980009B810E94BB226DE270E0C8010E944F1B48
:1019900083FF06C068E072E08A819B810E94BB22BF
:1019A0006DE270E0C8010E944F1B84FF06C062EE2A
:1019B00071E08A819B810E94BB226DE270E0C801C8
:1019C0000E944F1B85FF06C065EC71E08A819B81F8
:1019D0000E94BB226DE270E0C8010E944F1B86FF8F
:1019E00006C069EA71E08A819B810E94BB226DE298
:1019F00070E0C8010E944F1B87FF06C06DE871E0D0
:101A00008A819B810E94BB226DE270E0C8010E9426
:101A10004F1B81110AC063E871E08A819B81DF91CD
:101A2000CF911F910F910C94BB22DF91CF911F9109
:101A30000F910895EF92FF920F931F93CF93DF932F
:101A4000CDB7DEB72C970FB6F894DEBF0FBECDBF73
:101A50008C017B0167E671E0FC01828193810E9429
:101A6000BB22B7016C5F7F4FF801828193810E9496
:101A7000E02268E571E0F801828193810E94BB2237
:101A80006FE070E0C7010E944F1B40E150E0682FFB
:101A9000F801828193810E94E7236AE471E0F801F2
:101AA000828193810E94BB22C7010E94231B40E1D7
:101AB00050E0682FF801828193810E94E7236DE353
:101AC00071E0F801828193810E94BB226DE270E097
:101AD000C7010E944F1B40E150E0682FF80182814E
:101AE00093810E94E723F801828193818D52954072
:101AF000A9F46CE271E08DE295E00E94BB22B7018F
:101B0000CE0101960E947504BE016F5F7F4FC80130
:101B10000E94960CCE0105960E94922768E171E022
:101B2000F801828193810E94BB22C7010E943B1B66
:101B30004AE050E0BC01F801828193810E94D223E7
:101B400065E171E0F801828193810E940B232C965C
:101B50000FB6F894DEBF0FBECDBFDF91CF911F91BE
:101B60000F91FF90EF9008950F931F93CF93DF9302
:101B7000CDB7DEB72D970FB6F894DEBF0FBECDBF41
:101B80008C0141E050E0BE01635F7F4F0E947F0AFD
:101B90002D858FEF820F8330C8F430E0215031095A
:101BA0008CE0829FB001839F700D112460537B4FA6
:101BB000CE0101960E947504BE016F5F7F4FC80180
:101BC0000E941A0DCE0105960E9492272D960FB6FF
:101BD000F894DEBF0FBECDBFDF91CF911F910F9163
:101BE0000895F89481E08093E00080E28093D8002B
:101BF0001092C90065E070E080E090E00E94601EF5
:101C00001DBA109268001CBC10BE1FBA10927A0058
:101C100010926E0010926F00109271000C940038B8
:101C20000895CF93DF93EC01288D398D2F5F3F4FBF
:101C3000398F288F2830310544F064E170E080E06E
:101C400090E00E94601E198E188EDF91CF9108954A
:101C5000FF920F931F93CF93DF93EC0169EF70E036
:101C60008A819B810E94BB2200E010E0B80189E1DB
:101C700095E00E94DE17F82E2FE0281730F069E279
:101C800071E08A819B810E94EE2240E150E06F2D3D
:101C90008A819B810E94E7238A819B818D57954091
:101CA00019F4CE010E94110E0F5F1F4F011582E043
:101CB0001807E1F666EF70E08A819B81DF91CF9192
:101CC0001F910F91FF900C940B23CF92DF92EF9214
:101CD000FF92CF93DF93EC01CA8CDB8CEC8CFD8CF4
:101CE0008EE1C80ED11CE11CF11C0E94311EC616EB
:101CF000D706E806F90640F40E94311E6A8F7B8FF2
:101D00008C8F9D8F80E001C081E0DF91CF91FF90AB
:101D1000EF90DF90CF900895EF92FF920F931F9373
:101D2000CF93DF93EC018B01DB011D962D913C914C
:101D30001E972150310981E090E0022E01C0880FEA
:101D40000A94EAF79F81982309F472C08A819B81E3
:101D50008D57954029F4CE010E94650E811168C00F
:101D60008A819B81DC01ED91FC910190F081E02D55
:101D700063E009958A819B81DC01ED91FC910190E2
:101D8000F081E02DD8011D966C9109958A819B8187
:101D9000DC01ED91FC91D80112966C910190F081DB
:101DA000E02D09958A819B81DC01ED91FC910190E8
:101DB000F081E02DD80111966C910995E12CF12C60
:101DC0008A819B81DC01ED91FC91D801AE0DBF1D94
:101DD0000190F081E02D13966C910995BFEFEB1AFD
:101DE000FB0AE8E0EE16F10459F78A819B81DC01D9
:101DF000ED91FC910190F081E02DD8016C91099555
:101E00008A819B81DC01ED91FC910190F081E02DB4
:101E1000D8011B966C91099566E271E08A819B81DD
:101E2000DF91CF911F910F91FF90EF900C945F0481
:101E3000DF91CF911F910F91FF90EF900895EF9256
:101E4000FF920F931F93CF93DF93CDB7DEB76097C9
:101E50000FB6F894DEBF0FBECDBF8C01CB017A0167
:101E600020E1FA01DE01119601900D922A95E1F729
:101E7000BE016F5F7F4F0E948C0ECE0101960E94C3
:101E8000051D80E1F701D80101900D928A95E1F7D7
:101E9000C80160960FB6F894DEBF0FBECDBFDF91CC
:101EA000CF911F910F91FF90EF900895CF93DF9303
:101EB00000D0CDB7DEB72091300630913106211524
:101EC000310511F424E336E0CE010196821B930B19
:101ED0000F900F90DF91CF9108950F931F93CF93A1
:101EE000DF93CDB7DEB762970FB6F894DEBF0FBEB3
:101EF000CDBF8C016BE271E0CE0101960E940028FB
:101F000061E371E0CE010D960E9400286FE371E05D
:101F1000CE0107960E940028BE01635F7F4FCE016D
:101F200007960E9462286CE571E00E947528BE0148
:101F30006F5F7F4F0E9462286BE671E00E947528F8
:101F4000BC01F801828193810E94E022CE010796B4
:101F50000E949227CE010D960E949227CE010196F3
:101F60000E949227C8010E94560F4AE050E0BC012F
:101F7000F801828193810E94D22361EA72E0F80124
:101F8000828193810E940B2362960FB6F894DEBF84
:101F90000FBECDBFDF91CF911F910F9108950F9389
:101FA0001F93CF93DF931F92CDB7DEB78C0141E033
:101FB00050E0BE016F5F7F4F0E947F0A498150E071
:101FC000FA013197E631F10568F5EA5AFF4F0C94B2
:101FD000202CC8010E946D0F25C0C8010E94280E48
:101FE00021C0C8010E94DB0B1DC00E94D0041AC092
:101FF00041E050E0BE016F5F7F4FC8010E947F0A41
:10200000F8016281738189810E945B090BC0C8015C
:102010000E94E30A07C0C8010E94B40D03C0C801B2
:102020000E94F10D0F90DF91CF911F910F910895B4
:102030000F931F93CF93DF93DC0114960D911C91A6
:102040001597E801E8816E2F70E0D2E2ED9FF00174
:102050001124EB53FD4F40E050E01296E801288137
:1020600030E02F5F3F4FCA01860F971F28173907AF
:10207000A4F0CF010197EC01288130E0322F222714
:102080008081280F311D285F3F4F19963C932E9376
:1020900018974F5F5F4FB296E0CFDF91CF911F91BE
:1020A0000F9108950F931F93CF93DF93EC018B0152
:1020B0008AE392E0998388830E94311E6E837F8336
:1020C0008887998784EB92E09D838C831B830A83A6
:1020D000CE01DF91CF911F910F910C941810CF93E7
:1020E000DF930E94420961E070E080E090E00E948E
:1020F000601E80917802909179020E94181040E051
:1021000052EC61E070E08DE295E00E94702026E0E4
:1021100040E051EE60E070E08DE795E00E947621AE
:102120006A9A729A61E088E00E941B1F61E088E071
:102130000E94541F61E08DE00E941B1F60E083E05D
:102140000E941B1F60E082E00E941B1F60E087E08E
:102150000E941B1F61E084E00E941B1F61E08CE075
:102160000E941B1F61E08BE00E941B1F61E089E061
:102170000E941B1F61E08AE00E941B1F61E085E056
:102180000E941B1F60E084E00E94541F60E08CE00E
:102190000E94541F60E08BE00E94541F8CE095E089
:1021A0000E941B1861E070E08CE095E00E94BC1971
:1021B0006091B5027091B6028CE095E00E945618CD
:1021C00061E08CE095E00E949C1924E044E060E628
:1021D0008CE095E00E94711920E240E269E28CE017
:1021E00095E00E9471198CE095E00E94011C61E06D
:1021F00070E08CE095E00E94EB1980E095E00E9491
:102200001B1861E070E080E095E00E94BC196091CD
:10221000B7027091B80280E095E00E94561861E024
:1022200080E095E00E949C1924E044E060E680E0B4
:1022300095E00E94711980E095E00E94011C61E028
:1022400070E080E095E00E94EB1984EF94E00E943A
:102250001B1861E070E084EF94E00E94BC1960916B
:10226000B9027091BA0284EF94E00E94561861E0BE
:1022700084EF94E00E949C1924E044E060E684EF3F
:1022800094E00E94711984EF94E00E94011C61E0C7
:1022900070E084EF94E00E94EB19C5E0D0E061E0CB
:1022A0008DE00E94541F62E370E080E090E00E94A5
:1022B000601E60E08DE00E94541F62E370E080E0E9
:1022C00090E00E94601E219751F7DF91CF91089511
:1022D0000F931F93CF93DF93EC018B018F8588239E
:1022E000C9F161E08DE00E94541FC8010E943B1BB0
:1022F0008130910591F082309105E1F0892B61F5F3
:102300009E012D5F3F4F49815A816881C8010E941B
:10231000131CC8010E941F1A19C09E012D5F3F4F58
:1023200049815A816881C8010E94601CC8010E94CD
:102330002F1A0CC09E012D5F3F4F49815A81688141
:10234000C8010E94AD1CC8010E943F1A60E08DE0E8
:102350000E94541F81E001C080E0DF91CF911F9166
:102360000F910895CF93DF93EC011D821C821F8291
:102370001E82198618861B861A861982188280E2A8
:1023800090E00E943A2C9B838A83892B11F40E944F
:10239000400482E090E09D838C83DF91CF9108958B
:1023A000AF92BF92CF92DF92EF92FF920F931F9363
:1023B000CF93DF93EC018B01161617061CF069E72B
:1023C00071E012C0CB0164E0880F991F6A95E1F7B4
:1023D0000E943A2C7C01009729F06C0120E030E04B
:1023E00040E106C06EEA71E0888199810E9459043B
:1023F0008E819F81AA80BB8028173907E4F48885E5
:102400009985820F931F6C817D810E94EA2B54E095
:10241000880F991F5A95E1F78A0D9B1DFC01D60183
:10242000842F01900D928A95E1F72F5F3F4F80E155
:10243000C80ED11CDDCFC5010E94D22CFB82EA82DE
:10244000198618868E819F819B878A871D830C83BE
:10245000DF91CF911F910F91FF90EF90DF90CF9080
:10246000BF90AF9008950F931F93CF93DF93EC012C
:102470008B018E819F812C813D818217930731F4DE
:10248000BC01660F771FCE010E94D011AA81BB81CB
:102490008A859B859C012F5F3F4F3B872A8774E08D
:1024A000880F991F7A95E1F7A80FB91F80E1F8010D
:1024B00001900D928A95E1F72A853B858C819D815B
:1024C0002817390711F41B861A868E819F81019681
:1024D0009F838E83DF91CF911F910F9108950F936A
:1024E0001F93CF93DF93CDB7DEB7AC970FB6F894B9
:1024F000DEBF0FBECDBF8C014CE050E0BE016F5D72
:102500007F4F0E947F0ACE0141960E94FA1C89A14A
:1025100090E09F8F8E8F2AA130E0322F22278BA14F
:10252000280F311D3B8B2A8B8CA18C8B8DA18D8B21
:102530008EA18E8B8FA18F8B88A5888F89A5898F7F
:102540008AA58A8F8BA58B8F8CA5898B81E088A328
:1025500080E1FE017196DE01119601900D928A953F
:10256000E1F7BE016F5F7F4FF801848195810E9482
:102570003312CE0101960E94051DCE0141960E94A4
:10258000051DAC960FB6F894DEBF0FBECDBFDF9130
:10259000CF911F910F910895CF92DF92EF92FF920A
:1025A0000F931F93CF93DF93CDB7DEB7C054D109FC
:1025B0000FB6F894DEBF0FBECDBF8C017B0160E289
:1025C00070E080E090E00E94601E23E0E216F104DB
:1025D00011F14CF4A1E0EA16F104A9F0B2E0EB1617
:1025E000F104A9F008C024E0E216F104C1F088E08B
:1025F000E816F104C1F08091B10290E0E5E9F2E063
:10260000C12CD12C17C0C8010E94CF0F3FC0C801F8
:102610000E946F123BC0C8010E942F0B37C0C80137
:102620000E94B50A33C0C8010E94430C2FC0BFEFFF
:10263000CB1ADB0AC816D9064CF5208130E0339658
:102640002E153F05A1F740E450E0BE016F5F7F4FBC
:10265000C8010E947F0A7C0161E070E080E090E0A8
:102660000E94601EF601EE0FFF1FEC0DFD1DEB56E4
:10267000FD4F81819281DC01ED91FC910480F58117
:10268000E02DA701BE016F5F7F4F0995C8010E9431
:102690007B0CC05CDF4F0FB6F894DEBF0FBECDBF22
:1026A000DF91CF911F910F91FF90EF90DF90CF902E
:1026B00008955F926F927F928F929F92AF92BF9296
:1026C000CF92DF92EF92FF920F931F93CF93DF93FE
:1026D000CDB7DEB7A0970FB6F894DEBF0FBECDBF63
:1026E0007C018B01DC011496ED91FC9115978081A2
:1026F000A82EB12CB2E28B9F000D111D11240A5F90
:102700001F4FC12CD12C88E0582E7724739490E170
:10271000692ED7011496ED91FC911597808190E078
:10272000019696012A0D3B1D821793070CF456C0A3
:102730004801E6E08E1A9108D8018C91882309F4AB
:1027400047C0F4018081882309F442C0CE0141963C
:102750000E94FA1CD4018C9190E09F8F8E8FF8011B
:102760003297808190E0982F882731962081820FC0
:10277000911D9B8B8A8BFE01759620E030E0D40181
:10278000A20FB31F16968C91882331F02F5F3F4F15
:1027900081932630310599F72C8B598A78A2FE0156
:1027A0007196DE011196862D01900D928A95E1F7C2
:1027B000BE016F5F7F4FF701828193810E943312C8
:1027C000CE0101960E94051DCE0141960E94051D75
:1027D000FFEFCF1ADF0A0E5D1F4F9BCFA0960FB6FB
:1027E000F894DEBF0FBECDBFDF91CF911F910F9147
:1027F000FF90EF90DF90CF90BF90AF909F908F9021
:102800007F906F905F9008950F931F93CF93DF9306
:10281000EC010E94311E0E811F8128853985025EE0
:102820001F4F2F4F3F4F061717072807390778F418
:102830000E94311E6E837F838887998760EC72E0E7
:10284000CE01DF91CF911F910F910C945913DF911D
:10285000CF911F910F9108950F931F93CF93DF9303
:10286000CDB7DEB7A0970FB6F894DEBF0FBECDBFD1
:102870008C0120918E0230918F0280918C02909178
:102880008D022817390709F47AC0C8010E94231B5A
:102890008093940280FF32C0CE0141960E94FA1CC0
:1028A0008091940290E09D8F8C8FF80182859385B2
:1028B0009F8F8E8F9E012E5E3F4FAE014C5E5F4F0D
:1028C000BE016F5E7F4FC8010E944F1A80E1FE017A
:1028D0007196DE01119601900D928A95E1F7BE0185
:1028E0006F5F7F4F88E892E00E943312CE0101961D
:1028F0000E94051DCE0141960E94051D20918E0269
:1029000030918F0280918C0290918D0228173907A7
:10291000B1F18091940281FF32C0CE0141960E94B4
:10292000FA1C8091940290E09D8F8C8FF801828533
:1029300093859F8F8E8F9E012E5E3F4FAE014C5E22
:102940005F4FBE016F5E7F4FC8010E94BD1A80E1DC
:10295000FE017196DE01119601900D928A95E1F7C4
:10296000BE016F5F7F4F88E892E00E943312CE0174
:1029700001960E94051DCE0141960E94051DA0965C
:102980000FB6F894DEBF0FBECDBFDF91CF911F9180
:102990000F910895BF92CF92DF92EF92FF920F9323
:1029A0001F93CF93DF93CDB7DEB7A0970FB6F89400
:1029B000DEBF0FBECDBF8C0126E7C22E22E0D22E95
:1029C000E12CF12C30E1B32E8091060190910701AA
:1029D000E816F90664F5D6016D917D916D01DB0174
:1029E000ED91FC9122813381F801DE0151968B2D0E
:1029F00001900D928A95E1F7AE014F5E5F4FCE01D7
:102A00000196F9010995FE013196D8018B2D0190AF
:102A10000D928A95E1F7CE0101960E94051DCE0127
:102A200041960E94051DFFEFEF1AFF0ACDCFD80196
:102A30001F968C91882399F080E1F801DE011196B0
:102A400001900D928A95E1F7BE016F5F7F4F8CE791
:102A500092E00E943312CE0101960E94051DA096BD
:102A60000FB6F894DEBF0FBECDBFDF91CF911F919F
:102A70000F91FF90EF90DF90CF90BF9008950F934C
:102A80001F93CF93DF938C01EB018E819F81892B64
:102A900031F468EE71E0888199810E945904EA81DD
:102AA000FB81888599859C012F5F3F4F3987288757
:102AB00064E0880F991F6A95E1F7E80FF91F80E13C
:102AC000D80101900D928A95E1F72E813F81215026
:102AD00031093F832E836C817D8188859985861796
:102AE000970711F4198618862115310599F0CB0145
:102AF00077FD03969595879595958795821793070A
:102B00004CF077FF02C06F5F7F4F75956795CE01E0
:102B10000E94D011C801DF91CF911F910F910895AC
:102B2000EF92FF920F931F93CF93DF93CDB7DEB752
:102B3000E8970FB6F894DEBF0FBECDBFE6E7EE2EE6
:102B4000E2E0FE2E00E010E0809106019091070186
:102B50000817190774F4D7018D919D917D01DC014F
:102B6000ED91FC910190F081E02D09950F5F1F4FD1
:102B7000EBCF83E00E948A1F892B71F46CE075E033
:102B8000CE0101960E947504CE0101960E942C147C
:102B9000CE0105960E94922782E00E948A1F892B0F
:102BA00071F460E075E0CE0101960E947504CE01DB
:102BB00001960E942C14CE0105960E94922787E070
:102BC0000E948A1F892B71F464EF74E0CE01019694
:102BD0000E947504CE0101960E942C14CE01059628
:102BE0000E94922780918E0290918F02892B59F03A
:102BF0002091820230918302809180029091810223
:102C00002817390771F411E07CE0F72E00E12091DC
:102C1000820230918302232B09F465C0111110C088
:102C200062C068E872E0CE0101960E943F15CE01B5
:102C300001960E94CA14CE0101960E94051DE3CFA1
:102C40006CE772E0CE0141960E943F158E8D9F8DFC
:102C50000197F89EB001F99E700D112460537B4FCF
:102C6000CE018D960E947504BE01635D7F4FCE013B
:102C700081960E947504FE017196DE011196802FE7
:102C800001900D928A95E1F7BE016F5D7F4FCE01F5
:102C900001960E946811182FCE0101960E94051D11
:102CA000CE0185960E949227111114C0FE017196E3
:102CB000DE011196802F01900D928A95E1F7BE01F9
:102CC0006F5F7F4F8CE792E00E943312CE01019636
:102CD0000E94051DCE01C1960E949227CE01419609
:102CE0000E94051D94CFE8960FB6F894DEBF0FBE84
:102CF000CDBFDF91CF911F910F91FF90EF9008957D
:102D0000CF93DF93EC018A819B810E94D22C1B829E
:102D10001A82198218821D821C821F821E821986C5
:102D200018861B861A86DF91CF9108950F931F9303
:102D3000CF93DF9300D000D000D0CDB7DEB76AE1EB
:102D400072E0CE0101960E9400288E010F5F1F4F96
:102D500021E030E044E050E069E070E08CE095E094
:102D60000E94EC17C8010E94922760E272E0C8013D
:102D70000E94002822E030E04CE050E06AE070E081
:102D800080E095E00E94EC17C8010E94922766E25D
:102D900072E0C8010E94002823E030E04BE050E0E0
:102DA00065E070E084EF94E00E94EC17C8010E9497
:102DB00092276CE075E080ED94E00E94750460E07D
:102DC00075E08CED94E00E94750464EF74E088EE89
:102DD00094E00E9475040E94311E6093AD027093CE
:102DE000AE028093AF029093B00288E892E00E9416
:102DF000B2118CE792E00E94B2118EE190E00E9445
:102E000091228C016CE772E00E94640A10937B02AD
:102E100000937A028EE090E00E9491228C016CE790
:102E200072E00E9452101093790200937802809110
:102E30007A0290917B029093770280937602269695
:102E40000FB6F894DEBF0FBECDBFDF91CF911F91BB
:102E50000F910895CF93DF93CEE7D2E088819981D7
:102E60000E94D22C1982188210927D0210927C024C
:102E700010928102109280021092830210928202BC
:102E8000109285021092840210928702109286029C
:102E900088E892E00E9480168CEE94E00E949227CF
:102EA00080EE94E00E94922784ED94E00E949227A5
:102EB00088EF94E00E94922784E095E00E94922798
:102EC00080E195E0DF91CF910C949227CF93DF932F
:102ED000EC018E81882331F18DE295E00E94DD1FA7
:102EE000892B81F08DE295E00E94ED1FE0917D0538
:102EF000F0917E050190F081E02D682F8DE795E03F
:102F00000995EACF8DE795E00E949320892B71F116
:102F10008DE795E00E94AC20682F8DE295E00E943D
:102F2000B31FF0CF8DE795E00E9493201816190685
:102F300054F48DE795E09B838A830E94AC20BC010A
:102F4000CE010E94CC128DE295E00E94DD1F181682
:102F5000190664F48DE295E09B838A830E94ED1F3D
:102F6000BC01CE01DF91CF910C94CC12DF91CF91B7
:102F70000895CF93CFB7F89480911805811116C0AA
:102F800061E081E10E94541F61E081E10E941B1F0A
:102F90008CB580618CBD8CB580648CBD61E08FE0A8
:102FA0000E941B1F61E080E10E941B1F8091180599
:102FB0008F5F80931805CFBFCF910895CB010C94FC
:102FC0004B2ECB01642F0C945D2E8EBD00000DB4F2
:102FD00007FEFDCF8EB508958F929F92AF92BF925C
:102FE000CF92DF92EF92FF920F931F93CF93DF93D5
:102FF000EC016B015A0149017C0184E0E80EF11CEF
:1030000068E271E0C7010E940028D982C882BB82B1
:10301000AA829B868A86B801C701DF91CF911F9152
:103020000F91FF90EF90DF90CF90BF90AF909F9067
:103030008F900C941628CF93DF93EC0161E08FE022
:103040000E941B1F60E08EE00E941B1F61E080E178
:103050000E941B1F61E088810E941B1F61E08A8122
:103060000E941B1F0E94B9178CB5837F8CBD8CB545
:103070008C7F8CBD8DB581608DBD8CB58F7D8CBDF9
:1030800060E08A810E94541F62E370E080E090E07B
:103090000E94601E61E08A810E94541F62E370E01A
:1030A00080E090E0DF91CF910C94601E6F927F9250
:1030B0008F929F92AF92BF92CF92DF92EF92FF9248
:1030C0000F931F93CF93DF93EC01882777FD8095B3
:1030D000982F0E94D72A9B01AC0160E070E080E845
:1030E0009FE30E943C2A20E030E04AE754E40E943B
:1030F000872B4B015C0101E010E077247A94700E7D
:10310000B801882777FD8095982F0E94D72A9B01C8
:10311000AC010E94D42920E030E040E85DE30E9449
:10312000872B9B01AC01C501B4010E943C2A6B01B5
:103130007C0120E030E048EC51E40E94382A181667
:10314000CCF0C701B6010E94A42A662E77278827F3
:1031500077FD8095982F0E94D72A9B01AC01C7016B
:10316000B6010E94D32920E030E0A9010E94382A4C
:10317000882341F00F5F1F4F0930110509F0BDCFC3
:1031800048E0742E662D70E080E090E00E94D72A1F
:103190002DEC3CEC4CE45FE30E94872B0E94A92AB3
:1031A000862F90E08C010150110917FD8C011595B7
:1031B00007956150E62EE01A661A8FEF860DF12C06
:1031C000A8014E0D5F1D282F30E0421753070CF465
:1031D00078C0823008F475C060E088810E94541F76
:1031E00061E070E080E090E00E94601E82E00E945A
:1031F000E5178AE20E94E517872D0E94E51761E036
:1032000070E080E090E00E94601E61E088810E9492
:10321000541F61E070E080E090E00E94601E60E07A
:1032200088810E94541F61E070E080E090E00E947D
:10323000601E82E00E94E51789E20E94E5170150B6
:103240000068C701019723E0880F991F2A95E1F7CD
:10325000802B0E94E51761E070E080E090E00E9422
:10326000601E61E088810E94541F61E070E080E090
:1032700090E00E94601E60E088810E94541F61E01F
:1032800070E080E090E00E94601E82E00E94E517FE
:1032900088E20E94E5178EEF860D0E94E51761E037
:1032A00070E080E090E00E94601E61E088810E94F2
:1032B000541F61E070E080E090E00E94601E81E0B9
:1032C00001C080E0DF91CF911F910F91FF90EF90AF
:1032D000DF90CF90BF90AF909F908F907F906F9036
:1032E0000895EF92FF921F93CF93DF9300D0CDB755
:1032F000DEB77C01162F60E0FC01808129834A83C0
:103300000E94541F85E00E94E517812F0E94E51757
:103310002981822F0E94E5174A81842F0E94E51798
:1033200061E0F70180810F900F90DF91CF911F91A5
:10333000FF90EF900C94541F1F93CF93DF93EC01F9
:10334000662311F013E001C010E060E088810E9464
:10335000541F85E00E94E5178BE20E94E51783E089
:103360000E94E517812F0E94E51761E08881DF91B7
:10337000CF911F910C94541F1F93CF93DF93EC01B7
:103380006230710571F02CF46130710569F410E060
:103390000BC06430710539F06830710529F413E011
:1033A00003C011E001C012E060E088810E94541F58
:1033B00085E00E94E5178FE00E94E51783E00E94F8
:1033C000E517812F0E94E51761E08881DF91CF9199
:1033D0001F910C94541F1F93CF93DF93EC01623025
:1033E000710589F044F46115710589F0613071054A
:1033F00079F410E00DC06330710539F06430710567
:1034000039F410E405C010E203C010E601C010E872
:1034100060E088810E94541F85E00E94E5178FE0DC
:103420000E94E51780EE0E94E517812F0E94E517A4
:1034300061E08881DF91CF911F910C94541FCF934D
:10344000DF93EC0160E088810E94541F81E80E94B4
:10345000E51761E08881DF91CF910C94541FCF93E1
:10346000DF93EC0160E088810E94541F82E80E9493
:10347000E51761E08881DF91CF910C94541FCF93C1
:10348000DF93EC0160E088810E94541F83E80E9472
:10349000E51761E08881DF91CF910C94541F4F9222
:1034A0005F927F928F929F92AF92BF92CF92DF9264
:1034B000EF92FF920F931F93CF93DF9300D0CDB77E
:1034C000DEB78C015B01790160E0FC0180814983FA
:1034D0005A830E94541F80E90E94E5178FEF0E94D3
:1034E000E517C82ED12C8FEF0E94E517882E8FEF9D
:1034F0000E94E5178FEF0E94E5178FEF0E94E517F6
:103500008F70982E4981742E442E5A81552E842D09
:103510008719891538F48FEF0E94E517F20181931E
:103520002F01F5CF61E0F80180810E94541FF50161
:103530009082882D807E90E055E0969587955A95EB
:10354000E1F763E0CC0CDD1C6A95E1F78C0D9D1D65
:10355000F701918380830F900F90DF91CF911F919E
:103560000F91FF90EF90DF90CF90BF90AF909F9022
:103570008F907F905F904F9008954F925F927F92CF
:103580008F929F92AF92BF92CF92DF92EF92FF9273
:103590000F931F93CF93DF931F92CDB7DEB78C01AC
:1035A0006B01A42E790160E0FC01808159830E94A7
:1035B000541F84E90E94E5178FEF0E94E517982EAB
:1035C0008FEF0E94E517882E8FEF0E94E5178FEF8F
:1035D0000E94E5178FEF0E94E5178F70B82E7A2CA6
:1035E0004A2C5981552E842D87198B1538F48FEF6D
:1035F0000E94E517F20181932F01F5CF61E0F801F8
:1036000080810E94541FF601B0828294869477E0F4
:103610008722F8E09F9EA0011124480D511DF7015B
:10362000518340830F90DF91CF911F910F91FF90B5
:10363000EF90DF90CF90BF90AF909F908F907F9052
:103640005F904F9008951F93CF93DF93EC0160E05C
:1036500088810E94541F80EA0E94E5178FEF0E9424
:10366000E517182F61E088810E94541F812FDF9198
:10367000CF911F9108950E94231B82FF07C084FFF2
:1036800008C086FF09C08FEF9FEF089580E090E0AB
:10369000089581E090E0089582E090E008951F93FE
:1036A000CF93DF93EC01162F60E088810E94541FB6
:1036B00083E00E94E517812F0E94E5178FEF0E949B
:1036C000E517182F61E088810E94541F812FDF9138
:1036D000CF911F910895EF92FF921F93CF93DF93A5
:1036E00000D0CDB7DEB77C01162F60E0FC018081F1
:1036F0002A8349830E94541F61E070E080E090E0DB
:103700000E94601E82E00E94E517812F0E94E5174B
:103710004981842F0E94E5172A81822F0E94E51794
:1037200061E070E080E090E00E94601E61E0F701DF
:1037300080810E94541F61E070E080E090E00F9073
:103740000F90DF91CF911F91FF90EF900C94601E2E
:10375000EF92FF920F931F93CF93DF93EC017A01C7
:103760008B01E3E015950795EA95E1F7162F129581
:10377000110F107E212F402F60E070E00E946B1B24
:10378000212F402F68E070E0CE010E946B1B870163
:10379000F3E015950795FA95E1F7E294EE0CA0EEAB
:1037A000EA222E2D402F64E070E0CE010E946B1BB8
:1037B0002E2D402F60E170E0CE010E946B1B2E2D5C
:1037C000402F64E170E0CE010E946B1B2E2D402F34
:1037D00068E170E0CE010E946B1B20EE4FE160E2D9
:1037E00070E0CE010E946B1B20EE4FE164E270E0BE
:1037F000CE01DF91CF911F910F91FF90EF900C942C
:103800006B1BCF93DF93EC0120E040E060E270E0BF
:103810000E946B1B20E040E064E270E0CE01DF918B
:10382000CF910C946B1BCF92DF92EF92FF920F938C
:103830001F93CF93DF9300D0CDB7DEB78C01F62E68
:103840006A0160E0FC01808129833A830E94541F51
:1038500080E40E94E517C601B3E096958795BA9576
:10386000E1F70E94E5178C2D8295880F807E0E94DB
:10387000E51780E00E94E51780E00E94E5178F2D94
:103880000E94E5172981E22EC22E3A81D32E8C2D7B
:103890008E198F1530F4F60181916F010E94E517A2
:1038A000F6CF61E0F80180810F900F90DF91CF910A
:1038B0001F910F91FF90EF90DF90CF900C94541FC9
:1038C000CF92DF92EF92FF920F931F93CF93DF93EC
:1038D00000D0CDB7DEB78C01F62E6A0160E0FC01A6
:1038E000808129833A830E94541F82E40E94E51755
:1038F000C60123E0969587952A95E1F70E94E51782
:103900008C2D8295880F807E0E94E51780E00E94B2
:10391000E51780E00E94E5178F2D0E94E5172981A9
:10392000E22EC22E3A81D32E8C2D8E198F1530F4B3
:10393000F60181916F010E94E517F6CF61E0F80171
:1039400080810F900F90DF91CF911F910F91FF9089
:10395000EF90DF90CF900C94541FCF92DF92EF92B4
:10396000FF920F931F93CF93DF9300D0CDB7DEB7B5
:103970008C01F62E6A0160E0FC01808129833A8384
:103980000E94541F84E40E94E517C60133E0969517
:1039900087953A95E1F70E94E5178C2D8295880F5F
:1039A000807E0E94E51780E00E94E51780E00E947B
:1039B000E5178F2D0E94E5172981E22EC22E3A814C
:1039C000D32E8C2D8E198F1530F4F60181916F0155
:1039D0000E94E517F6CF61E0F80180810F900F900B
:1039E000DF91CF911F910F91FF90EF90DF90CF90DB
:1039F0000C94541FFC0117861286118610861782BC
:103A00001682158214821382089508951F920F92D0
:103A10000FB60F9211242F933F934F935F936F93A1
:103A20007F938F939F93AF93BF93EF93FF93809177
:103A30001A0590911B05892B29F0E0911A05F09148
:103A40001B050995FF91EF91BF91AF919F918F91C8
:103A50007F916F915F914F913F912F910F900FBE8A
:103A60000F901F9018951F920F920FB60F9211246E
:103A70002F933F934F935F936F937F938F939F9376
:103A8000AF93BF93EF93FF9380911C0590911D0519
:103A9000892B29F0E0911C05F0911D050995FF91F6
:103AA000EF91BF91AF919F918F917F916F915F91B6
:103AB0004F913F912F910F900FBE0F901F9018952F
:103AC0001F920F920FB60F9211242F933F934F9393
:103AD0005F936F937F938F939F93AF93BF93EF9376
:103AE000FF9380911E0590911F05892B29F0E0918D
:103AF0001E05F0911F050995FF91EF91BF91AF91C0
:103B00009F918F917F916F915F914F913F912F91F5
:103B10000F900FBE0F901F9018951F920F920FB627
:103B20000F9211242F933F934F935F936F937F9343
:103B30008F939F93AF93BF93EF93FF938091200553
:103B400090912105892B29F0E0912005F091210524
:103B50000995FF91EF91BF91AF919F918F917F91C7
:103B60006F915F914F913F912F910F900FBE0F90EA
:103B70001F9018951F920F920FB60F9211242F933A
:103B80003F934F935F936F937F938F939F93AF93E5
:103B9000BF93EF93FF938091220590912305892B8A
:103BA00029F0E0912205F09123050995FF91EF910D
:103BB000BF91AF919F918F917F916F915F914F9145
:103BC0003F912F910F900FBE0F901F9018951F924D
:103BD0000F920FB60F9211242F933F938F939F93C1
:103BE000AF93BF938091250590912605A09127055D
:103BF000B09128053091240523E0230F2D3720F4C0
:103C00000196A11DB11D05C026E8230F0296A11D36
:103C1000B11D209324058093250590932605A0933C
:103C20002705B09328058091290590912A05A09138
:103C30002B05B0912C050196A11DB11D809329057E
:103C400090932A05A0932B05B0932C05BF91AF91BB
:103C50009F918F913F912F910F900FBE0F901F90CA
:103C600018952FB7F89460912505709126058091DD
:103C70002705909128052FBF08953FB7F8948091AC
:103C8000290590912A05A0912B05B0912C0526B508
:103C9000A89B05C02F3F19F00196A11DB11D3FBF84
:103CA0006627782F892F9A2F620F711D811D911D14
:103CB00042E0660F771F881F991F4A95D1F7089534
:103CC000CF92DF92EF92FF92CF93DF936B017C0153
:103CD0000E943D1EEB01C114D104E104F10489F0FE
:103CE0000E948F280E943D1E6C1B7D0B683E734016
:103CF00090F381E0C81AD108E108F108C851DC4FFF
:103D0000EACFDF91CF91FF90EF90DF90CF900895B1
:103D1000789484B5826084BD84B5816084BD85B5A6
:103D2000826085BD85B5816085BDEEE6F0E080816D
:103D300081608083E1E8F0E010828081826080838E
:103D4000808181608083E0E8F0E080818160808311
:103D5000E1E9F0E0808182608083808181608083FE
:103D6000E0E9F0E0808181608083E1ECF0E0808137
:103D70008460808380818260808380818160808391
:103D8000E3ECF0E0808181608083E0ECF0E0808112
:103D900082608083E2ECF0E0808181608083EAE7EA
:103DA000F0E0808184608083808182608083808174
:103DB00081608083808180688083089590E0FC0129
:103DC0003197EF30F105B0F5E459FF4F0C94202CFA
:103DD000809180008F7703C0809180008F7D8093D9
:103DE0008000089580918000877FF9CF84B58F7718
:103DF00002C084B58F7D84BD0895809190008F7737
:103E000007C0809190008F7D03C080919000877FD4
:103E10008093900008958091C0008F7703C08091B7
:103E2000C0008F7D8093C00008958091C200877F7D
:103E30008093C2000895CF93DF9390E0FC01EE5091
:103E4000FC4F2491FC01E05FFB4F8491882349F1F2
:103E500090E0880F991FFC01E65BFB4FA591B491A0
:103E6000845C9B4FFC01C591D4919FB7611108C040
:103E7000F8948C91209582238C93888182230AC0A8
:103E8000623051F4F8948C91322F309583238C93C7
:103E90008881822B888304C0F8948C91822B8C9328
:103EA0009FBFDF91CF9108950F931F93CF93DF931F
:103EB0001F92CDB7DEB7282F30E0F901EC52FC4F4E
:103EC0008491F901EE50FC4F1491F901E05FFB4F32
:103ED00004910023C9F0882321F069830E94DE1E2B
:103EE0006981E02FF0E0EE0FFF1FE45CFB4FA5912E
:103EF000B4919FB7F8948C91611103C01095812300
:103F000001C0812B8C939FBF0F90DF91CF911F91A8
:103F10000F910895CF93DF93282F30E0F901EC52F1
:103F2000FC4F8491F901EE50FC4FD491F901E05F10
:103F3000FB4FC491CC2391F081110E94DE1EEC2F27
:103F4000F0E0EE0FFF1FE25DFB4FA591B4912C91C5
:103F50002D2381E090E021F480E002C080E090E039
:103F6000DF91CF910895CF93DF931F92CDB7DEB746
:103F70006983DC01ED91FC910280F381E02D41E049
:103F800050E0BE016F5F7F4F09950F90DF91CF9199
:103F90000895CF93DF93EC018C859D8597FF05C035
:103FA00082E00E94BF249D878C878C859D85DF9150
:103FB000CF91089583E00C941427FC0184859585A6
:103FC00097FD06C082E00E94672490E00196089564
:103FD00082E00E94672490E00895FC018485958525
:103FE00097FD05C02FEF3FEF35872487089582E0C6
:103FF0000C94BF24CF93DF93EC0180910F018823B1
:1040000031F083E00E94F0241816190634F081E0A4
:1040100090E09B838A8380E090E0DF91CF910895C8
:10402000FC0120812E5F208342E450E068E574E0CB
:1040300080E80C948B25FC0181819081913A59F4A0
:10404000813209F03CC047E050E068E071E080E078
:104050000E948B2543C0913291F5803239F467E09C
:1040600070E088E091E00E94BC2506C0823209F031
:1040700035C0828180930F018091080190910901E0
:10408000A0910A01B0910B01803B9440A105B105BC
:10409000C1F480910F0180FD14C087E797E79093EA
:1040A0000108809300082BE088E190E00FB6F894B7
:1040B000A895809360000FBE209360000FC080E041
:1040C000089588E10FB6F894809360001092600024
:1040D0000FBEA895109201081092000881E0089583
:1040E0002FEF3FEFFC0135872487089510923005AC
:1040F00010922F0588EE93E0A0E0B0E080933105A8
:1041000090933205A0933305B09334058CE492E08C
:1041100090932E0580932D058FEF9FEF90933A0596
:10412000809339050895FC01818D228D90E0805C9B
:104130009F4F821B91098F7399270895FC01918DE0
:10414000828D981731F0828DE80FF11D858D90E0FA
:1041500008958FEF9FEF0895FC01918D828D981740
:1041600061F0828DDF01A80FB11D5D968C91928D5B
:104170009F5F9F73928F90E008958FEF9FEF089558
:1041800080E392E2892B49F080E090E0892B29F0CE
:104190000E94302281110C9400000895FC01848D4E
:1041A000DF01A80FB11DA35ABF4F2C91848D90E061
:1041B00001968F739927848FA689B7892C93A0893C
:1041C000B1898C9180648C93938D848D981306C0F3
:1041D0000288F389E02D80818F7D80830895CF93BD
:1041E000DF93EC01888D8823C9F0EA89FB898081FF
:1041F00085FD05C0A889B9898C9186FD0FC00FB6D1
:1042000007FCF5CF808185FFF2CFA889B9898C9111
:1042100085FFEDCFCE010E94CE20E7CFDF91CF9179
:104220000895CF92DF92FF920F931F93CF93DF9366
:104230001F92CDB7DEB76C01DC015B969C915B975A
:104240005C968C915C97981307C05096ED91FC9109
:104250005197808185FD32C0F601038D10E00F5F1C
:104260001F4F0F731127F02EF601848DF81211C025
:104270000FB607FCF9CFD6015096ED91FC915197FE
:10428000808185FFF1CFC60169830E94CE206981BC
:10429000EBCF838DE80FF11DE35AFF4F6083D6010A
:1042A0005B960C935B975296ED91FC9153978081AE
:1042B0008062808381E058968C930DC0D60156961B
:1042C000ED91FC91579760835096ED91FC91519739
:1042D00080818064808381E090E00F90DF91CF91B6
:1042E0001F910F91FF90DF90CF900895BF92CF92D2
:1042F000DF92EF92FF92CF93DF93EC016A017B0193
:10430000B22EE889F98982E08083411581EE580751
:1043100061057105A1F060E079E08DE390E0A7010F
:1043200096010E94FE2B21503109410951095695F1
:10433000479537952795211580E1380798F0E8894A
:10434000F989108260E874E88EE190E0A701960197
:104350000E94FE2B2150310941095109569547957C
:1043600037952795EC85FD853083EE85FF85208385
:10437000188EEC89FD89B082EA89FB898081806191
:104380008083EA89FB89808188608083EA89FB8950
:10439000808180688083EA89FB8980818F7D80832A
:1043A000DF91CF91FF90EF90DF90CF90BF90089575
:1043B0001F920F920FB60F9211242F938F939F93FA
:1043C000EF93FF93E0918D05F0918E058081E09150
:1043D0009305F091940582FD12C09081809196051D
:1043E0008F5F8F7320919705821751F0E0919605AA
:1043F000F0E0E358FA4F958F8093960501C08081D5
:10440000FF91EF919F918F912F910F900FBE0F9081
:104410001F9018951F920F920FB60F9211242F9391
:104420003F934F935F936F937F938F939F93AF933C
:10443000BF93EF93FF938DE795E00E94CE20FF910D
:10444000EF91BF91AF919F918F917F916F915F910C
:104450004F913F912F910F900FBE0F901F90189585
:104460008DE795E00E94932021E0892B09F420E05C
:10447000822F08951092800510927F0588EE93E0B8
:10448000A0E0B0E08093810590938205A09383051E
:10449000B09384058CE592E090937E0580937D0532
:1044A0008DEC90E090938A05809389058CEC90E0E8
:1044B00090938C0580938B0588EC90E090938E050B
:1044C00080938D0589EC90E09093900580938F0503
:1044D0008AEC90E090939205809391058EEC90E0A9
:1044E00090939405809393051092960510929705EA
:1044F0001092980510929905089508950E94881EBB
:104500000E947D228AE196E00E9474270E946F102B
:10451000C0ECD0E20E9490152097E1F30E94C020E9
:10452000F9CF0C943A2CCF92DF92EF92FF920F9337
:104530001F93CF93DF936C017A01EB01E60EF71E18
:1045400000E010E0CE15DF0561F06991D601ED9134
:10455000FC910190F081E02DC6010995080F191F0B
:10456000F1CFC801DF91CF911F910F91FF90EF9094
:10457000DF90CF900895EF92FF920F931F93CF9308
:10458000DF938C01FB01C0E0D0E064917F018FEFED
:10459000E81AF80A662361F0D801ED91FC910190C8
:1045A000F081E02DC8010995C80FD91FF701EDCFA3
:1045B000CE01DF91CF911F910F91FF90EF90089561
:1045C000DC01ED91FC91DB0114964D915C91159706
:1045D0006D917C910280F381E02D09940C945F042D
:1045E000DC01ED91FC910190F081E02D09940F9395
:1045F0001F93CF93DF93EC016DE00E94F0228C01BA
:104600006AE0CE010E94F022800F911FDF91CF91CE
:104610001F910F9108950F931F93CF93DF93EC0198
:104620000E94BB228C01CE010E94F722800F911FB5
:10463000DF91CF911F910F9108950F931F93CF9307
:10464000DF93EC010E945F048C01CE010E94F722EF
:10465000800F911FDF91CF911F910F9108958F923D
:104660009F92AF92BF92CF92DF92EF92FF920F9301
:104670001F93CF93DF93CDB7DEB7A1970FB6F89412
:10468000DEBF0FBECDBF7C01C42EE52FCB01D22EE5
:1046900019A221E02D1510F02AE0D22E8E010F5D17
:1046A0001F4F8D2C912CA12CB12C6C2D7E2FA50190
:1046B00094010E94FE2B8C2DD29E80191124015052
:1046C00011098A3014F4805D01C0895CF80180838F
:1046D000211531054105510521F0C22EE32FCA01F4
:1046E000E4CFB801C7010E945F04A1960FB6F89409
:1046F000DEBF0FBECDBFDF91CF911F910F91FF9015
:10470000EF90DF90CF90BF90AF909F908F900895E3
:10471000CF92DF92EF92FF920F931F93CF93DF938D
:10472000EC016A017B012115310579F4E881F981F9
:104730000190F081E02D642FDF91CF911F910F91B7
:10474000FF90EF90DF90CF9009942A303105E9F483
:1047500077FF1AC06DE20E94F0228C014427552792
:10476000BA014C195D096E097F092AE0CE010E9449
:104770002F23800F911FDF91CF911F910F91FF90F9
:10478000EF90DF90CF9008952AE0B701A601CE0107
:10479000DF91CF911F910F91FF90EF90DF90CF901D
:1047A0000C942F239A01AB01662757FD6095762F55
:1047B0000C9488232115310541F4DC01ED91FC9125
:1047C0000190F081E02D642F09940C942F239A011D
:1047D000462F50E060E070E00C94DA2340911E0612
:1047E00050911F0620911C0630911D064217530759
:1047F000B4F49091E8009570E1F39091E80092FD97
:1048000019C08093F10080911E0690911F060196B9
:104810008F739927892B19F48EEF8093E80080918C
:104820001E0690911F06019690931F0680931E0608
:1048300081E0089580E00895CF92DF92FF920F9378
:104840001F93CF93DF931F92CDB7DEB7082F162F9C
:10485000862F880F8E5F99830E94EE2383E00E944B
:10486000EE23F02EC02E9981D92E8C2D8F19811711
:1048700078F4F60184910E94EE23082F80E00E94D4
:10488000EE238023FFEFCF1ADF0A8111EECF01C0A4
:1048900081E00F90DF91CF911F910F91FF90DF90FA
:1048A000CF900895615030F02091F100FC012083F9
:1048B0000196F8CF289884E68093210608952FB7B3
:1048C000FC012083F89467706093E9000895CF930A
:1048D000DF931F92CDB7DEB7682FCE0101960E94FD
:1048E0005F248091F20099819FBF0F90DF91CF915B
:1048F0000895FF920F931F93CF93DF9300D0CDB70E
:10490000DEB7F62E8A0190912006992311F057FF09
:1049100003C08FEF9FEF2BC0682FCE0101967A83E3
:104920000E945F248091F20090E0A8017A818017B4
:1049300091070CF4AC01EF2DF72FF40E84E6FE1670
:1049400039F02898809321069091F1009193F7CF48
:104950004115510521F08091F200882321F08981D1
:104960008FBFCA0104C08BE68093E800F8CF0F9098
:104970000F90DF91CF911F910F91FF900895CF93EA
:10498000DF931F92CDB7DEB741E050E0BE016F5F0D
:104990007F4F0E947924019719F4898190E002C029
:1049A0008FEF9FEF0F90DF91CF910895CF93DF931B
:1049B0001F92CDB7DEB7682FCE0101960E945F240B
:1049C0009091E800892F807295FF04C09091F200C9
:1049D00080E4891B99819FBF0F90DF91CF9108954B
:1049E0006F927F928F929F92AF92BF92CF92DF92FF
:1049F000EF92FF920F931F93CF93DF931F92CDB748
:104A0000DEB7782E7B01C42EB52E80912006882338
:104A100069F0042F152F8AEFD82E872D8072982EDB
:104A20009AE3A92E872D8074882E11C08FEF9FEFF7
:104A300057C0872D0E94D624682E81110CC0DA94AD
:104A4000A9F361E070E080E090E00E94601E011533
:104A5000110579F73BC0282F30E0021713070CF43B
:104A6000602E672DCE0101960E945F248091E800A0
:104A700085FF29C0262D30E0021B130B992039F049
:104A80006A948FEF6816B1F01092F100F9CFF70138
:104A9000862D77FE07C0815058F094919093F100D5
:104AA0003196F9CF815020F091919093F100FACF97
:104AB000E20EF31E8091E80085FF0FC0011511057D
:104AC00011F481100AC089818FBFC1CF5D9884E63F
:104AD000809322068C2D9B2D03C0A092E800F3CF7B
:104AE0000F90DF91CF911F910F91FF90EF90DF908A
:104AF000CF90BF90AF909F908F907F906F900895D0
:104B00001092E90010921F0610921E0690931D0647
:104B100080931C060895CF92DF92FF920F931F930C
:104B2000CF93DF9300D0CDB7DEB7F82E8A016B01AB
:104B300001151105B1F0F601F7FE02C0849101C024
:104B4000808149835A830E94EE2301501109FFEFAF
:104B5000CF1ADF0A49815A818111EACF8FEF9FEF87
:104B600001C0CA010F900F90DF91CF911F910F915B
:104B7000FF90DF90CF9008951F93CF93DF931F9204
:104B8000CDB7DEB7162F2091E80022FFFCCF612FB2
:104B900079830E9452248BEF8093E800812F7981E2
:104BA000972F0F90DF91CF911F910895CF93DF93AF
:104BB0001F92CDB7DEB71982CE0101960E94102058
:104BC000CE0101960E94AE28898190E00F90DF917E
:104BD000CF9108951F920F920FB60F921124EF926A
:104BE000FF920F931F932F933F934F935F936F9376
:104BF0007F938F939F93AF93BF93EF93FF93CF9345
:104C0000DF93CDB7DEB76297DEBFCDBF1092E9006C
:104C10008091E80083FFEBC068E0CE010A960E9415
:104C2000522482EF8093E8009A8597FF05C0809117
:104C3000E80080FFFCCF03C08EEF8093E800892F4F
:104C4000807609F0B9C08B85811105C01092F10002
:104C50001092F100C5C0282F2D7F213009F4C0C06B
:104C6000853049F48091E80080FFFCCF8C85806816
:104C70008093E300B5C0863009F076C02D85E888C2
:104C8000F988223071F580E090E02A8B0E9480251F
:104C90000E94D62599E08E010F5F1F4FF801392F32
:104CA00011923A95E9F799832A892A8391E09E83A4
:104CB00090E898879AEF998720911E0630911F06F9
:104CC000275F3F4F3C832B838D83C7010E94802544
:104CD00049E050E0B80180E00E948B250E94D62573
:104CE0007FC0C7012A8B0E9480252A89223241F485
:104CF00082E290E00E94B928892B09F071C074C04B
:104D0000213069F488899989089711F420931B064A
:104D100080911B06811118C061EB74E01AC023302A
:104D200009F062C08C85882391F0823021F46DE017
:104D30008FEC94E006C0813009F056C06BE083EC44
:104D400094E00E941C244AC06FE974E002C06DED3B
:104D500074E06115710509F447C0FB01449150E00E
:104D600080E80E948B253CC0873009F43DC0883024
:104D700021F481E08093F10033C0893089F593708C
:104D800099F5EBE9F4E081E021E096E38093E90016
:104D90002093EB0034913093EC009093ED008F5F03
:104DA0003196853099F78EE78093EA001092EA00F9
:104DB0008C858093200614C0888999890E9480255B
:104DC0008E85811105C0CE010A960E941B2006C067
:104DD000823051F4CE010A960E94E128882321F006
:104DE0008EEF8093E80003C081E28093EB0062962F
:104DF0000FB6F894DEBF0FBECDBFDF91CF91FF910C
:104E0000EF91BF91AF919F918F917F916F915F9142
:104E10004F913F912F911F910F91FF90EF900F9025
:104E20000FBE0F901F9018958093E9008091F200BB
:104E3000882319F08AE38093E80008951F920F9267
:104E40000FB60F9211242F933F934F935F936F935D
:104E50007F938F939F93AF93BF93EF93FF93809133
:104E6000E1001092E10083FF0FC01092E90091E091
:104E70009093EB001092EC0092E39093ED0010926F
:104E8000200698E09093F00082FF1DC083E00E940E
:104E9000142780912206882339F0809122068150C0
:104EA00080932206882369F080912106882359F097
:104EB00080912106815080932106811104C0289A97
:104EC00002C05D9AF1CFFF91EF91BF91AF919F9199
:104ED0008F917F916F915F914F913F912F910F90A3
:104EE0000FBE0F901F9018951092200681E08093BE
:104EF000D70080EA8093D80082E189BD09B400FE22
:104F0000FDCF61E070E080E090E00E94601E80E9EB
:104F10008093D8008CE08093E2001092E000559AD4
:104F2000209A0895FC01808191810C94D22CCF931A
:104F3000DF93EC0188819981009711F00E94D22CB7
:104F4000198218821D821C821B821A82DF91CF91E6
:104F500008950F931F93CF93DF93EC018B016F5F45
:104F60007F4F888199810E94612D009731F099834C
:104F700088831B830A8381E001C080E0DF91CF91A9
:104F80001F910F910895CF93DF93EC018881998150
:104F9000892B29F08A819B818617970760F4CE01BF
:104FA0000E94A927882341F08C819D81892B19F4C7
:104FB000E881F981108281E0DF91CF910895EF922D
:104FC000FF920F931F93CF93DF93EC017B018A0134
:104FD000BA010E94C327811104C0CE010E94972705
:104FE00007C01D830C83B701888199810E94342EEC
:104FF000CE01DF91CF911F910F91FF90EF90089517
:10500000FC011182108213821282158214826115B2
:10501000710559F0FB0101900020E9F7AF01415003
:105020005109461B570B0C94DF270895CF93DF934C
:10503000EC01FB018617970761F0608171816115B2
:10504000710529F0448155810E94DF2702C00E942A
:105050009727CE01DF91CF910895FC011182108234
:1050600013821282158214820C941628EF92FF92FA
:105070000F931F93CF93DF93EC017B010C811D8174
:105080006115710511F480E016C04115510591F0CC
:10509000040F151FB8010E94C3278823A1F328819C
:1050A00039818C819D81B701820F931F0E94342E1C
:1050B0001D830C8381E0DF91CF911F910F91FF90B1
:1050C000EF900895CF93DF93EC01FB01448155816C
:1050D000608171810E943628811103C0CE010E9437
:1050E0009727CE01DF91CF910895CF93DF93EC0105
:1050F0006115710569F0FB0101900020E9F7AF012E
:1051000041505109461B570B0E943628811103C09C
:10511000CE010E949727CE01DF91CF910895089587
:10512000FF920F931F93CF93DF93EC01F62EE8814C
:10513000F9810480F581E02D09958C01E881F981E0
:105140000680F781E02D6F2DCE010995C8019927C2
:10515000DF91CF911F910F91FF900895FC01208165
:105160002F5F208349E150E061E675E080E80C9410
:105170008B2545E650E06AE775E080E80C948B25C6
:10518000EF92FF920F931F93CF93DF931F92CDB7B0
:10519000DEB789838B017A0141E050E0BE016F5F89
:1051A0007F4F84E00E94F024A701B80184E40E94AC
:1051B000F0240F90DF91CF911F910F91FF90EF900E
:1051C0000895FC0191818081813A31F481E0913030
:1051D00091F0933089F411C0813271F49B3021F445
:1051E00082818093110105C09A3031F482818093CD
:1051F000100181E00895089580E0089548E050E0AE
:1052000082E00C94C028CF93DF93DC01683818F05B
:10521000E8E7E60F25C0E62FF0E067FF11C0E05891
:10522000F10981E090E001C0880FEA95EAF7149651
:105230009C911497982B14969C931497E0E010C0BF
:10524000EF51FB4FE491EE2309F440C0E7FF08C0A3
:1052500014968C911497826014968C931497EF7720
:1052600016968C9116978E1741F117968C91179779
:105270008E1719F118968C9118978E17F1F01996D0
:105280008C9119978E17C9F01A968C911A978E17D0
:10529000A1F01B968C911B978E1779F080E090E01F
:1052A000ED01C80FD91F2E81211102C0EE8305C068
:1052B000019686309105A1F709C0BD016C5F7F4F53
:1052C000CD010E94FE2881E090E008C081E090E0DE
:1052D00013969C938E93129780E090E0DF91CF918C
:1052E0000895683818F0E8E7E60F25C0E62FF0E0EB
:1052F00067FF12C0E058F10921E030E001C0220F41
:10530000EA95EAF72095DC0114963C911497322334
:1053100014963C93E0E00FC0EF51FB4FE491EE2375
:1053200029F1E7FF08C0DC0114962C9114972D7F1A
:1053300014962C93EF7720E030E0EE2351F0DC015F
:10534000A20FB31F16964C9116974E1302C01696D5
:105350001C922F5F3F4F2630310579F7BC016C5FFF
:105360007F4F0E94FE2881E090E0089580E090E069
:105370000895FC0116821782108611861286138604
:105380001482BC016C5F7F4F0C94FE2810922F0694
:1053900010922606109225068CE692E09093240641
:1053A0008093230608955058BB27AA270ED075C1B5
:1053B00066D130F06BD120F031F49F3F11F41EF430
:1053C0005BC10EF4E095E7FB51C1E92F77D180F383
:1053D000BA17620773078407950718F071F49EF5F2
:1053E0008FC10EF4E0950B2EBA2FA02D0B01B90141
:1053F00090010C01CA01A0011124FF27591B99F04B
:10540000593F50F4503E68F11A16F040A22F232F56
:10541000342F4427585FF3CF469537952795A795A6
:10542000F0405395C9F77EF41F16BA0B620B730B4D
:10543000840BBAF09150A1F0FF0FBB1F661F771FBE
:10544000881FC2F70EC0BA0F621F731F841F48F473
:10545000879577956795B795F7959E3F08F0B3CFF9
:105460009395880F08F09927EE0F979587950895E3
:10547000D9D008F481E008950CD00FC107D140F0D5
:10548000FED030F021F45F3F19F0F0C0511139C166
:10549000F3C014D198F39923C9F35523B1F3951BA5
:1054A000550BBB27AA2762177307840738F09F5F45
:1054B0005F4F220F331F441FAA1FA9F333D00E2EB4
:1054C0003AF0E0E830D091505040E695001CCAF721
:1054D00029D0FE2F27D0660F771F881FBB1F2617E6
:1054E00037074807AB07B0E809F0BB0B802DBF01B9
:1054F000FF2793585F4F2AF09E3F510568F0B6C0D2
:1055000000C15F3FECF3983EDCF386957795679595
:10551000B795F7959F5FC9F7880F911D9695879569
:1055200097F90895E1E0660F771F881FBB1F621788
:1055300073078407BA0720F0621B730B840BBA0B46
:10554000EE1F88F7E095089504D06894B111D9C092
:105550000895BCD088F09F5790F0B92F9927B75184
:10556000A0F0D1F0660F771F881F991F1AF0BA9527
:10557000C9F712C0B13081F0C3D0B1E00895C0C006
:10558000672F782F8827B85F39F0B93FCCF386951D
:1055900077956795B395D9F73EF49095809570957A
:1055A00061957F4F8F4F9F4F0895E89409C097FBF7
:1055B0003EF490958095709561957F4F8F4F9F4FEA
:1055C0009923A9F0F92F96E9BB279395F69587952E
:1055D00077956795B795F111F8CFFAF4BB0F11F4F1
:1055E00060FF1BC06F5F7F4F8F4F9F4F16C0882398
:1055F00011F096E911C0772321F09EE8872F762FCE
:1056000005C0662371F096E8862F70E060E02AF00E
:105610009A95660F771F881FDAF7880F96958795FA
:1056200097F90895990F0008550FAA0BE0E8FEEFCF
:1056300016161706E807F907C0F012161306E40756
:10564000F50798F0621B730B840B950B39F40A264F
:1056500061F0232B242B252B21F408950A2609F42D
:10566000A140A6958FEF811D811D089597F99F6731
:1056700080E870E060E008959FEF80EC08950024DA
:105680000A941616170618060906089500240A94A7
:1056900012161306140605060895092E0394000C2D
:1056A00011F4882352F0BB0F40F4BF2B11F460FFBC
:1056B00004C06F5F7F4F8F4F9F4F089557FD9058E5
:1056C000440F551F59F05F3F71F04795880F97FBC6
:1056D000991F61F09F3F79F0879508951216130680
:1056E0001406551FF2CF4695F1DF08C016161706AF
:1056F0001806991FF1CF86957105610508940895E4
:10570000E894BB2766277727CB0197F908950BD03C
:10571000C4CFB5DF28F0BADF18F0952309F0A6CF83
:10572000ABCF1124EECFCADFA0F3959FD1F3950F35
:1057300050E0551F629FF001729FBB27F00DB11D15
:10574000639FAA27F00DB11DAA1F649F6627B00DA5
:10575000A11D661F829F2227B00DA11D621F739F8E
:10576000B00DA11D621F839FA00D611D221F749F9C
:105770003327A00D611D231F849F600D211D822FE3
:10578000762F6A2F11249F5750408AF0E1F088232A
:105790004AF0EE0FFF1FBB1F661F771F881F915037
:1057A0005040A9F79E3F510570F060CFAACF5F3FF0
:1057B000ECF3983EDCF3869577956795B795F7956A
:1057C000E7959F5FC1F7FE2B880F911D96958795F2
:1057D00097F9089597FB072E16F4009407D077FDEC
:1057E00009D00E94262C07FC05D03EF490958195A7
:1057F0009F4F0895709561957F4F0895A1E21A2EED
:10580000AA1BBB1BFD010DC0AA1FBB1FEE1FFF1F64
:10581000A217B307E407F50720F0A21BB30BE40BB4
:10582000F50B661F771F881F991F1A9469F76095FB
:105830007095809590959B01AC01BD01CF010895B5
:10584000EE0FFF1F0590F491E02D0994AA1BBB1BDE
:1058500051E107C0AA1FBB1FA617B70710F0A61B70
:10586000B70B881F991F5A95A9F780959095BC0191
:10587000CD010895CF93DF938230910510F482E03B
:1058800090E0E0913206F091330620E030E0A0E0B5
:10589000B0E0309739F14081518148175907B8F08D
:1058A0004817590771F482819381109729F0139654
:1058B0009C938E9312972CC090933306809332065C
:1058C00027C02115310531F04217530718F0A901FF
:1058D000DB0101C0EF019A01BD01DF010280F3810C
:1058E000E02DD7CF21153105F9F0281B390B2430D5
:1058F000310580F48A819B816115710521F0FB01DE
:105900009383828304C09093330680933206FE0112
:10591000329644C0FE01E20FF31F8193919322500F
:105920003109398328833AC02091300630913106FD
:10593000232B41F420910201309103013093310671
:10594000209330062091000130910101211531058D
:1059500041F42DB73EB74091040150910501241B3D
:10596000350BE0913006F0913106E217F307A0F411
:105970002E1B3F0B2817390778F0AC014E5F5F4FA5
:105980002417350748F04E0F5F1F509331064093A0
:1059900030068193919302C0E0E0F0E0CF01DF9107
:1059A000CF910895CF93DF93009709F487C0FC014E
:1059B000329713821282C0913206D091330620971B
:1059C00081F420813181280F391F80913006909118
:1059D00031068217930779F5F0933106E09330068C
:1059E0006DC0DE0120E030E0AE17BF0750F4129624
:1059F0004D915C9113979D014115510509F1DA0113
:105A0000F3CFB383A28340815181840F951F8A17FE
:105A10009B0771F48D919C911197840F951F0296AD
:105A20009183808312968D919C91139793838283A7
:105A30002115310529F4F0933306E09332063EC078
:105A4000D9011396FC93EE9312974D915D91A40F9B
:105A5000B51FEA17FB0779F480819181840F951FA8
:105A60000296D90111969C938E938281938113960D
:105A70009C938E931297E0E0F0E08A819B810097DF
:105A800019F0FE01EC01F9CFCE010296288139818F
:105A9000820F931F20913006309131062817390765
:105AA00069F4309729F4109233061092320602C03E
:105AB00013821282D0933106C0933006DF91CF91CA
:105AC0000895A0E0B0E0E7E6FDE20C946F2EEC0153
:105AD000CB01209719F40E943A2CB8C0FE01E60FC2
