:100000000C9401030C94EC1F0C94BF1F0C94921FD2
:100010000C94651F0C9429030C9429030C94BB20A9
:100020000C9429030C9429030C94E8200C9431219E
:100030000C9429030C9429030C9429030C94290390
:100040000C9429030C9429030C9429030C94290380
:100050000C9429030C9429030C9429030C9471200B
:100060000C9429030C943F200C9419200C94290320
:100070000C9429030C9429030C9429030C94290350
:100080000C9429030C9429030C9429030C94290340
:100090000C9429030C9429030C9429030C94290330
:1000A0000C9429030C9429030C9429030E041104C5
:1000B000000404040A04320432043204150419044E
:1000C0001D042304270432042D0429189A18EB1860
:1000D0004B19C01CC01CC01C4E193E1AC01CC01CB1
:1000E000C01CC01CC01CC01C851AC01CC01CC01C6D
:1000F000C01CC01CC71B7A1D7F1D841D8E1D981D32
:10010000E21DE21DE21DA21DAC1DB61DC01DCD1DD0
:10011000E21DD51D00000000240027002A002D004C
:10012000300000000000250028002B002E003100C8
:10013000000000002300260029002C002F000404EA
:100140000404040304050202020204030202020280
:10015000060606060606040402020204040802015A
:100160001040804010204080408008020401804000
:1001700020100201108010204040080B00020202F3
:100180000100090400000102020000052400100122
:1001900005240101010424020605240600010705C7
:1001A000810310004009040100020A000000070555
:1001B000020240000007058302400000090402001B
:1001C000010300000009210101000122650007056B
:1001D000840340000100000000000000002A2B28DA
:1001E000000000000000000000000000000000000F
:1001F00000000000002C9EB4A0A1A2A434A6A7A5D4
:10020000AE362D3738271E1F20212223242526B362
:1002100033B62EB7B89F8485868788898A8B8C8D64
:100220008E8F909192939495969798999A9B9C9D76
:100230002F3130A3AD350405060708090A0B0C0D54
:100240000E0F101112131415161718191A1B1C1D56
:10025000AFB1B0B5007B226576656E74223A226537
:100260006570726F6D5265736574222C2022726501
:1002700073756C74223A2273756363657373227DA0
:1002800000227D00227D007B226576656E74223A15
:1002900022656570726F6D222C2022646174612268
:1002A0003A2200227D007B226576656E74223A2216
:1002B000656570726F6D44617461222C20227265D5
:1002C00073756C74223A226661696C757265222CB2
:1002D00020226368756E6B223A22007B2265766568
:1002E0006E74223A22656570726F6D536176652275
:1002F0002C2022726573756C74223A2273756363C5
:10030000657373227D00227D007B226576656E74A5
:10031000223A22656570726F6D44617461222C20EF
:1003200022726573756C74223A2273756363657308
:1003300073222C20226368756E6B223A22007B2286
:100340006576656E74223A226175746F62617564B8
:10035000436F6D706C657465222C20227261746528
:10036000223A007B226576656E74223A22617574AA
:100370006F6261756454657374222C2022726174FB
:1003800065223A007D00222C202272617465223A97
:10039000007B226576656E74223A2262697472610E
:1003A00074652D627573004E6F204572726F7273A3
:1003B00000526563656976652042756666657220E0
:1003C00031204F766572666C6F772C200052656322
:1003D00065697665204275666665722030204F76C5
:1003E0006572666C6F772C2000427573204F6666CD
:1003F000202D20544543206578636565646564203D
:100400003235352C20005472616E736D697420454D
:1004100072726F72205761726E696E67202D205460
:100420004543203E3D203132382C20005265636523
:10043000697665204572726F72205761726E696EBF
:1004400067202D20524543203E3D203132382C205C
:10045000005472616E736D6974204572726F722000
:100460005761726E696E67202D20544558203E3DBD
:100470002039362C20005265636569766520457207
:10048000726F72205761726E696E67202D2052451F
:1004900043203E3D2039362C200052656365697645
:1004A00065204572726F72205761726E696E6720A7
:1004B0002D20544543206F7220524543203E3D205D
:1004C00039362C2000227D00222C20226E65787483
:1004D0005478427566666572223A2200222C2022E8
:1004E0006572726F7254657874223A2200222C2051
:1004F000226572726F72223A2200222C20227374BB
:1005000061747573223A2200222C202263616E638B
:1005100074726C223A22007B226576656E74223AF0
:1005200022627573646267222C20226E616D6522DF
:100530003A22000000000200090F0000030401003D
:100540000C0000000000000000000000000000009F
:100550000005010902A1010901A100850105091990
:100560000129031500250195037501810295017587
:1005700005810305010930093109381581257F7589
:100580000895038106C0C005010906A10185020581
:100590000719E029E71500250175019508810295E5
:1005A000017508810395067508150025650507196D
:1005B0000029658100C00403090441726475696EF5
:1005C0006F204C4C430043414E4275732054726976
:1005D000706C65001201000200000040412336806B
:1005E000000101020001120100020200004041234B
:1005F000368000010102000100C18081C100E726B0
:100600004C2311241FBECFEFDAE0DEBFCDBF12E0D6
:10061000A0E0B1E0ECE9FAE502C005900D92A23746
:10062000B107D9F726E0A2E7B2E001C01D92A531DB
:10063000B207E1F715E0C0E0D6E004C02297FE0162
:100640000E94A528CE3FD107C9F70E94A0230C9491
:10065000412D0C940000FF920F931F93CF93DF93D3
:10066000EC01F62EE881F9810480F581E02D0995F1
:100670008C01E881F9810680F781E02D6F2DCE0194
:100680000995C8019927DF91CF911F910F91FF9094
:1006900008954091890250918A02209187023091F9
:1006A000880242175307B4F49091E8009570E1F383
:1006B0009091E80092FD19C08093F1008091890229
:1006C00090918A0201968F739927892B19F48EEFE6
:1006D0008093E8008091890290918A02019690931C
:1006E0008A028093890281E0089580E00895CF9284
:1006F000DF92EF92FF920F931F93CF93DF936C01E2
:100700007A01EB01E60EF71E00E010E0CE15DF05E2
:1007100061F06991D601ED91FC910190F081E02D9D
:10072000C6010995080F191FF1CFC801DF91CF91BC
:100730001F910F91FF90EF90DF90CF900895FC01F3
:10074000918D828D981761F0828DDF01A80FB11D08
:100750005D968C91928D9F5F9F73928F90E008952C
:100760008FEF9FEF0895FC01918D828D981731F0E6
:10077000828DE80FF11D858D90E008958FEF9FEF3A
:100780000895FC01818D228D90E0805C9F4F821B3B
:1007900091098F73992708958EE892E00E94C10312
:1007A00021E0892B09F420E0822F089580E090E079
:1007B000892B29F00E94CC0381110C94000008952C
:1007C000CF93DF931F92CDB7DEB76983DC01ED9144
:1007D000FC910280F381E02D41E050E0BE016F5FAB
:1007E0007F4F09950F90DF91CF91089590E0FC0124
:1007F0003197EF30F105B0F5EA5AFF4F0C94A3287A
:10080000809180008F7703C0809180008F7D8093DE
:100810008000089580918000877FF9CF84B58F771D
:1008200002C084B58F7D84BD0895809190008F773C
:1008300007C0809190008F7D03C080919000877FDA
:100840008093900008958091C0008F7703C08091BD
:10085000C0008F7D8093C00008958091C200877F83
:100860008093C20008953FB7F89480917E029091E2
:100870007F02A0918002B091810226B5A89B05C09D
:100880002F3F19F00196A11DB11D3FBF6627782F9C
:10089000892F9A2F620F711D811D911D42E0660FF5
:1008A000771F881F991F4A95D1F70895FA01418152
:1008B0005281DB0117962D913C91189742175307EF
:1008C00031F413961D921D921D921C92169720E1F1
:1008D000DC0101900D922A95E1F7089521E0FB01DA
:1008E0003081311101C020E0FC0122830895FA011A
:1008F000258536852230310561F02330310559F0E8
:100900002130310569F423E030E03687258721E086
:1009100006C0178605C021E030E036872587278787
:1009200020E1DC0101900D922A95E1F708950895E8
:100930000895089508950E94852ACF92DF92EF923C
:10094000FF92CF93DF936B017C010E943304EB0194
:10095000C114D104E104F10479F00E9433046C1B4A
:100960007D0B683E7340A0F381E0C81AD108E1080E
:10097000F108C851DC4FECCFDF91CF91FF90EF90A1
:10098000DF90CF900895AF92BF92CF92DF92EF9217
:10099000FF920F931F93CF93DF936C015A017B015A
:1009A00004E610E0C0E0D0E0CA15DB0560F5D60132
:1009B00012968D919C911397DC01ED91FC9104802E
:1009C000F581E02D0995892B19F41016110694F084
:1009D00001151105C1F0F60182819381DC01ED91D1
:1009E000FC910680F781E02D0995F70181937F0145
:1009F0002196DACF61E070E080E090E00E949D04F3
:100A000001501109D4CFCE01DF91CF911F910F91E9
:100A1000FF90EF90DF90CF90BF90AF9008950F932D
:100A20001F93CF93DF93EC018B018881998100970D
:100A300029F02A813B812617370788F4B8016F5FB8
:100A40007F4F0E94BB29009761F0998388831B83A5
:100A50000A832C813D81232B11F4FC01108281E05B
:100A600001C080E0DF91CF911F910F910895EF9227
:100A7000FF920F931F93CF93DF93EC017B010C81C7
:100A80001D816115710511F480E016C041155105F5
:100A900091F0040F151FB8010E940F058823A1F3E0
:100AA000288139818C819D81B701820F931F0E941B
:100AB000932A1D830C8381E0DF91CF911F910F91C9
:100AC000FF90EF900895CF93DF93EC018881998197
:100AD000009711F00E94322B198218821D821C820D
:100AE0001B821A82DF91CF910895CF93DF93EC019F
:100AF0006115710569F0FB0101900020E9F7AF0174
:100B000041505109461B570B0E943705811103C004
:100B1000CE010E946305CE01DF91CF910895EF923F
:100B2000FF920F931F93CF93DF93EC017B01198208
:100B300018821B821A821D821C826115710521F1A7
:100B4000FB0101900020E9F78F0101501109061BFC
:100B5000170BB8010E940F05811109C0CE01DF916A
:100B6000CF911F910F91FF90EF900C9463051D831F
:100B70000C83B70188819981DF91CF911F910F91EB
:100B8000FF90EF900C94932ADF91CF911F910F91DA
:100B9000FF90EF900895FC01808191810C94322B9D
:100BA000CF92DF92FF920F931F93CF93DF9300D0EA
:100BB000CDB7DEB7F82E8A016B0101151105B1F032
:100BC000F601F7FE02C0849101C0808149835A83F7
:100BD0000E94490301501109FFEFCF1ADF0A498132
:100BE0005A818111EACF8FEF9FEF01C0CA010F90A8
:100BF0000F90DF91CF911F910F91FF90DF90CF90D9
:100C0000089542E450E06AE771E080E80E94D00570
:100C100049E150E06CEB71E080E80E94D00583E090
:100C200090E00895615030F02091F100FC012083A4
:100C30000196F8CF289884E680938B020895DC0112
:100C4000ED91FC910190F081E02D0994EF92FF92DB
:100C50000F931F93CF93DF938C01FB01C0E0D0E093
:100C600064917F018FEFE81AF80A662361F0D801DA
:100C7000ED91FC910190F081E02DC8010995C80F1C
:100C8000D91FF701EDCFCE01DF91CF911F910F91C9
:100C9000FF90EF900895FC01848DDF01A80FB11D36
:100CA000A35ABF4F2C91848D90E001968F739927A2
:100CB000848FA689B7892C93A089B1898C9180648F
:100CC0008C93938D848D981306C00288F389E02D50
:100CD00080818F7D80830895CF92DF92FF920F9362
:100CE0001F93CF93DF931F92CDB7DEB76C01DC016A
:100CF0005B969C915B975C968C915C97981307C070
:100D00005096ED91FC915197808185FD32C0F6019E
:100D1000038D10E00F5F1F4F0F731127F02EF601A8
:100D2000848DF81211C00FB607FCF9CFD60150968A
:100D3000ED91FC915197808185FFF1CFC6016983C8
:100D40000E944B066981EBCF838DE80FF11DE35ABA
:100D5000FF4F6083D6015B960C935B975296ED91A3
:100D6000FC91539780818062808381E058968C93B8
:100D70000DC0D6015696ED91FC9157976083509621
:100D8000ED91FC91519780818064808381E090E0B7
:100D90000F90DF91CF911F910F91FF90DF90CF9037
:100DA0000895CF93DF93EC01888D8823C9F0EA89F9
:100DB000FB89808185FD05C0A889B9898C9186FD54
:100DC0000FC00FB607FCF5CF808185FFF2CFA88951
:100DD000B9898C9185FFEDCFCE010E944B06E7CFFC
:100DE000DF91CF910895CF93DF93282F30E0F90161
:100DF000ED5CFA4F8491F901E45AFE4FD491F90168
:100E0000E25CFE4FC491CC2391F081110E94F60365
:100E1000EC2FF0E0EE0FFF1FE05DFE4FA591B491C7
:100E20002C912D2381E090E021F480E002C080E04D
:100E300090E0DF91CF9108950F931F93CF93DF93AD
:100E40001F92CDB7DEB7282F30E0F901ED5CFA4FE5
:100E50008491F901E45AFE4F1491F901E25CFE4FCE
:100E600004910023C9F0882321F069830E94F603CE
:100E70006981E02FF0E0EE0FFF1FEE5DFE4FA591C0
:100E8000B4919FB7F8948C91611103C010958123A0
:100E900001C0812B8C939FBF0F90DF91CF911F9149
:100EA0000F910895CF93DF9390E0FC01E45AFE4F39
:100EB0002491FC01E25CFE4F8491882349F190E08B
:100EC000880F991FFC01EC5EFE4FA591B4918E5DD9
:100ED0009E4FFC01C591D4919FB7611108C0F89451
:100EE0008C91209582238C93888182230AC0623062
:100EF00051F4F8948C91322F309583238C93888110
:100F0000822B888304C0F8948C91822B8C939FBF92
:100F1000DF91CF9108951F93CF93DF93EC0161E0B0
:100F20008FE00E94520760E08EE00E94520761E06D
:100F300080E10E94520761E088810E94520761E0CF
:100F40008A810E9452071FB7F89480917202811122
:100F500016C061E081E10E941C0761E081E10E940E
:100F600052078CB580618CBD8CB580648CBD61E00E
:100F70008FE00E94520761E080E10E945207809159
:100F800072028F5F809372021FBF8CB5837F8CBD0E
:100F90008CB58C7F8CBD8DB581608DBD8CB58F7D02
:100FA0008CBD60E08A810E941C0762E370E080E0F3
:100FB00090E00E949D0461E08A810E941C0762E328
:100FC00070E080E090E0DF91CF911F910C949D0440
:100FD0002FB7F8946091820270918302809184020D
:100FE000909185022FBF0895FC0117861286118605
:100FF00010861782168215821482138208958EBD80
:1010000000000DB407FEFDCF8EB50895CF93DF939A
:10101000EC0160E088810E941C0785E00E94FF07C8
:101020008BE20E94FF0783E00E94FF0783E00E949B
:10103000FF0761E08881DF91CF910C941C07CF936B
:10104000DF93EC0160E088810E941C0785E00E942C
:10105000FF078FE00E94FF0783E00E94FF0780E008
:101060000E94FF0761E08881DF91CF910C941C07FB
:101070004F925F926F927F928F929F92AF92BF92A8
:10108000CF92DF92EF92FF920F931F93CF93DF9354
:10109000EC015B01882777FD8095982F0E94F72B44
:1010A0009B01AC0160E070E080E89FE30E94222990
:1010B00020E030E04AE754E40E94562C2B013C012A
:1010C00001E010E099249A94900EB801882777FDEA
:1010D0008095982F0E94F72B9B01AC010E94BE289F
:1010E00020E030E040E85DE30E94562C9B01AC011B
:1010F000C301B2010E9422296B017C0120E030E093
:1011000048EC51E40E94F12B1816CCF0C701B6014F
:101110000E948A29862E7727882777FD8095982F29
:101120000E94F72B9B01AC01C701B6010E94BD28AC
:1011300020E030E0A9010E94F12B882341F00F5FED
:101140001F4F0930110509F0BDCF18E0912E682D11
:1011500070E080E090E00E94F72B2DEC3CEC4CE43A
:101160005FE30E94562C0E948F29862F90E0AC01ED
:101170004150510957FDAC01559547956150262FB7
:10118000241B861A8FEF880D30E0FA01E20FF31F5F
:10119000682F70E0E617F7070CF484C0823008F47B
:1011A00081C083E5A816B10471F01FEF140F106819
:1011B00021503109A3E0220F331FAA95E1F7122B2A
:1011C0000EEF080D04C007E01EEBF3E09F2E60E079
:1011D00088810E941C0761E070E080E090E00E943E
:1011E0009D0482E00E94FF078AE20E94FF07892D8A
:1011F0000E94FF0761E070E080E090E00E949D04A3
:1012000061E088810E941C0761E070E080E090E06E
:101210000E949D0460E088810E941C0761E070E0EC
:1012200080E090E00E949D0482E00E94FF0789E236
:101230000E94FF07812F0E94FF0761E070E080E0BD
:1012400090E00E949D0461E088810E941C0761E09B
:1012500070E080E090E00E949D0460E088810E9440
:101260001C0761E070E080E090E00E949D0482E055
:101270000E94FF0788E20E94FF07802F0E94FF075D
:1012800061E070E080E090E00E949D0461E0888170
:101290000E941C0761E070E080E090E00E949D04E5
:1012A00081E001C080E0DF91CF911F910F91FF900D
:1012B000EF90DF90CF90BF90AF909F908F907F90F6
:1012C0006F905F904F900895EF92FF921F93CF938E
:1012D000DF9300D0CDB7DEB77C01162F60E0FC01B4
:1012E00080812A8349830E941C0761E070E080E0CE
:1012F00090E00E949D0482E00E94FF07812F0E94DF
:10130000FF074981842F0E94FF072A81822F0E94B4
:10131000FF0761E070E080E090E00E949D0461E0E2
:10132000F70180810E941C0761E070E080E090E09E
:101330000F900F90DF91CF911F91FF90EF900C9441
:101340009D04CF93DF93EC0120E040E060E270E089
:101350000E94640920E040E064E270E0CE01DF9189
:10136000CF910C946409EF92FF920F931F93CF9348
:10137000DF93EC017A018B0183E0159507958A953F
:10138000E1F7162F1295110F107E212F402F60E0EC
:1013900070E0CE010E946409212F402F68E070E0C8
:1013A000CE010E946409870193E0159507959A95EF
:1013B000E1F7E294EE0C20EEE2222E2D402F64E0C5
:1013C00070E0CE010E9464092E2D402F60E170E094
:1013D000CE010E9464092E2D402F64E170E0CE0101
:1013E0000E9464092E2D402F68E170E0CE010E941A
:1013F000640920EE4FE160E270E0CE010E946409D2
:1014000020EE4FE164E270E0CE01DF91CF911F91B9
:101410000F91FF90EF900C946409EF92FF921F934D
:10142000CF93DF9300D0CDB7DEB77C01162F60E0FD
:10143000FC01808129834A830E941C0785E00E9469
:10144000FF07812F0E94FF072981822F0E94FF073B
:101450004A81842F0E94FF0761E0F70180810F908D
:101460000F90DF91CF911F91FF90EF900C941C078C
:101470001F93CF93DF93EC016230710589F044F440
:101480006115710589F06130710579F410E00DC0C6
:101490006330710539F06430710539F410E405C02A
:1014A00010E203C010E601C010E860E088810E94ED
:1014B0001C0785E00E94FF078FE00E94FF0780EE77
:1014C0000E94FF07812F0E94FF0761E08881DF9162
:1014D000CF911F910C941C071F93CF93DF93EC01C6
:1014E00060E088810E941C0780EA0E94FF078FEF5E
:1014F0000E94FF07182F61E088810E941C07812F3E
:10150000DF91CF911F9108950E946C0A82FF07C05E
:1015100084FF08C086FF09C08FEF9FEF089580E029
:1015200090E0089581E090E0089582E090E00895D1
:101530001F93CF93DF93EC01162F60E088810E9408
:101540001C0783E00E94FF07812F0E94FF078FEF97
:101550000E94FF07182F61E088810E941C07812FDD
:10156000DF91CF911F9108956115710581F0DB0125
:101570000D900020E9F7AD0141505109461B570B72
:10158000DC01ED91FC910280F381E02D099480E073
:1015900090E008958F929F92AF92BF92CF92DF9288
:1015A000EF92FF920F931F93CF93DF93CDB7DEB7E8
:1015B000A1970FB6F894DEBF0FBECDBF7C01C42E3D
:1015C000E52FCB01D22E19A221E02D1510F03AE023
:1015D000D32E8E010F5D1F4F8D2C912CA12CB12C81
:1015E0006C2D7E2FA50194010E9481288C2DD29E06
:1015F00080191124015011098A3014F4805D01C052
:10160000895CF8018083211531054105510521F0E0
:10161000C22EE32FCA01E4CFB801C7010E94B40A69
:10162000A1960FB6F894DEBF0FBECDBFDF91CF916C
:101630001F910F91FF90EF90DF90CF90BF90AF90F0
:101640009F908F900895CF92DF92EF92FF920F9329
:101650001F93CF93DF93EC016B01EE24D7FCE09452
:10166000FE2CF7FE1AC06DE20E941F068C01442773
:101670005527BA014C195D096E097F092AE0CE0190
:101680000E94CA0A800F911FDF91CF911F910F9185
:10169000FF90EF90DF90CF9008952AE0B701A60168
:1016A000DF91CF911F910F91FF90EF90DF90CF903E
:1016B0000C94CA0AEF92FF920F931F93CF93DF937C
:1016C000EC010E94B40A8C016DE0CE010E941F065D
:1016D0007C016AE0CE010E941F060E0D1F1D800FC7
:1016E000911FDF91CF911F910F91FF90EF9008957F
:1016F000AF92BF92CF92DF92EF92FF920F931F9320
:10170000CF93DF93EC018B01161617061CF06CE6E5
:1017100071E012C0CB0164E0880F991F6A95E1F770
:101720000E949A2A7C01009729F06C0120E030E0A9
:1017300040E106C061EA71E0888199810E942E2310
:101740008E819F81AA80BB8028173907E4F48885A1
:101750009985820F931F6C817D810E946D2854E0D2
:10176000880F991F5A95E1F78A0D9B1DFC01D60140
:10177000842F01900D928A95E1F72F5F3F4F80E112
:10178000C80ED11CDDCFC5010E94322BFB82EA823C
:10179000198618868E819F819B878A871D830C837B
:1017A000DF91CF911F910F91FF90EF90DF90CF903D
:1017B000BF90AF9008950F931F93CF93DF938C0149
:1017C000EB018E819F81892B31F46BED71E0888173
:1017D00099810E942E23EA81FB81888599859C014D
:1017E0002F5F3F4F39872887A4E0880F991FAA955C
:1017F000E1F7E80FF91F80E1D80101900D928A9579
:10180000E1F72E813F81215031093F832E836C8186
:101810007D81888599858617970711F41986188622
:101820002115310599F0CB0177FD039695958795A4
:1018300095958795821793074CF077FF02C06F5FED
:101840007F4F75956795CE010E94780BC801DF9197
:10185000CF911F910F9108950F931F93CF93DF9313
:10186000EC018B018E819F812C813D818217930732
:1018700031F4BC01660F771FCE010E94780BAA815C
:10188000BB818A859B859C012F5F3F4F3B872A87C1
:1018900024E0880F991F2A95E1F7A80FB91F80E16E
:1018A000F80101900D928A95E1F72A853B858C819C
:1018B0009D812817390711F41B861A868E819F8116
:1018C00001969F838E83DF91CF911F910F91089591
:1018D0008F929F92AF92BF92CF92DF92EF92FF9240
:1018E0000F931F93CF93DF93CDB7DEB7A0970FB6BB
:1018F000F894DEBF0FBECDBF8C012091B1053091B1
:10190000B2058091AF059091B0052817390709F409
:10191000D1C0C8010E946C0A8093730280FF60C02E
:10192000CE0141960E94F4078091730290E09D8F52
:101930008C8FF801828593859F8F8E8F60E08081E8
:101940000E941C0780E90E94FF078FEF0E94FF079B
:10195000A82EB12C8FEF0E94FF07882E8FEF0E94D8
:10196000FF078FEF0E94FF078FEF0E94FF078F7026
:10197000982E6E01F4E1CF0ED11C76018E2D8C19BC
:10198000891538F48FEF0E94FF07F70181937F01DB
:10199000F5CF61E0F80180810E941C07998A882DAB
:1019A000807E90E055E0969587955A95E1F763E043
:1019B000AA0CBB1C6A95E1F78A0D9B1D9B8B8A8B39
:1019C00080E1FE017196DE01119601900D928A95DB
:1019D000E1F7BE016F5F7F4F8BEA95E00E942C0C10
:1019E0002091B1053091B2058091AF059091B0057D
:1019F0002817390709F45EC08091730281FF5AC02D
:101A0000CE0141960E94F4078091730290E09D8F71
:101A10008C8FF801828593859F8F8E8F60E0808107
:101A20000E941C0784E90E94FF078FEF0E94FF07B6
:101A3000A82E8FEF0E94FF07982E8FEF0E94FF07BE
:101A40008FEF0E94FF078FEF0E94FF078F70B82E65
:101A50006E01F4E1CF0ED11C76018E2D8C198B1501
:101A600038F48FEF0E94FF07F70181937F01F5CFD4
:101A700061E0F80180810E941C07B98A92949694D3
:101A800047E09422F8E0AF9E90011124290D311D0A
:101A90003B8B2A8B80E1FE017196DE01119601904D
:101AA0000D928A95E1F7BE016F5F7F4F8BEA95E05B
:101AB0000E942C0CA0960FB6F894DEBF0FBECDBFCF
:101AC000DF91CF911F910F91FF90EF90DF90CF901A
:101AD000BF90AF909F908F900895CF93DF93EC01CC
:101AE0001D821C821F821E82198618861B861A86FA
:101AF0001982188280E290E00E949A2A9B838A834E
:101B0000892B11F40E94152382E090E09D838C8341
:101B1000DF91CF9108952F923F924F925F926F92F3
:101B20007F928F929F92AF92BF92CF92DF92EF926D
:101B3000FF920F931F93CF93DF93CDB7DEB72E970E
:101B40000FB6F894DEBF0FBECDBF4C017987688712
:101B50006A01DB011496ED91FC9115978081E82FC5
:101B6000F0E0FB87EA87F2E28F9F800111240E5A92
:101B70001C4FE12CF12C8F5F8C87A885B9851496BA
:101B8000ED91FC911597808190E001962A853B8527
:101B90002E0D3F1D821793070CF4BBC098012951ED
:101BA0003109F801759780813196811104C09081C7
:101BB000992309F4A8C090E0982F88274081840FCA
:101BC000911D0896D60111964D915C911297481778
:101BD000590709F098C080E090E0F901E80FF91F7B
:101BE0004485442359F0D601A40FB11D5C9145856D
:101BF000541389C002968630910579F7F80137971A
:101C000080818695869586958250F601E80FF11DB4
:101C10006381D80116978C9170E0803129F4762F7A
:101C200066278481680F711DF8013597A080B12C5B
:101C3000BA2CAA2431968081A80EB11C319620813D
:101C400030E0322F222731968081280F311D3196C6
:101C50002080312C322C2224F8018081280E311C66
:101C60002115310511F421E030E080E090E02D876E
:101C70003E870E94F52B2B013C012D853E85B90145
:101C800080E090E00E94F52B9B01AC01C301B20102
:101C90000E9422292B013C01B50180E090E00E94C6
:101CA000F52B9B01AC01C301B2010E94562C2B0104
:101CB0003C01B10180E090E00E94F52B9B01AC015A
:101CC000C301B2010E94BE280E948F29F8017797B4
:101CD0002081318126173707B1F071836083F7EED9
:101CE000F98323E82A832C852E0D2B837C836D8337
:101CF0003DE03E838AE08F83BE016F5F7F4F8EE8B9
:101D000092E00E94B40A9FEFE91AF90A0E5D1F4F94
:101D100034CF80E1F601D40101900D928A95E1F76C
:101D2000C4012E960FB6F894DEBF0FBECDBFDF9173
:101D3000CF911F910F91FF90EF90DF90CF90BF90C8
:101D4000AF909F908F907F906F905F904F903F905B
:101D50002F9008950F931F93CF93DF93DC01149678
:101D60000D911C911597E801E8816E2F70E0D2E289
:101D7000ED9FF0011124E25CFC4F40E050E0129630
:101D8000E801288130E02F5F3F4FCA01860F971F7F
:101D900028173907A4F0CF010197EC01288130E022
:101DA000322F22278081280F311D285F3F4F19963F
:101DB0003C932E9318974F5F5F4FB296E0CFDF9121
:101DC000CF911F910F910895FC018485958597FD12
:101DD0000BC09FB7F89482E08093E9008091F200F5
:101DE0009FBF90E0019608959FB7F89482E080939A
:101DF000E9008091F2009FBF90E00895E89810926A
:101E0000750210927402E99810927702109276028D
:101E1000EE9810927D0210927C02089520918D021E
:101E2000211103C08FEF9FEF08954FB7F89422E080
:101E30002093E9002091F20030E01216130614F40A
:101E400021E030E0FC01820F94E68E1739F02898EB
:101E500090938B025091F1005193F7CF21153105EA
:101E600021F08091F200882319F04FBFC901089535
:101E70008BE68093E800F9CF0F931F93CF93DF9306
:101E80001F92CDB7DEB78C01FC018485958597FF45
:101E90000EC0CE0101960E940E0F019719F48981A0
:101EA00090E002C08FEF9FEFF80195878487F801DB
:101EB000848595850F90DF91CF911F910F910895A3
:101EC000CF93DF931F92CDB7DEB7FC018485958554
:101ED00097FD05C02FEF3FEF358724870BC0CE015C
:101EE00001960E940E0F019719F4898190E002C0BB
:101EF0008FEF9FEF0F90DF91CF91089583E0809354
:101F0000E9008091F200882319F08AE38093E800C9
:101F100008956F927F929F92AF92BF92CF92DF927D
:101F2000EF92FF920F931F93CF93DF9300D0CDB723
:101F3000DEB7F82E8B0180918D02882389F03A015B
:101F40008AEFE82E8F2D8770D82E90E4B92EEF2DD2
:101F5000E072AE2E2AE3C22EFF2DF0749F2E1EC01B
:101F60008FEF9FEF60C08FB7F894D092E900909107
:101F7000E80095FF17C09091F2006B2D691B8FBF91
:101F8000611112C0EA9461F361E070E080E090E0DA
:101F900049835A830E949D0449815A8161147104C6
:101FA00011F738C060E0EBCF262F30E062167306E1
:101FB0000CF4662D8FB7F894D092E9009091E80068
:101FC00095FF26C0262F30E0621A730AAA2029F056
:101FD0006150A8F01092F100FBCFF801F7FE07C0A6
:101FE000615058F094919093F1003196F9CF61507F
:101FF00020F091919093F100FACF020F131F90916E
:10200000E80095FF0DC06114710411F4911008C02F
:102010008FBFC4CF5D9884E680938C02CA0103C051
:10202000C092E800F5CF0F900F90DF91CF911F91F4
:102030000F91FF90EF90DF90CF90BF90AF909F9067
:102040007F906F9008950F931F93CF93DF931F920C
:10205000CDB7DEB78C0182E0898341E050E0BE015C
:102060006F5F7F4F84E00E94890F48E050E0B80125
:1020700084E40E94890F0F90DF91CF911F910F91FF
:102080000895CF93DF93DC01683818F0E8E7E60F96
:1020900025C0E62FF0E067FF12C0E058F10981E0AB
:1020A00090E001C0880FEA95EAF7809514969C911C
:1020B0001497982314969C931497E0E00FC0EB526A
:1020C000FE4FE491EE2301F1E7FF08C014968C91D6
:1020D00014978D7F14968C931497EF7780E090E09F
:1020E000EE2339F0ED01C80FD91F2E812E1301C048
:1020F0001E8201968630910599F7CD0104960E94C3
:10210000231081E090E002C080E090E0DF91CF9169
:102110000895CF93DF93DC01683818F0E8E7E60F05
:1021200024C0E62FF0E067FF11C0E058F10981E01C
:1021300090E001C0880FEA95EAF714969C911497F5
:10214000982B14969C931497E0E00FC0EB52FE4F2F
:10215000E491EE23F1F1E7FF08C014968C911497F7
:10216000826014968C931497EF7716968C9116973D
:102170008E1741F117968C9117978E1719F11896B3
:102180008C9118978E17F1F019968C9119978E17DC
:10219000C9F01A968C911A978E17A1F01B968C9104
:1021A0001B978E1779F080E090E0ED01C80FD91FE2
:1021B0002E81211102C0EE8305C001968630910563
:1021C000A1F707C0CD0104960E94231081E090E0A2
:1021D00008C081E090E013969C938E93129780E064
:1021E00090E0DF91CF910895FC011682178210864E
:1021F000118612861386148204960C942310CF93B2
:10220000DF93EC0180910701882331F083E00E9485
:10221000890F1816190634F081E090E09B838A83B9
:1022200080E090E0DF91CF9108953F924F925F92CE
:102230006F927F928F929F92AF92BF92CF92DF92D6
:10224000EF92FF920F931F93CF93DF93CDB7DEB73B
:10225000A0970FB6F894DEBF0FBECDBF7C010E94E1
:10226000E807D70116960D911D912D913C91199774
:10227000025E1F4F2F4F3F4F0617170728073907DA
:1022800008F077C00E94E807F701668377838087AC
:1022900091870480F581E02D8080A82CB12CF2E29A
:1022A0008F9E40011124612C712CC12CD12C48E04F
:1022B000342E4424439450E1552ED7011496ED91C9
:1022C000FC911597808190E0019696012A0D3B1DA7
:1022D000821793070CF44DC08301080D191D075C8C
:1022E0001C4FD80116968C9116978823D9F18C91A2
:1022F0008823C1F1CE0141960E94F407F801808144
:1023000090E09F8F8E8F848190E0982F8827258181
:10231000820F911D9B8B8A8BFE01759680E090E069
:10232000D801A80FB91F16962C91222329F00196E7
:10233000219386309105A1F78C8B398A48A2FE0142
:102340007196DE011196852D01900D928A95E1F727
:10235000BE016F5F7F4FD70112968D919C911397AD
:102360000E942C0CBFEFCB1ADB0AE2E26E0E711C4E
:10237000A4CFA0960FB6F894DEBF0FBECDBFDF91FD
:10238000CF911F910F91FF90EF90DF90CF90BF9072
:10239000AF909F908F907F906F905F904F903F9005
:1023A00008956F927F928F929F92AF92BF92CF9239
:1023B000DF92EF92FF920F931F93CF93DF93CDB7EE
:1023C000DEB760970FB6F894DEBF0FBECDBF6C01CD
:1023D0008B017A0180E1FA01DE01119601900D92E4
:1023E0008A95E1F7DA017C9011969C9011971296EC
:1023F0008C9012971B966C901B971D96AD90BC907D
:102400001E9795012150310981E090E0022E01C014
:10241000880F0A94EAF7FB019781982309F484C096
:10242000828193818E589240D1F40E94E807D801AE
:102430005A962D913D914D915C915D972E5C3F4F49
:102440004F4F5F4F261737074807590708F06CC0F2
:102450000E94E807F801628F738F848F958FD801EF
:1024600012968D919C911397DC01ED91FC91019056
:10247000F081E02D63E00995F80182819381DC0110
:10248000ED91FC910190F081E02D6A2D0995F80104
:1024900082819381DC01ED91FC910190F081E02D2E
:1024A000682D0995F80182819381DC01ED91FC9101
:1024B0000190F081E02D692D09955E01B4E0AB0E2D
:1024C000B11C4E01ECE08E0E911CD80112968D913C
:1024D0009C911397F50161915F01DC01ED91FC91F5
:1024E0000190F081E02D0995A814B90471F7F80165
:1024F00082819381DC01ED91FC910190F081E02DCE
:10250000672D0995F80182819381DC01ED91FC91A1
:102510000190F081E02D662D09956DE072E0F801E3
:10252000828193810E94B40A80E1F701D601019073
:102530000D928A95E1F7C60160960FB6F894DEBF5A
:102540000FBECDBFDF91CF911F910F91FF90EF9004
:10255000DF90CF90BF90AF909F908F907F906F90C3
:102560000895EF92FF920F931F93CF93DF93EC01A7
:10257000FB0186179707B9F000811181011511053C
:1025800039F0E480F580B7010E940F05811104C085
:10259000CE010E94630507C0FD82EC82B8018881EC
:1025A00099810E94932ACE01DF91CF911F910F91C3
:1025B000FF90EF9008950F931F93CF93DF93EC015B
:1025C0008B01FB0180819181998388838281938132
:1025D0009B838A831D821C821F821E821986188615
:1025E0006C5F7F4FCE0104960E94B112F801828584
:1025F00093859B878A87DF91CF911F910F910895D3
:10260000EF92FF920F931F93CF93DF93EC010E9401
:1026100026068C016DE0CE010E941F067C016AE057
:10262000CE010E941F060E0D1F1D800F911FDF910E
:10263000CF911F910F91FF90EF9008952F923F92AD
:102640004F925F926F927F928F929F92AF92BF92C2
:10265000CF92DF92EF92FF920F931F93CF93DF936E
:10266000CDB7DEB7C052D2400FB6F894DEBF0FBE72
:10267000CDBF00E010E060E0C8010E94E32B0F5FD7
:102680001F4F011522E01207B1F7CE010196C15E7E
:10269000DD4F99838883CF51D2408EE192E0C15EB5
:1026A000DD4FE881F981CF51D2409C011192215038
:1026B0003040E1F731E039833A838DE790E09D8344
:1026C0008C839F838E839987888762E06F8757E02A
:1026D0005B8BE0EEEC8B3D8B8CE38E8B44E04B8F81
:1026E000F1E4FC8F25E02D8F8E8F78E279A3A0E1B5
:1026F000FA2EFAA23CA38AE08EA38FEF8FA3B8ED47
:102700008B2E88A615E4E12EE9A607E4B02EBAA622
:1027100094E5D92EDBA690E29CA79DA79EA79FA734
:1027200098AB69AB3AAB5DABEEAB3FABA4E3A8AF04
:102730004DAFFEAF2FAF2196AFAF219724967FAF5D
:1027400024972596FFAE25977FE027967FAF2797A2
:102750007DE028967FAF289729969FAF29972C96E2
:10276000FFAF2C9776E4972E2D969FAE2D972E9641
:102770009FAF2E972F969FAF2F9760969FAF609732
:1027800061969FAF619762969FAF629763969FAF86
:10279000639764966FAF649765963FAF6597689649
:1027A0005FAF68976996EFAF699702E26A960FAFDD
:1027B0006A977AED6B967FAF6B97A5E86C96AFAF93
:1027C0006C97A0964FAFA09712E6A1961FAFA19766
:1027D000A2962FAFA297A3967FAFA39776E0A49679
:1027E0007FAFA497A596AFAFA597A0E3A696AFAF8E
:1027F000A697B8E07B2EA7967FAEA797B7E1A996DC
:10280000BFAFA997B4E14B2EAB964FAEAB97AE9648
:10281000FFAFAE97AF969FAEAF97B2E5CB2EE096E7
:10282000CFAEE097BFE45B2EE1965FAEE197B2E4F6
:10283000E296BFAFE297B4E46B2EE3966FAEE397F8
:10284000E4969FAFE497E5969FAFE597E6966FAF66
:10285000E697EA965FAFEA97EB96EFAFEB97EC96C9
:102860000FAFEC97B3E0ED96BFAFED970F2EFCEEF8
:10287000AF2EF02DEE96AFAEEE97CF57DF4F4883D9
:10288000C158D040CE57DF4F1883C258D040CD57E3
:10289000DF4F2883C358D040CC57DF4FB883C4588C
:1028A000D040CB57DF4F7883C558D040CA57DF4F51
:1028B000A882C658D040C957DF4FA883C758D04018
:1028C000C857DF4FF882C858D040C657DF4F38830B
:1028D000CA58D040C457DF4F2883CC58D0400F2E61
:1028E000FBE4AF2EF02DC157DF4FA882CF58D04068
:1028F0000F2EFEE43F2EF02DC057DF4F3882C05917
:10290000D040CF56DF4F5882C159D0400F2EF3E44C
:102910005F2EF02DCE56DF4F5882C259D040CD5693
:10292000DF4FA882C359D040CC56DF4F9883C4599B
:10293000D040CB56DF4F9883C559D040CA56DF4FA1
:102940009883C659D040C956DF4F6883C759D040D5
:10295000C556DF4F5883CB59D040C456DF4FE8836C
:10296000CC59D040C356DF4F0883CD59D0400F2EED
:10297000F4EF2F2EF02DC256DF4F2882CE59D040D3
:102980000F2EF3E23F2EF02DC156DF4F3882CF5984
:10299000D040CD55DF4F4883C35AD040CC55DF4F90
:1029A0001883C45AD040CB55DF4F2883C55AD04036
:1029B000CA55DF4F2882C65AD040C955DF4F7883A9
:1029C000C75AD040C855DF4F3882C85AD040C75583
:1029D000DF4FA883C95AD040C655DF4FF882CA5A84
:1029E000D0400F2EFDE13F2EF02DC455DF4F388231
:1029F000CC5AD040C255DF4F4882CE5AD040CF5437
:102A0000DF4F9882C15BD0400F2EF0E59F2EF02D56
:102A1000CE54DF4F9882C25BD040CD54DF4FC88286
:102A2000C35BD040CC54DF4F9883C45BD040CB54C1
:102A3000DF4FA882C55BD040CA54DF4F9883C65B86
:102A4000D040C954DF4F9883C75BD040C854DF4F94
:102A50009883C85BD040C754DF4F6883C95BD040C0
:102A6000C354DF4F5883CD5BD040C254DF4FE8835F
:102A7000CE5BD040C154DF4F0883CF5BD040C05401
:102A8000DF4FB883C05CD0400F2EF8E1AF2EF02DA1
:102A9000CF53DF4FA882C15CD040CB53DF4F488378
:102AA000C55CD040CA53DF4F1883C65CD040C953C1
:102AB000DF4F2883C75CD040C853DF4FB883C85C62
:102AC000D040C753DF4F7883C95CD040C653DF4F37
:102AD000A882CA5CD040C553DF4FA883CB5CD040EE
:102AE000C453DF4FF882CC5CD040C253DF4F7883B1
:102AF000CE5CD040C053DF4F3883C05DD040CD5254
:102B0000DF4F5882C35DD040CC52DF4FF883C45DA5
:102B1000D0403DE4CB52DF4F3883C55DD040CA5230
:102B2000DF4F6882C65DD040C952DF4FE882C75D83
:102B3000D040C852DF4FB882C85DD040C752DF4F87
:102B40009883C95DD040C652DF4F9883CA5DD0409C
:102B5000C552DF4F6883CB5DD040C152DF4F5883F1
:102B6000CF5DD04037E3C052DF4F3883C05ED040E6
:102B7000CF51DF4F0883C15ED04039E5CE51DF4FE2
:102B80003883C25ED0400F2EFAE6AF2EF02DCD5125
:102B9000DF4FA882C35ED040C951DF4F4883C75E74
:102BA000D040C851DF4F1883C85ED040C751DF4FB7
:102BB0002883C95ED040C651DF4F3883CA5ED040FB
:102BC000C551DF4F7883CB5ED040C451DF4FA88220
:102BD000CC5ED040C351DF4FA883CD5ED040C25100
:102BE000DF4FF882CE5ED0400F2EFBE0FF2EF02D9F
:102BF000C051DF4FF882C05FD0400F2EF4E6FF2EA9
:102C0000F02DCE50DF4FF882C25FD040CB50DF4F67
:102C10009882C55FD0400F2EF7E5FF2EF02DCA50E9
:102C2000DF4FF882C65FD040C950DF4FE882C75FF0
:102C3000D0400F2EF9E4FF2EF02DC850DF4FF88260
:102C4000C85FD040C750DF4FB882C95FD0400F2E59
:102C5000F8E4FF2EF02DC650DF4FF882CA5FD04057
:102C6000C550DF4FD882CB5FD040C450DF4F988330
:102C7000CC5FD040C350DF4F6883CD5FD040CF5F83
:102C8000DE4F5883C150D140CE5FDE4FE883C25043
:102C9000D140CD5FDE4F0883C350D140CC5FDE4FC3
:102CA000B883C450D1405AECCB5FDE4F5883C55037
:102CB000D140C75FDE4F4883C950D140C65FDE4F69
:102CC0001883CA50D140C55FDE4F2883CB50D14016
:102CD000C45FDE4FB883CC50D140C35FDE4F7883F2
:102CE000CD50D140C25FDE4F5883CE50D140C15F3E
:102CF000DE4FA883CF50D140C05FDE4F7882C051F5
:102D0000D14049E0CE5EDE4F4883C251D140CC5E17
:102D1000DE4F2883C451D140CB5EDE4F8883C5513E
:102D2000D140CA5EDE4F8882C651D140E2E4C95E1E
:102D3000DE4FE883C751D140C85EDE4FF883C851EB
:102D4000D140C75EDE4FD882C951D140C65EDE4F4A
:102D5000D882CA51D140C55EDE4FE882CB51D14006
:102D6000C45EDE4FC882CC51D140C35EDE4F388393
:102D7000CD51D140C25EDE4F9883CE51D140C15E6D
:102D8000DE4F8883CF51D140C05EDE4F8883C05272
:102D9000D140CF5DDE4F8883C152D140CE5DDE4F42
:102DA0008883C252D140CD5DDE4F8883C352D1406B
:102DB000CC5DDE4F8883C452D140CB5DDE4F88832B
:102DC000C552D140CA5DDE4F8883C652D140C95D2D
:102DD000DE4F8883C752D140C85DDE4F8883C8521A
:102DE000D140C75DDE4F8883C952D140C65DDE4FFA
:102DF0008883CA52D140C55DDE4F8883CB52D14013
:102E0000C45DDE4F8883CC52D140C35DDE4F8883E2
:102E1000CD52D140C25DDE4F8883CE52D140C15DDC
:102E2000DE4F8883CF52D140C05DDE4F8883C053D0
:102E3000D140CF5CDE4F8883C153D140CE5CDE4FA2
:102E40008883C253D140CD5CDE4F8883C353D140C9
:102E5000CC5CDE4F8883C453D140CB5CDE4F88838B
:102E6000C553D140CA5CDE4F8883C653D140C95C8C
:102E7000DE4F8883C753D140C85CDE4F8883C85378
:102E8000D140C75CDE4F8883C953D140C65CDE4F5A
:102E90008883CA53D140C55CDE4F8883CB53D14071
:102EA000C45CDE4F8883CC53D140C35CDE4F888343
:102EB000CD53D140C25CDE4F8883CE53D1404EE12A
:102EC00052E060E070E0CE0101960E94D92B0E9492
:102ED000F11C65E572E089E495E00E94001306E0CC
:102EE00010E061E08DE00E941C0764EF71E080E07B
:102EF00090E00E949D0460E08DE00E941C0764EF5A
:102F000071E080E090E00E949D040150110949F7B2
:102F1000C05EDD4F0FB6F894DEBF0FBECDBFDF91B0
:102F2000CF911F910F91FF90EF90DF90CF90BF90C6
:102F3000AF909F908F907F906F905F904F903F9059
:102F40002F9008953F924F925F926F927F928F924F
:102F50009F92AF92BF92CF92DF92EF92FF920F9328
:102F60001F93CF93DF93CDB7DEB7EE970FB6F894EC
:102F7000DEBF0FBECDBF8C016330710509F427C4DD
:102F80000CF048C06130710509F44DC06230710524
:102F900009F0F6C44CE050E0BE016E5C7F4F0E9429
:102FA000C304CE0182960E94F4078AA990E098ABF0
:102FB0008FA78BA990E0982F88272CA9820F911DAD
:102FC0009CA38BA38DA98DA38EA98EA38FA98FA35C
:102FD00088AD88A789AD89A78AAD8AA78BAD8BA755
:102FE0008CAD8CA78DAD8AA381E089AB80E1FE0119
:102FF000B296DE01119601900D928A95E1F7BE011D
:103000006F5F7F4FD80114968D919C9115970E9408
:103010002C0CB6C46430710509F46CC468307105B9
:1030200009F483C4ADC441E050E0BE01625C7F4F4F
:103030000E94C304019709F0A3C48EAD90E0FC0187
:103040003197E631F10508F09BC4EB59FF4F0C9422
:10305000A32860E172E0CE0101967C010E948F05F9
:1030600066E172E0CE0182960E948F0564E272E012
:10307000CE01C2960E948F054EA15FA16AA17BA1DD
:10308000CE01C2960E943705811104C0CE01C296BE
:103090000E94630561E472E0CE01C2960E9475054C
:1030A00065E472E00E9475056C014D815E81698165
:1030B0007A810E943705811103C0C6010E94630511
:1030C00061E472E0C6010E94750561E572E00E944C
:1030D0007505F801A281B3812D913C911197FC01F6
:1030E0004481558160817181F90122813381CD0153
:1030F000F9010995CE01C2960E94CB05CE018296B8
:103100000E94CB05C7010E94CB05809111069091CA
:103110001206009711F485E196E0B701681B790B60
:10312000D80112968D919C9113970E94230B61E810
:1031300072E097C067E872E0D80112968D919C9179
:1031400013970E942606E12CF12CC7010E94D12B77
:10315000D82EBFE0B81738F06CE572E0F801828134
:1031600093810E94B40A4D2D50E060E070E020E1B0
:10317000D80112968D919C9113970E94CA0AF8016A
:10318000828193818E589240A9F4D80158968D91EE
:103190009C915997019659969C938E9358970897AE
:1031A0004CF064E170E080E090E00E949D04F80142
:1031B000118E108EFFEFEF1AFF0AE11422E0F206E3
:1031C00021F664E872E0D80112968D919C911397D4
:1031D0000E940013D5C342E250E0BE016F5F7F4FF3
:1031E000C8010E94C304829709F03FC08AA1813AB6
:1031F000E1F5A981E0E2AE9FD0011124A55DBC4FAD
:1032000080E2FE01329601900D928A95E1F769E025
:1032100073E0D80112968D919C9113970E94260617
:10322000498150E060E070E02AE0F80182819381FA
:103230000E94CA0A66E073E0D80112968D919C91B3
:1032400013970E94001389818F3009F099C34EE1D2
:1032500052E060E070E08BE293E00E94D92B6BEDCE
:1032600072E0F80182819381B3CF66EA72E0D801FF
:1032700012968D919C9113970E942606498150E0E9
:1032800060E070E02AE0F801828193810E94CA0A1E
:1032900063EA72E098CF0E941E1372C341E050E0CF
:1032A000BE01625C7F4FC8010E94C304F801C28066
:1032B000D3807EAC8FEF870D833008F061C3272D5C
:1032C00030E0215031098CE0829FB001839F700D66
:1032D000112465547A4FCE0182960E94DB126FE072
:1032E00070E0CE0182960E94980A382E6BE270E060
:1032F000CE0182960E94980A482E82E1E0E1F1E038
:10330000DE01119601900D928A95E1F7CE010196AA
:103310005C014E0193E1890E911C512C612C63E6F6
:1033200073E0C6010E942606D501ED90FD905D0177
:10333000B701C6010E94230B6EE572E0C6010E9430
:103340005A0B60E070E0CE0182960E94380A65E078
:1033500070E080E090E00E949D04B701CE0182966B
:103360000E94380865E070E080E090E00E949D04D3
:1033700063E070E0CE0182960E94380A65E070E05A
:1033800080E090E00E949D042FEF40E06CE2CE01CF
:1033900082960E940D0A65E070E080E090E00E9455
:1033A0009D0468EC70E080E090E00E949D046CE277
:1033B00070E0CE0182960E94980A982F9095991FEE
:1033C0009927991F21E0811101C020E0922311F477
:1033D000E52CF62CA814B90419F05E2C6F2C9FCFA5
:1033E00060E070E0CE0182960E94380A6AE070E0E8
:1033F00080E090E00E949D04B701CE0182960E9479
:10340000380861E070E080E090E00E949D042FEFBA
:10341000432D6FE0CE0182960E940D0A61E070E0BC
:1034200080E090E00E949D042FEF442D6BE2CE01DE
:1034300082960E940D0A61E070E080E090E00E94B8
:103440009D0461E070E0CE0182960E94380A6EE32E
:1034500073E0C6010E942606B701C6010E94230B35
:103460006EE572E0C6010E945A0BE114F10409F402
:103470008BC1B701872D0E94342386C143E050E001
:10348000BE016F5F7F4FC8010E94C304833051F4B7
:103490006A8170E0762F66278B81680F711D8981A4
:1034A0000E94342361E973E0F801828193810E94D4
:1034B0002606498150E060E070E02AE0D8011296CB
:1034C0008D919C9113970E94CA0A66E873E0F801F7
:1034D000828193810E942606E9818FEF8E0F8330CF
:1034E00040F4F0E0EE0FFF1FE75DFC4F6381748155
:1034F00002C060E070E0D80112968D919C91139704
:103500000E94230B64E873E0ACCE41E050E0BE01C2
:103510006E5C7F4FC8010E94C3048AA99FEF980F79
:10352000933008F02DC290E001972CE0289FB00165
:10353000299F700D112465547A4FCE0182960E9406
:10354000DB1267E175E0D80112968D919C9113977B
:103550000E942606F80182819381DC01ED91FC91A5
:103560004AA55BA56EA17FA10280F381E02D09959C
:1035700068E075E0F801828193810E9426066FE081
:1035800070E0CE0182960E94980A482F50E060E0D9
:1035900070E020E1D80112968D919C9113970E94C2
:1035A000CA0A6AEF74E0F801828193810E942606BC
:1035B000CE0182960E946C0A482F50E060E070E0D5
:1035C00020E1D80112968D919C9113970E94CA0A0E
:1035D0006DEE74E0F801828193810E9426066DE20F
:1035E00070E0CE0182960E94980A482F50E060E079
:1035F00070E020E1D80112968D919C9113970E9462
:10360000CA0AF801828193818954954009F0A2C0C9
:103610006CED74E089E495E00E942606BE016E5DC3
:103620007F4FCE0101960E94DB126DE270E0CE0169
:1036300001960E94980A80FF09C06AE974E0D801E7
:1036400012968D919C9113970E9426066DE270E070
:10365000CE0101960E94980A81FF07C066E774E0D8
:10366000F801828193810E9426066DE270E0CE010E
:1036700001960E94980A82FF09C061E574E0D801B2
:1036800012968D919C9113970E9426066DE270E030
:10369000CE0101960E94980A83FF07C06CE274E095
:1036A000F801828193810E9426066DE270E0CE01CE
:1036B00001960E94980A84FF09C066E074E0D80170
:1036C00012968D919C9113970E9426066DE270E0F0
:1036D000CE0101960E94980A85FF07C069EE73E04B
:1036E000F801828193810E9426066DE270E0CE018E
:1036F00001960E94980A86FF09C06DEC73E0D8011C
:1037000012968D919C9113970E9426066DE270E0AF
:10371000CE0101960E94980A87FF07C061EB73E013
:10372000F801828193810E9426066DE270E0CE014D
:1037300001960E94980A811109C067EA73E0D801D6
:1037400012968D919C9113970E942606CE010596A4
:103750000E94CB0568EC74E0F801828193810E949D
:103760002606CE0182960E94840ABC01D8011296D8
:103770008D919C9113970E94230B65EC74E0F801E6
:10378000828193810E940013CE018696B0C0F89486
:1037900081E08093E00080E28093D8001092C9001D
:1037A00065E070E080E090E00E949D041DBA1092F8
:1037B00068001CBC10BE1FBA10927A0010926E00F6
:1037C00010926F00109271000C940038D9C0BE01A5
:1037D0006E5D7F4F86E0FB0111928A95E9F746E026
:1037E00050E0C8010E94C3047C012AA18FEF820F20
:1037F000833070F0D80112968D919C911397DC0163
:10380000ED91FC910190F081E02D60E80995B8C040
:1038100030E0215031098CE0829FB001839F700D10
:10382000112465547A4FCE0101960E94DB122BA120
:103830009AA1F80187819150222351F021E030E0D4
:10384000092E01C0220F0A94EAF7282B27830AC009
:1038500021E030E0092E01C0220F0A94EAF72095FA
:1038600028232783B3E0EB16F1046CF160E070E0ED
:10387000CE0101960E94380ACE0101960E94A1094C
:103880006CA170E02DA130E04EA150E0EFA1F0E07E
:10389000CB01820F931F840F951F8E0F9F1F892BC3
:1038A00061F0542F44274E0F5F1F762F6627620F5B
:1038B000731FCE0101960E94B30961E070E0CE0152
:1038C00001960E94380AF80182819381DC01ED9112
:1038D000FC910190F081E02D6FEF09956DE072E0B1
:1038E000F801828193810E94B40ACE0105960E945C
:1038F000CB0546C045E050E0BE016F5F7F4F0E94A0
:10390000C30489818430E0F590E0FC013396EE0F2A
:10391000FF1FE00FF11F2B812083FC01EE0FFF1F23
:10392000E00FF11F8D8187832BC041E050E0BE0185
:103930006F5F7F4F0E94C3048981823029F08330FA
:10394000F9F4F80116821CC081E0D80116968C9318
:1039500061E08DE00E941C0764E670E080E090E08A
:103960000E949D0460E08DE00E941C0764E670E008
:1039700080E090E00E949D0461E08DE00E941C07C1
:10398000F80182819381DC01ED91FC910480F58145
:10399000E02D0995892B69F0D80112968D919C91A3
:1039A0001397DC01ED91FC910680F781E02D0995DC
:1039B000E7CFEE960FB6F894DEBF0FBECDBFDF9116
:1039C000CF911F910F91FF90EF90DF90CF90BF901C
:1039D000AF909F908F907F906F905F904F903F90AF
:1039E00008958EE192E0EBE2F3E0DF019C011D928D
:1039F00021503040E1F74EE152E060E070E0CF014D
:103A00000E94C12B80912C0381508E3F10F00C94AA
:103A10001E130895AF92BF92CF92DF92EF92FF9262
:103A20000F931F93CF93DF9300D01F92CDB7DEB7D4
:103A30008C01FC018281882361F04381548165817E
:103A400076814F5F5F4F6F4F7F4F43835483658312
:103A50007683F80183819481A581B68181329E4469
:103A6000A105B10508F4D0C1F801138214821582B2
:103A70001682F09007016AE070E080E090E00E941A
:103A80009D04F110C1C160E088E00E941C0788E13C
:103A90000FB6F89480936000109260000FBE48E06B
:103AA000F42E729A64E670E080E090E00E949D043B
:103AB0008EB11EB864E670E080E090E00E949D0444
:103AC000FA9479F72CEDE22EF12C30E4C32E35E098
:103AD000D32E61E08DE00E945207F601849190E0C0
:103AE000FC013197EF30F10508F06CC0E558FF4F4D
:103AF0000C94A32884B5806884BDE7BC6DC084B5F0
:103B0000806284BDE8BC68C080918000806880933A
:103B10008000F0928900E09288005EC08091800071
:103B2000806280938000F0928B00E0928A0054C003
:103B300080918000886080938000F0928D00E092F8
:103B40008C004AC080919000806880939000F09231
:103B50009900E092980040C080919000806280932C
:103B60009000F0929B00E0929A0036C08091900005
:103B7000886080939000F0929D00E0929C002CC0A1
:103B80008091C00080688093C0008091C0008F7BCE
:103B90008093C000E092CF001FC08091C00080627F
:103BA0008093C000E092D00017C08091C20088606E
:103BB0008093C2008091C2008B7F8093C200E0920C
:103BC000D2000AC0F0E8EF16F10414F460E001C07E
:103BD00061E08DE00E941C0761E070E080E090E011
:103BE0000E949D0421E0E21AF10809F072CF60E022
:103BF00070E08BEB95E00E94380AF80167817085D0
:103C0000AB018BEB95E00E94B30923E040E06CE24E
:103C10008BEB95E00E940D0A61E070E08BEB95E084
:103C20000E94380A62E070E080E090E00E949D040B
:103C300093EDE92E95E0F92E6E01F4E0CF0ED11C44
:103C4000CE0101965C016FE070E0C7010E94980A06
:103C5000F60182936F0128E048E06CE0C7010E9402
:103C60000D0A22E040E06CE0C7010E940D0A20E24C
:103C700040E26CE0C7010E940D0ACA14DB0429F07F
:103C800062E070E0C7010E94380A23E040E06CE285
:103C9000C7010E940D0AFCE0EF1AF108CA14DB0408
:103CA00091F68EEF9EE090937502809374022091BE
:103CB00069002C7F20936900E89A909377028093A3
:103CC000760220916900237F20936900E99A9093FE
:103CD0007D0280937C0280916A008F7C80936A00D1
:103CE000EE9A83B7817F846083BFF89483B7816045
:103CF00083BF78948091640081608093640088958C
:103D000064E070E080E090E00E949D0483B78E7FC5
:103D100083BF809164008E7F8093640062E070E0D6
:103D200080E090E00E949D048BEBE82E85E0F82E69
:103D3000C12CD12C20E440E46CE2C7010E940D0AA2
:103D400020E440E46BE2C7010E940D0A62E070E0EB
:103D500080E090E00E949D0420E440E06BE2C70117
:103D60000E940D0A20E440E06CE2C7010E940D0AA7
:103D70002FEF40E06CE2C7010E940D0A20E240E014
:103D80006CE0C7010E940D0A61E070E080E090E005
:103D90000E949D04C114D10481F462E070E080E0CF
:103DA00090E00E949D0460E070E08BEB95E00E9443
:103DB000380A8BEB95E00E94A109F50141915F0162
:103DC00020EE6FE0C7010E940D0A62E070E080E023
:103DD00090E00E949D04FFEFCF1ADF0A2CE0E20E74
:103DE000F11C83E0C816D10409F0A4CF729A60E0F8
:103DF0008DE00E941C0761E088E00E941C07F8012A
:103E000013821482158216820F900F900F90DF910B
:103E1000CF911F910F91FF90EF90DF90CF90BF90C7
:103E2000AF900895CF93DF93EC018E81882331F119
:103E300089E495E00E94E40E892B81F089E495E005
:103E40000E94600FE0918E02F0918F020190F0814C
:103E5000E02D682F8EE892E00995EACF8EE892E097
:103E60000E94C103892B71F18EE892E00E949F03AA
:103E7000682F89E495E00E94E003F0CF8EE892E09D
:103E80000E94C1031816190654F48EE892E09B8331
:103E90008A830E949F03BC01CE010E94A21789E47D
:103EA00095E00E94E40E1816190664F489E495E082
:103EB0009B838A830E94600FBC01CE01DF91CF916A
:103EC0000C94A217DF91CF9108951F920F920FB615
:103ED0000F9211242F933F934F935F936F937F9390
:103EE0008F939F93AF93BF93EF93FF9380917A0249
:103EF00090917B02892B29F0E0917A02F0917B026C
:103F00000995FF91EF91BF91AF919F918F917F9113
:103F10006F915F914F913F912F910F900FBE0F9036
:103F20001F9018951F920F920FB60F9211242F9386
:103F30003F934F935F936F937F938F939F93AF9331
:103F4000BF93EF93FF938091780290917902892B30
:103F500029F0E0917802F09179020995FF91EF91B3
:103F6000BF91AF919F918F917F916F915F914F9191
:103F70003F912F910F900FBE0F901F9018951F9299
:103F80000F920FB60F9211242F933F934F935F938D
:103F90006F937F938F939F93AF93BF93EF93FF9311
:103FA0008091760290917702892B29F0E091760238
:103FB000F09177020995FF91EF91BF91AF919F9199
:103FC0008F917F916F915F914F913F912F910F90C2
:103FD0000FBE0F901F9018951F920F920FB60F9261
:103FE00011242F933F934F935F936F937F938F93FE
:103FF0009F93AF93BF93EF93FF938091740290913F
:104000007502892B29F0E0917402F09175020995EF
:10401000FF91EF91BF91AF919F918F917F916F91A0
:104020005F914F913F912F910F900FBE0F901F9076
:1040300018951F920F920FB60F9211242F933F9352
:104040004F935F936F937F938F939F93AF93BF93A0
:10405000EF93FF938EE892E00E944B06FF91EF9161
:10406000BF91AF919F918F917F916F915F914F9190
:104070003F912F910F900FBE0F901F9018951F9298
:104080000F920FB60F9211242F938F939F93EF935C
:10409000FF93E0919E02F0919F028081E091A40243
:1040A000F091A50282FD12C090818091A7028F5FDE
:1040B0008F732091A802821751F0E091A702F0E0DF
:1040C000E257FD4F958F8093A70201C08081FF9139
:1040D000EF919F918F912F910F900FBE0F901F9096
:1040E00018951F920F920FB60F9211242F933F93A2
:1040F0008F939F93AF93BF9380918202909183029D
:10410000A0918402B09185023091860223E0230FB2
:104110002D3720F40196A11DB11D05C026E8230FFF
:104120000296A11DB11D2093860280938202909376
:104130008302A0938402B093850280917E029091C5
:104140007F02A0918002B09181020196A11DB11D54
:1041500080937E0290937F02A0938002B0938102AD
:10416000BF91AF919F918F913F912F910F900FBE73
:104170000F901F9018951F920F920FB60F92112457
:104180002F933F934F935F936F937F938F939F935F
:10419000AF93BF93EF93FF9380917C0290917D0248
:1041A000892B29F0E0917C02F0917D020995FF9125
:1041B000EF91BF91AF919F918F917F916F915F919F
:1041C0004F913F912F910F900FBE0F901F90189518
:1041D0001F920F920FB60F9211248F939F9380918D
:1041E000E1001092E10083FF0FC01092E90091E01E
:1041F0009093EB001092EC0092E39093ED001092FC
:104200008D0298E09093F00082FF24C083E08093B9
:10421000E9008091F200882319F08AE38093E80096
:1042200080918C02882339F080918C028150809398
:104230008C02882369F080918B02882359F0809149
:104240008B02815080938B02811104C0289A02C096
:104250005D9AF1CF9F918F910F900FBE0F901F909D
:1042600018951F920F920FB60F9211240F931F9360
:104270002F933F934F935F936F937F938F939F936E
:10428000AF93BF93EF93FF93CF93DF93CDB7DEB799
:104290006297DEBFCDBF1092E9008091E80083FFF6
:1042A0006BC168E0CE010A960E94120682EF8093ED
:1042B000E8009A8597FF05C08091E80080FFFCCF59
:1042C00003C08EEF8093E800892F807609F0C7C085
:1042D0008B85811105C01092F1001092F10036C15A
:1042E000282F2D7F213009F431C1853049F4809188
:1042F000E80080FFFCCF8C8580688093E30026C1B6
:10430000863009F082C02D85088919891092E9004C
:1043100010928A02109289022230A1F5109288022E
:10432000109287022A8B0E94010699E0BE016F5FFE
:104330007F4FFB01392F11923A95E9F799832A892A
:104340002A8391E09E8390E898879AEF998720913D
:10435000890230918A02275F3F4F3C832B838D83F4
:104360001092E90010928A0210928902109388023A
:104370000093870249E050E080E00E94D0050E944F
:104380000106E4C01093880200938702223259F498
:1043900045E650E061E575E080E80E94D005892B94
:1043A00009F0D4C0D7C0213069F488899989089769
:1043B00011F42093030680910306811118C064ED67
:1043C00075E01AC0233009F0C5C08C85882391F0B0
:1043D000823021F46DE086EC95E006C0813009F072
:1043E000B9C06BE08AEB95E00E94D722ADC066EEC3
:1043F00075E002C066EB75E06115710509F4AAC0AD
:10440000FB01449150E080E845C0873009F4A2C028
:10441000883021F481E08093F10098C0893009F060
:1044200095C0937009F096C0E9EFF5E081E021E0D6
:1044300096E38093E9002093EB0034913093EC00F5
:104440009093ED008F5F3196853099F78EE78093DA
:10445000EA001092EA008C8580938D0277C08889EB
:1044600099891092E90010928A0210928902909321
:104470008802809387028E8581114BC08B859A8537
:10448000913A59F4813209F065C047E050E060E0AC
:1044900071E080E00E94D00559C0913209F05AC005
:1044A000803269F48091E80082FFFCCF67E080E011
:1044B00091E00E9412068BEF8093E80006C08232E2
:1044C00009F044C08C858093070180910001909190
:1044D0000101A0910201B0910301803B9440A1052C
:1044E000B10509F03BC08091070180FD37C087E727
:1044F00097E790930108809300082BE088E190E013
:104500000FB6F894A895809360000FBE20936000CA
:104510001DC08230F9F49B858A85813A39F4913047
:10452000A9F081E0933081F080E00EC0813291F4F7
:104530009B3021F48C858093090108C09A3051F496
:104540008C858093080102C0882321F08EEF809330
:10455000E80012C081E28093EB000EC088E10FB644
:10456000F89480936000109260000FBEA89510929E
:10457000010810920008EACF62960FB6F894DEBFE9
:104580000FBECDBFDF91CF91FF91EF91BF91AF9162
:104590009F918F917F916F915F914F913F912F915B
:1045A0001F910F910F900FBE0F901F901895CF92F3
:1045B000DF92FF920F931F93CF93DF931F92CDB79C
:1045C000DEB7082F162F862F880F8E5F99830E94E3
:1045D000490383E00E944903F02EC02E9981D92E11
:1045E0008C2D8F19811778F4F60184910E9449036C
:1045F000082F80E00E9449038023FFEFCF1ADF0AD3
:104600008111EECF01C081E00F90DF91CF911F911A
:104610000F91FF90DF90CF900895DC01ED91FC9118
:104620000190F081E02D642F099461E08DE00E94FB
:10463000520761E08DE00E941C076AEF70E080E0A5
:1046400090E00E949D0460E08DE00E941C076AEFEC
:1046500070E080E090E00E949D04EBCF009711F0A5
:104660000E945A0B0E9415239FEF980F933098F4E5
:104670001616170684F4E82FF0E0EE0FFF1FE75D33
:10468000FC4F748363834EE152E060E070E08BE2A4
:1046900093E00C94D92B0895CF93DF93C1EAD5E032
:1046A000888199810E94322B198218821092A0056C
:1046B00010929F051092A4051092A3051092A605D2
:1046C0001092A5051092A8051092A7051092AA05B0
:1046D0001092A905CDEAD5E0888199810E94322BFC
:1046E000198218821092AC051092AB051092B00599
:1046F0001092AF051092B2051092B1051092B40558
:104700001092B3051092B6051092B50587ED95E0AD
:104710000E94CB058BEC95E00E94CB058FEB95E0DA
:104720000E94CB0583EE95E00E94CB058FEE95E0CD
:104730000E94CB058BEF95E0DF91CF910C94CB05D8
:10474000CF93DF93CDB7DEB7EC970FB6F894DEBF0B
:104750000FBECDBF789484B5826084BD84B581607E
:1047600084BD85B5826085BD85B5816085BD80913C
:104770006E00816080936E001092810080918100B4
:1047800082608093810080918100816080938100AC
:104790008091800081608093800080919100826090
:1047A000809391008091910081608093910080912D
:1047B00090008160809390008091C100846080931C
:1047C000C1008091C10082608093C1008091C100CE
:1047D00081608093C1008091C30081608093C30099
:1047E0008091C00082608093C0008091C20081608F
:1047F0008093C20080917A00846080937A008091D7
:104800007A00826080937A0080917A008160809340
:104810007A0080917A00806880937A0010928D02ED
:1048200081E08093D70080EA8093D80082E189BD3F
:1048300009B400FEFDCF61E070E080E090E00E94EE
:104840009D0480E98093D8008CE08093E200109270
:10485000E000559A209A0E94F11C61E070E080E02F
:1048600090E00E949D0480919B0590919C050E9480
:10487000AA0E8FEF9FEF9093560580935505E09118
:104880009E02F0919F0282E08083E0919E02F0916F
:104890009F021082E0919A02F0919B021082E091B7
:1048A0009C02F0919D0280E180831092A602E0912B
:1048B000A202F091A30286E08083E091A002F09131
:1048C000A102808180618083E091A002F091A10229
:1048D000808188608083E091A002F091A1028081B4
:1048E00080688083E091A002F091A10280818F7D99
:1048F00080836A9A729A61E088E00E94520761E0C0
:1049000088E00E941C0761E08DE00E94520760E091
:1049100083E00E94520760E082E00E94520760E05C
:1049200087E00E94520761E084E00E94520761E044
:104930008CE00E94520761E08BE00E94520761E028
:1049400089E00E94520761E08AE00E94520761E01C
:1049500085E00E94520760E084E00E941C0760E04E
:104960008CE00E941C0760E08BE00E941C0787EF30
:1049700095E00E948B0787EF95E00E941F086091E9
:104980002E0370912F0387EF95E00E94380887EF80
:1049900095E00E94060824E044E060E687EF95E099
:1049A0000E940D0A20E240E269E287EF95E00E9452
:1049B0000D0A87EF95E00E94A10961E070E087EFA2
:1049C00095E00E94380A8BEE95E00E948B078BEEF3
:1049D00095E00E941F0860913003709131038BEEC7
:1049E00095E00E9438088BEE95E00E94060824E0CE
:1049F00044E060E68BEE95E00E940D0A8BEE95E0B8
:104A00000E94A10961E070E08BEE95E00E94380AF7
:104A10008FED95E00E948B078FED95E00E941F08B7
:104A200060913203709133038FED95E00E94380856
:104A30008FED95E00E94060824E044E060E68FEDEB
:104A400095E00E940D0A8FED95E00E94A10961E0BA
:104A500070E08FED95E00E94380A05E010E061E01B
:104A60008DE00E941C0762E370E080E090E00E940D
:104A70009D0460E08DE00E941C0762E370E080E02E
:104A800090E00E949D040150110949F760E1D62E83
:104A90008E010C5F1F4F8091990590919A05DC0162
:104AA000ED91FC910190F081E02D099583E00E9449
:104AB000F306892B71F467EF75E0CE0101960E9431
:104AC000DB12CE0101960E94680CCE0105960E9471
:104AD000CB0582E00E94F306892B71F46BEE75E042
:104AE000CE0101960E94DB12CE0101960E94680C55
:104AF000CE0105960E94CB0587E00E94F306892B24
:104B000071F46FED75E0CE0101960E94DB12CE01CB
:104B100001960E94680CCE0105960E94CB058091FB
:104B2000B1059091B205892B09F446C02091A505E5
:104B30003091A6058091A3059091A4052817390707
:104B4000D9F16BEA75E0CE0181960E94DB0B609192
:104B5000990570919A05DB01ED91FC9122813381D9
:104B6000FE01B196DE0151968D2D01900D928A9530
:104B7000E1F7AE014F5E5F4FCE010196F901099555
:104B8000FE013196DE0191968D2D01900D928A9550
:104B9000E1F788A9882381F0FE01B196DE01119624
:104BA0008D2D01900D928A95E1F7BE016F5F7F4FC9
:104BB0008FE995E00E942C0CCC24C3945CE0B52EC8
:104BC0008091A5059091A605892B11F0C11003C015
:104BD0000E94D60360CF6FE975E0CE0141960E9436
:104BE000DB0B8E8D9F8D0197B89EB001B99E700D25
:104BF000112465547A4FCE01C1960E94DB12BE018A
:104C00006F5C7F4FCE0181960E94DB12FE01719690
:104C1000DE0111968D2D01900D928A95E1F7A988FC
:104C2000EA88FB8888A1882309F4B6C061E08DE09A
:104C30000E941C07CE0181960E94840A8130910552
:104C4000D1F18230910509F469C0892B09F0A3C024
:104C500060E089A10E941C0780E40E94FF07C70151
:104C600043E0969587954A95E1F70E94FF078E2DC0
:104C70008295880F807E0E94FF0780E00E94FF07D8
:104C800080E00E94FF078A2D0E94FF0778018E2D89
:104C9000801B8A1530F4F70181917F010E94FF0784
:104CA000F6CF61E089A10E941C0760E089A10E9403
:104CB0001C0781E865C060E089A10E941C0782E4AE
:104CC0000E94FF07C70133E0969587953A95E1F773
:104CD0000E94FF078E2D8295880F807E0E94FF071D
:104CE00080E00E94FF0780E00E94FF078A2D0E945B
:104CF000FF0778018E2D801B8A1530F4D7018D9126
:104D00007D010E94FF07F6CF61E089A10E941C0788
:104D100060E089A10E941C0782E832C060E089A19E
:104D20000E941C0784E40E94FF07C70123E09695B8
:104D300087952A95E1F70E94FF078E2D8295880FAF
:104D4000807E0E94FF0780E00E94FF0780E00E94B3
:104D5000FF078A2D0E94FF0778018E2D801B8A1580
:104D600030F4F70181917F010E94FF07F6CF61E0E7
:104D700089A10E941C0760E089A10E941C0783E8AA
:104D80000E94FF0761E089A10E941C0760E08DE09E
:104D90000E941C0701C0C12CCE0185960E94CB0544
:104DA000C11010C0FE017196DE0111968D2D01908B
:104DB0000D928A95E1F7BE016F5F7F4F8FE995E015
:104DC0000E942C0CCE01C5960E94CB05F9CECF9245
:104DD000DF92EF92FF920F931F93CF93DF9300D058
:104DE00000D000D0CDB7DEB71092100610920706A3
:104DF0001092060686E291E09093050680930406E1
:104E0000109291021092900288EE93E0A0E0B0E040
:104E10008093920290939302A0939402B093950290
:104E200024E331E030938F0220938E022DEC30E0AA
:104E300030939B0220939A022CEC30E030939D0239
:104E400020939C0228EC30E030939F0220939E0236
:104E500029EC30E03093A1022093A0022AEC30E04C
:104E60003093A3022093A2022EEC30E03093A502EF
:104E70002093A4021092A7021092A8021092A902F5
:104E80001092AA0210924C0510924B0580934D058A
:104E900090934E05A0934F05B093500584E491E0A4
:104EA00090934A05809349058FEF9FEF90935605A5
:104EB0008093550560E672E0CE0101960E948F0551
:104EC0006FE072E08BEF95E00E948F0589E090E043
:104ED0009093F8058093F70584E090E09093FA05AD
:104EE0008093F90581E090E090930206809301069B
:104EF000BE016F5F7F4F8BEF95E00E94B112CE0134
:104F000001960E94CB0566E672E0CE0101960E94F2
:104F10008F056FE072E08FEE95E00E948F058AE0CA
:104F200090E09093EC058093EB058CE090E09093FB
:104F3000EE058093ED0502E010E01093F605009376
:104F4000F505BE016F5F7F4F8FEE95E00E94B112B5
:104F5000CE0101960E94CB056CE672E0CE0101966F
:104F60000E948F056FE072E083EE95E00E948F054E
:104F700085E090E09093E0058093DF058BE090E082
:104F80009093E2058093E10583E090E09093EA0539
:104F90008093E905BE016F5F7F4F83EE95E00E942D
:104FA000B112CE0101960E94CB0567EF75E08BEB45
:104FB00095E00E94DB126BEE75E087EC95E00E94B5
:104FC000DB126FED75E083ED95E00E94DB120E942D
:104FD000E8076093B7057093B8058093B90590937F
:104FE000BA058BEA95E00E946D0D1092A40510920F
:104FF000A3051092A6051092A5051092A80510927F
:10500000A7051092AA051092A9058FE9C82E85E080
:10501000D82E1092A00510929F0580E290E00E9489
:105020009A2A9093A2058093A105892B11F40E94DE
:1050300015231093A4050093A3058EE190E00E9430
:105040009A2A8C0186E691E0F80191838083C80159
:1050500008960E94F407F801D582C482178216824E
:1050600089E495E093838283128E138E148E158EBD
:1050700010939E0500939D058EE090E00E949A2A71
:105080007C018CE591E0F701918380830E94E80721
:10509000F70166837783808791878DE293E095831C
:1050A0008483D382C282C7010E94AA0EF0929C051B
:1050B000E0929B0510939A050093990526960FB6EA
:1050C000F894DEBF0FBECDBFDF91CF911F910F913E
:1050D000FF90EF90DF90CF90089597FB072E16F486
:1050E000009407D077FD09D00E94A92807FC05D0BD
:1050F0003EF4909581959F4F0895709561957F4FEF
:105100000895A1E21A2EAA1BBB1BFD010DC0AA1F08
:10511000BB1FEE1FFF1FA217B307E407F50720F020
:10512000A21BB30BE40BF50B661F771F881F991F9B
:105130001A9469F760957095809590959B01AC01E4
:10514000BD01CF010895EE0FFF1F0590F491E02DF2
:105150000994AA1BBB1B51E107C0AA1FBB1FA617BE
:10516000B70710F0A61BB70B881F991F5A95A9F710
:1051700080959095BC01CD0108955058BB27AA2772
:105180000ED00EC4FFD330F004D420F031F49F3F92
:1051900011F41EF4F4C30EF4E095E7FBEAC3E92F23
:1051A00010D480F3BA17620773078407950718F0C5
:1051B00071F49EF528C40EF4E0950B2EBA2FA02DA5
:1051C0000B01B90190010C01CA01A0011124FF27B4
:1051D000591B99F0593F50F4503E68F11A16F040AF
:1051E000A22F232F342F4427585FF3CF46953795AE
:1051F0002795A795F0405395C9F77EF41F16BA0B73
:10520000620B730B840BBAF09150A1F0FF0FBB1F20
:10521000661F771F881FC2F70EC0BA0F621F731F69
:10522000841F48F4879577956795B795F7959E3FC6
:1052300008F0B3CF9395880F08F09927EE0F979554
:10524000879508950CD0ACC3A4D340F09BD330F025
:1052500021F45F3F19F08DC35111D6C390C3B1D370
:1052600098F39923C9F35523B1F3951B550BBB272D
:10527000AA2762177307840738F09F5F5F4F220FDA
:10528000331F441FAA1FA9F333D00E2E3AF0E0E8D3
:1052900030D091505040E695001CCAF729D0FE2F1F
:1052A00027D0660F771F881FBB1F261737074807B1
:1052B000AB07B0E809F0BB0B802DBF01FF27935867
:1052C0005F4F2AF09E3F510568F053C39DC35F3F77
:1052D000ECF3983EDCF3869577956795B795F7954F
:1052E0009F5FC9F7880F911D9695879597F9089547
:1052F000E1E0660F771F881FBB1F621773078407E3
:10530000BA0720F0621B730B840BBA0BEE1F88F7F1
:10531000E095089504D06894B11176C3089559D3E7
:1053200088F09F5790F0B92F9927B751A0F0D1F08E
:10533000660F771F881F991F1AF0BA95C9F712C018
:10534000B13081F060D3B1E008955DC3672F782F4D
:105350008827B85F39F0B93FCCF386957795679584
:10536000B395D9F73EF490958095709561957F4FF0
:105370008F4F9F4F0895A0E0B0E0E1ECF9E20C946C
:105380000E2DEC01CB01209719F40E949A2AB8C087
:10539000FE01E60FF71F9E0122503109E217F307C5
:1053A00008F4ACC0D9010D911C911197061717078D
:1053B000B8F00530110508F49FC0A8014450510908
:1053C0004617570708F498C002501109061B170B1F
:1053D000019311936D937C93CF010E94322B8CC06B
:1053E0005B01A01AB10A4E01800E911EA091130616
:1053F000B0911406612C712C60E070E0109709F4F4
:1054000049C0A815B905C9F5ED90FC901197670141
:1054100042E0C40ED11CCA14DB0478F147018A189B
:105420009B08640142E0C40ED11C1296BC901297F6
:105430001396AC91B5E0CB16D10440F0B282A383B1
:1054400091828082D9018D939C9309C00E5F1F4F7A
:105450000E0D1F1DF90111830083EB2DFA2F61152D
:10546000710531F0DB011396FC93EE93129744C063
:10547000F0931406E09313063FC06D917C91119751
:105480006616770608F43B01BD0112960D90BC919B
:10549000A02DB4CF609111067091120668157905A0
:1054A000E9F468167906D0F440910A0150910B0195
:1054B0004115510541F44DB75EB760910E017091F1
:1054C0000F01461B570BE417F507C0F4F0931206C3
:1054D000E0931106F901918380830EC00E949A2AFD
:1054E0007C01009759F0A801BE010E948A2ACE01D2
:1054F0000E94322BC70104C0CE0102C080E090E0C0
:10550000CDB7DEB7EEE00C942A2D81E090E0F89460
:105510000C94412DFB01DC0102C001900D92415021
:105520005040D8F70895FB01DC0101900D92002056
:10553000E1F70895CF93DF938230910510F482E074
:1055400090E0E0911306F091140620E030E0A0E036
:10555000B0E0309739F14081518148175907B8F0D0
:105560004817590771F482819381109729F0139697
:105570009C938E9312972CC09093140680931306DD
:1055800027C02115310531F04217530718F0A90142
:10559000DB0101C0EF019A01BD01DF010280F3814F
:1055A000E02DD7CF21153105F9F0281B390B243018
:1055B000310580F48A819B816115710521F0FB0121
:1055C0009383828304C09093140680931306FE0194
:1055D000329644C0FE01E20FF31F81939193225053
:1055E0003109398328833AC020911106309112067F
:1055F000232B41F420910C0130910D0130931206C0
:105600002093110620910A0130910B0121153105DB
:1056100041F42DB73EB740910E0150910F01241B6C
:10562000350BE0911106F0911206E217F307A0F492
:105630002E1B3F0B2817390778F0AC014E5F5F4FE8
:105640002417350748F04E0F5F1F50931206409302
:1056500011068193919302C0E0E0F0E0CF01DF9169
:10566000CF910895CF93DF93009709F487C0FC0191
:10567000329713821282C0911306D091140620979C
:1056800081F420813181280F391F8091110690917A
:1056900012068217930779F5F0931206E09311062C
:1056A0006DC0DE0120E030E0AE17BF0750F4129667
:1056B0004D915C9113979D014115510509F1DA0156
:1056C000F3CFB383A28340815181840F951F8A1742
:1056D0009B0771F48D919C911197840F951F0296F1
:1056E0009183808312968D919C91139793838283EB
:1056F0002115310529F4F0931406E09313063EC0FA
:10570000D9011396FC93EE9312974D915D91A40FDE
:10571000B51FEA17FB0779F480819181840F951FEB
:105720000296D90111969C938E9382819381139650
:105730009C938E931297E0E0F0E08A819B81009722
:1057400019F0FE01EC01F9CFCE01029628813981D2
:10575000820F931F209111063091120628173907E6
:1057600069F4309729F4109214061092130602C0BF
:1057700013821282D0931206C0931106DF91CF914B
:105780000895DC01CB01FC01F999FECF06C0F2BD02
:10579000E1BDF89A319600B40D9241505040B8F7EF
:1057A0000895F999FECF92BD81BDF89A992780B5E9
:1057B0000895DC01CB0103C02D910E94E42B4150E0
:1057C0005040D0F70895262FF999FECF1FBA92BD09
:1057D00081BD20BD0FB6F894FA9AF99A0FBE0196D2
:1057E000089540D008F481E00895E89409C097FB3B
:1057F0003EF490958095709561957F4F8F4F9F4FA8
:105800009923A9F0F92F96E9BB279395F6958795EB
:1058100077956795B795F111F8CFFAF4BB0F11F4AE
:1058200060FF1BC06F5F7F4F8F4F9F4F16C0882355
:1058300011F096E911C0772321F09EE8872F762F8B
:1058400005C0662371F096E8862F70E060E02AF0CC
:105850009A95660F771F881FDAF7880F96958795B8
:1058600097F90895990F0008550FAA0BE0E8FEEF8D
:1058700016161706E807F907C0F012161306E40714
:10588000F50798F0621B730B840B950B39F40A260D
:1058900061F0232B242B252B21F408950A2609F4EB
:1058A000A140A6958FEF811D811D08950BD078C072
:1058B00069D028F06ED018F0952309F05AC05FC067
:1058C0001124A2C07ED0A0F3959FD1F3950F50E094
:1058D000551F629FF001729FBB27F00DB11D639FA2
:1058E000AA27F00DB11DAA1F649F6627B00DA11D48
:1058F000661F829F2227B00DA11D621F739FB00DEE
:10590000A11D621F839FA00D611D221F749F33275D
:10591000A00D611D231F849F600D211D822F762FF6
:105920006A2F11249F5750408AF0E1F088234AF0F3
:10593000EE0FFF1FBB1F661F771F881F915050403F
:10594000A9F79E3F510570F014C05EC05F3FECF3B5
:10595000983EDCF3869577956795B795F795E7952B
:105960009F5FC1F7FE2B880F911D9695879597F93C
:10597000089597F99F6780E870E060E008959FEFD1
:1059800080EC089500240A941616170618060906D6
:10599000089500240A9412161306140605060895A5
:1059A000092E0394000C11F4882352F0BB0F40F42D
:1059B000BF2B11F460FF04C06F5F7F4F8F4F9F4F6D
:1059C000089557FD9058440F551F59F05F3F71F0EF
:1059D0004795880F97FB991F61F09F3F79F0879556
:1059E0000895121613061406551FF2CF4695F1DFDF
:1059F00008C0161617061806991FF1CF869571056F
:105A0000610508940895E894BB2766277727CB01A2
:105A100097F908952F923F924F925F926F927F92E3
:105A20008F929F92AF92BF92CF92DF92EF92FF92AE
:105A30000F931F93CF93DF93CDB7DEB7CA1BDB0B5A
:105A40000FB6F894DEBF0FBECDBF09942A883988FF
:105A500048885F846E847D848C849B84AA84B98406
:105A6000C884DF80EE80FD800C811B81AA81B98112
:105A7000CE0FD11D0FB6F894DEBF0FBECDBFED0126
:105A8000089516E0C0E0D6E004C0FE010E94A528FB
:0C5A90002296C230D107C9F7F894FFCF6E
:105A9C0000E100000000000001010000150680007C
:105AAC000A0014003200530064007D00FA00F40177
:105ABC00E803000000002B03770389104110F41059
:105ACC00000000006C067703C1039F03B303D106EB
