:100000000C94A1020C94B11B0C94D81B0C94FF1BF4
:100010000C94261C0C94C9020C94C9020C944D1C1F
:100020000C94C9020C94C9020C940D260C949F24C4
:100030000C94C9020C94C9020C94C9020C94C90214
:100040000C94C9020C94C9020C94C9020C94C90204
:100050000C94C9020C94C9020C94C9020C94741C2F
:100060000C94C9020C9489200C94BB200C94C902F6
:100070000C94C9020C94C9020C94C9020C94C902D4
:100080000C94C9020C94C9020C94C9020C94C902C4
:100090000C94C9020C94C9020C94C9020C94C902B4
:1000A0000C94C9020C94C9020C94C9027E108210EF
:1000B00086108A10AB10AB10AB108D109C10A010E6
:1000C000AB10AB10AB10AB10AB10A410AB10AB105F
:1000D000AB10AB10AB10A810831D861D751D791DCC
:1000E0007F1DA71DA71DA71D8A1D8E1D921D981D72
:1000F0009C1DA71DA21D227D007B226576656E7466
:10010000223A22656570726F6D222C202264617420
:1001100061223A2200227D00222C20226E65787412
:100120005478427566666572223A2200222C20229B
:100130006572726F7254657874223A2200222C2004
:10014000226572726F72223A2200222C202273746E
:1001500061747573223A2200222C202263616E633F
:1001600074726C223A22007B226576656E74223AA4
:1001700022627573646267222C20226E616D652293
:100180003A22004E6F204572726F7273005265639F
:1001900065697665204275666665722031204F7606
:1001A0006572666C6F772C200052656365697665B1
:1001B000204275666665722030204F766572666CE7
:1001C0006F772C2000427573204F6666202D2054D7
:1001D0004543206578636565646564203235352C58
:1001E00020005472616E736D6974204572726F7273
:1001F000205761726E696E67202D20544543203E62
:100200003D203132382C20005265636569766520C7
:100210004572726F72205761726E696E67202D2071
:10022000524543203E3D203132382C20005472612B
:100230006E736D6974204572726F72205761726EB1
:10024000696E67202D20544558203E3D2039362CBC
:10025000200052656365697665204572726F722071
:100260005761726E696E67202D20524543203E3DD6
:100270002039362C20005265636569766520457209
:10028000726F72205761726E696E67202D2054451F
:1002900043206F7220524543203E3D2039362C20AA
:1002A00000227D00227D007B226576656E74223AF5
:1002B00022656570726F6D44617461222C20227218
:1002C0006573756C74223A226661696C7572652279
:1002D0002C20226368756E6B223A22007B226576A1
:1002E000656E74223A22656570726F6D5361766532
:1002F000222C2022726573756C74223A2273756306
:1003000063657373227D00227D007B226576656EB6
:1003100074223A22656570726F6D44617461222C9B
:100320002022726573756C74223A2273756363655B
:100330007373222C20226368756E6B223A2200228E
:100340007D00554E4B4E4F574E004C4F4F50424143
:10035000434B004C495354454E00534C45455000C7
:100360004E4F524D414C00434F4E46494755524126
:1003700054494F4E00222C20226D6F6465223A2290
:10038000007B226576656E74223A2263616E2D6D64
:100390006F64652D627573007D00222C20227261CE
:1003A0007465223A007B226576656E74223A226279
:1003B0006974726174652D627573007D007B2265BE
:1003C00076656E74223A226175746F62617564435A
:1003D0006F6D706C657465222C20227261746522C9
:1003E0003A007D007B226576656E74223A22617543
:1003F000746F6261756454657374222C202272617B
:100400007465223A007B226576656E74223A226515
:100410006570726F6D5265736574222C202272654F
:1004200073756C74223A2273756363657373227DEE
:10043000000000000200090F0000030401000C008E
:1004400000000000000000000000000000000004A8
:1004500008020110408040102040804080080204C3
:10046000018040201002011080102040400404044C
:10047000040403040502020202040302020202064B
:100480000606060606040402020204000000002319
:1004900000260029002C002F000000000025002865
:1004A000002B002E00310000000000240027002A4D
:1004B000002D003000080B000202020100090400B8
:1004C00000010202000005240010010524010101C1
:1004D00004240206052406000107058103100040DC
:1004E00009040100020A00000007050202400000A2
:1004F0000705830240000012010002EF02014041A3
:1005000023368000010102030112010002000000F5
:100510004041233680000101020301417264756984
:100520006E6F204C4C430043414E42757320547211
:1005300069706C650004030904009916271FEB20FD
:10054000231711241FBECFEFDAE0DEBFCDBF12E0CC
:10055000A0E0B1E0ECE5FAE502C005900D92A83804
:10056000B107D9F726E0A8E8B2E001C01D92A83192
:10057000B207E1F715E0C0E4D5E004C02297FE0120
:100580000E94A12ACA33D107C9F70E94A1270C945F
:10059000212D0C940000089508952F923F924F92C0
:1005A0005F926F927F928F929F92AF92BF92CF9203
:1005B000DF92EF92FF920F931F93CF93DF93CDB70C
:1005C000DEB72E970FB6F894DEBF0FBECDBF4C013D
:1005D000798768876A01DB011496ED91FC91159784
:1005E0008081E82FF0E0FB87EA87F2E28F9F8001AD
:1005F000112404511D4FE12CF12C8F5F8C87A885AD
:10060000B9851496ED91FC911597808190E0019643
:100610002A853B852E0D3F1D821793070CF4BBC026
:10062000980129513109F80175978081319681111E
:1006300004C09081992309F4A8C090E0982F8827DE
:100640004081840F911D0896D60111964D915C91C1
:1006500012974817590709F098C080E090E0F90117
:10066000E80FF91F4485442359F0D601A40FB11DAA
:100670005C914585541389C002968630910579F7BF
:10068000F801379780818695869586958250F60188
:10069000E80FF11D6381D80116978C9170E08031CD
:1006A00029F4762F66278481680F711DF80135972C
:1006B000A080B12CBA2CAA2431968081A80EB11C3E
:1006C0003196208130E0322F222731968081280F09
:1006D000311D31962080312C322C2224F80180816A
:1006E000280E311C2115310511F421E030E080E0A5
:1006F00090E02D873E870E9454292B013C012D85D7
:100700003E85B90180E090E00E9454299B01AC0134
:10071000C301B2010E94BB282B013C01B50180E05E
:1007200090E00E9454299B01AC01C301B2010E94D8
:10073000062A2B013C01B10180E090E00E9454297F
:100740009B01AC01C301B2010E9453280E942829D9
:10075000F80177972081318126173707B1F071832F
:100760006083F7EEF98323E82A832C852E0D2B83F3
:100770007C836D833DE03E838AE08F83BE016F5FA3
:100780007F4F80E695E00E9487219FEFE91AF90AE2
:100790000E5D1F4F34CF80E1F601D40101900D9220
:1007A0008A95E1F7C4012E960FB6F894DEBF0FBE0E
:1007B000CDBFDF91CF911F910F91FF90EF90DF9010
:1007C000CF90BF90AF909F908F907F906F905F90F1
:1007D0004F903F902F90089561E08DE00E94A81DFA
:1007E00061E08DE00E94E11D6AEF70E080E090E042
:1007F0000E94ED1C60E08DE00E94E11D6AEF70E058
:1008000080E090E00E94ED1CEBCF009711F00E9479
:10081000A6210E94EC036115710581F0DB010D90AA
:100820000020E9F7AD0141505109461B570BDC018F
:10083000ED91FC910280F381E02D099480E090E03D
:1008400008950F931F93CF93DF93EC018B01FB016E
:100850008081918199838883828193819B838A831C
:100860006C5F7F4FCE0104960E943E27F80182857F
:1008700093859B878A87DF91CF911F910F91089570
:1008800040E052E060E070E00C94D22C9FEF980FB3
:10089000933078F41616170664F494E0899FF001FB
:1008A0001124E554FD4F748363838FEB92E00C9425
:1008B000400408959FEF980F933048F494E0899F87
:1008C000F0011124E554FD4F83819481089580E067
:1008D00090E008959FEF980F933060F494E0899F23
:1008E000F0011124E554FD4F768365838FEB92E090
:1008F0000C94400408959FEF980F933048F494E0CF
:10090000899FF0011124E554FD4F8581968108955A
:1009100085E090E00895CF93DF93C0E0D0E060E001
:10092000CE010E94DC2C2196C11582E0D807B9F7D0
:10093000DF91CF9108952F923F924F925F926F92E5
:100940007F928F929F92AF92BF92CF92DF92EF925F
:10095000FF920F931F93CF93DF93CDB7DEB7C250B3
:10096000D2400FB6F894DEBF0FBECDBF0E948B04FD
:100970009E012F5F3F4FCF5FDD4F39832883C150EA
:10098000D24080E092E0F9019C0111922150304068
:10099000E1F731E039833A834DE750E05D834C83E2
:1009A00081E090E09F838E83598748879B878A8761
:1009B0005D874C879F878E8762E06D8B57E0598FEC
:1009C000E0EEEA8F3B8F8CE38C8F44E049A3F1E4A7
:1009D000FAA325E02BA38CA378E27FA3B0E1FB2E42
:1009E000F8A63AA78AE08CA78FEF8DA718ED812E85
:1009F0008EA605E4E02EEFA697E4B92EB8AAA4E5EA
:100A0000DA2ED9AA90E29AAB9BAB9CAB9DAB9EAB86
:100A10006FAB38AF5BAFECAF3DAFA4E3AEAF2496A6
:100A20004FAF24972596FFAF259726962FAF269791
:100A30002796AFAF27972A967FAF2A972B96FFAEC0
:100A40002B977FE02D967FAF2D977DE02E967FAF81
:100A50002E972F969FAF2F976296FFAF6297B6E4BF
:100A60009B2E63969FAE639764969FAF649765963F
:100A70009FAF659766969FAF669767969FAF67979C
:100A800068969FAF689769969FAF69976A966FAFB0
:100A90006A976B963FAF6B976E965FAF6E976F9648
:100AA000EFAF6F9702E2A0960FAFA0977AEDA196F5
:100AB0007FAFA197A5E8A296AFAFA297A6964FAF3A
:100AC000A69712E6A7961FAFA797A8962FAFA8974D
:100AD000A9967FAFA99776E0AA967FAFAA97AB9623
:100AE000AFAFAB97A0E3AC96AFAFAC97B8E07B2EBF
:100AF000AD967FAEAD97B7E1AF96BFAFAF97B4E11C
:100B00004B2EE1964FAEE197E496FFAFE497E59662
:100B10009FAEE597B2E5CB2EE696CFAEE697BFE463
:100B20005B2EE7965FAEE797B2E4E896BFAFE89733
:100B3000B4E46B2EE9966FAEE997EA969FAFEA9719
:100B4000EB969FAFEB97EC966FAFEC97C158DF4FEA
:100B50005883CF57D040C058DF4FE883C058D040AB
:100B6000CF57DF4F0883C158D040B3E0CE57DF4F97
:100B7000B883C258D0400F2EFCEEAF2EF02DCD57CB
:100B8000DF4FA882C358D040C957DF4F4883C758AA
:100B9000D040C857DF4F1883C858D040C757DF4FE1
:100BA0002883C958D040C657DF4FB883CA58D040B1
:100BB000C557DF4F7883CB58D040C457DF4FA8824A
:100BC000CC58D040C357DF4FA883CD58D040C25730
:100BD000DF4FF882CE58D040C057DF4F3883C0591E
:100BE000D040CE56DF4F2883C259D0400F2EFBE4B1
:100BF000AF2EF02DCB56DF4FA882C559D0400F2E17
:100C0000FEE43F2EF02DCA56DF4F3882C659D04041
:100C1000C956DF4F5882C759D0400F2EF3E45F2EDC
:100C2000F02DC856DF4F5882C859D040C756DF4F05
:100C3000A882C959D040C656DF4F9883CA59D040C0
:100C4000C556DF4F9883CB59D040C456DF4F9883A9
:100C5000CC59D040C356DF4F6883CD59D040CF55D3
:100C6000DF4F5883C15AD040CE55DF4FE883C25A78
:100C7000D040CD55DF4F0883C35AD0400F2EF4EF3C
:100C80002F2EF02DCC55DF4F2882C45AD0400F2E86
:100C9000F3E23F2EF02DCB55DF4F3882C55AD040BE
:100CA000C755DF4F4883C95AD040C655DF4F188318
:100CB000CA5AD040C555DF4F2883CB5AD040C455BF
:100CC000DF4F2882CC5AD040C355DF4F7883CD5AAE
:100CD000D040C255DF4F3882CE5AD040C155DF4F89
:100CE000A883CF5AD040C055DF4FF882C05BD040B8
:100CF0000F2EFDE13F2EF02DCE54DF4F3882C25B28
:100D0000D040CC54DF4F4882C45BD040C954DF4F41
:100D10009882C75BD0400F2EF0E59F2EF02DC8546F
:100D2000DF4F9882C85BD040C754DF4FC882C95B91
:100D3000D040C654DF4F9883CA5BD040C554DF4FC4
:100D4000A882CB5BD040C454DF4F9883CC5BD040AB
:100D5000C354DF4F9883CD5BD040C254DF4F98839C
:100D6000CE5BD040C154DF4F6883CF5BD040CD53C2
:100D7000DF4F5883C35CD040CC53DF4FE883C45C63
:100D8000D040CB53DF4F0883C55CD040CA53DF4F00
:100D9000B883C65CD0400F2EF8E1AF2EF02DC953BA
:100DA000DF4FA882C75CD040C553DF4F4883CB5C80
:100DB000D040C453DF4F1883CC5CD040C353DF4FC7
:100DC0002883CD5CD040C253DF4FB883CE5CD04087
:100DD000C153DF4F7883CF5CD040C053DF4FA88230
:100DE000C05DD040CF52DF4FA883C15DD040CE520E
:100DF000DF4FF882C25DD040CC52DF4F7883C45DB4
:100E0000D040CA52DF4F3883C65DD040C752DF4F53
:100E10005882C95DD040C652DF4FF883CA5DD040CA
:100E20003DE4C552DF4F3883CB5DD040C452DF4F25
:100E30006882CC5DD040C352DF4FE882CD5DD040A8
:100E4000C252DF4FB882CE5DD040C152DF4F98838F
:100E5000CF5DD040C052DF4F9883C05ED040CF51AD
:100E6000DF4F6883C15ED040CB51DF4F5883C55EF2
:100E7000D04037E3CA51DF4F3883C65ED040C951F6
:100E8000DF4F0883C75ED04039E5C851DF4F388354
:100E9000C85ED0400F2EFAE6AF2EF02DC751DF4FBF
:100EA000A882C95ED040C351DF4F4883CD5ED04099
:100EB000C251DF4F1883CE5ED040C151DF4F28832F
:100EC000CF5ED040C051DF4F3883C05FD040CF509D
:100ED000DF4F7883C15FD040CE50DF4FA882C25F22
:100EE000D040CD50DF4FA883C35FD040CC50DF4F00
:100EF000F882C45FD0400F2EFBE0FF2EF02DCA50C9
:100F0000DF4FF882C65FD0400F2EF4E6FF2EF02DA3
:100F1000C850DF4FF882C85FD040C550DF4F98827D
:100F2000CB5FD0400F2EF7E5FF2EF02DC450DF4FE2
:100F3000F882CC5FD040C350DF4FE882CD5FD04015
:100F40000F2EF9E4FF2EF02DC250DF4FF882CE5F56
:100F5000D040C150DF4FB882CF5FD0400F2EF8E4B1
:100F6000FF2EF02DC050DF4FF882C050D140CF5F30
:100F7000DE4FD882C150D140CE5FDE4F9883C25041
:100F8000D140CD5FDE4F6883C350D140C95FDE4F93
:100F90005883C750D140C85FDE4FE883C850D14066
:100FA000C75FDE4F0883C950D140C65FDE4FB883AC
:100FB000CA50D1405AECC55FDE4F5883CB50D14068
:100FC000C15FDE4F4883CF50D140C05FDE4F1883F2
:100FD000C051D140CF5EDE4F2883C151D140CE5E9B
:100FE000DE4FB883C251D140CD5EDE4F7883C3510E
:100FF000D140CC5EDE4F5883C451D140CB5EDE4F32
:10100000A883C551D140CA5EDE4F7882C651D14017
:1010100049E0C85EDE4F4883C851D140C65EDE4F0E
:101020002883CA51D140C55EDE4F8883CB51D14061
:10103000C45EDE4F8882CC51D140E2E4C35EDE4F15
:10104000E883CD51D140C25EDE4FF883CE51D1400E
:10105000C15EDE4FD882CF51D140C05EDE4FD88214
:10106000C052D140CF5DDE4FE882C152D140CE5D4B
:10107000DE4FC882C252D140CD5DDE4F3883C352AD
:10108000D140CC5DDE4F9883C452D140CB5DDE4F62
:101090008883C552D140CA5DDE4F8883C652D14095
:1010A000C95DDE4F8883C752D140C85DDE4F88835B
:1010B000C852D140C75DDE4F8883C952D140C65D5A
:1010C000DE4F8883CA52D140C55DDE4F8883CB5244
:1010D000D140C45DDE4F8883CC52D140C35DDE4F2A
:1010E0008883CD52D140C25DDE4F8883CE52D1403D
:1010F000C15DDE4F8883CF52D140C05DDE4F888313
:10110000C053D140CF5CDE4F8883C153D140CE5C09
:10111000DE4F8883C253D140CD5CDE4F8883C353FA
:10112000D140CC5CDE4F8883C453D140CB5CDE4FD2
:101130008883C553D140CA5CDE4F8883C653D140F3
:10114000C95CDE4F8883C753D140C85CDE4F8883BB
:10115000C853D140C75CDE4F8883C953D140C65CB9
:10116000DE4F8883CA53D140C55CDE4F8883CB53A2
:10117000D140C45CDE4F8883CC53D140C35CDE4F8A
:101180008883CD53D140C25CDE4F8883CE53D1409B
:10119000C15CDE4F8883CF53D140C05CDE4F888373
:1011A000C054D140CF5BDE4F8883C154D140CE5B69
:1011B000DE4F8883C254D140CD5BDE4F8883C35459
:1011C000D140CC5BDE4F8883C454D140CE01019620
:1011D0000E9440040E94250965E074E080E195E0EA
:1011E0000E94942106E010E061E08DE00E94E11D84
:1011F00064EF71E080E090E00E94ED1C60E08DE023
:101200000E94E11D64EF71E080E090E00E94ED1C1F
:101210000150110949F7CE5FDD4F0FB6F894DEBFDC
:101220000FBECDBFDF91CF911F910F91FF90EF9037
:10123000DF90CF90BF90AF909F908F907F906F90F6
:101240005F904F903F902F90089580E092E0EFEBF9
:10125000F2E0DF019C011D9221503040E1F740E0B7
:1012600052E060E070E0CF010E94BA2C8091C00291
:1012700081508E3F10F00C949B0408955F926F9202
:101280007F928F929F92AF92BF92CF92DF92EF9216
:10129000FF920F931F93CF93DF93CDB7DEB76E9777
:1012A0000FB6F894DEBF0FBECDBF982E5B018FEF57
:1012B000890D833008F0D5C0292D30E02150310947
:1012C0008CE0829FB001839F700D112461547B4F8D
:1012D0007E0183E1E80EF11CC7010E9421046FE04A
:1012E00070E0C7010E946C19582E6BE270E0C701D4
:1012F0000E946C19682E92E1E5E2F1E0DE011196A0
:1013000001900D929A95E1F7FE0131966F01712CD3
:10131000812C64EE73E0C5010E945621F601019113
:1013200011916F014AE050E0B801C5010E945B22B3
:1013300062EE73E0C5010E94942160E070E0C70195
:101340000E94971865E070E080E090E00E94ED1C3C
:10135000B801C7010E94BF1965E070E080E090E02D
:101360000E94ED1C63E070E0C7010E94971865E0E1
:1013700070E080E090E00E94ED1C2FEF40E06CE216
:10138000C7010E944B1865E070E080E090E00E9489
:10139000ED1C68EC70E080E090E00E94ED1C6CE2D7
:1013A00070E0C7010E946C1987FD02C0811102C064
:1013B000072D182DCE14DF0419F0702E812EA9CF21
:1013C00060E070E0C6010E9497186AE070E080E07B
:1013D00090E00E94ED1CB801C6010E94BF1961E0B7
:1013E00070E080E090E00E94ED1C2FEF452D6FE053
:1013F000C6010E944B1861E070E080E090E00E941E
:10140000ED1C2FEF462D6BE2C6010E944B1861E0E8
:1014100070E080E090E00E94ED1C892D0E947B042A
:10142000BC01C6010E9497186DEB73E0C5010E94D4
:1014300056214AE050E0B801C5010E945B226BEBE7
:1014400073E0C5010E9494210115110521F0B80136
:10145000892D0E944604CE0147960E94A326C8010A
:1014600002C080E090E06E960FB6F894DEBF0FBE2B
:10147000CDBFDF91CF911F910F91FF90EF90DF9043
:10148000CF90BF90AF909F908F907F906F905F9024
:101490000895FC018FE392E09183808375836483D8
:1014A0001782168280E195E09383828312861386E9
:1014B000148615860895AF92BF92CF92DF92EF9275
:1014C000FF920F931F93CF93DF936C015A017B011F
:1014D00004E610E0C0E0D0E0CA15DB0564F5D601F3
:1014E00012968D919C911397DC01ED91FC910480F3
:1014F000F581E02D0995892B61F410161106DCF4B5
:1015000061E070E080E090E00E94ED1C0150110964
:10151000E6CF101611067CF4F60182819381DC017E
:10152000ED91FC910680F781E02D0995F7018193FB
:101530007F012196D1CFCE01DF91CF911F910F91E5
:10154000FF90EF90DF90CF90BF90AF9008950F93F2
:101550001F93CF93DF9300D000D01F92CDB7DEB79B
:101560008C0145E050E0BE016F5F7F4F0E945B0A37
:101570008981843080F490E0FC013396EE0FFF1FE8
:10158000E00FF11F2B812083FC01EE0FFF1FE00F06
:10159000F11F8D8187830F900F900F900F900F9008
:1015A000DF91CF911F910F9108950F931F93CF93C8
:1015B000DF9300D01F92CDB7DEB78C0143E050E03F
:1015C000BE016F5F7F4F0E945B0A833051F46A81D6
:1015D00070E0762F66278B81680F711D89810E94CC
:1015E000460465EA73E0F801828193810E945621E6
:1015F0004AE050E06981F801828193810E94702263
:101600006AE973E0F801828193810E945621898101
:101610000E945A044AE050E0BC01F80182819381A3
:101620000E945B2268E973E0F801828193810E9445
:1016300094210F900F900F90DF91CF911F910F91F8
:101640000895EF92FF920F931F93CF93DF9300D0F3
:10165000CDB7DEB78C0142E050E0BE016F5F7F4F37
:101660000E945B0A823029F46A8170E089810E94BD
:101670006A0489810E947B047C0161E873E0F801BF
:10168000828193810E9456214AE050E06981F801ED
:10169000828193810E94702265E773E0F801828164
:1016A00093810E945621F80182819381F2E0EF1626
:1016B000F104C1F04CF4E114F10489F0EA94EF284C
:1016C000B9F460E673E016C0F3E0EF16F10469F0D8
:1016D00024E0E216F10461F46AE473E00BC067E60B
:1016E00073E008C06AE573E005C063E573E002C01B
:1016F00062E473E00E9456216FE373E0F801828197
:1017000093810E9494210F900F90DF91CF911F91B0
:101710000F91FF90EF900895BF92CF92DF92EF92DA
:10172000FF920F931F93CF93DF93CDB7DEB76497EC
:101730000FB6F894DEBF0FBECDBF7C016E018DE009
:10174000C80ED11C88E0D6011D928A95E9F742E0C7
:1017500050E0B601C7010E945B0A029744F0BD84C5
:101760000B2D10E0015011090330110560F0F70155
:1017700082819381DC01ED91FC910190F081E02D5B
:1017800060E809959AC08CE0809FB001819F700D40
:10179000112461547B4FCE0101960E9421048E8555
:1017A000F7012781882351F081E090E0002E01C0ED
:1017B000880F0A94EAF7822B87830AC081E090E0C1
:1017C000002E01C0880F0A94EAF780958223878350
:1017D00060E070E0CE0101960E9497188E858130FE
:1017E00019F08230F1F04BC044E050E0B601C7017F
:1017F0000E945B0A181619060CF041C04F8550E094
:10180000542F44278889480F511D6D8570E0762F2D
:1018100066278E85680F711DCE0101960E94301BD0
:101820002EC048E050E0B601C7010E945B0A6D85FA
:1018300070E0762F66272E85620F711D4F8550E070
:10184000542F44272889420F511D853091058CF073
:10185000298930E0322F2227EA892E0F311D079780
:101860004CF00B8910E0102F00278C89080F111DF8
:1018700002C09B018A01CE0101960E94EF1A8B2DB6
:101880000E947B04BC01CE0101960E949718F701CB
:1018900082819381DC01ED91FC910190F081E02D3A
:1018A0006FEF099567E371E0F701828193810E94F0
:1018B0000B04CE0105960E94A32664960FB6F894F9
:1018C000DEBF0FBECDBFDF91CF911F910F91FF9073
:1018D000EF90DF90CF90BF9008950F931F93CF9319
:1018E000DF93CDB7DEB7A2970FB6F894DEBF0FBE79
:1018F000CDBF8C0142E250E0BE016F5F7F4F0E947E
:101900005B0A829789F58AA1813A71F5A98180E203
:10191000A89FD0011124A154BD4F80E2FE01329650
:1019200001900D928A95E1F76AE073E0F8018281F7
:1019300093810E9456214AE050E06981F80182813A
:1019400093810E94702267E073E0F80182819381A5
:101950000E94942189818F30E9F48FEB92E00E94FC
:1019600040046CED72E011C067EA72E0F801828118
:1019700093810E9456214AE050E06981F8018281FA
:1019800093810E94702264EA72E0F801828193815F
:101990000E949421A2960FB6F894DEBF0FBECDBF71
:1019A000DF91CF911F910F9108950F931F93CF93C4
:1019B000DF931F92CDB7DEB78C0141E050E0BE014E
:1019C0006F5F7F4F0E945B0A8981823029F08330EC
:1019D000F1F4F80116821BC081E0F801868361E012
:1019E0008DE00E94E11D64E670E080E090E00E94DE
:1019F000ED1C60E08DE00E94E11D64E670E080E097
:101A000090E00E94ED1C61E08DE00E94E11D0F90CE
:101A1000DF91CF911F910F910895CF93DF93EC0148
:101A20008A819B81DC01ED91FC910480F581E02DA0
:101A30000995892B51F08A819B81DC01ED91FC9104
:101A40000680F781E02D0995EBCFDF91CF910895C6
:101A50000F931F93CF93DF93EC018B016DE270E046
:101A6000C8010E946C1980FF06C066E772E08A8197
:101A70009B810E9456216DE270E0C8010E946C19A2
:101A800081FF06C062E572E08A819B810E94562137
:101A90006DE270E0C8010E946C1982FF06C06DE221
:101AA00072E08A819B810E9456216DE270E0C8013C
:101AB0000E946C1983FF06C068E072E08A819B81F6
:101AC0000E9456216DE270E0C8010E946C1984FFEB
:101AD00006C062EE71E08A819B810E9456216DE210
:101AE00070E0C8010E946C1985FF06C065EC71E0CA
:101AF0008A819B810E9456216DE270E0C8010E949C
:101B00006C1986FF06C069EA71E08A819B810E9498
:101B100056216DE270E0C8010E946C1987FF06C073
:101B20006DE871E08A819B810E9456216DE270E030
:101B3000C8010E946C1981110AC063E871E08A81B2
:101B40009B81DF91CF911F910F910C945621DF91D2
:101B5000CF911F910F910895EF92FF920F931F93D2
:101B6000CF93DF93CDB7DEB72C970FB6F894DEBFD7
:101B70000FBECDBF8C017B0167E671E0FC01828165
:101B800093810E945621B7016C5F7F4FF8018281DB
:101B900093810E94792168E571E0F8018281938147
:101BA0000E9456216FE070E0C7010E946C1940E16D
:101BB00050E0682FF801828193810E9470226AE4CC
:101BC00071E0F801828193810E945621C7010E9431
:101BD000401940E150E0682FF801828193810E9412
:101BE00070226DE371E0F801828193810E94562199
:101BF0006DE270E0C7010E946C1940E150E0682F6F
:101C0000F801828193810E947022F8018281938180
:101C100080519540A9F46CE271E080E195E00E946A
:101C20005621B701CE0101960E942104BE016F5FCB
:101C30007F4FC8010E94280DCE0105960E94A32661
:101C400068E171E0F801828193810E945621C70109
:101C50000E9458194AE050E0BC01F801828193814A
:101C60000E945B2265E171E0F801828193810E940C
:101C700094212C960FB6F894DEBF0FBECDBFDF9136
:101C8000CF911F910F91FF90EF9008950F931F93A5
:101C9000CF93DF93CDB7DEB72D970FB6F894DEBFA5
:101CA0000FBECDBF8C0141E050E0BE01635F7F4FAE
:101CB0000E945B0A2D858FEF820F8330C8F430E0DD
:101CC000215031098CE0829FB001839F700D112457
:101CD00061547B4FCE0101960E942104BE016F5FCB
:101CE0007F4FC8010E94AC0DCE0105960E94A3262D
:101CF0002D960FB6F894DEBF0FBECDBFDF91CF910A
:101D00001F910F910895F89481E08093E00080E2A4
:101D10008093D8001092C90065E070E080E090E008
:101D20000E94ED1C1DBA109268001CBC10BE1FBAA8
:101D300010927A0010926E0010926F001092710053
:101D40000C9400380895CF93DF93EC0128853985F2
:101D50002F5F3F4F398728872830310544F064E1F1
:101D600070E080E090E00E94ED1C19861886DF91FB
:101D7000CF910895FF920F931F93CF93DF93EC01C0
:101D800069EF70E08A819B810E94562100E010E09B
:101D9000C8010E94CA2CF82E2FE0281730F06AE301
:101DA00071E08A819B810E94872140E150E06F2D84
:101DB0008A819B810E9470228A819B8180569540F6
:101DC00019F4CE010E94A30E0F5F1F4F011582E090
:101DD0001807F1F666EF70E08A819B81DF91CF9161
:101DE0001F910F91FF900C9494210F931F93CF9309
:101DF000DF93EC010E94BE1C0A851B852C853D8566
:101E00000E5C1F4F2F4F3F4F061717072807390744
:101E100040F40E94BE1C6A877B878C879D8780E088
:101E200001C081E0DF91CF911F910F910895EF9252
:101E3000FF920F931F93CF93DF93EC018B01DB0194
:101E40001D962D913C911E972150310981E090E023
:101E5000022E01C0880F0A94EAF79F81982309F4A3
:101E600072C08A819B818056954029F4CE010E94E0
:101E7000F50E811168C08A819B81DC01ED91FC9196
:101E80000190F081E02D63E009958A819B81DC015E
:101E9000ED91FC910190F081E02DD8011D966C919F
:101EA00009958A819B81DC01ED91FC91D801129604
:101EB0006C910190F081E02D09958A819B81DC0174
:101EC000ED91FC910190F081E02DD80111966C917B
:101ED0000995E12CF12C8A819B81DC01ED91FC912B
:101EE000D801AE0DBF1D0190F081E02D13966C91CD
:101EF0000995BFEFEB1AFB0AE8E0EE16F10459F77B
:101F00008A819B81DC01ED91FC910190F081E02DB3
:101F1000D8016C9109958A819B81DC01ED91FC913E
:101F20000190F081E02DD8011B966C91099567E333
:101F300071E08A819B81DF91CF911F910F91FF907A
:101F4000EF900C940B04DF91CF911F910F91FF90B4
:101F5000EF900895EF92FF920F931F93CF93DF932B
:101F6000CDB7DEB760970FB6F894DEBF0FBECDBF1A
:101F70008C01CB017A0120E1FA01DE01119601907A
:101F80000D922A95E1F7BE016F5F7F4F0E94170FF8
:101F9000CE0101960E94AF1B80E1F701D8010190AC
:101FA0000D928A95E1F7C80160960FB6F894DEBFEE
:101FB0000FBECDBFDF91CF911F910F91FF90EF909A
:101FC0000895CF93DF9300D0CDB7DEB720911406EC
:101FD000309115062115310511F428E136E0CE01C6
:101FE0000196821B930B0F900F90DF91CF91089574
:101FF0000F931F93CF93DF93CDB7DEB762970FB6E2
:10200000F894DEBF0FBECDBF8C016CE371E0CE0152
:1020100001960E94112762E471E0CE010D960E94A4
:10202000112760E571E0CE0107960E941127BE01DD
:10203000635F7F4FCE0107960E9473276DE671E0C4
:102040000E94862761E771E00E948627BE016F5FCC
:102050007F4F0E9473276DE671E00E9486276DE72F
:1020600071E00E948627BC01F801828193810E9461
:102070007921CE0107960E94A326CE010D960E94DB
:10208000A326CE0101960E94A326C8010E94E10F5B
:102090004AE050E0BC01F801828193810E945B22FA
:1020A00061EA72E0F801828193810E949421629634
:1020B0000FB6F894DEBF0FBECDBFDF91CF911F9159
:1020C0000F9108950F931F93CF93DF931F92CDB776
:1020D000DEB78C0141E050E0BE016F5F7F4F0E9490
:1020E0005B0A0197C1F5498150E0FA013197E63169
:1020F000F10588F5EA5AFF4F0C949F2AC8010E9407
:10210000F80F29C0C8010E94BA0E25C0C8010E945C
:102110006D0C21C00E949B041EC041E050E0BE0136
:102120006F5F7F4FC8010E945B0AF8016281738173
:1021300089810E943E090FC0C8010E94D50A0BC0C8
:10214000C8010E94210B07C0C8010E94460E03C0AF
:10215000C8010E94830E0F90DF91CF911F910F91C4
:1021600008950F931F93CF93DF93DC0114960D9185
:102170001C911597E801E8816E2F70E0D2E2ED9F87
:10218000F0011124E852FD4F40E050E01296E801C2
:10219000288130E02F5F3F4FCA01860F971F281715
:1021A0003907A4F0CF010197EC01288130E0322FEC
:1021B00022278081280F311D285F3F4F19963C93BD
:1021C0002E9318974F5F5F4FB296E0CFDF91CF917C
:1021D0001F910F9108950F931F93CF93DF93EC01FD
:1021E0008B0189E492E0998388830E94BE1C6E83F0
:1021F0007F838887998781EC92E09D838C831B8302
:102200000A83CE01DF91CF911F910F910C94B110F1
:102210000F931F93CF93DF930E94250961E070E035
:1022200080E090E00E94ED1C80918A0290918B02E8
:102230000E94B11040E052EC61E070E080E195E076
:102240000E94211F26E040E051EE60E070E080E651
:1022500095E00E9427206A9A729A61E088E00E94C5
:10226000A81D61E088E00E94E11D61E08DE00E9410
:10227000A81D60E083E00E94A81D60E082E00E944B
:10228000A81D60E087E00E94A81D61E084E00E9434
:10229000A81D61E08CE00E94A81D61E08BE00E9417
:1022A000A81D61E089E00E94A81D61E08AE00E940B
:1022B000A81D61E085E00E94A81D60E084E00E9406
:1022C000E11D60E08CE00E94E11D60E08BE00E9477
:1022D000E11DCFEBD4E002EC12E0CE010E94131816
:1022E00061E070E0CE010E947F18F8016081718189
:1022F000CE010E94BF1961E0CE010E94761824E051
:1023000044E060E6CE010E944B18CE010E94DD1A27
:10231000F80162817381CE010E9497182C960C5FA0
:102320001F4FF4E0C33EDF07C1F6C5E0D0E061E037
:102330008DE00E94E11D62E370E080E090E00E9489
:10234000ED1C60E08DE00E94E11D62E370E080E042
:1023500090E00E94ED1C219751F7DF91CF911F91E2
:102360000F910895CF92DF92EF92FF920F931F93F8
:10237000CF93DF93EC017B018F858823F1F0CB01B4
:102380000E9458196C0183E0C816D104C0F461E0C2
:102390008DE00E94E11D8E010D5F1F4F29813A8162
:1023A00048816C2DC7010E94401BB601C7010E94E5
:1023B000B41860E08DE00E94E11D81E001C080E082
:1023C000DF91CF911F910F91FF90EF90DF90CF9011
:1023D0000895CF93DF93EC011D821C821F821E8221
:1023E000198618861B861A861982188280E290E068
:1023F0000E94B92A9B838A83892B11F40E94EC03E3
:1024000082E090E09D838C83DF91CF910895AF921D
:10241000BF92CF92DF92EF92FF920F931F93CF93D1
:10242000DF93EC018B01161617061CF068E871E0CB
:1024300012C0CB0164E0880F991F6A95E1F70E94F2
:10244000B92A7C01009729F06C0120E030E040E1DE
:1024500006C06DEB71E0888199810E9405048E8130
:102460009F81AA80BB8028173907E4F48885998565
:10247000820F931F6C817D810E94692A54E0880F2E
:10248000991F5A95E1F78A0D9B1DFC01D601842FF7
:1024900001900D928A95E1F72F5F3F4F80E1C80EC2
:1024A000D11CDDCFC5010E94512BFB82EA82198627
:1024B00018868E819F819B878A871D830C83DF917D
:1024C000CF911F910F91FF90EF90DF90CF90BF9031
:1024D000AF9008950F931F93CF93DF93EC018B017F
:1024E0008E819F812C813D818217930731F4BC013D
:1024F000660F771FCE010E940712AA81BB818A85D1
:102500009B859C012F5F3F4F3B872A8774E0880F94
:10251000991F7A95E1F7A80FB91F80E1F8010190A2
:102520000D928A95E1F72A853B858C819D8128173C
:10253000390711F41B861A868E819F8101969F832D
:102540008E83DF91CF911F910F9108950F931F9369
:10255000CF93DF93CDB7DEB7AC970FB6F894DEBF5D
:102560000FBECDBF8C014CE050E0BE016F5D7F4FD0
:102570000E945B0ACE0141960E94A41B89A190E0B3
:102580009F8F8E8F2AA130E0322F22278BA1280F18
:10259000311D3B8B2A8B8CA18C8B8DA18D8B8EA1B9
:1025A0008E8B8FA18F8B88A5888F89A5898F8AA50F
:1025B0008A8F8BA58B8F8CA5898B81E088A380E186
:1025C000FE017196DE01119601900D928A95E1F758
:1025D000BE016F5F7F4FF801848195810E946A126E
:1025E000CE0101960E94AF1BCE0141960E94AF1B07
:1025F000AC960FB6F894DEBF0FBECDBFDF91CF9182
:102600001F910F910895CF92DF92EF92FF920F9357
:102610001F93CF93DF93CDB7DEB7C054D1090FB668
:10262000F894DEBF0FBECDBF8C0163307105E1F0C1
:102630003CF46130710591F06230710591F006C093
:1026400064307105A1F068307105A1F08091BE027F
:1026500090E0E6EAF2E0E12CF12C12C00E94621058
:102660003BC00E94A61238C00E948C0B35C00E944D
:10267000A70A32C00E94D50C2FC0BFEFEB1AFB0A8D
:10268000E816F9064CF5208130E033962617370717
:10269000A1F740E450E0BE016F5F7F4FC8010E9488
:1026A0005B0A6C0161E070E080E090E00E94ED1C4C
:1026B000F701EE0FFF1FEE0DFF1DEA55FD4F818163
:1026C0009281DC01ED91FC910480F581E02DA60161
:1026D000BE016F5F7F4F0995C8010E940D0DC05C60
:1026E000DF4F0FB6F894DEBF0FBECDBFDF91CF91A5
:1026F0001F910F91FF90EF90DF90CF9008955F9220
:102700006F927F928F929F92AF92BF92CF92DF9201
:10271000EF92FF920F931F93CF93DF93CDB7DEB766
:10272000A0970FB6F894DEBF0FBECDBF7C018B0122
:10273000DC011496ED91FC9115978081A82EB12CA7
:10274000B2E28B9F000D111D11240A5F1F4FC12C97
:10275000D12C88E0582E7724739490E1692ED7010C
:102760001496ED91FC911597808190E00196960169
:102770002A0D3B1D821793070CF456C04801E6E072
:102780008E1A9108D8018C91882309F447C0F4016E
:102790008081882309F442C0CE0141960E94A41B87
:1027A000D4018C9190E09F8F8E8FF80132978081B9
:1027B00090E0982F882731962081820F911D9B8B66
:1027C0008A8BFE01759620E030E0D401A20FB31F82
:1027D00016968C91882331F02F5F3F4F81932630DE
:1027E000310599F72C8B598A78A2FE017196DE018A
:1027F0001196862D01900D928A95E1F7BE016F5FCB
:102800007F4FF701828193810E946A12CE01019667
:102810000E94AF1BCE0141960E94AF1BFFEFCF1A63
:10282000DF0A0E5D1F4F9BCFA0960FB6F894DEBF58
:102830000FBECDBFDF91CF911F910F91FF90EF9011
:10284000DF90CF90BF90AF909F908F907F906F90D0
:102850005F9008950F931F93CF93DF93EC010E9435
:10286000BE1C0E811F8128853985025E1F4F2F4FA8
:102870003F4F061717072807390778F40E94BE1C38
:102880006E837F838887998763ED72E0CE01DF9145
:10289000CF911F910F910C947F13DF91CF911F91D6
:1028A0000F910895EF92FF920F931F93CF93DF93B1
:1028B000CDB7DEB7A2970FB6F894DEBF0FBECDBF7F
:1028C0007C012091A0023091A10280919E02909102
:1028D0009F0228173907A1F1CE0141964AA369A3A7
:1028E0000E94A41B4AA150E05D8F4C8FF7018285A6
:1028F00093859F8F8E8F8E010E5E1F4F9E012C5EE3
:102900003F4FAE014F5E5F4F69A1C7010E94D718CC
:1029100080E1FE017196DE01119601900D928A957B
:10292000E1F7BE016F5F7F4F8AE992E00E946A1271
:10293000CE0101960E94AF1BCE0141960E94AF1BB3
:10294000A2960FB6F894DEBF0FBECDBFDF91CF9138
:102950001F910F91FF90EF900895FF920F931F9397
:10296000CF93DF93CDB7DEB72C970FB6F894DEBFC9
:102970000FBECDBF8C010E944019F82E80FF0FC002
:10298000B801CE0101960E9421044F2D60E0CE01D6
:1029900001960E945214CE0105960E94A326F1FED4
:1029A0000FC0B801CE0101960E9421044F2D61E0B5
:1029B000CE0101960E945214CE0105960E94A326D4
:1029C0002C960FB6F894DEBF0FBECDBFDF91CF912E
:1029D0001F910F91FF9008950F931F93CF93DF9353
:1029E0008C01EB018E819F81892B31F467EF71E0BF
:1029F000888199810E940504EA81FB8188859985F7
:102A00009C012F5F3F4F3987288754E0880F991F1B
:102A10005A95E1F7E80FF91F80E1D80101900D9276
:102A20008A95E1F72E813F81215031093F832E8322
:102A30006C817D81888599858617970711F41986A1
:102A400018862115310599F0CB0177FD03969595F0
:102A5000879595958795821793074CF077FF02C06D
:102A60006F5F7F4F75956795CE010E940712C80171
:102A7000DF91CF911F910F9108959F92AF92BF92D6
:102A8000CF92DF92EF92FF920F931F93CF93DF933A
:102A9000CDB7DEB7E0970FB6F894DEBF0FBECDBF5F
:102AA000F8E8EF2EF2E0FF2E00E010E08091060142
:102AB000909107010817190774F4D7018D919D9122
:102AC0007D01DC01ED91FC910190F081E02D0995F3
:102AD0000F5F1F4FEBCF83E00E94171E892B71F40D
:102AE0006BEF74E0CE0101960E942104CE010196A5
:102AF0000E94AD14CE0105960E94A32682E00E949A
:102B0000171E892B71F46FEE74E0CE0101960E94BE
:102B10002104CE0101960E94AD14CE0105960E94BB
:102B2000A32687E00E94171E892B71F463EE74E0E0
:102B3000CE0101960E942104CE0101960E94AD149F
:102B4000CE0105960E94A3268091A0029091A10239
:102B5000892B09F458C08E010F5D1F4F6AE972E09E
:102B6000C8010E94EC1478E8C72E72E0D72EE12C41
:102B7000F12CE0E1BE2EA02E912E809106019091C5
:102B80000701E816F90674F5F601619171916F017C
:102B9000DB01ED91FC9122813381EA2DF92DDE01DB
:102BA00051968B2D01900D928A95E1F7AE014F5E03
:102BB0005F4FCE010196F9010995FE013196AA2DCC
:102BC000B92D8B2D01900D928A95E1F7CE010196DA
:102BD0000E94AF1BCE0141960E94AF1BFFEFEF1A80
:102BE000FF0ACBCF88A9882359F020919402309115
:102BF000950280919202909193022817390799F4D7
:102C0000C8010E94AF1B10E06CE0F62E00E1EE243C
:102C1000E3942091940230919502232B09F461C032
:102C200011115FC015C080E1FE01B196DE01119661
:102C300001900D928A95E1F7BE016F5F7F4F8EE89C
:102C400092E00E946A12CE0101960E94AF1BD8CF7B
:102C50006EE872E0CE0141960E94EC148E8D9F8D3D
:102C60000197F89EB001F99E700D112461547B4FBD
:102C7000CE0181960E942104FE017196DE0111961B
:102C8000802F01900D928A95E1F7BE016F5D7F4F15
:102C9000CE0101960E94B211182F1E25CE01019679
:102CA0000E94AF1BCE0185960E94A3261123A1F09E
:102CB000FE017196DE011196802F01900D928A958A
:102CC000E1F7BE016F5F7F4F8EE892E00E946A12CB
:102CD000CE0101960E94AF1BCE0141960E94AF1B10
:102CE00098CFE0960FB6F894DEBF0FBECDBFDF9150
:102CF000CF911F910F91FF90EF90DF90CF90BF90F9
:102D0000AF909F900895CF93DF93EC018A819B81D0
:102D10000E94512B1B821A82198218821D821C82EA
:102D20001F821E82198618861B861A86DF91CF9114
:102D300008950F931F93CF93DF9300D000D000D05E
:102D4000CDB7DEB769E272E0CE0101960E9411278D
:102D50008E010F5F1F4F21E030E044E050E069E05A
:102D600070E08BEF94E00E94E417C8010E94A32654
:102D70006FE272E0C8010E94112722E030E04CE0CF
:102D800050E06AE070E08FEE94E00E94E417C80122
:102D90000E94A32665E372E0C8010E94112723E088
:102DA00030E04BE050E065E070E083EE94E00E949C
:102DB000E417C8010E94A3266BEF74E08FEB94E048
:102DC0000E9421046FEE74E08BEC94E00E942104D9
:102DD00063EE74E087ED94E00E9421048AE992E0BA
:102DE0000E94E9118EE892E00E94E9118EE090E0E5
:102DF0000E94B4278C016EE872E00E94490A109389
:102E00008D0200938C028EE090E00E94B4278C012A
:102E10006EE872E00E94EB1010938B0200938A021E
:102E200080918C0290918D02909389028093880208
:102E300026960FB6F894DEBF0FBECDBFDF91CF91BF
:102E40001F910F910895CF93DF93C0E9D2E088815D
:102E500099810E94512B1982188210928F02109230
:102E60008E0210929302109292021092950210928A
:102E70009402109297021092960210929902109268
:102E800098028AE992E00E9483168BED94E00E94FA
:102E9000A3268FEC94E00E94A32683EC94E00E948A
:102EA000A32687EE94E00E94A32683EF94E00E947D
:102EB000A3268FEF94E0DF91CF910C94A326CF93BC
:102EC000DF93EC018E81882331F180E195E00E944F
:102ED0006A1E892B81F080E195E00E947A1EE091C4
:102EE0006005F09161050190F081E02D682F80E68A
:102EF00095E00995EACF80E695E00E94441F892B72
:102F000071F180E695E00E945D1F682F80E195E0F9
:102F10000E94401EF0CF80E695E00E94441F1816E4
:102F2000190654F480E695E09B838A830E945D1F16
:102F3000BC01CE010E94031380E195E00E946A1E4D
:102F40001816190664F480E195E09B838A830E9439
:102F50007A1EBC01CE01DF91CF910C940313DF9157
:102F6000CF91089561E081E10E94E11D61E081E17E
:102F70000E94A81D8CB580618CBD8CB580648CBD11
:102F800061E08FE00E94A81D61E080E10C94A81D23
:102F9000811103C08CB5806202C08CB58F7D8CBD61
:102FA00008959CB5937F982B9CBD08959DB582FB99
:102FB000882780F99E7F892B8DBD08958EBD0DB425
:102FC00007FEFDCF8EB508958F929F92AF92BF926C
:102FD000CF92DF92EF92FF920F931F93CF93DF93E5
:102FE000EC016B015A0149017C0184E0E80EF11CFF
:102FF00069E371E0C7010E941127D982C882BB82B0
:10300000AA829B868A86B801C701DF91CF911F9162
:103010000F91FF90EF90DF90CF90BF90AF909F9077
:103020008F900C942727CF93DF93EC0161E08FE022
:103030000E94A81D60E08EE00E94A81D61E080E172
:103040000E94A81D61E088810E94A81D61E08A811C
:103050000E94A81D0E94B21780E00E94D11784E050
:103060000E94D61781E00E94C81760E08A810E9402
:10307000E11D62E370E080E090E00E94ED1C61E001
:103080008A810E94E11D62E370E080E090E0DF91C0
:10309000CF910C94ED1CEF92FF921F93CF93DF938F
:1030A00000D0CDB7DEB77C01162F60E0FC01808137
:1030B00029834A830E94E11D85E00E94DE17812F4B
:1030C0000E94DE172981822F0E94DE174A81842FF9
:1030D0000E94DE1761E0F70180810F900F90DF9171
:1030E000CF911F91FF90EF900C94E11D662311F09A
:1030F00043E001C040E023E06BE20C944B186230E7
:10310000710571F02CF46130710569F440E00BC079
:103110006430710539F06830710529F443E003C06B
:1031200041E001C042E023E06FE00C944B186230B4
:10313000710589F044F46115710589F061307105FC
:1031400079F440E00DC06330710539F064307105E9
:1031500039F440E405C040E203C040E601C040E865
:1031600020EE6FE00C944B181F93CF93DF93EC018C
:103170006130710549F06230710521F0672B99F4D7
:1031800011E803C013E801C012E860E088810E94E2
:10319000E11D812F0E94DE1761E08881DF91CF91D0
:1031A0001F910C94E11DDF91CF911F9108955F92C3
:1031B0006F927F928F929F92AF92BF92CF92DF9247
:1031C000EF92FF920F931F93CF93DF937C01C62F53
:1031D0006A01922E732E60E0FC0180810E94E11D45
:1031E000C11102C080E901C084E90E94DE178FEF9F
:1031F0000E94DE17A82EB12C8FEF0E94DE17682EDA
:103200008FEF0E94DE178FEF0E94DE178FEF0E9474
:10321000DE178F70882E592CC92DD72D8C2F85192C
:10322000881528F48FEF0E94DE178993F7CF61E0AD
:10323000F70180810E94E11DF6018082862D807E4B
:1032400090E025E0969587952A95E1F733E0AA0C62
:10325000BB1C3A95E1F78A0D9B1DF8019183808391
:10326000DF91CF911F910F91FF90EF90DF90CF9062
:10327000BF90AF909F908F907F906F905F900895D8
:103280001F93CF93DF93EC0160E088810E94E11DE2
:1032900080EA0E94DE178FEF0E94DE17182F61E090
:1032A00088810E94E11D812FDF91CF911F910895A8
:1032B0000E94401982FF07C084FF08C086FF09C032
:1032C0008FEF9FEF089580E090E0089581E090E017
:1032D000089582E090E008951F93CF93DF93EC016F
:1032E000162F60E088810E94E11D83E00E94DE17B6
:1032F000812F0E94DE178FEF0E94DE17182F61E0EA
:1033000088810E94E11D812FDF91CF911F91089547
:10331000EF92FF921F93CF93DF931F92CDB7DEB74B
:103320007C01162F60E0FC01808149830E94E11D31
:1033300061E070E080E090E00E94ED1C82E00E947D
:10334000DE17812F0E94DE174981842F0E94DE172D
:1033500061E070E080E090E00E94ED1C61E0F70128
:1033600080810E94E11D61E070E080E090E00F90BC
:10337000DF91CF911F91FF90EF900C94ED1C4F9235
:103380005F926F927F928F929F92AF92BF92CF92F5
:10339000DF92EF92FF920F931F93CF93DF938C01F5
:1033A0005B01882777FD8095982F0E9456299B0105
:1033B000AC0160E070E080E89FE30E94BB2820E061
:1033C00030E04AE754E40E94062A2B013C01C1E0A8
:1033D000D0E09C2E9A94BE01882777FD8095982F87
:1033E0000E9456299B01AC010E94532820E030E046
:1033F00040E85DE30E94062A9B01AC01C301B201D3
:103400000E94BB286B017C0120E030E048EC51E4D5
:103410000E94B7281816CCF0C701B6010E942329D4
:10342000862E7727882777FD8095982F0E9456292A
:103430009B01AC01C701B6010E94522820E030E098
:10344000A9010E94B728882339F02196C930D105F7
:1034500009F0BFCFE8E09E2E682D70E080E090E09C
:103460000E9456292DEC3CEC4CE45FE30E94062AB6
:103470000E942829862F90E09C012150310937FDB8
:103480009C01359527956150862F821B861A4FEF38
:10349000480D90E0F901E80FF91F642F70E0E6177E
:1034A000F7075CF1423048F143E5A416B10469F036
:1034B000CFEFC20FC068019753E0880F991F5A954C
:1034C000E1F7C82BDEEFD80D04C0D7E0CEEB43E028
:1034D000942E492D6AE270E0C8010E9488194C2F91
:1034E00069E270E0C8010E9488194D2F68E270E01F
:1034F000C8010E94881981E001C080E0DF91CF916E
:103500001F910F91FF90EF90DF90CF90BF90AF9001
:103510009F908F907F906F905F904F900895FF9253
:103520000F931F93CF93DF938C01F62EEA0160E097
:10353000FC0180810E94E11D61E070E080E090E08C
:103540000E94ED1C82E00E94DE178F2D0E94DE1784
:10355000CE01F3E095958795FA95E1F70E94DE1785
:103560008C2F8295880F807E0E94DE1761E070E0CC
:1035700080E090E00E94ED1C61E0F80180810E94F3
:10358000E11D61E070E080E090E0DF91CF911F915C
:103590000F91FF900C94ED1C61507109653071051D
:1035A00040F4FB01E95AFD4F6081772767FD709574
:1035B00002C060E070E00C948F1ACF93DF93EC01AF
:1035C00040E050E060E270E00E948F1A40E050E07E
:1035D00064E270E0CE01DF91CF910C948F1ACF920C
:1035E000DF92EF92FF920F931F93CF93DF93EC0143
:1035F0006B01790160E270E00E948F1AA60160E021
:1036000070E0CE010E94CC1AA60161E070E0CE010C
:103610000E94CC1AA80164E270E0CE010E948F1AC9
:10362000A70162E070E0CE010E94CC1AA70163E01E
:1036300070E0CE010E94CC1AA70164E070E0CE01D8
:103640000E94CC1AA70165E070E0CE01DF91CF9116
:103650001F910F91FF90EF90DF90CF900C94CC1AB8
:103660000F931F939A014115510509F49B010FEF28
:103670001FEF4FEF5FEF0E94EF1A1F910F91089518
:10368000AF92BF92CF92DF92EF92FF920F931F9370
:10369000CF93DF931F92CDB7DEB77C01D42E5901B3
:1036A000613041F028F0623009F042C094E403C078
:1036B00090E401C092E460E0F701808199830E9468
:1036C000E11D9981892F0E94DE17C501A3E096951F
:1036D0008795AA95E1F70E94DE178A2D8295880FBB
:1036E000807E0E94DE1780E00E94DE1780E00E944C
:1036F000DE178D2D0E94DE17C02E58018A2D8C19E1
:103700008D1530F4F50181915F010E94DE17F6CF2F
:1037100061E0F70180810F90DF91CF911F910F91B0
:10372000FF90EF90DF90CF90BF90AF900C94E11D91
:103730000F90DF91CF911F910F91FF90EF90DF904D
:10374000CF90BF90AF900895FC0117861286118626
:1037500010861782168215821482138208950895A6
:1037600008951F920F920FB60F9211242F933F933B
:103770004F935F936F937F938F939F93AF93BF9379
:10378000EF93FF93E0910801F09109010995FF91F2
:10379000EF91BF91AF919F918F917F916F915F91C9
:1037A0004F913F912F910F900FBE0F901F90189542
:1037B0001F920F920FB60F9211242F933F934F93A6
:1037C0005F936F937F938F939F93AF93BF93EF9389
:1037D000FF93E0910A01F0910B010995FF91EF91A0
:1037E000BF91AF919F918F917F916F915F914F9119
:1037F0003F912F910F900FBE0F901F9018951F9221
:103800000F920FB60F9211242F933F934F935F9314
:103810006F937F938F939F93AF93BF93EF93FF9398
:10382000E0910C01F0910D010995FF91EF91BF918D
:10383000AF919F918F917F916F915F914F913F9148
:103840002F910F900FBE0F901F9018951F920F92FF
:103850000FB60F9211242F933F934F935F936F9363
:103860007F938F939F93AF93BF93EF93FF93E091D9
:103870000E01F0910F010995FF91EF91BF91AF916A
:103880009F918F917F916F915F914F913F912F9178
:103890000F900FBE0F901F9018951F920F920FB6AA
:1038A0000F9211242F933F934F935F936F937F93C6
:1038B0008F939F93AF93BF93EF93FF93E09110018A
:1038C000F09111010995FF91EF91BF91AF919F91F7
:1038D0008F917F916F915F914F913F912F910F90B9
:1038E0000FBE0F901F9018951F920F920FB60F9258
:1038F00011242F933F938F939F93AF93BF93809106
:10390000080590910905A0910A05B0910B05309129
:10391000070523E0230F2D3720F40196A11DB11DCB
:1039200005C026E8230F0296A11DB11D20930705AF
:103930008093080590930905A0930A05B0930B05A1
:1039400080910C0590910D05A0910E05B0910F0589
:103950000196A11DB11D80930C0590930D05A093B8
:103960000E05B0930F05BF91AF919F918F913F913D
:103970002F910F900FBE0F901F9018952FB7F894AE
:10398000609108057091090580910A0590910B05D9
:103990002FBF08953FB7F89480910C0590910D05C5
:1039A000A0910E05B0910F0526B5A89B05C02F3F2D
:1039B00019F00196A11DB11D3FBF6627782F892FF1
:1039C0009A2F620F711D811D911D42E0660F771FB6
:1039D000881F991F4A95D1F70895CF92DF92EF92F1
:1039E000FF92CF93DF936B017C010E94CA1CEB0115
:1039F000C114D104E104F10489F00E94B6270E94A9
:103A0000CA1C6C1B7D0B683E734090F381E0C81AA2
:103A1000D108E108F108C851DC4FEACFDF91CF911E
:103A2000FF90EF90DF90CF900895789484B58260F6
:103A300084BD84B5816084BD85B5826085BD85B552
:103A4000816085BDEEE6F0E0808181608083E1E801
:103A5000F0E0108280818260808380818160808339
:103A6000E0E8F0E0808181608083E1E9F0E080813E
:103A700082608083808181608083E0E9F0E08081E2
:103A800081608083E1ECF0E08081846080838081CC
:103A900082608083808181608083E3ECF0E08081BC
:103AA00081608083E0ECF0E0808182608083E2ECE2
:103AB000F0E0808181608083EAE7F0E080818460CB
:103AC0008083808182608083808181608083808127
:103AD00080688083089590E0FC013197EF30F10514
:103AE000B0F5E459FF4F0C949F2A809180008F77A6
:103AF00003C0809180008F7D809380000895809125
:103B00008000877FF9CF84B58F7702C084B58F7D21
:103B100084BD0895809190008F7707C080919000B8
:103B20008F7D03C080919000877F809390000895DF
:103B30008091C0008F7703C08091C0008F7D8093FB
:103B4000C00008958091C200877F8093C2000895CD
:103B5000CF93DF9390E0FC01E15BFB4F2491FC01EC
:103B6000E359FB4F8491882349F190E0880F991F16
:103B7000FC01E955FB4FA591B49187569B4FFC0181
:103B8000C591D4919FB7611108C0F8948C9120958C
:103B900082238C93888182230AC0623051F4F89486
:103BA0008C91322F309583238C938881822B88834C
:103BB00004C0F8948C91822B8C939FBFDF91CF919E
:103BC00008950F931F93CF93DF931F92CDB7DEB766
:103BD000282F30E0F901EF5CFB4F8491F901E15BA4
:103BE000FB4F1491F901E359FB4F04910023C9F0F5
:103BF000882321F069830E946B1D6981E02FF0E02A
:103C0000EE0FFF1FE756FB4FA591B4919FB7F894B5
:103C10008C91611103C01095812301C0812B8C937D
:103C20009FBF0F90DF91CF911F910F910895CF9378
:103C3000DF93282F30E0F901EF5CFB4F8491F9010D
:103C4000E15BFB4FD491F901E359FB4FC491CC23C5
:103C500091F081110E946B1DEC2FF0E0EE0FFF1F21
:103C6000E557FB4FA591B4912C912D2381E090E075
:103C700021F480E002C080E090E0DF91CF910895D0
:103C8000CF93DF931F92CDB7DEB76983DC01ED914F
:103C9000FC910280F381E02D41E050E0BE016F5FB6
:103CA0007F4F09950F90DF91CF910895CF93DF93C8
:103CB000EC018C859D8597FF05C082E00E948823DA
:103CC0009D878C878C859D85DF91CF91089583E0BA
:103CD0000C940326FC018485958597FD06C082E03F
:103CE0000E94302390E00196089582E00E943023E4
:103CF00090E00895FC018485958597FD05C02FEF20
:103D00003FEF35872487089582E00C948823CF9372
:103D1000DF93EC0180911D01882331F083E00E9444
:103D2000B9231816190634F081E090E09B838A834A
:103D300080E090E0DF91CF910895FC0120812E5F1B
:103D4000208342E450E065EB74E080E80C94542456
:103D5000FC0121818081813A59F4213209F05CC053
:103D600047E050E066E171E080E00E94542467C0C3
:103D7000813209F051C0233289F4838190E0982F79
:103D800088273281832BA0E0B0E0809312019093CA
:103D90001301A0931401B09315010FC0203239F420
:103DA00067E070E086E191E00E9485240AC022323B
:103DB00021F4828180931D0104C02D7F203209F0FF
:103DC0003EC08091160190911701A0911801B09109
:103DD0001901803B9440A105B10501F580911D01B9
:103DE00080FD1CC080910008909101089093FF0A0B
:103DF0008093FE0A87E797E7909301088093000875
:103E00002BE088E190E00FB6F894A89580936000CD
:103E10000FBE2093600013C080E0089588E10FB6C4
:103E2000F89480936000109260000FBEA895809176
:103E3000FE0A9091FF0A909301088093000881E0A8
:103E400008952FEF3FEFFC013587248708951092E6
:103E500013051092120588EE93E0A0E0B0E0809385
:103E6000140590931505A0931605B093170580E6E9
:103E700092E090931105809310058FEF9FEF909340
:103E80001D0580931C050895FC01818D228D90E015
:103E9000805C9F4F821B91098F7399270895FC01C5
:103EA000918D828D981731F0828DE80FF11D858DEF
:103EB00090E008958FEF9FEF0895FC01918D828D22
:103EC000981761F0828DDF01A80FB11D5D968C916E
:103ED000928D9F5F9F73928F90E008958FEF9FEF79
:103EE000089581EE90E2892B49F080E090E0892BE3
:103EF00029F00E94E12081110C9400000895FC013A
:103F0000848DDF01A80FB11DA35ABF4F2C91848D62
:103F100090E001968F739927848FA689B7892C9397
:103F2000A089B1898C9180648C93938D848D981332
:103F300006C00288F389E02D80818F7D80830895FB
:103F4000CF93DF93EC01888D8823C9F0EA89FB8940
:103F5000808185FD05C0A889B9898C9186FD0FC037
:103F60000FB607FCF5CF808185FFF2CFA889B9890C
:103F70008C9185FFEDCFCE010E947F1FE7CFDF91AF
:103F8000CF910895CF92DF92FF920F931F93CF931B
:103F9000DF931F92CDB7DEB76C0181E0D601589652
:103FA0008C9358975B969C915B975C968C915C97F1
:103FB000981307C05096ED91FC915197808185FD33
:103FC0002EC0F601038D10E00F5F1F4F0F731127F6
:103FD000F02EF601848DF81211C00FB607FCF9CF50
:103FE000D6015096ED91FC915197808185FFF1CFDC
:103FF000C60169830E947F1F6981EBCF838DE80F23
:10400000F11DE35AFF4F6083D6015B960C935B97DB
:104010005296ED91FC915397808180620CC0D6013D
:104020005696ED91FC91579760835096ED91FC91D7
:10403000519780818064808381E090E00F90DF91D0
:10404000CF911F910F91FF90DF90CF900895BF9275
:10405000CF92DF92EF92FF92CF93DF93EC016A0150
:104060007B01B22EE889F98982E08083411581EED7
:10407000580761057105A1F060E079E08DE390E0FB
:10408000A70196010E947D2A215031094109510959
:104090005695479537952795211580E1380798F073
:1040A000E889F989108260E874E88EE190E0A70160
:1040B00096010E947D2A21503109410951095695E6
:1040C000479537952795EC85FD853083EE85FF85EF
:1040D0002083188EEC89FD89B082EA89FB89808172
:1040E00080618083EA89FB89808188608083EA8996
:1040F000FB89808180688083EA89FB8980818F7D4C
:104100008083DF91CF91FF90EF90DF90CF90BF90B1
:1041100008951F920F920FB60F9211242F938F9331
:104120009F93EF93FF93E0917005F091710580816B
:10413000E0917605F091770582FD12C09081809123
:1041400079058F5F8F7320917A05821751F0E09186
:104150007905F0E0E05AFA4F958F8093790501C018
:104160008081FF91EF919F918F912F910F900FBEC2
:104170000F901F9018951F920F920FB60F92112457
:104180002F933F934F935F936F937F938F939F935F
:10419000AF93BF93EF93FF9380E695E00E947F1F5C
:1041A000FF91EF91BF91AF919F918F917F916F910F
:1041B0005F914F913F912F910F900FBE0F901F90E5
:1041C000189580E695E00E94441F21E0892B09F4B0
:1041D00020E0822F0895109263051092620588EE08
:1041E00093E0A0E0B0E08093640590936505A09310
:1041F0006605B093670580E792E090936105809330
:1042000060058DEC90E090936D0580936C058CECCF
:1042100090E090936F0580936E0588EC90E090930A
:1042200071058093700589EC90E0909373058093FD
:1042300072058AEC90E090937505809374058EEC7E
:1042400090E090937705809376051092790510920F
:104250007A0510927B0510927C050895CF92DF922B
:10426000EF92FF920F931F93CF93DF937C016A012C
:10427000EB0100E010E00C151D0571F06991D7010C
:10428000ED91FC910190F081E02DC7010995892BFA
:1042900019F00F5F1F4FEFCFC801DF91CF911F9132
:1042A0000F91FF90EF90DF90CF900895EF92FF92E3
:1042B0000F931F93CF93DF938C017B01C0E0D0E07D
:1042C000F701EC0FFD1F6491662359F0F801A081FE
:1042D000B181ED91FC91C8010995892B11F02196CE
:1042E000EFCFCE01DF91CF911F910F91FF90EF9013
:1042F0000895DC01ED91FC91DB0114964D915C91E8
:1043000015976D917C910280F381E02D09940C94B6
:104310000B04DC01ED91FC910190F081E02D0994FA
:1043200067E371E00C940B040F931F93CF93DF931B
:10433000EC010E9456218C01CE010E949021800F39
:10434000911FDF91CF911F910F9108950F931F93AC
:10435000CF93DF93EC010E940B048C01CE010E94ED
:104360009021800F911FDF91CF911F910F910895A0
:104370008F929F92AF92BF92CF92DF92EF92FF9275
:104380000F931F93CF93DF93CDB7DEB7A1970FB6EF
:10439000F894DEBF0FBECDBF7C01C42EE52FCB014C
:1043A000D22E19A221E02D1510F02AE0D22E8E0176
:1043B0000F5D1F4F8D2C912CA12CB12C6C2D7E2FBD
:1043C000A50194010E947D2A8C2DD29E8019112472
:1043D000015011098A3014F4805D01C0895CF80134
:1043E0008083211531054105510521F0C22EE32FAF
:1043F000CA01E4CFB801C7010E940B04A1960FB611
:10440000F894DEBF0FBECDBFDF91CF911F910F910A
:10441000FF90EF90DF90CF90BF90AF909F908F90E4
:104420000895CF92DF92EF92FF920F931F93CF9355
:10443000DF93EC016A017B012115310579F4E881F4
:10444000F9810190F081E02D642FDF91CF911F91D0
:104450000F91FF90EF90DF90CF9009942A303105B3
:10446000E9F477FF1AC06DE20E9489218C0144278C
:104470005527BA014C195D096E097F092AE0CE0162
:104480000E94B821800F911FDF91CF911F910F9152
:10449000FF90EF90DF90CF9008952AE0B701A6013A
:1044A000CE01DF91CF911F910F91FF90EF90DF90A0
:1044B000CF900C94B8219A01AB01662757FD609507
:1044C000762F0C9411222115310541F4DC01ED9178
:1044D000FC910190F081E02D642F09940C94B82197
:1044E0009A01462F50E060E070E00C946322615026
:1044F00030F02091F100FC0120830196F8CF28983C
:1045000084E68093060608954091010650910206C4
:104510002091FF053091000642175307B4F49091A3
:10452000E8009570E1F39091E80092FD19C0809346
:10453000F100809101069091020601968F739927F0
:10454000892B19F48EEF8093E800809101069091F9
:1045500002060196909302068093010681E0089579
:1045600080E00895CF92DF92EF92FF920F931F9316
:10457000CF93DF931F92CDB7DEB7082F162FF42EFF
:10458000862F880F8E5F99830E94842283E00E9489
:104590008422E02EC02E9981D92E8C2D8E19811760
:1045A00098F4F601F7FE02C0849101C080810E9458
:1045B0008422082F80E00E9484228023FFEFCF1AFC
:1045C000DF0A8111EACF01C081E00F90DF91CF9126
:1045D0001F910F91FF90EF90DF90CF900895809101
:1045E000D70081608093D70080EA8093D80089B596
:1045F000806189BD89B5826089BD09B400FEFDCFA7
:1046000061E070E080E090E00E94ED1C8091D800B5
:104610008F7C80618093D8008091E000807F8093C0
:10462000E0000895CF93DF931F92CDB7DEB71982D4
:10463000CE0101960E949D1E0E943E28BE016F5F22
:104640007F4F0E94B72789810F90DF91CF91089506
:104650002FB7FC012083F89467706093E9000895F8
:10466000CF93DF931F92CDB7DEB7682FCE010196AF
:104670000E9428238091F20099819FBF0F90DF91C3
:10468000CF910895FF920F931F93CF93DF9300D0A4
:10469000CDB7DEB7F62E8A0190910506992311F069
:1046A00057FF03C08FEF9FEF2BC0682FCE010196FD
:1046B0007A830E9428238091F20090E0A8017A81F9
:1046C000801791070CF4AC01EF2DF72FF40E84E660
:1046D000FE1639F02898809306069091F100919388
:1046E000F7CF4115510521F08091F200882321F088
:1046F00089818FBFCA0104C08BE68093E800F8CFA0
:104700000F900F90DF91CF911F910F91FF9008951F
:10471000CF93DF931F92CDB7DEB741E050E0BE01EB
:104720006F5F7F4F0E944223019719F4898190E0C7
:1047300002C08FEF9FEF0F90DF91CF910895CF933D
:10474000DF931F92CDB7DEB7682FCE0101960E948E
:1047500028239091E800892F807295FF04C09091E2
:10476000F20080E4891B99819FBF0F90DF91CF9168
:1047700008956F927F928F929F92AF92BF92CF9245
:10478000DF92EF92FF920F931F93CF93DF931F92CD
:10479000CDB7DEB7782E7B01C42EB52E80910506ED
:1047A000882369F0042F152F8AEFD82E872D807269
:1047B000982E9AE3A92E872D8074882E11C08FEF32
:1047C0009FEF57C0872D0E949F23682E81110CC038
:1047D000DA94A9F361E070E080E090E00E94ED1CC3
:1047E0000115110579F73BC0282F30E00217130798
:1047F0000CF4602E672DCE0101960E942823809133
:10480000E80085FF29C0262D30E0021B130B9920FC
:1048100039F06A948FEF6816B1F01092F100F9CF79
:10482000F701862D77FE07C0815058F09491909340
:10483000F1003196F9CF815020F091919093F100E1
:10484000FACFE20EF31E8091E80085FF0FC001153C
:10485000110511F481100AC089818FBFC1CF5D9805
:1048600084E6809307068C2D9B2D03C0A092E80060
:10487000F3CF0F90DF91CF911F910F91FF90EF90A9
:10488000DF90CF90BF90AF909F908F907F906F9070
:1048900008951092E900109202061092010690937A
:1048A00000068093FF050895CF92DF92FF920F9349
:1048B0001F93CF93DF9300D0CDB7DEB7F82E8A01D8
:1048C0006B0101151105B1F0F601F7FE02C08491EC
:1048D00001C0808149835A830E94842201501109BA
:1048E000FFEFCF1ADF0A49815A818111EACF8FEF9A
:1048F0009FEF01C0CA010F900F90DF91CF911F91E0
:104900000F91FF90DF90CF9008951F93CF93DF9387
:104910001F92CDB7DEB7162F2091E80022FFFCCF03
:10492000612F79830E9477228BEF8093E800812F9B
:104930007981972F0F90DF91CF911F9108951F924A
:104940000F920FB60F921124DF92EF92FF920F9306
:104950001F932F933F934F935F936F937F938F9307
:104960009F93AF93BF93EF93FF93CF93DF93CDB715
:10497000DEB76C97DEBFCDBF1092E9008091E800F2
:1049800083FF23C168E0CE0145960E94772282EF23
:104990008093E8003D8937FF05C08091E80080FFE3
:1049A000FCCF03C08EEF8093E800832F807609F060
:1049B000F0C02E894F89D88C21110CC0303829F4D1
:1049C000809104068093F10002C01092F1001092D1
:1049D000F100F4C0842F90E09D29213049F4311179
:1049E000EDC0019709F0EAC0809104068D7F0AC0EE
:1049F000233059F43111E2C0019709F0DFC08091F2
:104A00000406826080930406D9C0253041F4809169
:104A1000E80080FFFCCF40684093E300CFC0263021
:104A200009F08DC0EB8CFC8C22E0D2122CC080E00F
:104A300090E00E9449240E94122399E08E010F5FAA
:104A40001F4FF801292F11922A95E9F79983DA82ED
:104A500091E09E8390EA98879AEF998720910106CA
:104A600030910206275F3F4F3C832B838D83C70124
:104A70000E94492449E050E0B80180E00E9454249B
:104A80000E9412239BC0C7010E9449240E943E2815
:104A9000BE016B5E7F4F0E94E027009719F00CF07B
:104AA0008DC090C081E0D8120EC08B8D9C8D089770
:104AB00019F481E08093FE058091FE0581112FC0DD
:104AC00069E075E031C0E3E0DE127CC08F898823A5
:104AD00049F1823029F440E86DE087E295E01CC09E
:104AE000813029F440E86BE08BE195E015C083301C
:104AF00009F068C00E943E288E010F5F1F4FB80169
:104B00000E94FF27F80101900020E9F73197E01B90
:104B1000F10B40E06E2FC8010E94B2224DC067EF3A
:104B200074E002C065E375E06115710509F44AC0DF
:104B3000FB01449150E080E80E9454243FC027309C
:104B400009F440C0283021F481E08093F10036C0A0
:104B50002930A1F53370B1F5EFE1F1E081E021E01A
:104B600036E39081992361F08093E9002093EB0074
:104B700091919093EC003093ED008F5F873089F72F
:104B80008EE78093EA001092EA008F8980930506F1
:104B900015C08B8D9C8D0E944924898D811105C083
:104BA000CE0145960E94A81E07C00E943E28BE0165
:104BB0006B5E7F4F0E941E28882321F08EEF80932A
:104BC000E80003C081E28093EB006C960FB6F89486
:104BD000DEBF0FBECDBFDF91CF91FF91EF91BF91AF
:104BE000AF919F918F917F916F915F914F913F9185
:104BF0002F911F910F91FF90EF90DF900F900FBEBC
:104C00000F901F9018958093E9008091F2008823FF
:104C100019F08AE38093E80008951F920F920FB66F
:104C20000F9211242F933F934F935F936F937F9332
:104C30008F939F93AF93BF93CF93EF93FF93C091C5
:104C4000E1008091E100837F8093E1008093E100A7
:104C5000C3FF0FC01092E90081E08093EB00109237
:104C6000EC0082E38093ED001092050688E08093CB
:104C7000F000C2FF19C083E00E940326809107065E
:104C8000882339F080910706815080930706882396
:104C900089F180910606882339F0809106068150BB
:104CA00080930606882341F1C4FF10C08091E20082
:104CB0008E7E81608093E2008091E1008F7E809300
:104CC000E100809103068E7E806111C0C0FF16C096
:104CD0008091E2008E7E80618093E2008091E1000D
:104CE0008E7E8093E100809103068E7E81608093AA
:104CF000030604C05D9ACDCF289AD6CFFF91EF91DD
:104D0000CF91BF91AF919F918F917F916F915F9163
:104D10004F913F912F910F900FBE0F901F901895BC
:104D20001092050610920406109203060E94EF22CC
:104D3000E1EEF0E080818E7E80838DE08093E20062
:104D4000559A209A0895FC01808191810C94512BF1
:104D5000CF93DF93EC0188819981009711F00E9435
:104D6000512B198218821D821C821B821A82DF91AC
:104D7000CF9108950F931F93CF93DF93EC018B0195
:104D80006F5F7F4F888199810E94E02B009731F0FF
:104D9000998388831B830A8381E001C080E0DF91CF
:104DA000CF911F910F910895CF93DF93EC018881EC
:104DB0009981892B29F08A819B818617970760F456
:104DC000CE010E94BA26882341F08C819D81892BD7
:104DD00019F4E881F981108281E0DF91CF91089583
:104DE000EF92FF920F931F93CF93DF93EC017B0120
:104DF0008A01BA010E94D426811104C0CE010E940A
:104E0000A82607C01D830C83B701888199810E9461
:104E1000B32CCE01DF91CF911F910F91FF90EF90B6
:104E20000895FC011182108213821282158214826D
:104E30006115710559F0FB0101900020E9F7AF0100
:104E400041505109461B570B0C94F0260895CF93FF
:104E5000DF93EC01FB018617970761F06081718198
:104E60006115710529F0448155810E94F02602C028
:104E70000E94A826CE01DF91CF910895FC011182F6
:104E8000108213821282158214820C942727EF92CB
:104E9000FF920F931F93CF93DF93EC017B010C8163
:104EA0001D816115710511F480E016C04115510591
:104EB00091F0040F151FB8010E94D4268823A1F396
:104EC000288139818C819D81B701820F931F0E94B7
:104ED000B32C1D830C8381E0DF91CF911F910F9143
:104EE000FF90EF900895CF93DF93EC01FB01448195
:104EF0005581608171810E944727811103C0CE01D5
:104F00000E94A826CE01DF91CF910895CF93DF9321
:104F1000EC016115710569F0FB0101900020E9F7D2
:104F2000AF0141505109461B570B0E944727811181
:104F300003C0CE010E94A826CE01DF91CF91089533
:104F400008950E94151D0E94A0278DEF95E00E94F4
:104F500090260E940811C1E7DFE10E943D152097CD
:104F6000E1F30E94711FF9CF0C94B92A0895EF92D2
:104F7000FF920F931F93CF93DF937B01FC01C281BC
:104F8000D38100E010E0209781F0E881F981028070
:104F9000F381E02DB701CE01099597FD08C0080FF8
:104FA000191F0884D985C02DEECFC80102C08FEF2C
:104FB0009FEFDF91CF911F910F91FF90EF90089598
:104FC0000F931F93CF93DF938B01FC01C281D38199
:104FD000209771F0E881F9810480F581E02DB80116
:104FE000CE010995009731F40884D985C02DF0CF02
:104FF00080E090E0DF91CF911F910F9108950F9382
:105000001F93CF93DF938B01FC01C281D381209743
:1050100071F0E881F9810680F781E02DB801CE01B9
:105020000995080F111D0884D985C02DF0CFF8010E
:105030001082DF91CF911F910F9108950F931F93CD
:10504000CF93DF938B01FC01C281D381209771F054
:10505000E881F9810190F081E02DB801CE01099538
:10506000811106C00884D985C02DF0CF80E001C031
:1050700081E0DF91CF911F910F91089580910C06EF
:1050800081110DC082E08093080684E080930906B8
:1050900010920B0610920A0681E080930C0688E0BD
:1050A00096E008955058BB27AA270ED075C166D147
:1050B00030F06BD120F031F49F3F11F41EF45BC14E
:1050C0000EF4E095E7FB51C1E92F77D180F3BA17D1
:1050D000620773078407950718F071F49EF58FC176
:1050E0000EF4E0950B2EBA2FA02D0B01B901900103
:1050F0000C01CA01A0011124FF27591B99F0593F47
:1051000050F4503E68F11A16F040A22F232F342F8E
:105110004427585FF3CF469537952795A795F040DC
:105120005395C9F77EF41F16BA0B620B730B840BF1
:10513000BAF09150A1F0FF0FBB1F661F771F881FA9
:10514000C2F70EC0BA0F621F731F841F48F4879501
:1051500077956795B795F7959E3F08F0B3CF9395F0
:10516000880F08F09927EE0F979587950895D9D065
:1051700008F481E008950CD00FC107D140F0FED0B3
:1051800030F021F45F3F19F0F0C0511139C1F3C084
:1051900014D198F39923C9F35523B1F3951B550BFB
:1051A000BB27AA2762177307840738F09F5F5F4FFA
:1051B000220F331F441FAA1FA9F333D00E2E3AF03B
:1051C000E0E830D091505040E695001CCAF729D055
:1051D000FE2F27D0660F771F881FBB1F26173707A4
:1051E0004807AB07B0E809F0BB0B802DBF01FF27D4
:1051F00093585F4F2AF09E3F510568F0B6C000C13A
:105200005F3FECF3983EDCF3869577956795B7950D
:10521000F7959F5FC9F7880F911D9695879597F928
:105220000895E1E0660F771F881FBB1F62177307A1
:105230008407BA0720F0621B730B840BBA0BEE1FB6
:1052400088F7E095089504D06894B111D9C0089505
:10525000BCD088F09F5790F0B92F9927B751A0F094
:10526000D1F0660F771F881F991F1AF0BA95C9F7FA
:1052700012C0B13081F0C3D0B1E00895C0C0672F33
:10528000782F8827B85F39F0B93FCCF386957795AA
:105290006795B395D9F73EF4909580957095619593
:1052A0007F4F8F4F9F4F0895E89409C097FB3EF4BE
:1052B00090958095709561957F4F8F4F9F4F992363
:1052C000A9F0F92F96E9BB279395F69587957795E1
:1052D0006795B795F111F8CFFAF4BB0F11F460FFA1
:1052E0001BC06F5F7F4F8F4F9F4F16C0882311F0F9
:1052F00096E911C0772321F09EE8872F762F05C00D
:10530000662371F096E8862F70E060E02AF09A95A7
:10531000660F771F881FDAF7880F9695879597F99C
:105320000895990F0008550FAA0BE0E8FEEF161636
:105330001706E807F907C0F012161306E407F50789
:1053400098F0621B730B840B950B39F40A2661F0FD
:10535000232B242B252B21F408950A2609F4A140A0
:10536000A6958FEF811D811D089597F99F6780E8AD
:1053700070E060E008959FEF80EC089500240A94A7
:105380001616170618060906089500240A94121620
:105390001306140605060895092E0394000C11F453
:1053A000882352F0BB0F40F4BF2B11F460FF04C000
:1053B0006F5F7F4F8F4F9F4F089557FD9058440F59
:1053C000551F59F05F3F71F04795880F97FB991F64
:1053D00061F09F3F79F08795089512161306140621
:1053E000551FF2CF4695F1DF08C0161617061806AE
:1053F000991FF1CF86957105610508940895E89489
:10540000BB2766277727CB0197F908950BD0C4CF28
:10541000B5DF28F0BADF18F0952309F0A6CFABCF9F
:105420001124EECFCADFA0F3959FD1F3950F50E082
:10543000551F629FF001729FBB27F00DB11D639F46
:10544000AA27F00DB11DAA1F649F6627B00DA11DEC
:10545000661F829F2227B00DA11D621F739FB00D92
:10546000A11D621F839FA00D611D221F749F332702
:10547000A00D611D231F849F600D211D822F762F9B
:105480006A2F11249F5750408AF0E1F088234AF098
:10549000EE0FFF1FBB1F661F771F881F91505040E4
:1054A000A9F79E3F510570F060CFAACF5F3FECF3A4
:1054B000983EDCF3869577956795B795F795E795D0
:1054C0009F5FC1F7FE2B880F911D9695879597F9E1
:1054D000089597FB072E16F4009407D077FD09D0A6
:1054E0000E94A52A07FC05D03EF4909581959F4F18
:1054F0000895709561957F4F0895A1E21A2EAA1B19
:10550000BB1BFD010DC0AA1FBB1FEE1FFF1FA21773
:10551000B307E407F50720F0A21BB30BE40BF50B70
:10552000661F771F881F991F1A9469F760957095F9
:10553000809590959B01AC01BD01CF010895EE0FC0
:10554000FF1F0590F491E02D0994AA1BBB1B51E1AC
:1055500007C0AA1FBB1FA617B70710F0A61BB70BE3
:10556000881F991F5A95A9F780959095BC01CD0188
:105570000895CF93DF938230910510F482E090E09C
:10558000E0911606F091170620E030E0A0E0B0E0D0
:10559000309739F14081518148175907B8F04817C1
:1055A000590771F482819381109729F013969C9387
:1055B0008E9312972CC0909317068093160627C0DF
:1055C0002115310531F04217530718F0A901DB010D
:1055D00001C0EF019A01BD01DF010280F381E02DDE
:1055E000D7CF21153105F9F0281B390B24303105AF
:1055F00080F48A819B816115710521F0FB01938301
:10560000828304C09093170680931606FE0132969B
:1056100044C0FE01E20FF31F8193919322503109A0
:10562000398328833AC02091140630911506232B24
:1056300041F420910201309103013093150620932B
:10564000140620910001309101012115310541F42A
:105650002DB73EB74091040150910501241B350B35
:10566000E0911406F0911506E217F307A0F42E1B43
:105670003F0B2817390778F0AC014E5F5F4F2417B6
:10568000350748F04E0F5F1F5093150640931406E0
:105690008193919302C0E0E0F0E0CF01DF91CF91E0
:1056A0000895CF93DF93009709F487C0FC013297E8
:1056B00013821282C0911606D0911706209781F4AA
:1056C00020813181280F391F809114069091150691
:1056D0008217930779F5F0931506E09314066DC0D1
:1056E000DE0120E030E0AE17BF0750F412964D9176
:1056F0005C9113979D014115510509F1DA01F3CF32
:10570000B383A28340815181840F951F8A179B0721
:1057100071F48D919C911197840F951F029691833E
:10572000808312968D919C91139793838283211588
:10573000310529F4F0931706E09316063EC0D9010F
:105740001396FC93EE9312974D915D91A40FB51FA4
:10575000EA17FB0779F480819181840F951F0296E7
:10576000D90111969C938E938281938113969C9379
:105770008E931297E0E0F0E08A819B81009719F008
:10578000FE01EC01F9CFCE01029628813981820F0A
:10579000931F20911406309115062817390769F4D4
:1057A000309729F4109217061092160602C0138241
:1057B0001282D0931506C0931406DF91CF910895FD
:1057C000A0E0B0E0E6EEFBE20C94EE2CEC01CB01A5
:1057D000209719F40E94B92AB8C0FE01E60FF71FFE
:1057E0009E0122503109E217F30708F4ACC0D90139
:1057F0000D911C91119706171707B8F00530110588
:1058000008F49FC0A801445051094617570708F4EF
:1058100098C002501109061B170B019311936D9349
:105820007C93CF010E94512B8CC05B01A01AB10A5E
:105830004E01800E911EA0911606B0911706612CA4
:10584000712C60E070E0109709F449C0A815B90503
:10585000C9F5ED90FC901197670142E0C40ED11C90
:10586000CA14DB0478F147018A189B08640142E0FE
:10587000C40ED11C1296BC9012971396AC91B5E051
:10588000CB16D10440F0B282A38391828082D901E9
:105890008D939C9309C00E5F1F4F0E0D1F1DF901C4
:1058A00011830083EB2DFA2F6115710531F0DB01B7
:1058B0001396FC93EE93129744C0F0931706E0936F
:1058C00016063FC06D917C9111976616770608F415
:1058D0003B01BD0112960D90BC91A02DB4CF6091FB
:1058E00014067091150668157905E9F468167906AD
:1058F000D0F440910001509101014115510541F44E
:105900004DB75EB76091040170910501461B570BBE
:10591000E417F507C0F4F0931506E0931406F901B7
:10592000918380830EC00E94B92A7C01009759F0B0
:10593000A801BE010E94AA2CCE010E94512BC701D2
:1059400004C0CE0102C080E090E0CDB7DEB7EEE04B
:105950000C940A2DFB01DC0102C001900D92415014
:105960005040D8F70895FB01DC0101900D92002012
:10597000E1F70895DC01CB01FC01F999FECF06C0E7
:10598000F2BDE1BDF89A319600B40D9241505040FD
:10599000B8F70895F999FECF92BD81BDF89A99277D
:1059A00080B50895DC01CB0103C02D910E94DD2C50
:1059B00041505040D0F70895262FF999FECF1FBAD5
:1059C00092BD81BD20BD0FB6F894FA9AF99A0FBE28
:1059D000019608952F923F924F925F926F927F921D
:1059E0008F929F92AF92BF92CF92DF92EF92FF92EF
:1059F0000F931F93CF93DF93CDB7DEB7CA1BDB0B9B
:105A00000FB6F894DEBF0FBECDBF09942A8839883F
:105A100048885F846E847D848C849B84AA84B98446
:105A2000C884DF80EE80FD800C811B81AA81B98152
:105A3000CE0FD11D0FB6F894DEBF0FBECDBFED0166
:105A4000089515E0C0E4D5E004C0FE010E94A12A3B
:0C5A50002296C234D107C9F7F894FFCFAA
:105A5C000000180680000100B01BB01BB01BB01B6F
:105A6C00B01BFFFFFFFF00E100000000000000C1C1
:105A7C0080810000000A0014003200530064007D95
:105A8C0000FA00F401E8030D0A003000302E362E27
:105A9C00310043414E42757320547269706C65003D
:105AAC007B226576656E74223A2276657273696F15
:105ABC006E222C20226E616D65223A2200222C204F
:105ACC00002276657273696F6E223A2200226D6530
