:100000000C941E020C94E01E0C94071F0C942E1FDF
:100010000C94551F0C9446020C9446020C947C1FC1
:100020000C9446020C9446020C94132A0C94A528B6
:100030000C9446020C9446020C9446020C94460220
:100040000C9446020C9446020C9446020C94460210
:100050000C9446020C9446020C9446020C94A31F86
:100060000C9446020C948F240C94C1240C944602E8
:100070000C9446020C9446020C9446020C944602E0
:100080000C9446020C9446020C9446020C944602D0
:100090000C9446020C9446020C9446020C944602C0
:1000A0000C9446020C9446020C944602840D880D72
:1000B0008C0D900DB10DB10DB10D930DA20DA60DCE
:1000C000B10DB10DB10DB10DB10DAA0DB10DB10D47
:1000D000B10DB10DB10DAE0DF120F620FB200521C3
:1000E0000F21592159215921192123212D2137214E
:1000F000442159214C217A217D216C2170217621C6
:100100009E219E219E218121852189218F2193215C
:100110009E219921227D007B226576656E74223AAC
:1001200022656570726F6D222C20226461746122D9
:100130003A2200227D00222C20226E6578745478A9
:10014000427566666572223A2200222C2022657270
:10015000726F72223A2200222C202273746174750D
:1001600073223A2200222C202263616E6374726C27
:10017000223A22007B226576656E74223A226275ED
:1001800073646267222C20226E616D65223A220020
:10019000227D00227D007B226576656E74223A22E4
:1001A000656570726F6D44617461222C20227265E6
:1001B00073756C74223A226661696C757265222CC3
:1001C00020226368756E6B223A22007B2265766579
:1001D0006E74223A22656570726F6D536176652286
:1001E0002C2022726573756C74223A2273756363D6
:1001F000657373227D00227D007B226576656E74B7
:10020000223A22656570726F6D44617461222C2000
:1002100022726573756C74223A2273756363657319
:1002200073222C20226368756E6B223A2200227D95
:1002300000554E4B4E4F574E004C4F4F504241438E
:100240004B004C495354454E00534C454550004ECD
:100250004F524D414C00434F4E4649475552415431
:10026000494F4E00222C20226D6F6465223A2200F5
:100270007B226576656E74223A2263616E2D6D6F06
:1002800064652D627573007D00222C2022726174DA
:1002900065223A007B226576656E74223A22626995
:1002A00074726174652D627573007D007B226576C2
:1002B000656E74223A226175746F62617564436F72
:1002C0006D706C657465222C202272617465223A0F
:1002D000007D007B226576656E74223A226175741A
:1002E0006F6261756454657374222C20227261748C
:1002F00065223A007B226576656E74223A22656536
:1003000070726F6D5265736574222C202272657352
:10031000756C74223A2273756363657373227D0072
:10032000070605040100080A0B0C0D090000000275
:1003300000090F0000030401000C00000000000091
:10034000000000000000000000000408020110404E
:10035000804010204080408008020401804020102E
:10036000020110801020404004040404040304052A
:100370000202020204030202020206060606060642
:1003800004040202020400000000230026002900E9
:100390002C002F0000000000250028002B002E005C
:1003A000310000000000240027002A002D0030004A
:1003B000080B000202020100090400000102020011
:1003C0000005240010010524010101042402060592
:1003D0002406000107058103100040090401000202
:1003E0000A000000070502024000000705830240E2
:1003F000000012010002EF0201404123368000019B
:100400000102030112010002000000404123368076
:1004100000010102030141726475696E6F204C4C4A
:10042000430043414E42757320547269706C6500FD
:10043000040309045A182D23F1243D1911241FBE69
:10044000CFEFDAE0DEBFCDBF13E0A0E0B1E0ECE932
:10045000F7E602C005900D92AE33B107D9F726E05A
:10046000AEE3B3E001C01D92A03EB207E1F714E095
:10047000CAE3D4E004C02297FE010E94BB2EC4331D
:10048000D107C9F70E94A72B0C94C1330C9400002C
:100490000895089520E1FA01DC0101900D922A955A
:1004A000E1F70895089508950895FA0125853685A0
:1004B0002230310561F02330310559F0213031050A
:1004C00069F423E030E03687258721E006C01786EF
:1004D00005C021E030E036872587278720E1DC0151
:1004E00001900D922A95E1F7089521E0FB013081FA
:1004F000311101C020E0FC0122830895FA014181FD
:100500005281DB0117962D913C91189742175307A2
:1005100031F413961D921D921D921C92169720E1A4
:10052000DC0101900D922A95E1F708952F923F92F8
:100530004F925F926F927F928F929F92AF92BF92F3
:10054000CF92DF92EF92FF920F931F93CF93DF939F
:10055000CDB7DEB72E970FB6F894DEBF0FBECDBF76
:100560004C01798768876A01DB011496ED91FC9153
:1005700015978081E82FF0E0FB87EA87F2E28F9FF2
:10058000800111240C541C4FE12CF12C8F5F8C87BF
:10059000A885B9851496ED91FC911597808190E01E
:1005A00001962A853B852E0D3F1D821793070CF47B
:1005B000BBC0980129513109F801759780813196A6
:1005C000811104C09081992309F4A8C090E0982F6C
:1005D00088274081840F911D0896D60111964D9170
:1005E0005C9112974817590709F098C080E090E095
:1005F000F901E80FF91F4485442359F0D601A40FEF
:10060000B11D5C914585541389C0029686309105D1
:1006100079F7F8013797808186958695869582507F
:10062000F601E80FF11D6381D80116978C9170E0F7
:10063000803129F4762F66278481680F711DF801B7
:100640003597A080B12CBA2CAA2431968081A80EAF
:10065000B11C3196208130E0322F222731968081E3
:10066000280F311D31962080312C322C2224F801A4
:100670008081280E311C2115310511F421E030E074
:1006800080E090E02D873E870E945A2D2B013C018F
:100690002D853E85B90180E090E00E945A2D9B0196
:1006A000AC01C301B2010E94C12C2B013C01B50178
:1006B00080E090E00E945A2D9B01AC01C301B20181
:1006C0000E940C2E2B013C01B10180E090E00E94C1
:1006D0005A2D9B01AC01C301B2010E94592C0E940A
:1006E0002E2DF80177972081318126173707B1F039
:1006F00071836083F7EEF98323E82A832C852E0D1E
:100700002B837C836D833DE03E838AE08F83BE0133
:100710006F5F7F4F88E296E00E948D259FEFE91A78
:10072000F90A0E5D1F4F34CF80E1F601D40101902C
:100730000D928A95E1F7C4012E960FB6F894DEBFAC
:100740000FBECDBFDF91CF911F910F91FF90EF9022
:10075000DF90CF90BF90AF909F908F907F906F90E1
:100760005F904F903F902F90089580E00E94C01EB0
:1007700081E00E94C01E84E00C94C01E9F92AF9244
:10078000BF92CF92DF92EF92FF920F931F93CF937E
:10079000DF9300D01F92CDB7DEB78C01FC018281C0
:1007A000882361F043815481658176814F5F5F4F7B
:1007B0006F4F7F4F4383548365837683F801838132
:1007C0009481A581B68180329E44A105B10508F4CB
:1007D0004DC1F801138214821582168288ED95E0CE
:1007E0000E941E23811142C160E088E00E94D8214E
:1007F00088E10FB6F89480936000109260000FBEFD
:10080000A8E0FA2E729A64E670E080E090E00E9420
:100810001C20729864E670E080E090E00E941C204A
:10082000FA9481F7FCEDEF2EF12CB7018DE00E94D8
:10083000CB2061E070E080E090E00E941C20F1E0BD
:10084000EF1AF10891F7EFE9EE2EE5E0FE2E6E01CA
:1008500024E0C20ED11CCE0101965C016FE070E075
:10086000C7010E942B1C982EF60182936F0128E08D
:1008700048E06CE0C7010E940A1B22E040E06CE007
:10088000C7010E940A1B20E240E26CE0C7010E94FF
:100890000A1BCA14DB0421F5F80127813085232BBC
:1008A000F9F060E070E0C7010E94561BF801678113
:1008B0007085AB01C7010E94EF1D23E040E06CE2B0
:1008C000C7010E940A1B20EE492D6FE0C7010E945C
:1008D0000A1B62E070E080E090E00E941C2005C0EE
:1008E00062E070E0C7010E94561B23E040E06CE22A
:1008F000C7010E940A1BFCE0EF1AF108CA14DB04CE
:1009000009F0ACCF40E050E065EB73E080E00E947E
:10091000701E40E050E065EB73E081E00E94701EC5
:1009200040E050E065EB73E084E00E94701E83B706
:10093000817F846083BFF89483B7816083BF78949C
:1009400080916400816080936400889564E070E029
:1009500080E090E00E941C2083B78E7F83BF80914F
:1009600064008E7F8093640062E070E080E090E03D
:100970000E941C2077E8E72E75E0F72EC12CD12CC1
:1009800020E440E46CE2C7010E940A1B20E440E43A
:100990006BE2C7010E940A1B62E070E080E090E019
:1009A0000E941C2020E440E06BE2C7010E940A1B69
:1009B00020E440E06CE2C7010E940A1B2FEF40E0F8
:1009C0006CE2C7010E940A1B20E240E06CE0C70114
:1009D0000E940A1B61E070E080E090E00E941C2011
:1009E000C114D10481F462E070E080E090E00E94E4
:1009F0001C2060E070E087E895E00E94561B87E8C5
:100A000095E00E949C1DF50141915F0120EE6FE091
:100A1000C7010E940A1B62E070E080E090E00E9443
:100A20001C20FFEFCF1ADF0A2CE0E20EF11C83E05E
:100A3000C816D10409F0A4CF729A60E08DE00E943C
:100A4000D82161E088E00E94D82164EF71E080E065
:100A500090E00E941C2080E49FE190930901809324
:100A60000801F80113821482158216820F900F90EC
:100A70000F90DF91CF911F910F91FF90EF90DF903A
:100A8000CF90BF90AF909F90089561E08DE00E945D
:100A90009F2161E08DE00E94D8216AEF70E080E044
:100AA00090E00E941C2060E08DE00E94D8216AEF57
:100AB00070E080E090E00E941C20EBCF009711F0E6
:100AC0000E94AC250E9445056115710581F0DB018E
:100AD0000D900020E9F7AD0141505109461B570B1D
:100AE000DC01ED91FC910280F381E02D099480E01E
:100AF00090E008950F931F93CF93DF93EC018B0148
:100B0000FB018081918199838883828193819B837A
:100B10008A836C5F7F4FCE0104960E94442BF801BC
:100B2000828593859B878A87DF91CF911F910F9153
:100B3000089540E052E060E070E00C94CC329FEF0A
:100B4000980F933078F41616170664F494E0899F92
:100B5000F0011124ED57FC4F7483638387E893E021
:100B60000C94990508959FEF980F933048F494E002
:100B7000899FF0011124ED57FC4F838194810895E2
:100B800080E090E008959FEF980F933060F494E038
:100B9000899FF0011124ED57FC4F7683658387E828
:100BA00093E00C94990508959FEF980F933048F4C3
:100BB00094E0899FF0011124ED57FC4F85819681C7
:100BC000089585E090E00895CF93DF93C0E0D0E0F2
:100BD00060E0CE010E94D6322196C11582E0D8078E
:100BE000B9F7DF91CF9108950F931F93CF93DF93C0
:100BF000CDB7DEB7D2500FB6F894DEBF0FBECDBF73
:100C00000E94E405CE01019620E032E0FC01A9013A
:100C1000119241505040E1F70E9499050E943A0616
:100C200064EF72E088ED95E00E949A2506E010E0FE
:100C300061E08DE00E94D82164EF71E080E090E0F7
:100C40000E941C2060E08DE00E94D82164EF71E0DA
:100C500080E090E00E941C200150110949F7DE5FFE
:100C60000FB6F894DEBF0FBECDBFDF91CF911F91BD
:100C70000F91089580E092E0E7E8F3E0DF019C0146
:100C80001D9221503040E1F740E052E060E070E01A
:100C9000CF010E94B4328091880381508E3F10F0C2
:100CA0000C94F40508955F926F927F928F929F92B9
:100CB000AF92BF92CF92DF92EF92FF920F931F936A
:100CC000CF93DF93CDB7DEB76E970FB6F894DEBF44
:100CD0000FBECDBF982E5B018FEF890D833008F0DA
:100CE000D5C0292D30E0215031098CE0829FB00120
:100CF000839F700D112469577A4F7E0183E1E80EBE
:100D0000F11CC7010E947A056FE070E0C7010E94E4
:100D10002B1C582E6BE270E0C7010E942B1C682E22
:100D200092E1EDE2F1E0DE01119601900D929A95CB
:100D3000E1F7FE0131966F01712C812C63ED72E0B9
:100D4000C5010E945C25F601019111916F014AE0F5
:100D500050E0B801C5010E94612661ED72E0C50155
:100D60000E949A2560E070E0C7010E94561B65E072
:100D700070E080E090E00E941C20B801C7010E9452
:100D80007E1C65E070E080E090E00E941C2063E043
:100D900070E0C7010E94561B65E070E080E090E0C3
:100DA0000E941C202FEF40E06CE2C7010E940A1B4A
:100DB00065E070E080E090E00E941C2068EC70E04C
:100DC00080E090E00E941C206CE270E0C7010E946D
:100DD0002B1C87FD02C0811102C0072D182DCE14D7
:100DE000DF0419F0702E812EA9CF60E070E0C601FB
:100DF0000E94561B6AE070E080E090E00E941C2098
:100E0000B801C6010E947E1C61E070E080E090E0C5
:100E10000E941C202FEF452D6FE0C6010E940A1B87
:100E200061E070E080E090E00E941C202FEF462DF2
:100E30006BE2C6010E940A1B61E070E080E090E076
:100E40000E941C20892D0E94D405BC01C6010E946D
:100E5000561B6CEA72E0C5010E945C254AE050E036
:100E6000B801C5010E9461266AEA72E0C5010E94CC
:100E70009A250115110521F0B801892D0E949F05C1
:100E8000CE0147960E94A92AC80102C080E090E0E6
:100E90006E960FB6F894DEBF0FBECDBFDF91CF9137
:100EA0001F910F91FF90EF90DF90CF90BF90AF9088
:100EB0009F908F907F906F905F900895282F30E0E3
:100EC00070E080910A0190E0AB01481B590B42177A
:100ED000530734F4680F791F81E0261737070CF0A9
:100EE00080E008950F931F9380910D010E949A2036
:100EF0006AE070E00E94832E062F6AE0802F0E9435
:100F00005E07811102C010E001C010E267E1802F8E
:100F10000E945E078111105F66E2802F0E945E07CB
:100F20008111105867E3802F0E945E078111105CC9
:100F300068E4802F0E945E078111185F80910B0189
:100F40000E949A206AE070E00E94832E062F6AE0D9
:100F5000802F0E945E0781111C5F67E1802F0E9435
:100F60005E0781111E5F67E2802F0E945E0781117C
:100F70001F5F80913E03181761F00E94ED1F609380
:100F80008303709384038093850390938603109367
:100F90003E030E94ED1F0091830310918403209172
:100FA000850330918603601B710B820B930B6635B2
:100FB00071058105910530F080913E039091820387
:100FC000981305C0809182031F910F91089580931B
:100FD0008203F8CFFC018CEC92E0918380837583CF
:100FE00064831782168288ED95E09383828312864C
:100FF0001386148615860895AF92BF92CF92DF9222
:10100000EF92FF920F931F93CF93DF936C015A01DE
:101010007B0104E610E0C0E0D0E0CA15DB0564F512
:10102000D60112968D919C911397DC01ED91FC9164
:101030000480F581E02D0995892B61F410161106C5
:10104000DCF461E070E080E090E00E941C20015040
:101050001109E6CF101611067CF4F6018281938106
:10106000DC01ED91FC910680F781E02D0995F701F7
:1010700081937F012196D1CFCE01DF91CF911F9136
:101080000F91FF90EF90DF90CF90BF90AF900895B9
:101090000F931F93CF93DF9300D000D01F92CDB753
:1010A000DEB78C0145E050E0BE016F5F7F4F0E94CC
:1010B000FC078981843080F490E0FC013396EE0FC8
:1010C000FF1FE00FF11F2B812083FC01EE0FFF1F9C
:1010D000E00FF11F8D8187830F900F900F900F907D
:1010E0000F90DF91CF911F910F9108950F931F9350
:1010F000CF93DF9300D01F92CDB7DEB78C0143E0D2
:1011000050E0BE016F5F7F4F0E94FC07833051F4B7
:101110006A8170E0762F66278B81680F711D898147
:101120000E949F0564E972E0F801828193810E9428
:101130005C254AE050E06981F801828193810E9438
:10114000762669E872E0F801828193810E945C252D
:1011500089810E94B3054AE050E0BC01F801828118
:1011600093810E94612667E872E0F8018281938191
:101170000E949A250F900F900F90DF91CF911F91B1
:101180000F910895EF92FF920F931F93CF93DF93E8
:1011900000D0CDB7DEB78C0142E050E0BE016F5FFA
:1011A0007F4F0E94FC07823029F46A8170E08981B8
:1011B0000E94C30589810E94D4057C0160E772E02A
:1011C000F801828193810E945C254AE050E06981A8
:1011D000F801828193810E94762664E672E0F8012C
:1011E000828193810E945C25F80182819381F2E0E3
:1011F000EF16F104C1F04CF4E114F10489F0EA9423
:10120000EF28B9F46FE472E016C0F3E0EF16F104D2
:1012100069F024E0E216F10461F469E372E00BC0C6
:1012200066E572E008C069E472E005C062E472E05D
:1012300002C061E372E00E945C256EE272E0F80198
:10124000828193810E949A250F900F90DF91CF9118
:101250001F910F91FF90EF900895BF92CF92DF9270
:10126000EF92FF920F931F93CF93DF93CDB7DEB72B
:1012700064970FB6F894DEBF0FBECDBF7C016E0140
:101280008DE0C80ED11C88E0D6011D928A95E9F741
:1012900042E050E0B601C7010E94FC07029744F00B
:1012A000BD840B2D10E0015011090330110560F0D1
:1012B000F70182819381DC01ED91FC910190F08135
:1012C000E02D60E809959AC08CE0809FB001819F75
:1012D000700D112469577A4FCE0101960E947A054C
:1012E0008E85F7012781882351F081E090E0002E60
:1012F00001C0880F0A94EAF7822B87830AC081E035
:1013000090E0002E01C0880F0A94EAF780958223AE
:10131000878360E070E0CE0101960E94561B8E85A7
:10132000813019F08230F1F04BC044E050E0B6015A
:10133000C7010E94FC07181619060CF041C04F8522
:1013400050E0542F44278889480F511D6D8570E067
:10135000762F66278E85680F711DCE0101960E943B
:10136000EF1D2EC048E050E0B601C7010E94FC0707
:101370006D8570E0762F66272E85620F711D4F8573
:1013800050E0542F44272889420F511D8530910584
:101390008CF0298930E0322F2227EA892E0F311D67
:1013A00007974CF00B8910E0102F00278C89080F4D
:1013B000111D02C09B018A01CE0101960E94AE1D43
:1013C0008B2D0E94D405BC01CE0101960E94561BB4
:1013D000F70182819381DC01ED91FC910190F08114
:1013E000E02D6FEF09956FE371E0F7018281938142
:1013F0000E946405CE0105960E94A92A64960FB644
:10140000F894DEBF0FBECDBFDF91CF911F910F913A
:10141000FF90EF90DF90CF90BF9008950F931F93B0
:10142000CF93DF93CDB7DEB7A2970FB6F894DEBFA8
:101430000FBECDBF8C0142E250E0BE016F5F7F4F17
:101440000E94FC07829789F58AA1813A71F5A981EA
:1014500080E2A89FD0011124A957BC4F80E2FE0171
:10146000329601900D928A95E1F769EF71E0F801EB
:10147000828193810E945C254AE050E06981F801F5
:10148000828193810E94762666EF71E0F801828165
:1014900093810E949A2589818F30E9F487E893E04F
:1014A0000E9499056BEC71E011C066E971E0F801EA
:1014B000828193810E945C254AE050E06981F801B5
:1014C000828193810E94762663E971E0F80182812E
:1014D00093810E949A25A2960FB6F894DEBF0FBEA4
:1014E000CDBFDF91CF911F910F9108950F931F935F
:1014F000CF93DF931F92CDB7DEB78C0141E050E070
:10150000BE016F5F7F4F0E94FC078981823029F006
:101510008330F1F4F80116821BC081E0F801868364
:1015200061E08DE00E94D82164E670E080E090E008
:101530000E941C2060E08DE00E94D82164E670E0EB
:1015400080E090E00E941C2061E08DE00E94D821A4
:101550000F90DF91CF911F910F910895CF93DF935B
:10156000EC018A819B81DC01ED91FC910480F58185
:10157000E02D0995892B51F08A819B81DC01ED9149
:10158000FC910680F781E02D0995EBCFDF91CF919B
:1015900008950F931F93CF93DF93EC018B0164E7C2
:1015A00071E08A819B810E945C25B8016C5F7F4F4E
:1015B0008A819B810E947F2565E671E08A819B81FB
:1015C0000E945C256FE070E0C8010E942B1C40E186
:1015D00050E0682F8A819B810E94762667E571E042
:1015E0008A819B810E945C25C8010E94FF1B40E10B
:1015F00050E0682F8A819B810E9476266AE471E020
:101600008A819B810E945C256DE270E0C8010E9486
:101610002B1C40E150E0682F8A819B810E94762636
:1016200066E371E08A819B810E945C25C8010E946B
:10163000171C4AE050E0BC018A819B810E94612610
:1016400063E371E08A819B81DF91CF911F910F91BC
:101650000C949A250F931F93CF93DF93CDB7DEB7EA
:101660002D970FB6F894DEBF0FBECDBF8C0141E0C1
:1016700050E0BE01635F7F4F0E94FC072D858FEF16
:10168000820F8330C8F430E0215031098CE0829F12
:10169000B001839F700D112469577A4FCE010196D6
:1016A0000E947A05BE016F5F7F4FC8010E94C90A80
:1016B000CE0105960E94A92A2D960FB6F894DEBF9A
:1016C0000FBECDBFDF91CF911F910F910895209153
:1016D0008103283078F4822F90E0FC01EE0FFF1F89
:1016E000E80FF91FE759FC4F6083528341832F5F56
:1016F000209381030895F89481E08093E00080E2D4
:101700008093D8001092C90065E070E080E090E01E
:101710000E941C201DBA109268001CBC10BE1FBA8B
:1017200010927A0010926E0010926F001092710069
:101730000C9400380895CF93DF93EC012885398508
:101740002F5F3F4F398728872830310544F064E107
:1017500070E080E090E00E941C2019861886DF91DE
:10176000CF910895FF920F931F93CF93DF93EC01D6
:1017700067E171E08A819B810E945C2500E010E0B6
:10178000C8010E94C432F82E2FE0281730F062E41E
:1017900071E08A819B810E948D2540E150E06F2D90
:1017A0008A819B810E9476268A819B8188529640FD
:1017B00019F4CE010E949B0B0F5F1F4F011582E0B1
:1017C0001807F1F664E171E08A819B81DF91CF9186
:1017D0001F910F91FF900C949A250F931F93CF9315
:1017E000DF93EC010E94ED1F0A851B852C853D854A
:1017F0000E5C1F4F2F4F3F4F06171707280739075B
:1018000040F40E94ED1F6A877B878C879D8780E06C
:1018100001C081E0DF91CF911F910F910895EF9268
:10182000FF920F931F93CF93DF93EC018B01DB01AA
:101830001D962D913C911E972150310981E090E039
:10184000022E01C0880F0A94EAF79F81982309F4B9
:1018500072C08A819B818852964029F4CE010E94F1
:10186000ED0B811168C08A819B81DC01ED91FC91B7
:101870000190F081E02D63E009958A819B81DC0174
:10188000ED91FC910190F081E02DD8011D966C91B5
:1018900009958A819B81DC01ED91FC91D80112961A
:1018A0006C910190F081E02D09958A819B81DC018A
:1018B000ED91FC910190F081E02DD80111966C9191
:1018C0000995E12CF12C8A819B81DC01ED91FC9141
:1018D000D801AE0DBF1D0190F081E02D13966C91E3
:1018E0000995BFEFEB1AFB0AE8E0EE16F10459F791
:1018F0008A819B81DC01ED91FC910190F081E02DCA
:10190000D8016C9109958A819B81DC01ED91FC9154
:101910000190F081E02DD8011B966C9109956FE341
:1019200071E08A819B81DF91CF911F910F91FF9090
:10193000EF900C946405DF91CF911F910F91FF9070
:10194000EF900895EF92FF920F931F93CF93DF9341
:10195000CDB7DEB760970FB6F894DEBF0FBECDBF30
:101960007C01CB018A01FB01278130E0FA0145852A
:1019700056854150510902C0359527954A95E2F7A1
:1019800020FF10C020E1DE01119601900D922A95F2
:10199000E1F7BE016F5F7F4F0E940F0CCE010196F1
:1019A0000E946E1E80E1F801D70101900D928A9588
:1019B000E1F7C70160960FB6F894DEBF0FBECDBF4A
:1019C000DF91CF911F910F91FF90EF900895CF93EA
:1019D000DF9300D0CDB7DEB72091DC063091DD0675
:1019E0002115310511F420EE36E0CE010196821B5F
:1019F000930B0F900F90DF91CF9108950F931F934A
:101A0000CF93DF93CDB7DEB762970FB6F894DEBF02
:101A10000FBECDBF8C0164E471E0CE0101960E943F
:101A2000172B6AE471E0CE010D960E94172B6EE52C
:101A300071E0CE0107960E94172BBE01635F7F4FB6
:101A4000CE0107960E94792B6BE771E00E948C2BE8
:101A50006FE771E00E948C2BBE016F5F7F4F0E9489
:101A6000792B6BE771E00E948C2B6BE871E00E9490
:101A70008C2BBC01F801828193810E947F25CE01CD
:101A800007960E94A92ACE010D960E94A92ACE018E
:101A900001960E94A92AC8010E94E70C4AE050E082
:101AA000BC01F801828193810E94612660E971E0A6
:101AB000F801828193810E949A2562960FB6F8946C
:101AC000DEBF0FBECDBFDF91CF911F910F91089563
:101AD0000F931F93CF93DF931F92CDB7DEB78C0187
:101AE00041E050E0BE016F5F7F4F0E94FC0701970D
:101AF000C1F5498150E0FA013197E631F10588F5E9
:101B0000EA5AFF4F0C94B92EC8010E94FE0C29C05E
:101B1000C8010E94B20B25C0C8010E940E0A21C054
:101B20000E94F4051EC041E050E0BE016F5F7F4F90
:101B3000C8010E94FC07F8016281738189810E94BB
:101B400053060FC0C8010E9476080BC0C8010E944E
:101B5000C20807C0C8010E942A0B03C0C8010E9426
:101B60007B0B0F90DF91CF911F910F910895EF9212
:101B7000FF920F931F93CF93DF93EC01CA0126EDE1
:101B800032E0398328837B836A8321E02A8BAE018C
:101B900066E10E94670B1C821D821E821F8284EFF9
:101BA00091E0998788878E0102591F4FF8011182B1
:101BB00010821A861B861C861D861E861F86188A22
:101BC000198A66E971E0CE0143960E94B9307E0120
:101BD000F0E2EF0EF11C67ED71E0C7010E94B93031
:101BE00063EA71E0CE018D960E94B930C359DF4F90
:101BF0008CE08883B701C801DF91CF911F910F91CD
:101C0000FF90EF900C94B930CF92DF92EF92FF9259
:101C1000CF93DF93EC01CA84DB84EC84FD840E94C3
:101C2000ED1F6C157D058E059F0518F4CE0180967D
:101C300010C0CE84DF84E888F9880E94ED1F6C15FF
:101C40007D058E059F0518F4CE018D9602C0CE014C
:101C50004396DF91CF91FF90EF90DF90CF90089562
:101C60000F931F93CF93DF93EC018B010E94ED1F25
:101C7000222717FD2095322F600F711F821F931F9F
:101C80006A877B878C879D87DF91CF911F910F910A
:101C90000895AF92BF92CF92DF92EF92FF920F938F
:101CA0001F93CF93DF935C018B01EA01FB018289D3
:101CB000882309F47EC189819A818F38924069F422
:101CC000FB01C284D384E484F5840E94ED1FC61610
:101CD000D706E806F90608F47FC189819A81803920
:101CE000924009F063C04C81242F30E0F80180A1BC
:101CF000992787FD909528173907B1F52D8130E098
:101D000081A1992787FD90952817390769F52E81BC
:101D100030E082A1992787FD90952817390721F592
:101D20002F8130E083A1992787FD909528173907E7
:101D3000D9F4288530E084A1992787FD909528174C
:101D4000390791F4298530E085A1992787FD909581
:101D50002817390749F42A8530E086A1992787FD9D
:101D600090952817390771F0F80140A38D8181A360
:101D70008E8182A38F8183A3888584A3898585A38F
:101D80008A8586A3C8010E94040EFC0180818C8391
:101D900081818D8382818E8383818F8384818887F3
:101DA0008581898786818A8781E08F8789819A8169
:101DB0008139924009F04EC04C81242F30E0F80167
:101DC00087A1992787FD90952817390721F52D813F
:101DD00030E080A5992787FD909528173907D9F419
:101DE0002E8130E081A5992787FD90952817390726
:101DF00091F42F8130E082A5992787FD90952817CF
:101E0000390749F4288530E083A5992787FD909507
:101E10002817390779F0F80147A38D8180A78E81B3
:101E200081A78F8182A7888583A76CED75E0C801A3
:101E30000E94300EC8010E94040EFC0187818C8331
:101E400080858D8381858E8382858F838385888736
:101E500081E08F87D09089038D2D90E0079714F44F
:101E6000D39401C0D12C7801F3E1EF0EF11C67EDA2
:101E700071E0C7010E94B930A091890322E2A29FBC
:101E8000D0011124A957BC4F55968C9155979E9619
:101E90002C919E9780FF23C056968D919C915797C9
:101EA0006AE070E00E946F2E9F938F937F936F93F1
:101EB000822F992787FD90959F932F9384EE91E031
:101EC0009F938F93FF92EF920E94C0308DB79EB781
:101ED0000A960FB6F8949EBF0FBE8DBF1DC05796D1
:101EE0008C9157978F9356968C918F93822F992729
:101EF00087FD90959F932F938DEE91E09F938F9305
:101F0000FF92EF920E94C030EDB7FEB738960FB641
:101F1000F894FEBF0FBEEDBF22E2D29EF001112465
:101F2000E957FC4F858926A5075E1F4F80FF21C01A
:101F3000868997896AE070E00E946F2E9F938F9345
:101F40007F936F93822F992787FD90959F932F936F
:101F500084EE91E09F938F931F930F930E94C03064
:101F60008DB79EB70A960FB6F8949EBF0FBE8DBF71
:101F70001AC087898F9386898F93822F992787FD2F
:101F800090959F932F938DEE91E09F938F931F9346
:101F90000F930E94C030EDB7FEB738960FB6F89495
:101FA000FEBF0FBEEDBF89819A818130924009F456
:101FB0001F8680E1FE01D50101900D928A95E1F71F
:101FC000C501DF91CF911F910F91FF90EF90DF90AE
:101FD000CF90BF90AF90089580EC8B831C821D82C0
:101FE0001E8287E2888780E1898781E08F8775CEAE
:101FF0000F931F93CF93DF93EC018B010E94ED1F92
:10200000222717FD2095322F600F711F821F931F0B
:102010006E877F87888B998BC259DF4F1982188210
:10202000DF91CF911F910F9108950F931F93CF933D
:10203000DF93EC018A017F936F938D969F938F932B
:102040000E94C0300F900F900F900F90B801CE01FA
:10205000DF91CF911F910F910C94F80F1F93CF93A5
:10206000DF93CDB7DEB7C154D1090FB6F894DEBF08
:102070000FBECDBFDB01FE0131969F01240F351F3E
:10208000BF01E217F30719F01D911193FACFFC017C
:10209000E259FF4F4D30510574F051834083319721
:1020A0004083E8ECE49F9001E59F300D1124A901E5
:1020B0004056504F04C01182108248E55BE10E94F7
:1020C0001510CF5BDF4F0FB6F894DEBF0FBECDBF4C
:1020D000DF91CF911F910895EF92FF920F931F937D
:1020E000CF93DF93CDB7DEB72D970FB6F894DEBF51
:1020F0000FBECDBF7C018DE0E7EDF1E08E010F5FFB
:102100001F4FD80101900D928A95E1F72091890324
:1021100030E0C901019642E2489FF001499FF00D6D
:102120001124E957FC4F51A9852F992787FD9095D8
:102130009F935F9350A9852F992787FD90959F9333
:102140005F9357A5852F992787FD90959F935F9360
:1021500056A5852F992787FD90959F935F93429F62
:10216000F001439FF00D1124E957FC4F21A9822F64
:10217000992787FD90959F932F9320A9822F9927C8
:1021800087FD90959F932F9327A5822F992787FDF1
:1021900090959F932F9326A5822F992787FD909541
:1021A0009F932F9323EF31E03F932F931F930F9330
:1021B0000E94C03040ED57E0B801C7010E941510E1
:1021C0000FB6F894DEBF0FBECDBF2D960FB6F894B4
:1021D000DEBF0FBECDBFDF91CF911F910F91FF905A
:1021E000EF9008950F931F93CF93DF93DC01149624
:1021F0000D911C911597E801E8816E2F70E0D2E2F5
:10220000ED9FF0011124E056FC4F40E050E01296A3
:10221000E801288130E02F5F3F4FCA01860F971FEA
:1022200028173907A4F0CF010197EC01288130E08D
:10223000322F22278081280F311D285F3F4F1996AA
:102240003C932E9318974F5F5F4FB296E0CFDF918C
:10225000CF911F910F9108950F931F93CF93DF9309
:10226000EC018B0180EE92E0998388830E94ED1F40
:102270006E837F838887998789E893E09D838C8329
:102280001B830A83CE01DF91CF911F910F910C9494
:10229000F2106091890382E090E00C94D632CF93E3
:1022A000DF93EC01EC81FD812081822F90E0079784
:1022B00014F0108202C02F5F2083CE010E944911CA
:1022C000CE010E94F210EC81FD818081DF91CF91DF
:1022D0000895CF93DF93EC01EC81FD818081811122
:1022E00002C087E001C081508083CE010E94491165
:1022F000CE010E94F210EC81FD818081DF91CF91AF
:102300000895CF93DF93EC01EB81FC81628981E03A
:102310006827628B6093870380E090E00E94D6324A
:102320008B819C81FC012289222341F040ED57E002
:1023300068E072E0DF91CF910C941510DF91CF919E
:102340000895CF93DF93EC010E9472079A8198174A
:1023500089F18A83823449F1813839F0813451F529
:102360008D819E810E944F1104C08D819E810E94AB
:1023700069118B819C810E946C1060E070E087EB9A
:1023800095E00E94561BED81FE814485558562854E
:10239000738587EB95E00E94EF1D61E070E087EBAD
:1023A00095E0DF91CF910C94561BCE01DF91CF9138
:1023B0000C948111DF91CF910895FC01CA012EEF99
:1023C00032E0318320831382148215821682708753
:1023D000678321E02283AF016EE40C94670B0F93B7
:1023E0001F93CF93DF930E943A0661E070E080E094
:1023F00090E00E941C20E0914B03F0914C0381E09F
:1024000090918703911101C080E0828B80914D03F0
:1024100090914E030E94F21040E052EC61E070E0B7
:1024200088ED95E00E94182326E040E051EE60E040
:1024300070E088E296E00E942D246A9A729A61E028
:1024400088E00E949F2161E088E00E94D82161E03D
:102450008DE00E949F2160E083E00E949F2160E068
:1024600082E00E949F2160E087E00E949F2161E05E
:1024700084E00E949F2161E08CE00E949F2161E046
:102480008BE00E949F2161E089E00E949F2161E032
:102490008AE00E949F2161E085E00E949F2160E028
:1024A00084E00E94D82160E08CE00E94D82160E0A6
:1024B0008BE00E94D821C7E8D5E00AE813E0CE01FE
:1024C0000E94D21A61E070E0CE010E943E1BF8012A
:1024D00060817181CE010E947E1C61E0CE010E946C
:1024E000351B24E044E060E6CE010E940A1BCE01C9
:1024F0000E949C1DF80162817381CE010E94561BCF
:102500002C960C5F1F4FF5E0CB3ADF07C1F6C5E014
:10251000D0E061E08DE00E94D82162E370E080E0CD
:1025200090E00E941C2060E08DE00E94D82162E3D0
:1025300070E080E090E00E941C20219751F7DF912D
:10254000CF911F910F910895CF92DF92EF92FF925A
:102550000F931F93CF93DF93EC017B018F8588232B
:10256000F1F0CB010E94171C6C0183E0C816D10466
:10257000C0F461E08DE00E94D8218E010D5F1F4FF5
:1025800029813A8148816C2DC7010E94FF1DB60147
:10259000C7010E94731B60E08DE00E94D82181E09A
:1025A00001C080E0DF91CF911F910F91FF90EF90DC
:1025B000DF90CF900895CF93DF93EC011D821C82B2
:1025C0001F821E82198618861B861A861982188217
:1025D00080E290E00E94BF2E9B838A83892B11F4B6
:1025E0000E94450582E090E09D838C83DF91CF912E
:1025F0000895AF92BF92CF92DF92EF92FF920F9326
:102600001F93CF93DF93EC018B01161617061CF076
:1026100065E172E012C0CB0164E0880F991F6A95F2
:10262000E1F70E94BF2E7C01009729F06C0120E0A9
:1026300030E040E106C06AE472E0888199810E943E
:102640005E058E819F81AA80BB8028173907E4F43C
:1026500088859985820F931F6C817D810E94832ECE
:1026600054E0880F991F5A95E1F78A0D9B1DFC01D4
:10267000D601842F01900D928A95E1F72F5F3F4F8D
:1026800080E1C80ED11CDDCFC5010E94572FFB820F
:10269000EA82198618868E819F819B878A871D838F
:1026A0000C83DF91CF911F910F91FF90EF90DF90FE
:1026B000CF90BF90AF9008950F931F93CF93DF9368
:1026C000EC018B018E819F812C813D8182179307C4
:1026D00031F4BC01660F771FCE010E94F912AA8166
:1026E000BB818A859B859C012F5F3F4F3B872A8753
:1026F00074E0880F991F7A95E1F7A80FB91F80E160
:10270000F80101900D928A95E1F72A853B858C812D
:102710009D812817390711F41B861A868E819F81A7
:1027200001969F838E83DF91CF911F910F91089522
:102730000F931F93CF93DF93CDB7DEB7AC970FB650
:10274000F894DEBF0FBECDBF8C014CE050E0BE015F
:102750006F5D7F4F0E94FC07CE0141960E94631E71
:1027600089A190E09F8F8E8F2AA130E0322F2227FF
:102770008BA1280F311D3B8B2A8B8CA18C8B8DA1BB
:102780008D8B8EA18E8B8FA18F8B88A5888F89A52D
:10279000898F8AA58A8F8BA58B8F8CA5898B81E0E9
:1027A00088A380E1FE017196DE01119601900D92E1
:1027B0008A95E1F7BE016F5F7F4FF80184819581B3
:1027C0000E945C13CE0101960E946E1ECE014196BE
:1027D0000E946E1EAC960FB6F894DEBF0FBECDBF42
:1027E000DF91CF911F910F910895CF92DF92EF92D9
:1027F000FF920F931F93CF93DF93CDB7DEB7C054F3
:10280000D1090FB6F894DEBF0FBECDBF8C01633087
:102810007105E1F03CF46130710591F062307105B1
:1028200091F006C064307105A1F068307105A1F027
:102830008091810390E0E9E6F3E0E12CF12C12C0F5
:102840000E94680D3BC00E94981338C00E942D0959
:1028500035C00E94480832C00E94760A2FC0BFEFE0
:10286000EB1AFB0AE816F9064CF5208130E03396A6
:1028700026173707A1F740E450E0BE016F5F7F4F96
:10288000C8010E94FC076C0161E070E080E090E00C
:102890000E941C20F701EE0FFF1FEE0DFF1DE759F0
:1028A000FC4F81819281DC01ED91FC910480F581E6
:1028B000E02DA601BE016F5F7F4F0995C8010E9400
:1028C000AE0AC05CDF4F0FB6F894DEBF0FBECDBFBF
:1028D000DF91CF911F910F91FF90EF90DF90CF90FC
:1028E00008959F92AF92BF92CF92DF92EF92FF92A4
:1028F0000F931F93CF93DF93CDB7DEB7C054D109A9
:102900000FB6F894DEBF0FBECDBF7C010E94040E4F
:102910008C01CE01C1960E94631EB3E0CB2ED12C58
:10292000DFAECEAE80E992E09BAB8AAB80EC982E16
:102930009CAAF80180818DAB81818EAB82818FABA7
:10294000838188AF848189AF85818AAF86818BAF8F
:1029500098E0A92EA9AABB24B3942196BFAE2197D3
:1029600080E1FE01F196DE01119601900D928A95AB
:10297000E1F7BE016F5F7F4FF701828193810E9473
:102980005C13CE0101960E946E1ECE0181960E94BC
:10299000631EDFA6CEA681E992E09BA38AA387E807
:1029A0008CA3F80187818DA380858EA381858FA359
:1029B000828588A7838589A7A9A2B8AA80E1FE019C
:1029C000B196DE01119601900D928A95E1F7BE0154
:1029D0006F5F7F4FF701828193810E945C13CE016C
:1029E00001960E946E1ECE0141960E94631E81E0F8
:1029F00090E09F8F8E8F8FE892E09B8B8A8B9C8AD2
:102A00001D8A1E8A1F8AB88E87E2898F80E18A8F8D
:102A100080E48B8FA98AB8A280E1FE017196DE0165
:102A2000119601900D928A95E1F7BE016F5F7F4F7D
:102A3000F701828193810E945C13CE0101960E946E
:102A40006E1ECE0141960E946E1ECE0181960E949E
:102A50006E1ECE01C1960E946E1EC05CDF4F0FB687
:102A6000F894DEBF0FBECDBFDF91CF911F910F91C4
:102A7000FF90EF90DF90CF90BF90AF909F90089520
:102A80005F926F927F928F929F92AF92BF92CF92FE
:102A9000DF92EF92FF920F931F93CF93DF93CDB707
:102AA000DEB7A0970FB6F894DEBF0FBECDBF7C0196
:102AB0008B01DC011496ED91FC9115978081A82E75
:102AC000B12CB2E28B9F000D111D11240A5F1F4F24
:102AD000C12CD12C38E0532E7724739440E1642E1E
:102AE000D7011496ED91FC911597808190E00196A5
:102AF00096012A0D3B1D821793070CF456C048011E
:102B0000E6E08E1A9108D8018C91882309F447C019
:102B1000F4018081882309F442C0CE0141960E94CD
:102B2000631ED4018C9190E09F8F8E8FF8013297B5
:102B3000808190E0982F882731962081820F911D07
:102B40009B8B8A8BFE01759620E030E0D401A20FAA
:102B5000B31F16968C91882331F02F5F3F4F8193DE
:102B60002630310599F72C8B598A78A2FE0171968F
:102B7000DE011196862D01900D928A95E1F7BE0136
:102B80006F5F7F4FF701828193810E945C13CE01BA
:102B900001960E946E1ECE0141960E946E1EFFEFAE
:102BA000CF1ADF0A0E5D1F4F9BCFA0960FB6F89489
:102BB000DEBF0FBECDBFDF91CF911F910F91FF9070
:102BC000EF90DF90CF90BF90AF909F908F907F90CD
:102BD0006F905F9008950F931F93CF93DF93EC0155
:102BE0000E94ED1F0E811F8128853985025E1F4FCF
:102BF0002F4F3F4F061717072807390778F40E9411
:102C0000ED1F6E837F83888799876BE973E0CE0120
:102C1000DF91CF911F910F910C944015DF91CF91CF
:102C20001F910F910895EF92FF920F931F93CF93EF
:102C3000DF93CDB7DEB7A2970FB6F894DEBF0FBE15
:102C4000CDBF7C01209163033091640380916103C7
:102C50009091620328173907A1F1CE0141964AA34A
:102C600069A30E94631E4AA150E05D8F4C8FF7015B
:102C7000828593859F8F8E8F8E010E5E1F4F9E01E2
:102C80002C5E3F4FAE014F5E5F4F69A1C7010E94AE
:102C9000961B80E1FE017196DE01119601900D9266
:102CA0008A95E1F7BE016F5F7F4F8DE593E00E944B
:102CB0005C13CE0101960E946E1ECE0141960E94C9
:102CC0006E1EA2960FB6F894DEBF0FBECDBFDF9189
:102CD000CF911F910F91FF90EF900895FF920F9366
:102CE0001F93CF93DF93CDB7DEB72C970FB6F89431
:102CF000DEBF0FBECDBF8C010E94FF1BF82E80FFF0
:102D00000FC0B801CE0101960E947A054F2D60E0F8
:102D1000CE0101960E941316CE0105960E94A92AA3
:102D2000F1FE0FC0B801CE0101960E947A054F2D29
:102D300061E0CE0101960E941316CE0105960E9415
:102D4000A92A2C960FB6F894DEBF0FBECDBFDF9137
:102D5000CF911F910F91FF9008950F931F93CF93E1
:102D6000DF938C01EB018E819F81892B31F464E824
:102D700072E0888199810E945E05EA81FB818885E5
:102D800099859C012F5F3F4F39872887A4E0880FE2
:102D9000991FAA95E1F7E80FF91F80E1D80101908A
:102DA0000D928A95E1F72E813F81215031093F83B1
:102DB0002E836C817D81888599858617970711F40C
:102DC000198618862115310599F0CB0177FD0396F8
:102DD0009595879595958795821793074CF077FF82
:102DE00002C06F5F7F4F75956795CE010E94F91203
:102DF000C801DF91CF911F910F9108959F92AF92DB
:102E0000BF92CF92DF92EF92FF920F931F93CF93D7
:102E1000DF93CDB7DEB7E0970FB6F894DEBF0FBEF5
:102E2000CDBF2FE3E22E23E0F22E00E010E08091F0
:102E30000601909107010817190774F4D7018D91C5
:102E40009D917D01DC01ED91FC910190F081E02DDF
:102E500009950F5F1F4FEBCF83E00E940E22892B55
:102E600071F463EC75E0CE0101960E947A05CE0103
:102E700001960E946E16CE0105960E94A92A82E054
:102E80000E940E22892B71F467EB75E0CE0101964A
:102E90000E947A05CE0101960E946E16CE0105961B
:102EA0000E94A92A87E00E940E22892B71F46BEA06
:102EB00075E0CE0101960E947A05CE0101960E942E
:102EC0006E16CE0105960E94A92A80916303909107
:102ED0006403892B09F458C08E010F5D1F4F6DE507
:102EE00073E0C8010E94AD168FE3C82E83E0D82E90
:102EF000E12CF12C90E1B92EA02E912E80910601AB
:102F000090910701E816F90674F5F6016191719147
:102F10006F01DB01ED91FC9122813381EA2DF92DC6
:102F2000DE0151968B2D01900D928A95E1F7AE014D
:102F30004F5E5F4FCE010196F9010995FE01319672
:102F4000AA2DB92D8B2D01900D928A95E1F7CE0116
:102F500001960E946E1ECE0141960E946E1EFFEFEA
:102F6000EF1AFF0ACBCF88A9882359F02091570385
:102F700030915803809155039091560328173907D3
:102F800099F4C8010E946E1E10E0BCE0FB2E00E127
:102F9000EE24E3942091570330915803232B09F436
:102FA00061C011115FC015C080E1FE01B196DE0164
:102FB000119601900D928A95E1F7BE016F5F7F4FE8
:102FC00081E593E00E945C13CE0101960E946E1E83
:102FD000D8CF61E573E0CE0141960E94AD168E8D8B
:102FE0009F8D0197F89EB001F99E700D11246957CD
:102FF0007A4FCE0181960E947A05FE017196DE011C
:103000001196802F01900D928A95E1F7BE016F5DB8
:103010007F4FCE0101960E94A412182F1E25CE01CB
:1030200001960E946E1ECE0185960E94A92A112348
:10303000A1F0FE017196DE011196802F01900D9294
:103040008A95E1F7BE016F5F7F4F81E593E00E94B3
:103050005C13CE0101960E946E1ECE0141960E9425
:103060006E1E98CFE0960FB6F894DEBF0FBECDBFB0
:10307000DF91CF911F910F91FF90EF90DF90CF9054
:10308000BF90AF909F900895CF93DF93EC018A811A
:103090009B810E94572F1B821A82198218821D82DF
:1030A0001C821F821E82198618861B861A86DF9153
:1030B000CF9108950F931F93CF93DF9300D000D04B
:1030C00000D0CDB7DEB766EB72E0CE0101960E946C
:1030D000172B8E010F5F1F4F21E030E044E050E0DE
:1030E00069E070E083EC95E00E94A31AC8010E9499
:1030F000A92A6CEB72E0C8010E94172B22E030E095
:103100004CE050E06AE070E087EB95E00E94A31A83
:10311000C8010E94A92A62EC72E0C8010E94172B24
:1031200023E030E04BE050E065E070E08BEA95E0B2
:103130000E94A31AC8010E94A92A63EC75E087E8DF
:1031400095E00E947A0567EB75E083E995E00E94BF
:103150007A056BEA75E08FE995E00E947A058DE5C6
:1031600093E00E94DB1281E593E00E94DB128EE087
:1031700090E00E94BA2B8C0161E573E00E94EA079F
:103180001093500300934F038EE090E00E94BA2BFF
:103190008C0161E573E00E942C1110934E030093A3
:1031A0004D0380E790E00E94BA2B8C0140914F03C1
:1031B0005091500361E573E00E94B70D10934C03EA
:1031C00000934B0380914F039091500390934003E1
:1031D00080933F0382E090E00E94BA2B24EF32E01C
:1031E000FC013183208390934203809341038091BB
:1031F0004B0390914C03909344038093430380913D
:103200004D0390914E03909346038093450389E0CC
:1032100090E00E94BA2B8C0140914F0350915003D3
:1032200062E774E00E94DD111093480300934703A6
:1032300087E090E00E94BA2BFC0180914D039091B1
:103240004E0320914B0330914C034AEE52E05183E0
:10325000408312823483238396838583F0934A03C9
:10326000E093490326960FB6F894DEBF0FBECDBF9C
:10327000DF91CF911F910F910895CF93DF93C3E515
:10328000D3E0888199810E94572F19821882109269
:10329000520310925103109256031092550310924C
:1032A00058031092570310925A0310925903109228
:1032B0005C0310925B038DE593E00E94441883EA5F
:1032C00095E00E94A92A87E995E00E94A92A8BE847
:1032D00095E00E94A92A8FEA95E00E94A92A8BEB2B
:1032E00095E00E94A92A87EC95E0DF91CF910C949C
:1032F000A92ACF92DF92EF92FF920F931F93CF9361
:10330000DF93CDB7DEB7A0970FB6F894DEBF0FBE40
:10331000CDBF8C01FC018289882309F480C0C08460
:10332000D184EE24D7FCE094FE2C84819581A68183
:10333000B781C80ED91EEA1EFB1E0E94ED1FC616DD
:10334000D706E806F90668F4F801C284D384E48459
:10335000F5840E94ED1FC616D706E806F90608F4A4
:1033600053C080910801909109018132F3E09F07D9
:103370000CF455C002979093090180930801CE0187
:1033800041960E94631E82E090E09F8F8E8F81E0C5
:1033900092E09B8B8A8B80910801909109019C8B14
:1033A0008D8B2DE72E8B2AEA2F8B9C01220F331F4A
:1033B000220F331F388F880F880F898F81E08A8F03
:1033C0001B8E98E0998B88A380E1FE017196DE0147
:1033D000119601900D928A95E1F7BE016F5F7F4FC4
:1033E000F801828193810E945C13CE0101960E94B4
:1033F0006E1E6091080188ED95E00E943722CE0193
:1034000041960E946E1E0BC0C8010E9471140E945A
:10341000ED1FF8016483758386839783A2CFA096FE
:103420000FB6F894DEBF0FBECDBFDF91CF911F91D5
:103430000F91FF90EF90DF90CF900895CF93DF939F
:10344000EC018E81882331F188ED95E00E946122A4
:10345000892B81F088ED95E00E947122E091280689
:10346000F09129060190F081E02D682F88E296E026
:103470000995EACF88E296E00E944A23892B71F1F0
:1034800088E296E00E946323682F88ED95E00E9411
:103490003722F0CF88E296E00E944A2318161906D8
:1034A00054F488E296E09B838A830E946323BC01E4
:1034B000CE010E94F51388ED95E00E946122181656
:1034C000190664F488ED95E09B838A830E9471223B
:1034D000BC01CE01DF91CF910C94F513DF91CF9118
:1034E000089561E081E10E94D82161E081E10E94BC
:1034F0009F218CB580618CBD8CB580648CBD61E0F2
:103500008FE00E949F2161E080E10C949F21811156
:1035100003C08CB5806202C08CB58F7D8CBD0895D0
:103520009CB5937F982B9CBD08959DB582FB882701
:1035300080F99E7F892B8DBD08958EBD0DB407FE49
:10354000FDCF8EB508958F929F92AF92BF92CF928A
:10355000DF92EF92FF920F931F93CF93DF93EC01D3
:103560006B015A0149017C0184E0E80EF11C61E421
:1035700071E0C7010E94172BD982C882BB82AA8240
:103580009B868A86B801C701DF91CF911F910F9169
:10359000FF90EF90DF90CF90BF90AF909F908F9073
:1035A0000C942D2BCF93DF93EC0161E08FE00E9410
:1035B0009F2160E08EE00E949F2161E080E10E94F7
:1035C0009F2161E088810E949F2161E08A810E94A1
:1035D0009F210E94711A80E00E94901A84E00E944C
:1035E000951A81E00E94871A60E08A810E94D821A2
:1035F00062E370E080E090E00E941C2061E08A813C
:103600000E94D82162E370E080E090E0DF91CF91EA
:103610000C941C20EF92FF921F93CF93DF9300D066
:10362000CDB7DEB77C01162F60E0FC0180812983D5
:103630004A830E94D82185E00E949D1A812F0E9412
:103640009D1A2981822F0E949D1A4A81842F0E94EF
:103650009D1A61E0F70180810F900F90DF91CF916B
:103660001F91FF90EF900C94D821662311F043E056
:1036700001C040E023E06BE20C940A1B623071054C
:1036800071F02CF46130710569F440E00BC06430D6
:10369000710539F06830710529F443E003C041E059
:1036A00001C042E023E06FE00C940A1B6230710518
:1036B00089F044F46115710589F06130710579F480
:1036C00040E00DC06330710539F06430710539F4A4
:1036D00040E405C040E203C040E601C040E820EEFF
:1036E0006FE00C940A1B1F93CF93DF93EC016130C2
:1036F000710549F06230710521F0672B99F411E8EA
:1037000003C013E801C012E860E088810E94D8215C
:10371000812F0E949D1A61E08881DF91CF911F91D6
:103720000C94D821DF91CF911F9108955F926F92F1
:103730007F928F929F92AF92BF92CF92DF92EF9241
:10374000FF920F931F93CF93DF937C01C62F6A01E3
:10375000922E732E60E0FC0180810E94D821C1115D
:1037600002C080E901C084E90E949D1A8FEF0E9487
:103770009D1AA82EB12C8FEF0E949D1A682E8FEFF4
:103780000E949D1A8FEF0E949D1A8FEF0E949D1A32
:103790008F70882E592CC92DD72D8C2F85198815FF
:1037A00028F48FEF0E949D1A8993F7CF61E0F7010B
:1037B00080810E94D821F6018082862D807E90E053
:1037C00025E0969587952A95E1F733E0AA0CBB1C76
:1037D0003A95E1F78A0D9B1DF80191838083DF9173
:1037E000CF911F910F91FF90EF90DF90CF90BF90FE
:1037F000AF909F908F907F906F905F9008951F93F0
:10380000CF93DF93EC0160E088810E94D82180EAA9
:103810000E949D1A8FEF0E949D1A182F61E08881E7
:103820000E94D821812FDF91CF911F9108950E948E
:10383000FF1B82FF07C084FF08C086FF09C08FEF0F
:103840009FEF089580E090E0089581E090E0089572
:1038500082E090E008951F93CF93DF93EC01162F41
:1038600060E088810E94D82183E00E949D1A812F08
:103870000E949D1A8FEF0E949D1A182F61E0888187
:103880000E94D821812FDF91CF911F910895EF924F
:10389000FF921F93CF93DF931F92CDB7DEB77C01CA
:1038A000162F60E0FC01808149830E94D82161E0ED
:1038B00070E080E090E00E941C2082E00E949D1A4F
:1038C000812F0E949D1A4981842F0E949D1A61E0D8
:1038D00070E080E090E00E941C2061E0F7018081B0
:1038E0000E94D82161E070E080E090E00F90DF91CD
:1038F000CF911F91FF90EF900C941C204F925F92FC
:103900006F927F928F929F92AF92BF92CF92DF92EF
:10391000EF92FF920F931F93CF93DF938C015B0184
:10392000882777FD8095982F0E945C2D9B01AC0124
:1039300060E070E080E89FE30E94C12C20E030E06E
:103940004AE754E40E940C2E2B013C01C1E0D0E078
:103950009C2E9A94BE01882777FD8095982F0E940F
:103960005C2D9B01AC010E94592C20E030E040E826
:103970005DE30E940C2E9B01AC01C301B2010E94C9
:10398000C12C6B017C0120E030E048EC51E40E9446
:10399000BD2C1816CCF0C701B6010E94292D862E29
:1039A0007727882777FD8095982F0E945C2D9B01B3
:1039B000AC01C701B6010E94582C20E030E0A901FB
:1039C0000E94BD2C882339F02196C930D10509F019
:1039D000BFCFE8E09E2E682D70E080E090E00E946E
:1039E0005C2D2DEC3CEC4CE45FE30E940C2E0E941D
:1039F0002E2D862F90E09C012150310937FD9C012E
:103A0000359527956150862F821B861A4FEF480DFA
:103A100090E0F901E80FF91F642F70E0E617F7074F
:103A20005CF1423048F143E5A416B10469F0CFEFF0
:103A3000C20FC068019753E0880F991F5A95E1F7AC
:103A4000C82BDEEFD80D04C0D7E0CEEB43E0942EB8
:103A5000492D6AE270E0C8010E94471C4C2F69E2C0
:103A600070E0C8010E94471C4D2F68E270E0C80159
:103A70000E94471C81E001C080E0DF91CF911F913F
:103A80000F91FF90EF90DF90CF90BF90AF909F90FD
:103A90008F907F906F905F904F900895FF920F935B
:103AA0001F93CF93DF938C01F62EEA0160E0FC01B7
:103AB00080810E94D82161E070E080E090E00E9467
:103AC0001C2082E00E949D1A8F2D0E949D1ACE011B
:103AD000F3E095958795FA95E1F70E949D1A8C2F52
:103AE0008295880F807E0E949D1A61E070E080E0E0
:103AF00090E00E941C2061E0F80180810E94D821A2
:103B000061E070E080E090E0DF91CF911F910F9134
:103B1000FF900C941C20615071096530710540F4D0
:103B2000FB01E45FFC4F6081772767FD709502C061
:103B300060E070E00C944E1DCF93DF93EC0140E009
:103B400050E060E270E00E944E1D40E050E064E210
:103B500070E0CE01DF91CF910C944E1DCF92DF9299
:103B6000EF92FF920F931F93CF93DF93EC016B01C2
:103B7000790160E270E00E944E1DA60160E070E0F5
:103B8000CE010E948B1DA60161E070E0CE010E9473
:103B90008B1DA80164E270E0CE010E944E1DA701BA
:103BA00062E070E0CE010E948B1DA70163E070E02F
:103BB000CE010E948B1DA70164E070E0CE010E943F
:103BC0008B1DA70165E070E0CE01DF91CF911F91C1
:103BD0000F91FF90EF90DF90CF900C948B1D0F937F
:103BE0001F939A014115510509F49B010FEF1FEF37
:103BF0004FEF5FEF0E94AE1D1F910F910895AF929E
:103C0000BF92CF92DF92EF92FF920F931F93CF93C9
:103C1000DF931F92CDB7DEB77C01D42E59016130FE
:103C200041F028F0623009F042C094E403C090E40F
:103C300001C092E460E0F701808199830E94D8215D
:103C40009981892F0E949D1AC501A3E096958795B9
:103C5000AA95E1F70E949D1A8A2D8295880F807E91
:103C60000E949D1A80E00E949D1A80E00E949D1A89
:103C70008D2D0E949D1AC02E58018A2D8C198D15EC
:103C800030F4F50181915F010E949D1AF6CF61E049
:103C9000F70180810F90DF91CF911F910F91FF90DD
:103CA000EF90DF90CF90BF90AF900C94D8210F9001
:103CB000DF91CF911F910F91FF90EF90DF90CF9008
:103CC000BF90AF900895FC0117861286118610866A
:103CD000178216821582148213820895089508951A
:103CE000853008F04CC0E82FF0E0EE0FFF1FE15FD9
:103CF000FE4F718360838230E1F018F4813069F007
:103D000004C0833019F1843071F1809169008C7F97
:103D1000842B80936900E89A089580916900440F8C
:103D2000551F440F551F837F842B80936900E99AA8
:103D300008958091690034E0440F551F3A95E1F7EA
:103D40008F7C842B80936900EA9A089580916900A2
:103D500026E0440F551F2A95E1F78F73842B80933B
:103D60006900EB9A089580916A0094E0440F551F12
:103D70009A95E1F78F7C842B80936A00EE9A0895E0
:103D80008530E8F4823061F018F4813039F004C0F5
:103D9000833041F0843041F0E89807C0E99805C0CD
:103DA000EA9803C0EB9801C0EE98E82FF0E0EE0F20
:103DB000FF1FE15FFE4F8FE69EE1918380830895B0
:103DC0001F920F920FB60F9211242F933F934F9390
:103DD0005F936F937F938F939F93AF93BF93EF9373
:103DE000FF93E0910F01F09110010995FF91EF9180
:103DF000BF91AF919F918F917F916F915F914F9103
:103E00003F912F910F900FBE0F901F9018951F920A
:103E10000F920FB60F9211242F933F934F935F93FE
:103E20006F937F938F939F93AF93BF93EF93FF9382
:103E3000E0911101F09112010995FF91EF91BF916D
:103E4000AF919F918F917F916F915F914F913F9132
:103E50002F910F900FBE0F901F9018951F920F92E9
:103E60000FB60F9211242F933F934F935F936F934D
:103E70007F938F939F93AF93BF93EF93FF93E091C3
:103E80001301F09114010995FF91EF91BF91AF914A
:103E90009F918F917F916F915F914F913F912F9162
:103EA0000F900FBE0F901F9018951F920F920FB694
:103EB0000F9211242F933F934F935F936F937F93B0
:103EC0008F939F93AF93BF93EF93FF93E09115016F
:103ED000F09116010995FF91EF91BF91AF919F91DC
:103EE0008F917F916F915F914F913F912F910F90A3
:103EF0000FBE0F901F9018951F920F920FB60F9242
:103F000011242F933F934F935F936F937F938F93DE
:103F10009F93AF93BF93EF93FF93E0911701F091BD
:103F200018010995FF91EF91BF91AF919F918F91EA
:103F30007F916F915F914F913F912F910F900FBEA5
:103F40000F901F9018951F920F920FB60F92112489
:103F50002F933F938F939F93AF93BF938091D005FF
:103F60009091D105A091D205B091D3053091CF05A4
:103F700023E0230F2D3720F40196A11DB11D05C0AC
:103F800026E8230F0296A11DB11D2093CF05809333
:103F9000D0059093D105A093D205B093D30580911D
:103FA000D4059091D505A091D605B091D70501967D
:103FB000A11DB11D8093D4059093D505A093D6057E
:103FC000B093D705BF91AF919F918F913F912F9162
:103FD0000F900FBE0F901F9018952FB7F894609117
:103FE000D0057091D1058091D2059091D3052FBF56
:103FF00008953FB7F8948091D4059091D505A0918C
:10400000D605B091D70526B5A89B05C02F3F19F05E
:104010000196A11DB11D3FBF6627782F892F9A2FCA
:10402000620F711D811D911D42E0660F771F881F71
:10403000991F4A95D1F70895CF92DF92EF92FF92A0
:10404000CF93DF936B017C010E94F91FEB01C11438
:10405000D104E104F10489F00E94BC2B0E94F91FF5
:104060006C1B7D0B683E734090F381E0C81AD10849
:10407000E108F108C851DC4FEACFDF91CF91FF9002
:10408000EF90DF90CF900895789484B5826084BDDE
:1040900084B5816084BD85B5826085BD85B581604C
:1040A00085BDEEE6F0E0808181608083E1E8F0E0AC
:1040B0001082808182608083808181608083E0E8DB
:1040C000F0E0808181608083E1E9F0E080818260BE
:1040D0008083808181608083E0E9F0E0808181607D
:1040E0008083E1ECF0E08081846080838081826065
:1040F0008083808181608083E3ECF0E08081816057
:104100008083E0ECF0E0808182608083E2ECF0E08C
:10411000808181608083EAE7F0E080818460808331
:1041200080818260808380818160808380818068DB
:1041300080830895823108F08251E82FF0E0E05E3C
:10414000FC4FE49180917B00E3FB222720F930E0D3
:1041500095E0220F331F9A95E1F78F7D822B809394
:104160007B00E7708091190120E4829FC001112437
:10417000E82BE0937C0080917A00806480937A0041
:1041800080917A0086FDFCCF8091780020917900A3
:1041900090E0922B08951F93CF93DF93182FEB019C
:1041A00061E00E949F21209711F460E004C0CF3F9E
:1041B000D10539F461E0812FDF91CF911F910C94EB
:1041C000D821E12FF0E0E45DFC4F449150E0FA018A
:1041D0003197EF30F10508F06CC0E459FF4F0C94B3
:1041E000B92E84B5806884BDC7BD68C084B58062BF
:1041F00084BDC8BD63C080918000806880938000CA
:10420000D0938900C093880059C08091800080625B
:1042100080938000D0938B00C0938A004FC0809120
:104220008000886080938000D0938D00C0938C00C4
:1042300045C080919000806880939000D093990051
:10424000C09398003BC08091900080628093900062
:10425000D0939B00C0939A0031C0809190008860F9
:1042600080939000D0939D00C0939C0027C08091C4
:10427000C00080688093C0008091C0008F7B8093D5
:10428000C000C093CF001AC08091C00080628093AC
:10429000C000C093D00012C08091C200886080939B
:1042A000C2008091C2008B7F8093C200C093D20075
:1042B00005C0C038D1050CF07DCF77CFDF91CF910D
:1042C0001F91089590E0FC013197EF30F105B0F5B2
:1042D000E558FF4F0C94B92E809180008F7703C072
:1042E000809180008F7D8093800008958091800070
:1042F000877FF9CF84B58F7702C084B58F7D84BD69
:104300000895809190008F7707C0809190008F7DF5
:1043100003C080919000877F8093900008958091E2
:10432000C0008F7703C08091C0008F7D8093C00054
:1043300008958091C200877F8093C2000895CF9333
:10434000DF9390E0FC01E65BFC4F2491FC01E8590F
:10435000FC4F8491882349F190E0880F991FFC015C
:10436000EE55FC4FA591B4918C569C4FFC01C59124
:10437000D4919FB7611108C0F8948C912095822345
:104380008C93888182230AC0623051F4F8948C9116
:10439000322F309583238C938881822B888304C0AD
:1043A000F8948C91822B8C939FBFDF91CF910895CD
:1043B0000F931F93CF93DF931F92CDB7DEB7282FB4
:1043C00030E0F901E45DFC4F8491F901E65BFC4FBC
:1043D0001491F901E859FC4F04910023C9F0882396
:1043E00021F069830E9462216981E02FF0E0EE0FE5
:1043F000FF1FEC56FC4FA591B4919FB7F8948C9198
:10440000611103C01095812301C0812B8C939FBF44
:104410000F90DF91CF911F910F910895CF93DF936C
:10442000282F30E0F901E45DFC4F8491F901E65B4F
:10443000FC4FD491F901E859FC4FC491CC2391F081
:1044400081110E946221EC2FF0E0EE0FFF1FEA576E
:10445000FC4FA591B4912C912D2381E090E021F4A3
:1044600080E002C080E090E0DF91CF910895CF938B
:10447000DF931F92CDB7DEB76983DC01ED91FC912C
:104480000280F381E02D41E050E0BE016F5F7F4F7D
:1044900009950F90DF91CF910895CF93DF93EC01B1
:1044A0008C859D8597FF05C082E00E948E279D87A1
:1044B0008C878C859D85DF91CF91089583E00C9446
:1044C000092AFC018485958597FD06C082E00E943B
:1044D000362790E00196089582E00E94362790E00A
:1044E0000895FC018485958597FD05C02FEF3FEF6A
:1044F00035872487089582E00C948E27CF93DF932D
:10450000EC0180912501882331F083E00E94BF27D0
:104510001816190634F081E090E09B838A8380E0CE
:1045200090E0DF91CF910895FC0120812E5F2083E0
:1045300042E450E060EB73E080E80C945A28FC0100
:1045400021818081813A59F4213209F05CC047E031
:1045500050E06EE171E080E00E945A2867C081322D
:1045600009F051C0233289F4838190E0982F882785
:104570003281832BA0E0B0E080931A0190931B015D
:10458000A0931C01B0931D010FC0203239F467E0E5
:1045900070E08EE191E00E948B280AC0223221F463
:1045A00082818093250104C02D7F203209F03EC016
:1045B00080911E0190911F01A0912001B0912101D5
:1045C000803B9440A105B10501F58091250180FD56
:1045D0001CC080910008909101089093FF0A80937D
:1045E000FE0A87E797E790930108809300082BE085
:1045F00088E190E00FB6F894A895809360000FBE14
:104600002093600013C080E0089588E10FB6F8940D
:1046100080936000109260000FBEA8958091FE0A02
:104620009091FF0A909301088093000881E008951B
:104630002FEF3FEFFC01358724870895CF93C0917A
:1046400025016AE070E080E090E00E941C2081E09B
:10465000C11101C080E0CF9108951092DB05109246
:10466000DA0588EE93E0A0E0B0E08093DC0590935B
:10467000DD05A093DE05B093DF0585E193E090931F
:10468000D9058093D8058FEF9FEF9093E505809330
:10469000E4050895FC01818D228D90E0805C9F4FA0
:1046A000821B91098F7399270895FC01918D828D4A
:1046B000981731F0828DE80FF11D858D90E00895F7
:1046C0008FEF9FEF0895FC01918D828D981761F017
:1046D000828DDF01A80FB11D5D968C91928D9F5F39
:1046E0009F73928F90E008958FEF9FEF089587EE6C
:1046F00094E2892B49F080E090E0892B29F00E9418
:10470000E72481110C9400000895FC01848DDF01E1
:10471000A80FB11DA35ABF4F2C91848D90E0019634
:104720008F739927848FA689B7892C93A089B18923
:104730008C9180648C93938D848D981306C002882D
:10474000F389E02D80818F7D80830895CF93DF935F
:10475000EC01888D8823C9F0EA89FB89808185FD79
:1047600005C0A889B9898C9186FD0FC00FB607FCDA
:10477000F5CF808185FFF2CFA889B9898C9185FF1B
:10478000EDCFCE010E948523E7CFDF91CF91089531
:10479000CF92DF92FF920F931F93CF93DF931F92DD
:1047A000CDB7DEB76C0181E0D60158968C9358974F
:1047B0005B969C915B975C968C915C97981307C075
:1047C0005096ED91FC915197808185FD2EC0F601A8
:1047D000038D10E00F5F1F4F0F731127F02EF601AE
:1047E000848DF81211C00FB607FCF9CFD601509690
:1047F000ED91FC915197808185FFF1CFC6016983CE
:104800000E9485236981EBCF838DE80FF11DE35A68
:10481000FF4F6083D6015B960C935B975296ED91A8
:10482000FC915397808180620CC0D6015696ED9121
:10483000FC91579760835096ED91FC915197808140
:104840008064808381E090E00F90DF91CF911F9191
:104850000F91FF90DF90CF900895BF92CF92DF929B
:10486000EF92FF92CF93DF93EC016A017B01B22EAE
:10487000E889F98982E08083411581EE5807610556
:104880007105A1F060E079E08DE390E0A701960169
:104890000E94972E2150310941095109569547959B
:1048A00037952795211580E1380798F0E889F9892F
:1048B000108260E874E88EE190E0A70196010E9402
:1048C000972E215031094109510956954795379541
:1048D0002795EC85FD853083EE85FF852083188E36
:1048E000EC89FD89B082EA89FB89808180618083BF
:1048F000EA89FB89808188608083EA89FB898081DD
:1049000080688083EA89FB8980818F7D8083DF9145
:10491000CF91FF90EF90DF90CF90BF9008951F92BE
:104920000F920FB60F9211242F938F939F93EF93B3
:10493000FF93E0913806F09139068081E0913E06C0
:10494000F0913F0682FD12C09081809141068F5FF9
:104950008F7320914206821751F0E0914106F0E0FA
:10496000E85DF94F958F8093410601C08081FF91EA
:10497000EF919F918F912F910F900FBE0F901F90ED
:1049800018951F920F920FB60F9211242F933F93F9
:104990004F935F936F937F938F939F93AF93BF9347
:1049A000EF93FF9388E296E00E948523FF91EF91B9
:1049B000BF91AF919F918F917F916F915F914F9137
:1049C0003F912F910F900FBE0F901F90189588E286
:1049D00096E00E944A2321E0892B09F420E0822FEF
:1049E000089510922B0610922A0688EE93E0A0E01C
:1049F000B0E080932C0690932D06A0932E06B093E2
:104A00002F0685E293E090932906809328068DEC8B
:104A100090E090933506809334068CEC90E0909370
:104A200037068093360688EC90E0909339068093A1
:104A3000380689EC90E090933B0680933A068AEC26
:104A400090E090933D0680933C068EEC90E090932E
:104A50003F0680933E061092410610924206109245
:104A60004306109244060895CF92DF92EF92FF9290
:104A70000F931F93CF93DF937C016A01EB0100E05A
:104A800010E00C151D0571F06991D701ED91FC91B5
:104A90000190F081E02DC7010995892B19F00F5F76
:104AA0001F4FEFCFC801DF91CF911F910F91FF9062
:104AB000EF90DF90CF900895EF92FF920F931F93A6
:104AC000CF93DF938C017B01C0E0D0E0F701EC0FC6
:104AD000FD1F6491662359F0F801A081B181ED9129
:104AE000FC91C8010995892B11F02196EFCFCE01D9
:104AF000DF91CF911F910F91FF90EF900895DC010E
:104B0000ED91FC91DB0114964D915C9115976D919F
:104B10007C910280F381E02D09940C946405DC0102
:104B2000ED91FC910190F081E02D09946FE371E02B
:104B30000C9464050F931F93CF93DF93EC010E94B5
:104B40005C258C01CE010E949625800F911FDF917C
:104B5000CF911F910F9108950F931F93CF93DF93E0
:104B6000EC010E9464058C01CE010E949625800F05
:104B7000911FDF91CF911F910F9108958F929F9276
:104B8000AF92BF92CF92DF92EF92FF920F931F935B
:104B9000CF93DF93CDB7DEB7A1970FB6F894DEBF02
:104BA0000FBECDBF7C01C42EE52FCB01D22E19A2A2
:104BB00021E02D1510F02AE0D22E8E010F5D1F4F3F
:104BC0008D2C912CA12CB12C6C2D7E2FA501940144
:104BD0000E94972E8C2DD29E80191124015011090C
:104BE0008A3014F4805D01C0895CF801808321154E
:104BF00031054105510521F0C22EE32FCA01E4CF52
:104C0000B801C7010E946405A1960FB6F894DEBFF3
:104C10000FBECDBFDF91CF911F910F91FF90EF900D
:104C2000DF90CF90BF90AF909F908F900895CF92DC
:104C3000DF92EF92FF920F931F93CF93DF93EC01DC
:104C40006A017B012115310579F4E881F981019030
:104C5000F081E02D642FDF91CF911F910F91FF9094
:104C6000EF90DF90CF9009942A303105E9F477FF77
:104C70001AC06DE20E948F258C0144275527BA0186
:104C80004C195D096E097F092AE0CE010E94BE25FC
:104C9000800F911FDF91CF911F910F91FF90EF90A7
:104CA000DF90CF9008952AE0B701A601CE01DF91F1
:104CB000CF911F910F91FF90EF90DF90CF900C94C8
:104CC000BE259A01AB01662757FD6095762F0C949F
:104CD00017262115310541F4DC01ED91FC9101907D
:104CE000F081E02D642F09940C94BE259A01462F83
:104CF00050E060E070E00C946926615030F0209143
:104D0000F100FC0120830196F8CF289884E6809377
:104D1000CE0608954091C9065091CA062091C70653
:104D20003091C80642175307B4F49091E80095708B
:104D3000E1F39091E80092FD19C08093F100809119
:104D4000C9069091CA0601968F739927892B19F489
:104D50008EEF8093E8008091C9069091CA06019673
:104D60009093CA068093C90681E0089580E0089573
:104D7000CF92DF92EF92FF920F931F93CF93DF9327
:104D80001F92CDB7DEB7082F162FF42E862F880F6F
:104D90008E5F99830E948A2683E00E948A26E02EF5
:104DA000C02E9981D92E8C2D8E19811798F4F60179
:104DB000F7FE02C0849101C080810E948A26082FDC
:104DC00080E00E948A268023FFEFCF1ADF0A81113C
:104DD000EACF01C081E00F90DF91CF911F910F9139
:104DE000FF90EF90DF90CF9008958091D700816081
:104DF0008093D70080EA8093D80089B5806189BD0F
:104E000089B5826089BD09B400FEFDCF61E070E024
:104E100080E090E00E941C208091D8008F7C80610F
:104E20008093D8008091E000807F8093E000089517
:104E3000CF93DF931F92CDB7DEB71982CE010196D3
:104E40000E9494220E94442CBE016F5F7F4F0E94FB
:104E5000BD2B89810F90DF91CF9108952FB7FC0171
:104E60002083F89467706093E9000895CF93DF93EF
:104E70001F92CDB7DEB7682FCE0101960E942E2774
:104E80008091F20099819FBF0F90DF91CF9108959B
:104E9000FF920F931F93CF93DF9300D0CDB7DEB770
:104EA000F62E8A019091CD06992311F057FF03C089
:104EB0008FEF9FEF2BC0682FCE0101967A830E945F
:104EC0002E278091F20090E0A8017A818017910747
:104ED0000CF4AC01EF2DF72FF40E84E6FE1639F03A
:104EE00028988093CE069091F1009193F7CF4115C9
:104EF000510521F08091F200882321F089818FBF34
:104F0000CA0104C08BE68093E800F8CF0F900F90A1
:104F1000DF91CF911F910F91FF900895CF93DF9371
:104F20001F92CDB7DEB741E050E0BE016F5F7F4F0B
:104F30000E944827019719F4898190E002C08FEF01
:104F40009FEF0F90DF91CF910895CF93DF931F9242
:104F5000CDB7DEB7682FCE0101960E942E27909123
:104F6000E800892F807295FF04C09091F20080E4E0
:104F7000891B99819FBF0F90DF91CF9108956F9208
:104F80007F928F929F92AF92BF92CF92DF92EF92D9
:104F9000FF920F931F93CF93DF931F92CDB7DEB78E
:104FA000782E7B01C42EB52E8091CD06882369F022
:104FB000042F152F8AEFD82E872D8072982E9AE312
:104FC000A92E872D8074882E11C08FEF9FEF57C0B8
:104FD000872D0E94A527682E81110CC0DA94A9F3B1
:104FE00061E070E080E090E00E941C200115110556
:104FF00079F73BC0282F30E0021713070CF4602E1E
:10500000672DCE0101960E942E278091E80085FF32
:1050100029C0262D30E0021B130B992039F06A9429
:105020008FEF6816B1F01092F100F9CFF701862DDD
:1050300077FE07C0815058F094919093F10031961B
:10504000F9CF815020F091919093F100FACFE20EC8
:10505000F31E8091E80085FF0FC00115110511F4C2
:1050600081100AC089818FBFC1CF5D9884E680938B
:10507000CF068C2D9B2D03C0A092E800F3CF0F909C
:10508000DF91CF911F910F91FF90EF90DF90CF9024
:10509000BF90AF909F908F907F906F9008951092E7
:1050A000E9001092CA061092C9069093C806809330
:1050B000C7060895CF92DF92FF920F931F93CF936D
:1050C000DF9300D0CDB7DEB7F82E8A016B01011552
:1050D0001105B1F0F601F7FE02C0849101C0808194
:1050E00049835A830E948A2601501109FFEFCF1A83
:1050F000DF0A49815A818111EACF8FEF9FEF01C00A
:10510000CA010F900F90DF91CF911F910F91FF90E7
:10511000DF90CF9008951F93CF93DF931F92CDB769
:10512000DEB7162F2091E80022FFFCCF612F798394
:105130000E947D268BEF8093E800812F7981972F45
:105140000F90DF91CF911F9108951F920F920FB68C
:105150000F921124DF92EF92FF920F931F932F93E0
:105160003F934F935F936F937F938F939F93AF93EF
:10517000BF93EF93FF93CF93DF93CDB7DEB76C97D9
:10518000DEBFCDBF1092E9008091E80083FF23C10C
:1051900068E0CE0145960E947D2682EF8093E8006C
:1051A0003D8937FF05C08091E80080FFFCCF03C038
:1051B0008EEF8093E800832F807609F0F0C02E896F
:1051C0004F89D88C21110CC0303829F48091CC063D
:1051D0008093F10002C01092F1001092F100F4C02F
:1051E000842F90E09D29213049F43111EDC00197C1
:1051F00009F0EAC08091CC068D7F0AC0233059F4B3
:105200003111E2C0019709F0DFC08091CC068260C5
:105210008093CC06D9C0253041F48091E80080FF0E
:10522000FCCF40684093E300CFC0263009F08DC02A
:10523000EB8CFC8C22E0D2122CC080E090E00E942B
:105240004F280E94182799E08E010F5F1F4FF80129
:10525000292F11922A95E9F79983DA8291E09E83AA
:1052600090EA98879AEF99872091C9063091CA06EB
:10527000275F3F4F3C832B838D83C7010E944F28BC
:1052800049E050E0B80180E00E945A280E941827A7
:105290009BC0C7010E944F280E94442CBE016B5E38
:1052A0007F4F0E94E62B009719F00CF08DC090C044
:1052B00081E0D8120EC08B8D9C8D089719F481E087
:1052C0008093C6068091C60681112FC064E074E009
:1052D00031C0E3E0DE127CC08F89882349F182303F
:1052E00029F440E86DE082E294E01CC0813029F4AA
:1052F00040E86BE086E194E015C0833009F068C0B7
:105300000E94442C8E010F5F1F4FB8010E94052C94
:10531000F80101900020E9F73197E01BF10B40E024
:105320006E2FC8010E94B8264DC062EF73E002C024
:1053300060E374E06115710509F44AC0FB01449112
:1053400050E080E80E945A283FC0273009F440C04E
:10535000283021F481E08093F10036C02930A1F596
:105360003370B1F5E7E2F1E081E021E036E39081CE
:10537000992361F08093E9002093EB009191909341
:10538000EC003093ED008F5F873089F78EE78093D4
:10539000EA001092EA008F898093CD0615C08B8DAC
:1053A0009C8D0E944F28898D811105C0CE014596A4
:1053B0000E949F2207C00E94442CBE016B5E7F4F5B
:1053C0000E94242C882321F08EEF8093E80003C0F4
:1053D00081E28093EB006C960FB6F894DEBF0FBEAF
:1053E000CDBFDF91CF91FF91EF91BF91AF919F9191
:1053F0008F917F916F915F914F913F912F911F916D
:105400000F91FF90EF90DF900F900FBE0F901F90C5
:1054100018958093E9008091F200882319F08AE3BF
:105420008093E80008951F920F920FB60F921124F7
:105430002F933F934F935F936F937F938F939F939C
:10544000AF93BF93CF93EF93FF93C091E10080910F
:10545000E100837F8093E1008093E100C3FF0FC0F0
:105460001092E90081E08093EB001092EC0082E35F
:105470008093ED001092CD0688E08093F000C2FF8B
:1054800019C083E00E94092A8091CF06882339F051
:105490008091CF0681508093CF06882389F1809137
:1054A000CE06882339F08091CE0681508093CE06B7
:1054B000882341F1C4FF10C08091E2008E7E81609C
:1054C0008093E2008091E1008F7E8093E1008091E3
:1054D000CB068E7E806111C0C0FF16C08091E200B5
:1054E0008E7E80618093E2008091E1008E7E8093C9
:1054F000E1008091CB068E7E81608093CB0604C054
:105500005D9ACDCF289AD6CFFF91EF91CF91BF91E1
:10551000AF919F918F917F916F915F914F913F914B
:105520002F910F900FBE0F901F9018951092CD06DF
:105530001092CC061092CB060E94F526E1EEF0E028
:1055400080818E7E80838DE08093E200559A209A40
:105550000895FC01808191810C94572FCF93DF93A4
:10556000EC0188819981009711F00E94572F1982D0
:1055700018821D821C821B821A82DF91CF910895AE
:105580000F931F93CF93DF93EC018B016F5F7F4FDE
:10559000888199810E94E62F009731F09983888352
:1055A0001B830A8381E001C080E0DF91CF911F91CE
:1055B0000F910895CF93DF93EC0188819981892B16
:1055C00029F08A819B818617970760F4CE010E949B
:1055D000C02A882341F08C819D81892B19F4E881B0
:1055E000F981108281E0DF91CF910895EF92FF92CF
:1055F0000F931F93CF93DF93EC017B018A01BA01D4
:105600000E94DA2A811104C0CE010E94AE2A07C08E
:105610001D830C83B701888199810E94B930CE0126
:10562000DF91CF911F910F91FF90EF900895FC01B2
:105630001182108213821282158214826115710503
:1056400059F0FB0101900020E9F7AF0141505109E9
:10565000461B570B0C94F62A0895CF93DF93EC0169
:10566000FB018617970761F06081718161157105F3
:1056700029F0448155810E94F62A02C00E94AE2A78
:10568000CE01DF91CF910895FC0111821082138227
:105690001282158214820C942D2BEF92FF920F939D
:1056A0001F93CF93DF93EC017B010C811D8161156A
:1056B000710511F480E016C04115510591F0040FF9
:1056C000151FB8010E94DA2A8823A1F328813981A5
:1056D0008C819D81B701820F931F0E94B9301D8379
:1056E0000C8381E0DF91CF911F910F91FF90EF909C
:1056F0000895CF93DF93EC01FB01448155816081D4
:1057000071810E944D2B811103C0CE010E94AE2AEF
:10571000CE01DF91CF910895CF93DF93EC01611516
:10572000710569F0FB0101900020E9F7AF014150DC
:105730005109461B570B0E944D2B811103C0CE010E
:105740000E94AE2ACE01DF91CF91089508950E9464
:1057500044200E94A62B85EC96E00E94962A0E9487
:10576000EF11C7E7D3E20E94FE162097E1F30E94F3
:105770007723F9CF0C94BF2E0895EF92FF920F93E9
:105780001F93CF93DF937B01FC01C281D38100E0A3
:1057900010E0209781F0E881F9810280F381E02D0B
:1057A000B701CE01099597FD08C0080F191F08849D
:1057B000D985C02DEECFC80102C08FEF9FEFDF91DA
:1057C000CF911F910F91FF90EF9008950F931F932A
:1057D000CF93DF938B01FC01C281D381209771F0BD
:1057E000E881F9810480F581E02DB801CE010995A9
:1057F000009731F40884D985C02DF0CF80E090E087
:10580000DF91CF911F910F9108950F931F93CF9325
:10581000DF938B01FC01C281D381209771F0E88175
:10582000F9810680F781E02DB801CE010995080FB6
:10583000111D0884D985C02DF0CFF8011082DF91A9
:10584000CF911F910F9108950F931F93CF93DF93E3
:105850008B01FC01C281D381209771F0E881F9812D
:105860000190F081E02DB801CE010995811106C0AB
:105870000884D985C02DF0CF80E001C081E0DF91A0
:10588000CF911F910F9108958091D40681110DC081
:1058900082E08093D00684E08093D1061092D306F4
:1058A0001092D20681E08093D40680ED96E00895B0
:1058B0005058BB27AA270ED075C166D130F06BD1E6
:1058C00020F031F49F3F11F41EF45BC10EF4E0951B
:1058D000E7FB51C1E92F77D180F3BA17620773074D
:1058E0008407950718F071F49EF58FC10EF4E095CA
:1058F0000B2EBA2FA02D0B01B90190010C01CA018A
:10590000A0011124FF27591B99F0593F50F4503E34
:1059100068F11A16F040A22F232F342F4427585F26
:10592000F3CF469537952795A795F0405395C9F73E
:105930007EF41F16BA0B620B730B840BBAF09150F6
:10594000A1F0FF0FBB1F661F771F881FC2F70EC095
:10595000BA0F621F731F841F48F487957795679568
:10596000B795F7959E3F08F0B3CF9395880F08F051
:105970009927EE0F979587950895D9D008F481E07F
:1059800008950CD00FC107D140F0FED030F021F4C3
:105990005F3F19F0F0C0511139C1F3C014D198F331
:1059A0009923C9F35523B1F3951B550BBB27AA27A0
:1059B00062177307840738F09F5F5F4F220F331F12
:1059C000441FAA1FA9F333D00E2E3AF0E0E830D0DE
:1059D00091505040E695001CCAF729D0FE2F27D0E1
:1059E000660F771F881FBB1F261737074807AB07AF
:1059F000B0E809F0BB0B802DBF01FF2793585F4F24
:105A00002AF09E3F510568F0B6C000C15F3FECF33D
:105A1000983EDCF3869577956795B795F7959F5FE8
:105A2000C9F7880F911D9695879597F90895E1E03C
:105A3000660F771F881FBB1F621773078407BA079B
:105A400020F0621B730B840BBA0BEE1F88F7E095F6
:105A5000089504D06894B111D9C00895BCD088F0DD
:105A60009F5790F0B92F9927B751A0F0D1F0660F4A
:105A7000771F881F991F1AF0BA95C9F712C0B13065
:105A800081F0C3D0B1E00895C0C0672F782F882778
:105A9000B85F39F0B93FCCF3869577956795B395A4
:105AA000D9F73EF490958095709561957F4F8F4F13
:105AB0009F4F0895E89409C097FB3EF49095809518
:105AC000709561957F4F8F4F9F4F9923A9F0F92FC4
:105AD00096E9BB279395F695879577956795B79542
