:100000000C9463020C94BD210C94EA210C941722E9
:100010000C9444220C948B020C948B020C9471224D
:100020000C948B020C948B020C94062C0C94D22A08
:100030000C948B020C948B020C948B020C948B020C
:100040000C948B020C948B020C948B020C948B02FC
:100050000C948B020C948B020C948B020C949E22B9
:100060000C948B020C94C0260C94F2260C948B02F8
:100070000C948B020C948B020C948B020C948B02CC
:100080000C948B020C948B020C948B020C948B02BC
:100090000C948B020C948B020C948B020C948B02AC
:1000A0000C948B020C948B020C948B02650F690FDD
:1000B0006D0F710F8E0F8E0F8E0F740F830F8E0FBB
:1000C0008E0F8E0F8E0F8E0F8E0F870F8E0F8E0F4F
:1000D0008E0F8E0F8E0F8B0FDE23E123D023D423C0
:1000E000DA23022402240224E523E923ED23F32367
:1000F000F7230224FD23227D007B226576656E7442
:10010000223A22656570726F6D222C202264617420
:1001100061223A2200227D00222C20226E65787412
:100120005478427566666572223A2200222C20229B
:100130006572726F72223A2200222C20227374613F
:10014000747573223A2200222C202263616E63743C
:10015000726C223A22007B226576656E74223A2206
:10016000627573646267222C20226E616D65223A8B
:100170002200227D00227D007B226576656E74223E
:100180003A22656570726F6D44617461222C202281
:10019000726573756C74223A226661696C7572655A
:1001A000222C20226368756E6B223A22007B226526
:1001B00076656E74223A22656570726F6D53617652
:1001C00065222C2022726573756C74223A22737535
:1001D0006363657373227D00227D007B22657665F3
:1001E0006E74223A22656570726F6D44617461228B
:1001F0002C2022726573756C74223A2273756363C6
:10020000657373222C20226368756E6B223A22007C
:100210007D00222C202272617465223A007B2265C7
:1002200076656E74223A22626974726174652D6219
:100230007573007B226576656E74223A226175744F
:100240006F62617564436F6D706C657465222C20FC
:100250002272617465223A007B226576656E742293
:100260003A226175746F6261756454657374222CEF
:10027000202272617465223A007B226576656E7475
:10028000223A22656570726F6D5265736574222C17
:100290002022726573756C74223A227375636365EC
:1002A0007373227D00070605040100080A0B0C0D7C
:1002B000090000000200090F0000030401000C0007
:1002C000000000000000000000000000000000042A
:1002D0000802011040804010204080408008020445
:1002E00001804020100201108010204040040404CE
:1002F00004040304050202020204030202020206CD
:10030000060606060604040202020400000000239A
:1003100000260029002C002F0000000000250028E6
:10032000002B002E00310000000000240027002ACE
:10033000002D003000080B00020202010009040039
:100340000001020200000524001001052401010142
:10035000042402060524060001070581031000405D
:1003600009040100020A0000000705020240000023
:100370000705830240000000C18081C11201000214
:1003800002000040412336800001010200011201F9
:1003900000020000004041233680000101020001FC
:1003A00041726475696E6F204C4C430043414E426C
:1003B000757320547269706C6500040309040000B1
:1003C0000000000000002A2B2800000000000000B0
:1003D00000000000000000000000000000002C9E53
:1003E000B4A0A1A2A434A6A7A5AE362D3738271EE7
:1003F0001F20212223242526B333B62EB7B89F848D
:1004000085868788898A8B8C8D8E8F909192939424
:1004100095969798999A9B9C9D2F3130A3AD350462
:1004200005060708090A0B0C0D0E0F101112131404
:1004300015161718191A1B1C1DAFB1B0B500090409
:1004400002000103000000092101010001226500F2
:100450000705840340000105010902A1010901A16A
:10046000008501050919012903150025019503756A
:1004700001810295017505810305010930093109E2
:10048000381581257F750895038106C0C0050109CF
:1004900006A1018502050719E029E7150025017568
:1004A0000195088102950175088103950675081567
:1004B0000025650507190029658100C0051B5E251B
:1004C0002227AE2EE11B11241FBECFEFDAE0DEBFE4
:1004D000CDBF13E0A0E0B1E0E2E6FCE602C005908B
:1004E0000D92A032B107D9F726E0A0E2B3E001C037
:1004F0001D92AE3EB207E1F714E0C4ECD4E004C0B4
:100500002297FE010E941E31CC3BD107C9F70E9401
:1005100066270C9424360C9400000895089520E179
:10052000FA01DC0101900D922A95E1F708950895F2
:1005300008950895FA01258536852230310561F048
:100540002330310559F02130310569F423E030E0E2
:100550003687258721E006C0178605C021E030E0F8
:1005600036872587278720E1DC0101900D922A95A7
:10057000E1F708952F923F924F925F926F927F9290
:100580008F929F92AF92BF92CF92DF92EF92FF92A3
:100590000F931F93CF93DF93CDB7DEB72E970FB690
:1005A000F894DEBF0FBECDBF4C01798768876A0122
:1005B000DB011496ED91FC9115978081E82FF0E016
:1005C000FB87EA87F2E28F9F800111240D561C4FB2
:1005D000E12CF12C8F5F8C87A885B9851496ED915D
:1005E000FC911597808190E001962A853B852E0D20
:1005F0003F1D821793070CF4BBC0980129513109A4
:10060000F801759780813196811104C090819923FA
:1006100009F4A8C090E0982F88274081840F911D8D
:100620000896D60111964D915C911297481759077B
:1006300009F098C080E090E0F901E80FF91F4485C7
:10064000442359F0D601A40FB11D5C914585541384
:1006500089C002968630910579F7F8013797808135
:100660008695869586958250F601E80FF11D638187
:10067000D80116978C9170E0803129F4762F662787
:100680008481680F711DF8013597A080B12CBA2CB8
:10069000AA2431968081A80EB11C3196208130E0C9
:1006A000322F222731968081280F311D31962080EC
:1006B000312C322C2224F8018081280E311C211586
:1006C000310511F421E030E080E090E02D873E8795
:1006D0000E94BD2F2B013C012D853E85B90180E094
:1006E00090E00E94BD2F9B01AC01C301B2010E94AA
:1006F000242F2B013C01B50180E090E00E94BD2F2A
:100700009B01AC01C301B2010E946F302B013C017F
:10071000B10180E090E00E94BD2F9B01AC01C301BC
:10072000B2010E94BC2E0E94912FF8017797208180
:10073000318126173707B1F071836083F7EEF983B3
:1007400023E82A832C852E0D2B837C836D833DE04B
:100750003E838AE08F83BE016F5F7F4F87E396E021
:100760000E94D6279FEFE91AF90A0E5D1F4F34CF7A
:1007700080E1F601D40101900D928A95E1F7C40160
:100780002E960FB6F894DEBF0FBECDBFDF91CF918E
:100790001F910F91FF90EF90DF90CF90BF90AF909F
:1007A0009F908F907F906F905F904F903F902F9091
:1007B000089561E08DE00E94032461E08DE00E94D5
:1007C0003C246AEF70E080E090E00E94172360E034
:1007D0008DE00E943C246AEF70E080E090E00E948F
:1007E0001723EBCF009711F00E9405280E94D90330
:1007F0006115710581F0DB010D900020E9F7AD0175
:1008000041505109461B570BDC01ED91FC910280D0
:10081000F381E02D099480E090E008950F931F93F9
:10082000CF93DF93EC018B01FB0180819181998350
:100830008883828193819B838A836C5F7F4FCE0103
:1008400004960E94152DF801828593859B878A87DF
:10085000DF91CF911F910F9108954EE152E060E03A
:1008600070E00C942F359FEF980F933078F41616A4
:10087000170664F4E82FF0E0EE0FFF1FE659FC4F77
:10088000748363838CE693E00C942D0408959FEFAA
:10089000980F933048F4E82FF0E0EE0FFF1FE65971
:1008A000FC4F83819481089580E090E00895CF9378
:1008B000DF93C0E0D0E040E0BE0183ED95E00E9410
:1008C000981C2196C11582E0D807A9F7DF91CF9136
:1008D00008952F923F924F925F926F927F928F92E4
:1008E0009F92AF92BF92CF92DF92EF92FF920F93BF
:1008F0001F93CF93DF93CDB7DEB7C052D2400FB670
:10090000F894DEBF0FBECDBF0E9457049E012F5F3B
:100910003F4FC15EDD4F39832883CF51D2408EE1F6
:1009200092E0F9019C01119221503040E1F731E051
:1009300039833A838DE790E09D838C839F838E83F8
:100940009987888762E06F8757E05B8BE0EEEC8BDE
:100950003D8B8CE38E8B44E04B8FF1E4FC8F25E0E4
:100960002D8F8E8F78E279A390E1F92EFAA23CA325
:100970008AE08EA38FEF8FA3A8ED8A2E88A6B5E418
:10098000EB2EE9A617E4B12EBAA604E5D02EDBA61D
:1009900090E29CA79DA79EA79FA798AB69AB3AAB97
:1009A0005DABEEAB3FABA4E3A8AF4DAFFEAF2FAF57
:1009B0002196AFAF219724967FAF24972596FFAE5F
:1009C00025977FE027967FAF27977DE028967FAF1A
:1009D000289729969FAF29972C96FFAF2C9776E4FE
:1009E000972E2D969FAE2D972E969FAF2E972F96D2
:1009F0009FAF2F9760969FAF609761969FAF61976B
:100A000062969FAF629763969FAF639764966FAF4E
:100A1000649765963FAF659768965FAF68976996EC
:100A2000EFAF699702E26A960FAF6A977AED6B961D
:100A30007FAF6B97A5E86C96AFAF6C97A0964FAF62
:100A4000A09712E6A1961FAFA197A2962FAFA297EB
:100A5000A3967FAFA39776E0A4967FAFA497A596C1
:100A6000AFAFA597A0E3A696AFAFA697B8E07B2E51
:100A7000A7967FAEA797B7E1A996BFAFA997B4E1B4
:100A80004B2EAB964FAEAB97AE96FFAFAE97AF96F1
:100A90009FAEAF97B2E5CB2EE096CFAEE097BFE426
:100AA0005B2EE1965FAEE197B2E4E296BFAFE297CC
:100AB000B4E46B2EE3966FAEE397E4969FAFE497B2
:100AC000E5969FAFE597E6966FAFE697EA965FAF3C
:100AD000EA97EB96EFAFEB97EC960FAFEC97B3E09E
:100AE000ED96BFAFED970F2EFCEEAF2EF02DEE96EC
:100AF000AFAEEE97CF57DF4F4883C158D040CE57A7
:100B0000DF4F1883C258D040CD57DF4F2883C358DA
:100B1000D040CC57DF4FB883C458D040CB57DF4FBD
:100B20007883C558D040CA57DF4FA882C658D040F6
:100B3000C957DF4FA883C758D040C857DF4FF88246
:100B4000C858D040C657DF4F3883CA58D040C45722
:100B5000DF4F2883CC58D0400F2EFBE4AF2EF02D72
:100B6000C157DF4FA882CF58D0400F2EFEE43F2E52
:100B7000F02DC057DF4F3882C059D040CF56DF4FDD
:100B80005882C159D0400F2EF3E45F2EF02DCE567F
:100B9000DF4F5882C259D040CD56DF4FA882C3598B
:100BA000D040CC56DF4F9883C459D040CB56DF4F4E
:100BB0009883C559D040CA56DF4F9883C659D04054
:100BC000C956DF4F6883C759D040C556DF4F588399
:100BD000CB59D040C456DF4FE883CC59D040C356E0
:100BE000DF4F0883CD59D0400F2EF4EF2F2EF02D7C
:100BF000C256DF4F2882CE59D0400F2EF3E23F2E4F
:100C0000F02DC156DF4F3882CF59D040CD55DF4F40
:100C10004883C35AD040CC55DF4F1883C45AD040C4
:100C2000CB55DF4F2883C55AD040CA55DF4F2882A5
:100C3000C65AD040C955DF4F7883C75AD040C855EF
:100C4000DF4F3882C85AD040C755DF4FA883C95AF2
:100C5000D040C655DF4FF882CA5AD0400F2EFDE172
:100C60003F2EF02DC455DF4F3882CC5AD040C255AC
:100C7000DF4F4882CE5AD040CF54DF4F9882C15BBD
:100C8000D0400F2EF0E59F2EF02DCE54DF4F9882EE
:100C9000C25BD040CD54DF4FC882C35BD040CC5440
:100CA000DF4F9883C45BD040CB54DF4FA882C55B35
:100CB000D040CA54DF4F9883C65BD040C954DF4F41
:100CC0009883C75BD040C854DF4F9883C85BD0403F
:100CD000C754DF4F6883C95BD040C354DF4F58838C
:100CE000CD5BD040C254DF4FE883CE5BD040C154CF
:100CF000DF4F0883CF5BD040C054DF4FB883C05C68
:100D0000D0400F2EF8E1AF2EF02DCF53DF4FA88249
:100D1000C15CD040CB53DF4F4883C55CD040CA5341
:100D2000DF4F1883C65CD040C953DF4F2883C75CB0
:100D3000D040C853DF4FB883C85CD040C753DF4FA3
:100D40007883C95CD040C653DF4FA882CA5CD040CC
:100D5000C553DF4FA883CB5CD040C453DF4FF8822C
:100D6000CC5CD040C253DF4F7883CE5CD040C053C0
:100D7000DF4F3883C05DD040CD52DF4F5882C35D16
:100D8000D040CC52DF4FF883C45DD0403DE4CB521D
:100D9000DF4F3883C55DD040CA52DF4F6882C65DE1
:100DA000D040C952DF4FE882C75DD040C852DF4F04
:100DB000B882C85DD040C752DF4F9883C95DD0402C
:100DC000C652DF4F9883CA5DD040C552DF4F68835B
:100DD000CB5DD040C152DF4F5883CF5DD04037E369
:100DE000C052DF4F3883C05ED040CF51DF4F088301
:100DF000C15ED04039E5CE51DF4F3883C25ED0406E
:100E00000F2EFAE6AF2EF02DCD51DF4FA882C35E34
:100E1000D040C951DF4F4883C75ED040C851DF4F33
:100E20001883C85ED040C751DF4F2883C95ED040C9
:100E3000C651DF4F3883CA5ED040C551DF4F78833B
:100E4000CB5ED040C451DF4FA882CC5ED040C351AE
:100E5000DF4FA883CD5ED040C251DF4FF882CE5E17
:100E6000D0400F2EFBE0FF2EF02DC051DF4FF88257
:100E7000C05FD0400F2EF4E6FF2EF02DCE50DF4F96
:100E8000F882C25FD040CB50DF4F9882C55FD04020
:100E90000F2EF7E5FF2EF02DCA50DF4FF882C65F08
:100EA000D040C950DF4FE882C75FD0400F2EF9E431
:100EB000FF2EF02DC850DF4FF882C85FD040C750DA
:100EC000DF4FB882C95FD0400F2EF8E4FF2EF02D1F
:100ED000C650DF4FF882CA5FD040C550DF4FD8827E
:100EE000CB5FD040C450DF4F9883CC5FD040C3501D
:100EF000DF4F6883CD5FD040CF5FDE4F5883C15056
:100F0000D140CE5FDE4FE883C250D140CD5FDE4F8F
:100F10000883C350D140CC5FDE4FB883C450D1406A
:100F20005AECCB5FDE4F5883C550D140C75FDE4FD0
:100F30004883C950D140C65FDE4F1883CA50D140A4
:100F4000C55FDE4F2883CB50D140C45FDE4FB883EE
:100F5000CC50D140C35FDE4F7883CD50D140C25FCB
:100F6000DE4F5883CE50D140C15FDE4FA883CF50B3
:100F7000D140C05FDE4F7882C051D14049E0CE5EA3
:100F8000DE4F4883C251D140CC5EDE4F2883C4512E
:100F9000D140CB5EDE4F8883C551D140CA5EDE4F63
:100FA0008882C651D140E2E4C95EDE4FE883C75172
:100FB000D140C85EDE4FF883C851D140C75EDE4FD6
:100FC000D882C951D140C65EDE4FD882CA51D140C5
:100FD000C55EDE4FE882CB51D140C45EDE4FC88291
:100FE000CC51D140C35EDE4F3883CD51D140C25E7B
:100FF000DE4F9883CE51D140C15EDE4F8883CF5102
:10100000D140C05EDE4F8883C052D140CF5DDE4FFD
:101010008883C152D140CE5DDE4F8883C252D14019
:10102000CD5DDE4F8883C352D140CC5DDE4F8883D7
:10103000C452D140CB5DDE4F8883C552D140CA5DDA
:10104000DE4F8883C652D140C95DDE4F8883C752C8
:10105000D140C85DDE4F8883C852D140C75DDE4FA6
:101060008883C952D140C65DDE4F8883CA52D140C1
:10107000C55DDE4F8883CB52D140C45DDE4F88838F
:10108000CC52D140C35DDE4F8883CD52D140C25D8A
:10109000DE4F8883CE52D140C15DDE4F8883CF5270
:1010A000D140C05DDE4F8883C053D140CF5CDE4F5E
:1010B0008883C153D140CE5CDE4F8883C253D14078
:1010C000CD5CDE4F8883C353D140CC5CDE4F888338
:1010D000C453D140CB5CDE4F8883C553D140CA5C3A
:1010E000DE4F8883C653D140C95CDE4F8883C75327
:1010F000D140C85CDE4F8883C853D140C75CDE4F07
:101100008883C953D140C65CDE4F8883CA53D1401F
:10111000C55CDE4F8883CB53D140C45CDE4F8883EF
:10112000CC53D140C35CDE4F8883CD53D140C25CE9
:10113000DE4F8883CE53D140CE0101960E942D040C
:101140000E94DB0869E772E087EE95E00E94F327D2
:1011500006E010E061E08DE00E943C2464EF71E065
:1011600080E090E00E94172360E08DE00E943C2424
:1011700064EF71E080E090E00E94172301501109B4
:1011800049F7C05EDD4F0FB6F894DEBF0FBECDBF8E
:10119000DF91CF911F910F91FF90EF90DF90CF9053
:1011A000BF90AF909F908F907F906F905F904F9087
:1011B0003F902F9008958EE192E0ECE6F3E0DF019E
:1011C0009C011D9221503040E1F74EE152E060E079
:1011D00070E0CF010E94173580916D0381508E3FE2
:1011E00010F00C94690408955F926F927F928F9231
:1011F0009F92AF92BF92CF92DF92EF92FF920F93A6
:101200001F93CF93DF93CDB7DEB76E970FB6F894E9
:10121000DEBF0FBECDBF982E5B018FEF890D8330EF
:1012200008F0D3C0292D30E0215031098CE0829F95
:10123000B001839F700D112466577A4F7E0183E1C0
:10124000E80EF11CC7010E940E046FE070E0C701B8
:101250000E940620582E6BE270E0C7010E94062013
:10126000682E92E1E8E1F1E0DE01119601900D9225
:101270009A95E1F7FE0131966F01712C812C68E59A
:1012800072E0C5010E94A327F601019111916F013F
:101290004AE050E0B801C5010E94BA286AE271E054
:1012A000C5010E94052860E070E0C7010E94A21EEF
:1012B00065E070E080E090E00E941723B801C7016C
:1012C0000E940D1D65E070E080E090E00E94172311
:1012D00063E070E0C7010E94A21E65E070E080E05C
:1012E00090E00E9417232FEF40E06CE2C7010E94BC
:1012F000281E65E070E080E090E00E94172368EC13
:1013000070E080E090E00E9417236CE270E0C7017B
:101310000E94062087FD02C0811102C0072D182DF2
:10132000CE14DF0419F0702E812EA9CF60E070E09A
:10133000C6010E94A21E6AE070E080E090E00E9478
:101340001723B801C6010E940D1D61E070E080E026
:1013500090E00E9417232FEF452D6FE0C6010E94F9
:10136000281E61E070E080E090E00E9417232FEFDC
:10137000462D6BE2C6010E94281E61E070E080E00D
:1013800090E00E94172361E070E0C6010E94A21E57
:1013900063E372E0C5010E94A3274AE050E0B80170
:1013A000C5010E94BA286AE271E0C5010E940528C1
:1013B0000115110521F0B801892D0E943304CE01D9
:1013C00047960E947A2CC80102C080E090E06E9699
:1013D0000FB6F894DEBF0FBECDBFDF91CF911F9146
:1013E0000F91FF90EF90DF90CF90BF90AF909F90C4
:1013F0008F907F906F905F900895282F30E070E07D
:101400008091080190E0AB01481B590B421753072C
:1014100034F4680F791F81E0261737070CF080E05D
:1014200008950F931F9380910B010E9495236AE00A
:1014300070E00E94E630062F6AE0802F0E94FD09CE
:10144000811102C010E001C010E267E1802F0E940C
:10145000FD098111105F66E2802F0E94FD09811154
:10146000105867E3802F0E94FD098111105C68E429
:10147000802F0E94FD098111185F809109010E944F
:1014800095236AE070E00E94E630062F6AE0802F24
:101490000E94FD0981111C5F67E1802F0E94FD09F8
:1014A00081111E5F67E2802F0E94FD0981111F5F7D
:1014B00080912003181761F00E94E822609368036E
:1014C0007093690380936A0390936B0310932003D6
:1014D0000E94E822009168031091690320916A0339
:1014E00030916B03601B710B820B930B663571059A
:1014F0008105910530F08091200390916703981346
:1015000005C0809167031F910F9108958093670331
:10151000F8CF0F931F93CF93DF93EC018B018BEBED
:1015200092E099838883CE0108960E94B1211D83A1
:101530000C831F821E8287EE95E09B838A83DF9156
:10154000CF911F910F910895CF92DF92EF92FF926A
:101550000F931F93CF93DF937C016A01EB0100E0AF
:1015600010E00C151D05E0F4D70112968D919C91A9
:101570001397DC01ED91FC910480F581E02D099534
:10158000892B71F0F70182819381DC01ED91FC914F
:101590000680F781E02D099589930F5F1F4FE1CFFA
:1015A000C801DF91CF911F910F91FF90EF90DF90D5
:1015B000CF9008950F931F93CF93DF9300D000D067
:1015C0001F92CDB7DEB78C0145E050E0BE016F5FE2
:1015D0007F4F0E94A40A8981843080F490E0FC014E
:1015E0003396EE0FFF1FE00FF11F2B812083FC01CC
:1015F000EE0FFF1FE00FF11F8D8187830F900F907B
:101600000F900F900F90DF91CF911F910F91089540
:101610000F931F93CF93DF9300D01F92CDB7DEB708
:101620008C0143E050E0BE016F5F7F4F0E94A40A2F
:10163000833051F46A8170E0762F66278B81680FC2
:10164000711D89810E9433046DE172E0F80182818D
:1016500093810E94A3274AE050E06981F8018281CA
:1016600093810E94CF2862E172E0F8018281938128
:101670000E94A32789810E9447044AE050E0BC01F0
:10168000F801828193810E94BA2860E172E0F8013A
:10169000828193810E94F3270F900F900F90DF912A
:1016A000CF911F910F910895EF92FF920F931F9387
:1016B000CF93DF93CDB7DEB762970FB6F894DEBF56
:1016C0000FBECDBF8C01BE01635F7F4F86E0DB01A3
:1016D0001D928A95E9F746E050E0C8010E94A40AED
:1016E0007C012D858FEF820F833060F0F8018281BD
:1016F0009381DC01ED91FC910190F081E02D60E897
:10170000099571C030E0215031098CE0829FB00111
:10171000839F700D112466577A4FCE0101960E9467
:101720000E042E859D85F80187819150222351F06A
:1017300021E030E0092E01C0220F0A94EAF7282B9D
:1017400027830AC021E030E0092E01C0220F0A944D
:10175000EAF7209528232783B3E0EB16F1046CF118
:1017600060E070E0CE0101960E94A21ECE010196BB
:101770000E94B8206F8570E0288930E0498950E0E8
:10178000EA89F0E0CB01820F931F840F951F8E0F23
:101790009F1F892B61F0542F44274E0F5F1F762F18
:1017A0006627620F731FCE0101960E945F2061E0E1
:1017B00070E0CE0101960E94A21EF8018281938101
:1017C000DC01ED91FC910190F081E02D6FEF099526
:1017D0006CE271E0F801828193810E94F803CE01EE
:1017E00005960E947A2C62960FB6F894DEBF0FBE63
:1017F000CDBFDF91CF911F910F91FF90EF90089592
:101800000F931F93CF93DF93CDB7DEB7A1970FB69A
:10181000F894DEBF0FBECDBF8C0142E250E0BE01A6
:101820006F5F7F4F0E94A40A829789F58AA1813A4F
:1018300071F5A98180E2A89FD0011124A459BC4F61
:1018400080E2FE01329601900D928A95E1F76BEDF0
:1018500071E0F801828193810E94A3274AE050E061
:101860006981F801828193810E94CF2868ED71E03F
:10187000F801828193810E94F32789818F30E9F4F6
:101880008CE693E00E942D046DEA71E011C068E7D8
:1018900071E0F801828193810E94A3274AE050E021
:1018A0006981F801828193810E94CF2865E771E008
:1018B000F801828193810E94F327A1960FB6F894D4
:1018C000DEBF0FBECDBFDF91CF911F910F91089565
:1018D0000F931F93CF93DF931F92CDB7DEB78C0189
:1018E00041E050E0BE016F5F7F4F0E94A40A8981F2
:1018F000823029F08330F1F4F80116821BC081E0B8
:10190000F801868361E08DE00E943C2464E670E08B
:1019100080E090E00E94172360E08DE00E943C246C
:1019200064E670E080E090E00E94172361E08DE0C3
:101930000E943C240F90DF91CF911F910F91089549
:10194000CF93DF93EC018A819B81DC01ED91FC91C7
:101950000480F581E02D0995892B51F08A819B81C6
:10196000DC01ED91FC910680F781E02D0995EBCF2C
:10197000DF91CF9108950F931F93CF93DF93EC01E5
:101980008B0166E571E08A819B810E94A327B801E3
:101990006C5F7F4F8A819B810E94C82767E471E05A
:1019A0008A819B810E94A3276FE070E0C8010E949A
:1019B000062040E150E0682F8A819B810E94CF2859
:1019C00069E371E08A819B810E94A327C8010E947C
:1019D000DA1F40E150E0682F8A819B810E94CF2866
:1019E0006CE271E08A819B810E94A3276DE270E026
:1019F000C8010E94062040E150E0682F8A819B8147
:101A00000E94CF2868E171E08A819B810E94A32710
:101A1000C8010E94F21F4AE050E0BC018A819B810C
:101A20000E94BA2865E171E08A819B81DF91CF91A4
:101A30001F910F910C94F3270F931F93CF93DF9374
:101A4000CDB7DEB72D970FB6F894DEBF0FBECDBF72
:101A50008C0141E050E0BE01635F7F4F0E94A40A09
:101A60002D858FEF820F8330C8F430E0215031098B
:101A70008CE0829FB001839F700D112466577A4FCE
:101A8000CE0101960E940E04BE016F5F7F4FC80118
:101A90000E94BB0CCE0105960E947A2C2D960FB6A3
:101AA000F894DEBF0FBECDBFDF91CF911F910F9194
:101AB000089520916603283078F4822F90E0FC018D
:101AC000EE0FFF1FE80FF91FE65BFC4F60835283A8
:101AD00041832F5F209366030895F89481E08093FB
:101AE000E00080E28093D8001092C90065E070E0C9
:101AF00080E090E00E9417231DBA109268001CBC81
:101B000010BE1FBA10927A0010926E0010926F00F1
:101B1000109271000C9400380895CF93DF93EC017C
:101B2000288D398D2F5F3F4F398F288F2830310511
:101B300044F064E170E080E090E00E941723198E89
:101B4000188EDF91CF910895FF920F931F93CF933B
:101B5000DF93EC0169EF70E08A819B810E94A327EB
:101B600000E010E0B80183ED95E00E94951CF82E8E
:101B70002FE0281730F06FE271E08A819B810E948C
:101B8000D62740E150E06F2D8A819B810E94CF28AB
:101B90008A819B818753964019F4CE010E948D0D56
:101BA0000F5F1F4F011582E01807E1F666EF70E046
:101BB0008A819B81DF91CF911F910F91FF900C94AF
:101BC000F327CF92DF92EF92FF92CF93DF93EC0156
:101BD000CA8CDB8CEC8CFD8C8EE1C80ED11CE11C18
:101BE000F11C0E94E822C616D706E806F90640F462
:101BF0000E94E8226A8F7B8F8C8F9D8F80E001C0CE
:101C000081E0DF91CF91FF90EF90DF90CF9008952A
:101C1000EF92FF920F931F93CF93DF93EC018B0111
:101C2000DB011D962D913C911E972150310981E0D9
:101C300090E0022E01C0880F0A94EAF79F81982352
:101C400009F472C08A819B818753964029F4CE01A2
:101C50000E94E10D811168C08A819B81DC01ED91B8
:101C6000FC910190F081E02D63E009958A819B81D0
:101C7000DC01ED91FC910190F081E02DD8011D96E1
:101C80006C9109958A819B81DC01ED91FC91D801D1
:101C900012966C910190F081E02D09958A819B81CB
:101CA000DC01ED91FC910190F081E02DD8011196BD
:101CB0006C910995E12CF12C8A819B81DC01ED91DD
:101CC000FC91D801AE0DBF1D0190F081E02D13965F
:101CD0006C910995BFEFEB1AFB0AE8E0EE16F104F0
:101CE00059F78A819B81DC01ED91FC910190F08193
:101CF000E02DD8016C9109958A819B81DC01ED91E1
:101D0000FC910190F081E02DD8011B966C91099512
:101D10006CE271E08A819B81DF91CF911F910F91DD
:101D2000FF90EF900C94F803DF91CF911F910F91EA
:101D3000FF90EF900895EF92FF920F931F93CF9330
:101D4000DF93CDB7DEB760970FB6F894DEBF0FBE56
:101D5000CDBF8C01CB017A0120E1FA01DE011196A1
:101D600001900D922A95E1F7BE016F5F7F4F0E94AF
:101D7000080ECE0101960E94BC2180E1F701D80136
:101D800001900D928A95E1F7C80160960FB6F8941C
:101D9000DEBF0FBECDBFDF91CF911F910F91FF909E
:101DA000EF900895CF93DF9300D0CDB7DEB72091A9
:101DB000EA063091EB062115310511F42EEE36E0DE
:101DC000CE010196821B930B0F900F90DF91CF9164
:101DD00008950F931F93CF93DF93CDB7DEB762972C
:101DE0000FB6F894DEBF0FBECDBF8C0161E371E08A
:101DF000CE0101960E94E82C67E371E0CE010D96BA
:101E00000E94E82C6BE471E0CE0107960E94E82C5A
:101E1000BE01635F7F4FCE0107960E944A2D68E6A0
:101E200071E00E945D2DBE016F5F7F4F0E944A2DC1
:101E300067E771E00E945D2DBC01F801828193810A
:101E40000E94C827CE0107960E947A2CCE010D96DB
:101E50000E947A2CCE0101960E947A2CC8010E9421
:101E6000D20E4AE050E0BC01F801828193810E94C9
:101E7000BA2862E771E0F801828193810E94F3271A
:101E800062960FB6F894DEBF0FBECDBFDF91CF9143
:101E90001F910F9108950F931F93CF93DF931F927C
:101EA000CDB7DEB78C0141E050E0BE016F5F7F4FE0
:101EB0000E94A40A498150E0FA013197E631F10508
:101EC00068F5EA5AFF4F0C941C31C8010E94E90ED4
:101ED00025C0C8010E94A40D21C0C8010E94000CA9
:101EE0001DC00E9469041AC041E050E0BE016F5F4E
:101EF0007F4FC8010E94A40AF80162817381898121
:101F00000E94F4080BC0C8010E94080B07C0C8015A
:101F10000E941C0D03C0C8010E946D0D0F90DF913F
:101F2000CF911F910F910895EF92FF920F931F93FE
:101F3000CF93DF93EC01CA0125EC32E0398328838B
:101F40007B836A8321E02A8BAE0166E10E94590DF2
:101F50001C821D821E821F8284EF91E099878887F0
:101F60008E0102591F4FF801118210821A861B86BA
:101F70001C861D861E861F86188A198A65E871E0F0
:101F8000CE0143960E941C337E01F0E2EF0EF11C5D
:101F900066EC71E0C7010E941C3362E971E0CE017A
:101FA0008D960E941C33C359DF4F8CE08883B701A4
:101FB000C801DF91CF911F910F91FF90EF900C948A
:101FC0001C33CF92DF92EF92FF92CF93DF93EC011D
:101FD000CA84DB84EC84FD840E94E8226C157D05B4
:101FE0008E059F0518F4CE01809610C0CE84DF8444
:101FF000E888F9880E94E8226C157D058E059F050A
:1020000018F4CE018D9602C0CE014396DF91CF9198
:10201000FF90EF90DF90CF9008950F931F93CF9391
:10202000DF93EC018B010E94E822222717FD209507
:10203000322F600F711F821F931F6A877B878C87E7
:102040009D87DF91CF911F910F910895AF92BF921D
:10205000CF92DF92EF92FF920F931F93CF93DF9374
:102060005C018B01EA01FB018289882309F47EC1AE
:1020700089819A818F38924069F4FB01C284D384AC
:10208000E484F5840E94E822C616D706E806F9061D
:1020900008F47FC189819A818039924009F063C038
:1020A0004C81242F30E0F80180A1992787FD90957D
:1020B00028173907B1F52D8130E081A1992787FDD7
:1020C00090952817390769F52E8130E082A199276C
:1020D00087FD90952817390721F52F8130E083A1DE
:1020E000992787FD909528173907D9F4288530E07E
:1020F00084A1992787FD90952817390791F42985A0
:1021000030E085A1992787FD90952817390749F474
:102110002A8530E086A1992787FD909528173907F1
:1021200071F0F80140A38D8181A38E8182A38F81FC
:1021300083A3888584A3898585A38A8586A3C8010E
:102140000E94E10FFC0180818C8381818D838281DB
:102150008E8383818F838481888785818987868127
:102160008A8781E08F8789819A818139924009F03D
:102170004EC04C81242F30E0F80187A1992787FDBC
:1021800090952817390721F52D8130E080A59927F2
:1021900087FD909528173907D9F42E8130E081A565
:1021A000992787FD90952817390791F42F8130E002
:1021B00082A5992787FD90952817390749F4288526
:1021C00030E083A5992787FD90952817390779F086
:1021D000F80147A38D8180A78E8181A78F8182A777
:1021E000888583A76CED75E0C8010E940D10C801B9
:1021F0000E94E10FFC0187818C8380858D8381851E
:102200008E8382858F838385888781E08F87D090B6
:102210006E038D2D90E0079714F4D39401C0D12C58
:102220007801F3E1EF0EF11C66EC71E0C7010E944A
:102230001C33A0916E0322E2A29FD0011124A45965
:10224000BC4F1F968C911F9798962C91989780FF62
:1022500023C050968D919C9151976AE070E00E9446
:10226000D2309F938F937F936F93822F992787FD0F
:1022700090959F932F9383ED91E09F938F93FF927F
:10228000EF920E9423338DB79EB70A960FB6F8944B
:102290009EBF0FBE8DBF1DC051968C9151978F93DD
:1022A00050968C918F93822F992787FD90959F93BD
:1022B0002F938CED91E09F938F93FF92EF920E946A
:1022C0002333EDB7FEB738960FB6F894FEBF0FBEB6
:1022D000EDBF22E2D29EF0011124E459FC4F878524
:1022E00020A5075E1F4F80FF21C0808991896AE089
:1022F00070E00E94D2309F938F937F936F93822FD1
:10230000992787FD90959F932F9383ED91E09F935D
:102310008F931F930F930E9423338DB79EB70A9616
:102320000FB6F8949EBF0FBE8DBF1AC081898F93E0
:1023300080898F93822F992787FD90959F932F9364
:102340008CED91E09F938F931F930F930E94233303
:10235000EDB7FEB738960FB6F894FEBF0FBEEDBFCF
:1023600089819A818130924009F41F8680E1FE01C3
:10237000D50101900D928A95E1F7C501DF91CF91CA
:102380001F910F91FF90EF90DF90CF90BF90AF9093
:10239000089580EC8B831C821D821E8287E28887D1
:1023A00080E1898781E08F8775CE0F931F93CF934C
:1023B000DF93EC018B010E94E822222717FD209574
:1023C000322F600F711F821F931F6E877F87888B4C
:1023D000998BC259DF4F19821882DF91CF911F91DB
:1023E0000F9108950F931F93CF93DF93EC018A0110
:1023F0007F936F938D969F938F930E9423330F90BB
:102400000F900F900F90B801CE01DF91CF911F91E7
:102410000F910C94D5111F93CF93DF93CDB7DEB7F7
:10242000C154D1090FB6F894DEBF0FBECDBFDB019A
:10243000FE0131969F01240F351FBF01E217F307FC
:1024400019F01D911193FACFFC01E259FF4F4D3065
:10245000510574F05183408331974083E8ECE49F49
:102460009001E59F300D1124A9014056504F04C042
:102470001182108248E55BE10E94F211CF5BDF4FD1
:102480000FB6F894DEBF0FBECDBFDF91CF911F9185
:102490000895EF92FF920F931F93CF93DF93CDB7E1
:1024A000DEB72D970FB6F894DEBF0FBECDBF7C010F
:1024B0008DE0E6ECF1E08E010F5F1F4FD801019037
:1024C0000D928A95E1F720916E0330E0C9010196E3
:1024D00042E2489FF001499FF00D1124E459FC4F5E
:1024E00053A5852F992787FD90959F935F9352A5BC
:1024F000852F992787FD90959F935F9351A5852FF1
:10250000992787FD90959F935F9350A5852F9927D5
:1025100087FD90959F935F93429FF001439FF00D3D
:102520001124E459FC4F23A5822F992787FD90950C
:102530009F932F9322A5822F992787FD90959F9394
:102540002F9321A5822F992787FD90959F932F93F5
:1025500020A5822F992787FD90959F932F9322EE98
:1025600031E03F932F931F930F930E94233340ED4D
:1025700057E0B801C7010E94F2110FB6F894DEBF10
:102580000FBECDBF2D960FB6F894DEBF0FBECDBFE8
:10259000DF91CF911F910F91FF90EF9008950F93CE
:1025A0001F93CF93DF93DC0114960D911C91159727
:1025B000E801E8816E2F70E0D2E2ED9FF001112476
:1025C000E158FC4F40E050E01296E801288130E0ED
:1025D0002F5F3F4FCA01860F971F28173907A4F0B6
:1025E000CF010197EC01288130E0322F2227808132
:1025F000280F311D285F3F4F19963C932E93189753
:102600004F5F5F4FB296E0CFDF91CF911F910F9157
:1026100008950F931F93CF93DF93EC018B018FEC01
:1026200092E0998388830E94E8226E837F83888763
:1026300099878EE693E09D838C831B830A83CE016A
:10264000DF91CF911F910F910C94CF1240916E03A7
:1026500062E070E083ED95E00C94981CCF93DF93DB
:10266000EC01EC81FD812081822F90E0079714F02E
:10267000108202C02F5F2083CE010E942613CE015C
:102680000E94CF12EC81FD818081DF91CF9108956E
:10269000CF93DF93EC01EC81FD818081811102C039
:1026A00087E001C081508083CE010E942613CE01B5
:1026B0000E94CF12EC81FD818081DF91CF9108953E
:1026C000CF93DF93EC01EB81FC81428981E04827C5
:1026D000428B40936C0360E070E083ED95E00E94D4
:1026E000981C8B819C81FC012289222341F040EDC2
:1026F00057E067EF71E0DF91CF910C94F211DF9119
:10270000CF910895CF93DF93EC010E94110A9A8133
:10271000981789F18A83823449F1813839F08134FC
:1027200051F58D819E810E942E1304C08D819E8162
:102730000E9448138B819C810E94491260E070E0E6
:102740008AEB95E00E94A21EED81FE8144855585AD
:10275000628573858AEB95E00E945F2061E070E0FE
:102760008AEB95E0DF91CF910C94A21ECE01DF9110
:10277000CF910C946013DF91CF910895CF93DF93A5
:102780000E94DB0861E070E080E090E00E94172387
:10279000E0912B03F0912C0381E090916C03911157
:1027A00001C080E0828B80912D0390912E030E94C6
:1027B000CF1240E052EC61E070E087EE95E00E94BD
:1027C000582526E040E051EE60E070E087E396E0B7
:1027D0000E945E266A9A729A61E088E00E94032451
:1027E00061E088E00E943C2461E08DE00E940324C7
:1027F00060E083E00E94032460E082E00E94032402
:1028000060E087E00E94032461E084E00E940324EA
:1028100061E08CE00E94032461E08BE00E940324CD
:1028200061E089E00E94032461E08AE00E940324C1
:1028300061E085E00E94032460E084E00E943C2483
:1028400060E08CE00E943C2460E08BE00E943C242D
:1028500086EC95E00E94D21C61E070E086EC95E089
:102860000E94731E60916F037091700386EC95E077
:102870000E940D1D61E086EC95E00E94531E24E04D
:1028800044E060E686EC95E00E94281E20E240E2EB
:1028900069E286EC95E00E94281E86EC95E00E9495
:1028A000B82061E070E086EC95E00E94A21E8AEB01
:1028B00095E00E94D21C60917103709172038AEBC3
:1028C00095E00E940D1D61E08AEB95E00E94531E89
:1028D00024E044E060E68AEB95E00E94281E8AEB43
:1028E00095E00E94B82063E070E08AEB95E00E94DA
:1028F000A21E8EEA95E00E94D21C60917303709133
:1029000074038EEA95E00E940D1D61E08EEA95E069
:102910000E94531E24E044E060E68EEA95E00E94A7
:10292000281E8EEA95E00E94B82061E070E08EEAF1
:1029300095E00E94A21E60E070E08AEB95E00E94A4
:10294000A21EE0912D03F0912E03448555856285EA
:1029500073858AEB95E00E945F2061E070E08AEB6E
:1029600095E00E94A21EC5E0D0E061E08DE00E94EB
:102970003C2462E370E080E090E00E94172360E076
:102980008DE00E943C2462E370E080E090E00E94D1
:102990001723219751F7DF91CF9108950F931F933C
:1029A000CF93DF93EC018B018F858823C9F161E020
:1029B0008DE00E943C24C8010E94F21F81309105E5
:1029C00091F082309105E1F0892B61F59E012D5F38
:1029D0003F4F49815A816881C8010E94CA20C801BD
:1029E0000E94D61E19C09E012D5F3F4F49815A811A
:1029F0006881C8010E941721C8010E94E61E0CC010
:102A00009E012D5F3F4F49815A816881C8010E9414
:102A10006421C8010E94F61E60E08DE00E943C2403
:102A200081E001C080E0DF91CF911F910F91089567
:102A3000CF93DF93EC011D821C821F821E821986B8
:102A400018861B861A861982188280E290E00E94FE
:102A500022319B838A83892B11F40E94D90382E05F
:102A600090E09D838C83DF91CF910895AF92BF92C8
:102A7000CF92DF92EF92FF920F931F93CF93DF934A
:102A8000EC018B01161617061CF064E072E012C010
:102A9000CB0164E0880F991F6A95E1F70E9422310B
:102AA0007C01009729F06C0120E030E040E106C095
:102AB00069E372E0888199810E94F2038E819F818F
:102AC000AA80BB8028173907E4F488859985820F8E
:102AD000931F6C817D810E94E63054E0880F991F1E
:102AE0005A95E1F78A0D9B1DFC01D601842F0190B8
:102AF0000D928A95E1F72F5F3F4F80E1C80ED11C00
:102B0000DDCFC5010E94BA31FB82EA8219861886A0
:102B10008E819F819B878A871D830C83DF91CF9154
:102B20001F910F91FF90EF90DF90CF90BF90AF90EB
:102B300008950F931F93CF93DF93EC018B018E8148
:102B40009F812C813D818217930731F4BC01660F70
:102B5000771FCE010E943615AA81BB818A859B858D
:102B60009C012F5F3F4F3B872A8774E0880F991F96
:102B70007A95E1F7A80FB91F80E1F80101900D9255
:102B80008A95E1F72A853B858C819D812817390735
:102B900011F41B861A868E819F8101969F838E83F6
:102BA000DF91CF911F910F9108950F931F93CF93B2
:102BB000DF93CDB7DEB7AC970FB6F894DEBF0FBE8C
:102BC000CDBF8C014CE050E0BE016F5D7F4F0E9495
:102BD000A40ACE0141960E94B12189A190E09F8F65
:102BE0008E8F2AA130E0322F22278BA1280F311D92
:102BF0003B8B2A8B8CA18C8B8DA18D8B8EA18E8B88
:102C00008FA18F8B88A5888F89A5898F8AA58A8FA8
:102C10008BA58B8F8CA5898B81E088A380E1FE0139
:102C20007196DE01119601900D928A95E1F7BE0131
:102C30006F5F7F4FF801848195810E949915CE01C5
:102C400001960E94BC21CE0141960E94BC21AC9607
:102C50000FB6F894DEBF0FBECDBFDF91CF911F91AD
:102C60000F910895CF92DF92EF92FF920F931F93EF
:102C7000CF93DF93CDB7DEB7C054D1090FB6F89428
:102C8000DEBF0FBECDBF8C017B0160E270E080E053
:102C900090E00E94172323E0E216F10411F14CF4B6
:102CA000A1E0EA16F104A9F0B2E0EB16F104A9F0F4
:102CB00008C024E0E216F104C1F088E0E816F1044F
:102CC000C1F08091660390E0EAE4F3E0C12CD12CDE
:102CD00017C0C8010E944B0F3FC0C8010E94D51504
:102CE0003BC0C8010E94540B37C0C8010E94DA0AD9
:102CF00033C0C8010E94680C2FC0BFEFCB1ADB0A9B
:102D0000C816D9064CF5208130E033962E153F05C4
:102D1000A1F740E450E0BE016F5F7F4FC8010E9401
:102D2000A40A7C0161E070E080E090E00E9417233B
:102D3000F601EE0FFF1FEC0DFD1DE65BFC4F8181E0
:102D40009281DC01ED91FC910480F581E02DA701D9
:102D5000BE016F5F7F4F0995C8010E94A00CC05C47
:102D6000DF4F0FB6F894DEBF0FBECDBFDF91CF911E
:102D70001F910F91FF90EF90DF90CF9008959F9259
:102D8000AF92BF92CF92DF92EF92FF920F931F9379
:102D9000CF93DF93CDB7DEB7C054D1090FB6F89407
:102DA000DEBF0FBECDBF7C010E94E10F8C01CE01C2
:102DB000C1960E94B121B3E0CB2ED12CDFAECEAEB6
:102DC00080E992E09BAB8AAB80EC982E9CAAF8013C
:102DD00080818DAB81818EAB82818FAB838188AF07
:102DE000848189AF85818AAF86818BAF98E0A92ED7
:102DF000A9AABB24B3942196BFAE219780E1FE011E
:102E0000F196DE01119601900D928A95E1F7BE01CF
:102E10006F5F7F4FF701828193810E949915CE01E8
:102E200001960E94BC21CE0181960E94B121DFA6AD
:102E3000CEA681E992E09BA38AA387E88CA3F80140
:102E400087818DA380858EA381858FA3828588A7A6
:102E5000838589A7A9A2B8AA80E1FE01B196DE0107
:102E6000119601900D928A95E1F7BE016F5F7F4F39
:102E7000F701828193810E949915CE0101960E94EB
:102E8000BC21CE0141960E94B12181E090E09F8F4C
:102E90008E8F8FE892E09B8B8A8B9C8A1D8A1E8A7C
:102EA0001F8AB88E87E2898F80E18A8F80E48B8FBA
:102EB000A98AB8A280E1FE017196DE011196019007
:102EC0000D928A95E1F7BE016F5F7F4FF701828116
:102ED00093810E949915CE0101960E94BC21CE01DA
:102EE00041960E94BC21CE0181960E94BC21CE0158
:102EF000C1960E94BC21C05CDF4F0FB6F894DEBFC4
:102F00000FBECDBFDF91CF911F910F91FF90EF903A
:102F1000DF90CF90BF90AF909F900895CF92DF92B7
:102F2000EF92FF92CF93DF93EC018A89882349F1D6
:102F3000C884D984EE24D7FCE094FE2C8C819D813A
:102F4000AE81BF81C80ED91EEA1EFB1E0E94E82278
:102F5000C616D706E806F906A0F4CA84DB84EC841A
:102F6000FD840E94E822C616D706E806F90648F452
:102F7000CE010E94BF160E94E8226C837D838E835F
:102F80009F83DF91CF91FF90EF90DF90CF900895D6
:102F90005F926F927F928F929F92AF92BF92CF92E9
:102FA000DF92EF92FF920F931F93CF93DF93CDB7F2
:102FB000DEB7A0970FB6F894DEBF0FBECDBF7C0181
:102FC0008B01DC011496ED91FC9115978081A82E60
:102FD000B12CB2E28B9F000D111D11240A5F1F4F0F
:102FE000C12CD12C38E0532E7724739440E1642E09
:102FF000D7011496ED91FC911597808190E0019690
:1030000096012A0D3B1D821793070CF456C0480108
:10301000E6E08E1A9108D8018C91882309F447C004
:10302000F4018081882309F442C0CE0141960E94B8
:10303000B121D4018C9190E09F8F8E8FF80132974F
:10304000808190E0982F882731962081820F911DF2
:103050009B8B8A8BFE01759620E030E0D401A20F95
:10306000B31F16968C91882331F02F5F3F4F8193C9
:103070002630310599F72C8B598A78A2FE0171967A
:10308000DE011196862D01900D928A95E1F7BE0121
:103090006F5F7F4FF701828193810E949915CE0166
:1030A00001960E94BC21CE0141960E94BC21FFEFF7
:1030B000CF1ADF0A0E5D1F4F9BCFA0960FB6F89474
:1030C000DEBF0FBECDBFDF91CF911F910F91FF905B
:1030D000EF90DF90CF90BF90AF909F908F907F90B8
:1030E0006F905F9008950F931F93CF93DF93EC0140
:1030F0000E94E8220E811F8128853985025E1F4FBC
:103100002F4F3F4F061717072807390778F40E94FB
:10311000E8226E837F83888799876AE773E0CE0110
:10312000DF91CF911F910F910C94C817DF91CF9130
:103130001F910F9108950F931F93CF93DF93CDB7F6
:10314000DEB7A0970FB6F894DEBF0FBECDBF8C01DF
:1031500020914303309144038091410390914203B5
:103160002817390709F47AC0C8010E94DA1F809332
:10317000490380FF32C0CE0141960E94B121809167
:10318000490390E09D8F8C8FF801828593859F8FF6
:103190008E8F9E012E5E3F4FAE014C5E5F4FBE0193
:1031A0006F5E7F4FC8010E94061F80E1FE0171968D
:1031B000DE01119601900D928A95E1F7BE016F5FD5
:1031C0007F4F8DE393E00E949915CE0101960E94F6
:1031D000BC21CE0141960E94BC2120914303309135
:1031E0004403809141039091420328173907B1F1BC
:1031F0008091490381FF32C0CE0141960E94B121E6
:103200008091490390E09D8F8C8FF8018285938592
:103210009F8F8E8F9E012E5E3F4FAE014C5E5F4FA3
:10322000BE016F5E7F4FC8010E94741F80E1FE01E6
:103230007196DE01119601900D928A95E1F7BE011B
:103240006F5F7F4F8DE393E00E949915CE01019649
:103250000E94BC21CE0141960E94BC21A0960FB6CF
:10326000F894DEBF0FBECDBFDF91CF911F910F91BC
:103270000895BF92CF92DF92EF92FF920F931F9328
:10328000CF93DF93CDB7DEB7A0970FB6F894DEBF2C
:103290000FBECDBF8C0151E2C52E53E0D52EE12CDF
:1032A000F12C60E1B62E8091060190910701E8169D
:1032B000F90664F5D6016D917D916D01DB01ED910B
:1032C000FC9122813381F801DE0151968B2D019012
:1032D0000D928A95E1F7AE014F5E5F4FCE010196E8
:1032E000F9010995FE013196D8018B2D01900D92BF
:1032F0008A95E1F7CE0101960E94BC21CE0141964C
:103300000E94BC21FFEFEF1AFF0ACDCFD8011F9614
:103310008C91882399F080E1F801DE0111960190EB
:103320000D928A95E1F7BE016F5F7F4F81E393E0D5
:103330000E949915CE0101960E94BC21A0960FB65D
:10334000F894DEBF0FBECDBFDF91CF911F910F91DB
:10335000FF90EF90DF90CF90BF9008950F931F9351
:10336000CF93DF938C01EB018E819F81892B31F408
:1033700063E772E0888199810E94F203EA81FB8110
:10338000888599859C012F5F3F4F39872887A4E066
:10339000880F991FAA95E1F7E80FF91F80E1D8017E
:1033A00001900D928A95E1F72E813F8121503109DC
:1033B0003F832E836C817D81888599858617970749
:1033C00011F4198618862115310599F0CB0177FD86
:1033D00003969595879595958795821793074CF059
:1033E00077FF02C06F5F7F4F75956795CE010E9492
:1033F0003615C801DF91CF911F910F910895EF927B
:10340000FF920F931F93CF93DF93CDB7DEB7E8976B
:103410000FB6F894DEBF0FBECDBF11E2E12E13E070
:10342000F12E00E010E0809106019091070108174D
:10343000190774F4D7018D919D917D01DC01ED9107
:10344000FC910190F081E02D09950F5F1F4FEBCFAC
:1034500083E00E947224892B71F466EC75E0CE0142
:1034600001960E940E04CE0101960E949B18CE0187
:1034700005960E947A2C82E00E947224892B71F4B6
:103480006AEB75E0CE0101960E940E04CE01019612
:103490000E949B18CE0105960E947A2C87E00E941C
:1034A0007224892B71F46EEA75E0CE0101960E94B8
:1034B0000E04CE0101960E949B18CE0105960E9433
:1034C0007A2C8091430390914403892B59F02091E9
:1034D00037033091380380913503909136032817D4
:1034E000390771F411E0BCE0FB2E00E120913703B5
:1034F00030913803232B09F465C0111110C062C04C
:103500006DE373E0CE0101960E94AE19CE010196E3
:103510000E943919CE0101960E94BC21E3CF61E3DC
:1035200073E0CE0141960E94AE198E8D9F8D01975A
:10353000F89EB001F99E700D112466577A4FCE01A6
:103540008D960E940E04BE01635D7F4FCE01819671
:103550000E940E04FE017196DE011196802F0190EB
:103560000D928A95E1F7BE016F5D7F4FCE01019606
:103570000E94CE14182FCE0101960E94BC21CE01CC
:1035800085960E947A2C111114C0FE017196DE01FD
:103590001196802F01900D928A95E1F7BE016F5F21
:1035A0007F4F81E393E00E949915CE0101960E941E
:1035B000BC21CE01C1960E947A2CCE0141960E9478
:1035C000BC2194CFE8960FB6F894DEBF0FBECDBFF6
:1035D000DF91CF911F910F91FF90EF900895CF93BE
:1035E000DF93EC018A819B810E94BA311B821A828F
:1035F000198218821D821C821F821E8219861886DB
:103600001B861A86DF91CF9108950F931F93CF9356
:10361000DF9300D000D000D0CDB7DEB765EA72E00E
:10362000CE0101960E94E82C8E010F5F1F4F21E012
:1036300030E044E050E069E070E086EC95E00E9404
:10364000A31CC8010E947A2C6BEA72E0C8010E9498
:10365000E82C22E030E04CE050E06AE070E08AEBD9
:1036600095E00E94A31CC8010E947A2C61EB72E0D5
:10367000C8010E94E82C23E030E04BE050E065E018
:1036800070E08EEA95E00E94A31CC8010E947A2C8B
:1036900066EC75E08AE895E00E940E046AEB75E03E
:1036A00086E995E00E940E046EEA75E082EA95E0F4
:1036B0000E940E040E94E8226093620370936303E9
:1036C00080936403909365038DE393E00E94181543
:1036D00081E393E00E9418158EE190E00E94792723
:1036E0008C0161E373E00E94890A10933003009318
:1036F0002F038EE090E00E9479278C0161E373E054
:103700000E94091310932E0300932D0380E790E08D
:103710000E9479278C0140912F035091300361E37F
:1037200073E00E94940F10932C0300932B0380915D
:103730002F0390913003909322038093210382E022
:1037400090E00E94792723EE32E0FC013183208350
:10375000909324038093230380912B0390912C0357
:10376000909326038093250380912D0390912E033F
:10377000909328038093270387E090E00E947927A5
:10378000FC0180912D0390912E0320912B03309109
:103790002C0349ED52E0518340831282348323830A
:1037A00096838583F0932A03E093290326960FB628
:1037B000F894DEBF0FBECDBFDF91CF911F910F9167
:1037C0000895CF93DF93C3E3D3E0888199810E946A
:1037D000BA3119821882109232031092310310927A
:1037E000360310923503109238031092370310926B
:1037F0003A031092390310923C0310923B038DE37D
:1038000093E00E94EF1A86EA95E00E947A2C8AE9FA
:1038100095E00E947A2C8EE895E00E947A2C82EB4B
:1038200095E00E947A2C8EEB95E00E947A2C8AEC2F
:1038300095E0DF91CF910C947A2CCF93DF93EC013C
:103840008E81882331F187EE95E00E94C524892B73
:1038500081F087EE95E00E94D524E0913706F09143
:1038600038060190F081E02D682F87E396E00995F6
:10387000EACF87E396E00E947B25892B71F187E3ED
:1038800096E00E949425682F87EE95E00E949B2485
:10389000F0CF87E396E00E947B251816190654F4B2
:1038A00087E396E09B838A830E949425BC01CE0126
:1038B0000E94321687EE95E00E94C524181619065C
:1038C00064F487EE95E09B838A830E94D524BC0133
:1038D000CE01DF91CF910C943216DF91CF910895F4
:1038E000CF93CFB7F8948091D205811116C061E0D3
:1038F00081E10E943C2461E081E10E9403248CB5B7
:1039000080618CBD8CB580648CBD61E08FE00E94CD
:10391000032461E080E10E9403248091D2058F5F3F
:103920008093D205CFBFCF910895CB010C9427355A
:10393000CB01642F0C9439358EBD00000DB407FE09
:10394000FDCF8EB508958F929F92AF92BF92CF9286
:10395000DF92EF92FF920F931F93CF93DF93EC01CF
:103960006B015A0149017C0184E0E80EF11C6EE212
:1039700071E0C7010E94E82CD982C882BB82AA826A
:103980009B868A86B801C701DF91CF911F910F9165
:10399000FF90EF90DF90CF90BF90AF909F908F906F
:1039A0000C94FE2CCF93DF93EC0161E08FE00E943A
:1039B000032460E08EE00E94032461E080E10E9425
:1039C000032461E088810E94032461E08A810E94CF
:1039D00003240E94701C8CB5837F8CBD8CB58C7FBA
:1039E0008CBD8DB581608DBD8CB58F7D8CBD60E04B
:1039F0008A810E943C2462E370E080E090E00E94B3
:103A0000172361E08A810E943C2462E370E080E039
:103A100090E0DF91CF910C9417236F927F928F9259
:103A20009F92AF92BF92CF92DF92EF92FF920F934D
:103A30001F93CF93DF93EC01882777FD8095982F14
:103A40000E94BF2F9B01AC0160E070E080E89FE323
:103A50000E94242F20E030E04AE754E40E946F30B7
:103A60004B015C0101E010E077247A94700EB801FC
:103A7000882777FD8095982F0E94BF2F9B01AC016E
:103A80000E94BC2E20E030E040E85DE30E946F30F1
:103A90009B01AC01C501B4010E94242F6B017C0184
:103AA00020E030E048EC51E40E94202F1816CCF0C2
:103AB000C701B6010E948C2F662E7727882777FDD5
:103AC0008095982F0E94BF2F9B01AC01C701B601C2
:103AD0000E94BB2E20E030E0A9010E94202F882305
:103AE00041F00F5F1F4F0930110509F0BDCF48E0CD
:103AF000742E662D70E080E090E00E94BF2F2DECC8
:103B00003CEC4CE45FE30E946F300E94912F862FC3
:103B100090E08C010150110917FD8C011595079556
:103B20006150E62EE01A661A8FEF860DF12CA8017F
:103B30004E0D5F1D282F30E0421753070CF478C05C
:103B4000823008F475C060E088810E943C2461E006
:103B500070E080E090E00E94172382E00E949C1CAD
:103B60008AE20E949C1C872D0E949C1C61E070E0F0
:103B700080E090E00E94172361E088810E943C244D
:103B800061E070E080E090E00E94172360E08881AF
:103B90000E943C2461E070E080E090E00E941723E6
:103BA00082E00E949C1C89E20E949C1C01500068DB
:103BB000C701019723E0880F991F2A95E1F7802B11
:103BC0000E949C1C61E070E080E090E00E9417235E
:103BD00061E088810E943C2461E070E080E090E038
:103BE0000E94172360E088810E943C2461E070E01D
:103BF00080E090E00E94172382E00E949C1C88E2F3
:103C00000E949C1C8EEF860D0E949C1C61E070E05F
:103C100080E090E00E94172361E088810E943C24AC
:103C200061E070E080E090E00E94172381E001C035
:103C300080E0DF91CF911F910F91FF90EF90DF9087
:103C4000CF90BF90AF909F908F907F906F9008958E
:103C5000EF92FF921F93CF93DF9300D0CDB7DEB7E3
:103C60007C01162F60E0FC01808129834A830E9439
:103C70003C2485E00E949C1C812F0E949C1C298171
:103C8000822F0E949C1C4A81842F0E949C1C61E010
:103C9000F70180810F900F90DF91CF911F91FF90DE
:103CA000EF900C943C241F93CF93DF93EC01662399
:103CB00011F013E001C010E060E088810E943C2414
:103CC00085E00E949C1C8BE20E949C1C83E00E9469
:103CD0009C1C812F0E949C1C61E08881DF91CF9108
:103CE0001F910C943C241F93CF93DF93EC0162301F
:103CF000710571F02CF46130710569F410E00BC0AE
:103D00006430710539F06830710529F413E003C09F
:103D100011E001C012E060E088810E943C2485E04F
:103D20000E949C1C8FE00E949C1C83E00E949C1CB3
:103D3000812F0E949C1C61E08881DF91CF911F91AF
:103D40000C943C241F93CF93DF93EC0162307105F8
:103D500089F044F46115710589F06130710579F4D9
:103D600010E00DC06330710539F06430710539F42D
:103D700010E405C010E203C010E601C010E860E0E6
:103D800088810E943C2485E00E949C1C8FE00E9458
:103D90009C1C80EE0E949C1C812F0E949C1C61E058
:103DA0008881DF91CF911F910C943C24CF93DF93B6
:103DB000EC0160E088810E943C2481E80E949C1C08
:103DC00061E08881DF91CF910C943C24CF93DF9305
:103DD000EC0160E088810E943C2482E80E949C1CE7
:103DE00061E08881DF91CF910C943C24CF93DF93E5
:103DF000EC0160E088810E943C2483E80E949C1CC6
:103E000061E08881DF91CF910C943C244F925F92C6
:103E10007F928F929F92AF92BF92CF92DF92EF925A
:103E2000FF920F931F93CF93DF9300D0CDB7DEB7F0
:103E30008C015B01790160E0FC01808149835A8338
:103E40000E943C2480E90E949C1C8FEF0E949C1CD5
:103E5000C82ED12C8FEF0E949C1C882E8FEF0E94C1
:103E60009C1C8FEF0E949C1C8FEF0E949C1C8F70EB
:103E7000982E4981742E442E5A81552E842D8719EF
:103E8000891538F48FEF0E949C1CF20181932F0159
:103E9000F5CF61E0F80180810E943C24F501908219
:103EA000882D807E90E055E0969587955A95E1F7AC
:103EB00063E0CC0CDD1C6A95E1F78C0D9D1DF701CC
:103EC000918380830F900F90DF91CF911F910F917D
:103ED000FF90EF90DF90CF90BF90AF909F908F902A
:103EE0007F905F904F9008954F925F927F928F9254
:103EF0009F92AF92BF92CF92DF92EF92FF920F9379
:103F00001F93CF93DF931F92CDB7DEB78C016B0168
:103F1000A42E790160E0FC01808159830E943C2439
:103F200084E90E949C1C8FEF0E949C1C982E8FEFAE
:103F30000E949C1C882E8FEF0E949C1C8FEF0E9479
:103F40009C1C8FEF0E949C1C8F70B82E7A2C4A2CE0
:103F50005981552E842D87198B1538F48FEF0E94C7
:103F60009C1CF20181932F01F5CF61E0F801808163
:103F70000E943C24F601B0828294869477E08722E6
:103F8000F8E09F9EA0011124480D511DF7015183B7
:103F900040830F90DF91CF911F910F91FF90EF9091
:103FA000DF90CF90BF90AF909F908F907F905F9069
:103FB0004F9008951F93CF93DF93EC0160E08881C9
:103FC0000E943C2480EA0E949C1C8FEF0E949C1C53
:103FD000182F61E088810E943C24812FDF91CF91CE
:103FE0001F9108950E94DA1F82FF07C084FF08C056
:103FF00086FF09C08FEF9FEF089580E090E008955D
:1040000081E090E0089582E090E008951F93CF93BF
:10401000DF93EC01162F60E088810E943C2483E04E
:104020000E949C1C812F0E949C1C8FEF0E949C1C54
:10403000182F61E088810E943C24812FDF91CF916D
:104040001F910895EF92FF921F93CF93DF9300D0BB
:10405000CDB7DEB77C01162F60E0FC0180812A839A
:1040600049830E943C2461E070E080E090E00E947F
:10407000172382E00E949C1C812F0E949C1C498176
:10408000842F0E949C1C2A81822F0E949C1C61E02C
:1040900070E080E090E00E94172361E0F7018081EA
:1040A0000E943C2461E070E080E090E00F900F906F
:1040B000DF91CF911F91FF90EF900C941723EF9217
:1040C000FF920F931F93CF93DF93EC017A018B0143
:1040D000E3E015950795EA95E1F7162F1295110F74
:1040E000107E212F402F60E070E00E942220212FBF
:1040F000402F68E070E0CE010E9422208701F3E0AB
:1041000015950795FA95E1F7E294EE0CA0EEEA22F8
:104110002E2D402F64E070E0CE010E9422202E2D33
:10412000402F60E170E0CE010E9422202E2D402F12
:1041300064E170E0CE010E9422202E2D402F68E124
:1041400070E0CE010E94222020EE4FE160E270E09C
:10415000CE010E94222020EE4FE164E270E0CE0109
:10416000DF91CF911F910F91FF90EF900C9422203F
:10417000CF93DF93EC0120E040E060E270E00E942A
:10418000222020E040E064E270E0CE01DF91CF9198
:104190000C942220CF92DF92EF92FF920F931F9305
:1041A000CF93DF9300D0CDB7DEB78C01F62E6A0136
:1041B00060E0FC01808129833A830E943C2480E4F2
:1041C0000E949C1CC601B3E096958795BA95E1F7CD
:1041D0000E949C1C8C2D8295880F807E0E949C1CC6
:1041E00080E00E949C1C80E00E949C1C8F2D0E94FD
:1041F0009C1C2981E22EC22E3A81D32E8C2D8E1941
:104200008F1530F4F60181916F010E949C1CF6CF4E
:1042100061E0F80180810F900F90DF91CF911F91A5
:104220000F91FF90EF90DF90CF900C943C24CF92B1
:10423000DF92EF92FF920F931F93CF93DF9300D003
:10424000CDB7DEB78C01F62E6A0160E0FC018081FB
:1042500029833A830E943C2482E40E949C1CC6016C
:1042600023E0969587952A95E1F70E949C1C8C2D5A
:104270008295880F807E0E949C1C80E00E949C1C7E
:1042800080E00E949C1C8F2D0E949C1C2981E22EA4
:10429000C22E3A81D32E8C2D8E198F1530F4F60153
:1042A00081916F010E949C1CF6CF61E0F801808132
:1042B0000F900F90DF91CF911F910F91FF90EF9092
:1042C000DF90CF900C943C24CF92DF92EF92FF923C
:1042D0000F931F93CF93DF9300D0CDB7DEB78C0140
:1042E000F62E6A0160E0FC01808129833A830E94F6
:1042F0003C2484E40E949C1CC60133E0969587957B
:104300003A95E1F70E949C1C8C2D8295880F807E47
:104310000E949C1C80E00E949C1C80E00E949C1CCF
:104320008F2D0E949C1C2981E22EC22E3A81D32E11
:104330008C2D8E198F1530F4F60181916F010E943A
:104340009C1CF6CF61E0F80180810F900F90DF9107
:10435000CF911F910F91FF90EF90DF90CF900C9431
:104360003C24FC011786128611861086178216825D
:10437000158214821382089508951F920F920FB62A
:104380000F9211242F933F934F935F936F937F93DB
:104390008F939F93AF93BF93EF93FF938091D40537
:1043A0009091D505892B29F0E091D405F091D505A0
:1043B0000995FF91EF91BF91AF919F918F917F915F
:1043C0006F915F914F913F912F910F900FBE0F9082
:1043D0001F9018951F920F920FB60F9211242F93D2
:1043E0003F934F935F936F937F938F939F93AF937D
:1043F000BF93EF93FF938091D6059091D705892BBA
:1044000029F0E091D605F091D7050995FF91EF913C
:10441000BF91AF919F918F917F916F915F914F91DC
:104420003F912F910F900FBE0F901F9018951F92E4
:104430000F920FB60F9211242F933F934F935F93D8
:104440006F937F938F939F93AF93BF93EF93FF935C
:104450008091D8059091D905892B29F0E091D80554
:10446000F091D9050995FF91EF91BF91AF919F917F
:104470008F917F916F915F914F913F912F910F900D
:104480000FBE0F901F9018951F920F920FB60F92AC
:1044900011242F933F934F935F936F937F938F9349
:1044A0009F93AF93BF93EF93FF938091DA05909121
:1044B000DB05892B29F0E091DA05F091DB05099500
:1044C000FF91EF91BF91AF919F918F917F916F91EC
:1044D0005F914F913F912F910F900FBE0F901F90C2
:1044E00018951F920F920FB60F9211242F933F939E
:1044F0004F935F936F937F938F939F93AF93BF93EC
:10450000EF93FF938091DC059091DD05892B29F0D5
:10451000E091DC05F091DD050995FF91EF91BF91E8
:10452000AF919F918F917F916F915F914F913F914B
:104530002F910F900FBE0F901F9018951F920F9202
:104540000FB60F9211242F933F938F939F93AF93A6
:10455000BF938091DF059091E005A091E105B091B6
:10456000E2053091DE0523E0230F2D3720F401967C
:10457000A11DB11D05C026E8230F0296A11DB11D86
:104580002093DE058093DF059093E005A093E1057D
:10459000B093E2058091E3059091E405A091E505D3
:1045A000B091E6050196A11DB11D8093E30590939E
:1045B000E405A093E505B093E605BF91AF919F9107
:1045C0008F913F912F910F900FBE0F901F901895D4
:1045D0002FB7F8946091DF057091E0058091E105B7
:1045E0009091E2052FBF08953FB7F8948091E305BD
:1045F0009091E405A091E505B091E60526B5A89B4C
:1046000005C02F3F19F00196A11DB11D3FBF6627C0
:10461000782F892F9A2F620F711D811D911D42E005
:10462000660F771F881F991F4A95D1F70895CF927B
:10463000DF92EF92FF92CF93DF936B017C010E9498
:10464000F422EB01C114D104E104F10489F00E94C9
:10465000772D0E94F4226C1B7D0B683E734090F313
:1046600081E0C81AD108E108F108C851DC4FEACF4F
:10467000DF91CF91FF90EF90DF90CF9008957894E5
:1046800084B5826084BD84B5816084BD85B5826057
:1046900085BD85B5816085BDEEE6F0E080818160F5
:1046A0008083E1E8F0E010828081826080838081F5
:1046B00081608083E0E8F0E0808181608083E1E9CF
:1046C000F0E0808182608083808181608083E0E986
:1046D000F0E0808181608083E1ECF0E080818460A3
:1046E0008083808182608083808181608083E3EC2D
:1046F000F0E0808181608083E0ECF0E08081826086
:104700008083E2ECF0E0808181608083EAE7F0E082
:1047100080818460808380818260808380818160E9
:1047200080838081806880830895823108F082517F
:10473000E82FF0E0EB55FD4FE49180917B00E3FB27
:10474000222720F930E095E0220F331F9A95E1F7F8
:104750008F7D822B80937B00E77080910D0120E498
:10476000829FC0011124E82BE0937C0080917A00A5
:10477000806480937A0080917A0086FDFCCF8091DE
:1047800078002091790090E0922B089590E0FC0150
:104790003197EF30F105B0F5E459FF4F0C941C311F
:1047A000809180008F7703C0809180008F7D8093FF
:1047B0008000089580918000877FF9CF84B58F773E
:1047C00002C084B58F7D84BD0895809190008F775D
:1047D00007C0809190008F7D03C080919000877FFB
:1047E0008093900008958091C0008F7703C08091DE
:1047F000C0008F7D8093C00008958091C200877FA4
:104800008093C2000895CF93DF9390E0FC01E153C1
:10481000FD4F2491FC01E351FD4F8491882349F120
:1048200090E0880F991FFC01E95DFC4FA591B491C0
:10483000875E9C4FFC01C591D4919FB7611108C060
:10484000F8948C91209582238C93888182230AC0CE
:10485000623051F4F8948C91322F309583238C93ED
:104860008881822B888304C0F8948C91822B8C934E
:104870009FBFDF91CF9108950F931F93CF93DF9345
:104880001F92CDB7DEB7282F30E0F901EF54FD4F6E
:104890008491F901E153FD4F1491F901E351FD4F6A
:1048A00004910023C9F0882321F069830E94C62364
:1048B0006981E02FF0E0EE0FFF1FE75EFC4FA5914E
:1048C000B4919FB7F8948C91611103C01095812326
:1048D00001C0812B8C939FBF0F90DF91CF911F91CF
:1048E0000F910895CF93DF93282F30E0F901EF5413
:1048F000FD4F8491F901E153FD4FD491F901E3514A
:10490000FD4FC491CC2391F081110E94C623EC2F5E
:10491000F0E0EE0FFF1FE55FFC4FA591B4912C91E5
:104920002D2381E090E021F480E002C080E090E05F
:10493000DF91CF910895CF93DF931F92CDB7DEB76C
:104940006983DC01ED91FC910280F381E02D41E06F
:1049500050E0BE016F5F7F4F09950F90DF91CF91BF
:104960000895CF93DF93EC018C859D8597FF05C05B
:1049700082E00E94A7299D878C878C859D85DF9189
:10498000CF91089583E00C94FC2BFC0184859585E0
:1049900097FD06C082E00E944F2990E0019608959D
:1049A00082E00E944F2990E00895FC01848595855E
:1049B00097FD05C02FEF3FEF35872487089582E0EC
:1049C0000C94A729CF93DF93EC01809115018823E4
:1049D00031F083E00E94D8291816190634F081E0DE
:1049E00090E09B838A8380E090E0DF91CF910895EF
:1049F000FC0120812E5F208342E450E065E373E0F8
:104A000080E80C94732AFC0181819081913A59F4D9
:104A1000813209F03CC047E050E06EE071E080E098
:104A20000E94732A43C0913291F5803239F467E0D5
:104A300070E08EE091E00E94A42A06C0823209F064
:104A400035C082818093150180910E0190910F01F4
:104A5000A0911001B0911101803B9440A105B105D6
:104A6000C1F48091150180FD14C087E797E790930A
:104A70000108809300082BE088E190E00FB6F894DD
:104A8000A895809360000FBE209360000FC080E067
:104A9000089588E10FB6F89480936000109260004A
:104AA0000FBEA895109201081092000881E00895A9
:104AB0002FEF3FEFFC013587248708951092EA0518
:104AC0001092E90588EE93E0A0E0B0E08093EB055A
:104AD0009093EC05A093ED05B093EE0585EF92E081
:104AE0009093E8058093E7058FEF9FEF9093F4058F
:104AF0008093F3050895FC01818D228D90E0805C08
:104B00009F4F821B91098F7399270895FC01918D06
:104B1000828D981731F0828DE80FF11D858D90E020
:104B200008958FEF9FEF0895FC01918D828D981766
:104B300061F0828DDF01A80FB11D5D968C91928D81
:104B40009F5F9F73928F90E008958FEF9FEF08957E
:104B500088E197E2892B49F080E090E0892B29F0E9
:104B60000E94182781110C9400000895FC01848D87
:104B7000DF01A80FB11DA35ABF4F2C91848D90E087
:104B800001968F739927848FA689B7892C93A08962
:104B9000B1898C9180648C93938D848D981306C019
:104BA0000288F389E02D80818F7D80830895CF93E3
:104BB000DF93EC01888D8823C9F0EA89FB89808125
:104BC00085FD05C0A889B9898C9186FD0FC00FB6F7
:104BD00007FCF5CF808185FFF2CFA889B9898C9138
:104BE00085FFEDCFCE010E94B625E7CFDF91CF91B3
:104BF0000895CF92DF92FF920F931F93CF93DF938D
:104C00001F92CDB7DEB76C01DC015B969C915B9780
:104C10005C968C915C97981307C05096ED91FC912F
:104C20005197808185FD32C0F601038D10E00F5F42
:104C30001F4F0F731127F02EF601848DF81211C04B
:104C40000FB607FCF9CFD6015096ED91FC91519724
:104C5000808185FFF1CFC60169830E94B6256981F5
:104C6000EBCF838DE80FF11DE35AFF4F6083D60130
:104C70005B960C935B975296ED91FC9153978081D4
:104C80008062808381E058968C930DC0D601569641
:104C9000ED91FC91579760835096ED91FC9151975F
:104CA00080818064808381E090E00F90DF91CF91DC
:104CB0001F910F91FF90DF90CF900895BF92CF92F8
:104CC000DF92EF92FF92CF93DF93EC016A017B01B9
:104CD000B22EE889F98982E08083411581EE580778
:104CE00061057105A1F060E079E08DE390E0A70136
:104CF00096010E94FA302150310941095109569517
:104D0000479537952795211580E1380798F0E88970
:104D1000F989108260E874E88EE190E0A7019601BD
:104D20000E94FA30215031094109510956954795A1
:104D300037952795EC85FD853083EE85FF852083AB
:104D4000188EEC89FD89B082EA89FB8980818061B7
:104D50008083EA89FB89808188608083EA89FB8976
:104D6000808180688083EA89FB8980818F7D808350
:104D7000DF91CF91FF90EF90DF90CF90BF9008959B
:104D80001F920F920FB60F9211242F938F939F9320
:104D9000EF93FF93E0914706F09148068081E09100
:104DA0004D06F0914E0682FD12C090818091500612
:104DB0008F5F8F7320915106821751F0E09150065A
:104DC000F0E0E95CF94F958F8093500601C0808137
:104DD000FF91EF919F918F912F910F900FBE0F90A8
:104DE0001F9018951F920F920FB60F9211242F93B8
:104DF0003F934F935F936F937F938F939F93AF9363
:104E0000BF93EF93FF9387E396E00E94B625FF914F
:104E1000EF91BF91AF919F918F917F916F915F9132
:104E20004F913F912F910F900FBE0F901F901895AB
:104E300087E396E00E947B2521E0892B09F420E09E
:104E4000822F089510923A061092390688EE93E068
:104E5000A0E0B0E080933B0690933C06A0933D0613
:104E6000B0933E0685E093E0909338068093370632
:104E70008DEC90E090934406809343068CEC90E098
:104E8000909346068093450688EC90E09093480600
:104E90008093470689EC90E090934A0680934906F8
:104EA0008AEC90E090934C0680934B068EEC90E059
:104EB00090934E0680934D06109250061092510624
:104EC0001092520610925306089508950E943F23AF
:104ED0000E94652784ED96E00E945C2C0E94BE1320
:104EE000C8EAD5E20E94FF192097E1F30E94A825A5
:104EF000F9CF0C942231CF92DF92EF92FF920F9371
:104F00001F93CF93DF936C017A01EB01E60EF71E3E
:104F100000E010E0CE15DF0561F06991D601ED915A
:104F2000FC910190F081E02DC6010995080F191F31
:104F3000F1CFC801DF91CF911F910F91FF90EF90BA
:104F4000DF90CF900895EF92FF920F931F93CF932E
:104F5000DF938C01FB01C0E0D0E064917F018FEF13
:104F6000E81AF80A662361F0D801ED91FC910190EE
:104F7000F081E02DC8010995C80FD91FF701EDCFC9
:104F8000CE01DF91CF911F910F91FF90EF90089587
:104F9000DC01ED91FC91DB0114964D915C9115972C
:104FA0006D917C910280F381E02D09940C94F803BB
:104FB000DC01ED91FC910190F081E02D09940F93BB
:104FC0001F93CF93DF93EC016DE00E94D8278C01F3
:104FD0006AE0CE010E94D827800F911FDF91CF9108
:104FE0001F910F9108950F931F93CF93DF93EC01BF
:104FF0000E94A3278C01CE010E94DF27800F911F02
:10500000DF91CF911F910F9108950F931F93CF932D
:10501000DF93EC010E94F8038C01CE010E94DF2790
:10502000800F911FDF91CF911F910F9108958F9263
:105030009F92AF92BF92CF92DF92EF92FF920F9327
:105040001F93CF93DF93CDB7DEB7A1970FB6F89438
:10505000DEBF0FBECDBF7C01C42EE52FCB01D22E0B
:1050600019A221E02D1510F02AE0D22E8E010F5D3D
:105070001F4F8D2C912CA12CB12C6C2D7E2FA501B6
:1050800094010E94FA308C2DD29E80191124015077
:1050900011098A3014F4805D01C0895CF8018083B5
:1050A000211531054105510521F0C22EE32FCA011A
:1050B000E4CFB801C7010E94F803A1960FB6F89497
:1050C000DEBF0FBECDBFDF91CF911F910F91FF903B
:1050D000EF90DF90CF90BF90AF909F908F9008950A
:1050E000CF92DF92EF92FF920F931F93CF93DF93B4
:1050F000EC016A017B012115310579F4E881F98120
:105100000190F081E02D642FDF91CF911F910F91DD
:10511000FF90EF90DF90CF9009942A303105E9F4A9
:1051200077FF1AC06DE20E94D8278C0144275527CB
:10513000BA014C195D096E097F092AE0CE010E946F
:105140001728800F911FDF91CF911F910F91FF9032
:10515000EF90DF90CF9008952AE0B701A601CE012D
:10516000DF91CF911F910F91FF90EF90DF90CF9043
:105170000C9417289A01AB01662757FD6095762F8E
:105180000C9470282115310541F4DC01ED91FC915E
:105190000190F081E02D642F09940C9417289A0156
:1051A000462F50E060E070E00C94C2284091D80691
:1051B0005091D9062091D6063091D7064217530751
:1051C000B4F49091E8009570E1F39091E80092FDBD
:1051D00019C08093F1008091D8069091D90601966C
:1051E0008F739927892B19F48EEF8093E8008091B3
:1051F000D8069091D90601969093D9068093D80647
:1052000081E0089580E00895CF92DF92FF920F939E
:105210001F93CF93DF931F92CDB7DEB7082F162FC2
:10522000862F880F8E5F99830E94D62883E00E9484
:10523000D628F02EC02E9981D92E8C2D8F1981174A
:1052400078F4F60184910E94D628082F80E00E940D
:10525000D6288023FFEFCF1ADF0A8111EECF01C0DD
:1052600081E00F90DF91CF911F910F91FF90DF9020
:10527000CF900895615030F02091F100FC0120831F
:105280000196F8CF289884E68093DB0608952FB71F
:10529000FC012083F89467706093E9000895CF9330
:1052A000DF931F92CDB7DEB7682FCE0101960E9423
:1052B00047298091F20099819FBF0F90DF91CF9194
:1052C0000895FF920F931F93CF93DF9300D0CDB734
:1052D000DEB7F62E8A019091DA06992311F057FF76
:1052E00003C08FEF9FEF2BC0682FCE0101967A830A
:1052F0000E9447298091F20090E0A8017A818017EE
:1053000091070CF4AC01EF2DF72FF40E84E6FE1696
:1053100039F028988093DB069091F1009193F7CFB4
:105320004115510521F08091F200882321F08981F7
:105330008FBFCA0104C08BE68093E800F8CF0F90BE
:105340000F90DF91CF911F910F91FF900895CF9310
:10535000DF931F92CDB7DEB741E050E0BE016F5F33
:105360007F4F0E946129019719F4898190E002C062
:105370008FEF9FEF0F90DF91CF910895CF93DF9341
:105380001F92CDB7DEB7682FCE0101960E94472944
:105390009091E800892F807295FF04C09091F200EF
:1053A00080E4891B99819FBF0F90DF91CF91089571
:1053B0006F927F928F929F92AF92BF92CF92DF9225
:1053C000EF92FF920F931F93CF93DF931F92CDB76E
:1053D000DEB7782E7B01C42EB52E8091DA068823A5
:1053E00069F0042F152F8AEFD82E872D8072982E02
:1053F0009AE3A92E872D8074882E11C08FEF9FEF1E
:1054000057C0872D0E94BE29682E81110CC0DA94E6
:10541000A9F361E070E080E090E00E94172301159D
:10542000110579F73BC0282F30E0021713070CF461
:10543000602E672DCE0101960E9447298091E800D9
:1054400085FF29C0262D30E0021B130B992039F06F
:105450006A948FEF6816B1F01092F100F9CFF7015E
:10546000862D77FE07C0815058F094919093F100FB
:105470003196F9CF815020F091919093F100FACFBD
:10548000E20EF31E8091E80085FF0FC001151105A3
:1054900011F481100AC089818FBFC1CF5D9884E665
:1054A0008093DC068C2D9B2D03C0A092E800F3CFE7
:1054B0000F90DF91CF911F910F91FF90EF90DF90B0
:1054C000CF90BF90AF909F908F907F906F900895F6
:1054D0001092E9001092D9061092D8069093D70640
:1054E0008093D6060895CF92DF92FF920F931F9379
:1054F000CF93DF9300D0CDB7DEB7F82E8A016B01D2
:1055000001151105B1F0F601F7FE02C0849101C04A
:10551000808149835A830E94D62801501109FFEFE8
:10552000CF1ADF0A49815A818111EACF8FEF9FEFAD
:1055300001C0CA010F900F90DF91CF911F910F9181
:10554000FF90DF90CF9008951F93CF93DF931F922A
:10555000CDB7DEB7162F2091E80022FFFCCF612FD8
:1055600079830E943A298BEF8093E800812F79811B
:10557000972F0F90DF91CF911F910895CF93DF93D5
:105580001F92CDB7DEB71982CE0101960E94F82492
:10559000CE0101960E94962D898190E00F90DF91B7
:1055A000CF9108951F920F920FB60F921124EF9290
:1055B000FF920F931F932F933F934F935F936F939C
:1055C0007F938F939F93AF93BF93EF93FF93CF936B
:1055D000DF93CDB7DEB76297DEBFCDBF1092E90093
:1055E0008091E80083FFEBC068E0CE010A960E943C
:1055F0003A2982EF8093E8009A8597FF05C0809151
:10560000E80080FFFCCF03C08EEF8093E800892F75
:10561000807609F0B9C08B85811105C01092F10028
:105620001092F100C5C0282F2D7F213009F4C0C091
:10563000853049F48091E80080FFFCCF8C8580683C
:105640008093E300B5C0863009F076C02D85E888E8
:10565000F988223071F580E090E02A8B0E94682A58
:105660000E94BE2A99E08E010F5F1F4FF801392F6B
:1056700011923A95E9F799832A892A8391E09E83CA
:1056800090E898879AEF99872091D8063091D906AB
:10569000275F3F4F3C832B838D83C7010E94682A7D
:1056A00049E050E0B80180E00E94732A0E94BE2ABF
:1056B0007FC0C7012A8B0E94682A2A89223241F4BE
:1056C00082E290E00E94A12D892B09F071C074C084
:1056D000213069F488899989089711F42093D506B7
:1056E0008091D506811118C06EE873E01AC023308E
:1056F00009F062C08C85882391F0823021F46DE03E
:105700008CEA93E006C0813009F056C06BE080EA75
:1057100093E00E9404294AC06CE773E002C06AEB80
:1057200073E06115710509F447C0FB01449150E035
:1057300080E80E94732A3CC0873009F43DC088305D
:1057400021F481E08093F10033C0893089F59370B2
:1057500099F5E8E7F3E081E021E096E38093E90042
:105760002093EB0034913093EC009093ED008F5F29
:105770003196853099F78EE78093EA001092EA001F
:105780008C858093DA0614C0888999890E94682ADA
:105790008E85811105C0CE010A960E94032506C0A0
:1057A000823051F4CE010A960E94C92D882321F03F
:1057B0008EEF8093E80003C081E28093EB00629655
:1057C0000FB6F894DEBF0FBECDBFDF91CF91FF9132
:1057D000EF91BF91AF919F918F917F916F915F9169
:1057E0004F913F912F911F910F91FF90EF900F904C
:1057F0000FBE0F901F9018958093E9008091F200E2
:10580000882319F08AE38093E80008951F920F928D
:105810000FB60F9211242F933F934F935F936F9383
:105820007F938F939F93AF93BF93EF93FF93809159
:10583000E1001092E10083FF0FC01092E90091E0B7
:105840009093EB001092EC0092E39093ED00109295
:10585000DA0698E09093F00082FF1DC083E00E947A
:10586000FC2B8091DC06882339F08091DC06815086
:105870008093DC06882369F08091DB06882359F049
:105880008091DB0681508093DB06811104C0289A49
:1058900002C05D9AF1CFFF91EF91BF91AF919F91BF
:1058A0008F917F916F915F914F913F912F910F90C9
:1058B0000FBE0F901F9018951092DA0681E080932A
:1058C000D70080EA8093D80082E189BD09B400FE48
:1058D000FDCF61E070E080E090E00E94172380E956
:1058E0008093D8008CE08093E2001092E000559AFB
:1058F000209A0895FC01808191810C94BA31CF9354
:10590000DF93EC0188819981009711F00E94BA31F0
:10591000198218821D821C821B821A82DF91CF910C
:1059200008950F931F93CF93DF93EC018B016F5F6B
:105930007F4F888199810E944932009731F0998385
:1059400088831B830A8381E001C080E0DF91CF91CF
:105950001F910F910895CF93DF93EC018881998176
:10596000892B29F08A819B818617970760F4CE01E5
:105970000E94912C882341F08C819D81892B19F400
:10598000E881F981108281E0DF91CF910895EF9253
:10599000FF920F931F93CF93DF93EC017B018A015A
:1059A000BA010E94AB2C811104C0CE010E947F2C51
:1059B00007C01D830C83B701888199810E941C3325
:1059C000CE01DF91CF911F910F91FF90EF9008953D
:1059D000FC011182108213821282158214826115D9
:1059E000710559F0FB0101900020E9F7AF0141502A
:1059F0005109461B570B0C94C72C0895CF93DF9386
:105A0000EC01FB018617970761F0608171816115D8
:105A1000710529F0448155810E94C72C02C00E9463
:105A20007F2CCE01DF91CF910895FC01118210826D
:105A300013821282158214820C94FE2CEF92FF9234
:105A40000F931F93CF93DF93EC017B010C811D819A
:105A50006115710511F480E016C04115510591F0F2
:105A6000040F151FB8010E94AB2C8823A1F32881D5
:105A700039818C819D81B701820F931F0E941C3355
:105A80001D830C8381E0DF91CF911F910F91FF90D7
:105A9000EF900895CF93DF93EC01FB014481558192
:105AA000608171810E941E2D811103C0CE010E9470
:105AB0007F2CCE01DF91CF910895CF93DF93EC013E
:105AC0006115710569F0FB0101900020E9F7AF0154
:105AD00041505109461B570B0E941E2D811103C0D6
